:100000000C9454050C947C050C947C050C947C0594
:100010000C947C050C947C050C947C050C947C055C
:100020000C947C050C947C050C947C050C947C054C
:100030000C947C050C947C050C947C050C947C053C
:100040000C94DA180C947C050C944A190C9424191D
:100050000C947C050C947C050C947C050C947C051C
:100060000C947C190C947C0500000000003E5B4F52
:100070005B3E3E6B4F6B3E1C3E7C3E1C183C7E3C08
:10008000181C577D571C1C5E7F5E1C00183C180016
:10009000FFE7C3E7FF0018241800FFE7DBE7FF30A6
:1000A000483A060E2629792926407F050507407F14
:1000B00005253F5A3CE73C5A7F3E1C1C08081C1C87
:1000C0003E7F14227F22145F5F005F5F06097F017D
:1000D0007F006689956A606060606094A2FFA29468
:1000E00008047E040810207E201008082A1C080836
:1000F0001C2A08081E101010100C1E0C1E0C303884
:100100003E3830060E3E0E06000000000000005F84
:1001100000000007000700147F147F14242A7F2AA0
:100120001223130864623649562050000807030062
:10013000001C2241000041221C002A1C7F1C2A08AE
:10014000083E080800807030000808080808000011
:1001500060600020100804023E5149453E00427F85
:10016000400072494949462141494D331814127FD4
:100170001027454545393C4A494931412111090774
:100180003649494936464949291E000014000000F5
:1001900040340000000814224114141414140041C7
:1001A00022140802015909063E415D594E7C121184
:1001B000127C7F494949363E414141227F414141BC
:1001C0003E7F494949417F090909013E4141517337
:1001D0007F0808087F00417F41002040413F017FA8
:1001E000081422417F404040407F021C027F7F0470
:1001F00008107F3E4141413E7F090909063E4151B9
:10020000215E7F09192946264949493203017F01A8
:10021000033F4040403F1F2040201F3F4038403FA9
:10022000631408146303047804036159494D4300BF
:100230007F4141410204081020004141417F0402F6
:10024000010204404040404000030708002054548D
:1002500078407F284444383844444428384444286B
:100260007F385454541800087E090218A4A49C78BE
:100270007F0804047800447D40002040403D007F1A
:100280001028440000417F40007C047804787C08FA
:100290000404783844444438FC18242418182424CE
:1002A00018FC7C08040408485454542404043F44B3
:1002B000243C4040207C1C2040201C3C4030403CE2
:1002C00044281028444C9090907C4464544C440042
:1002D00008364100000077000000413608000201A6
:1002E0000204023C2623263C1EA1A161123A404092
:1002F000207A38545455592155557941225454780F
:1003000042215554784020545579400C1E527212A7
:100310003955555559395454545939555454580030
:1003200000457C410002457D420001457C407D1234
:1003300011127DF0282528F07C5455450020545496
:100340007C547C0A097F4932494949323A44444441
:100350003A324A4848303A4141217A3A424020787C
:10036000009DA0A07D3D4242423D3D4040403D3C7D
:1003700024FF2424487E4943662B2FFC2F2BFF09A2
:1003800029F620C0887E0903205454794100004496
:100390007D413048484A32384040227A007A0A0A81
:1003A000727D0D19317D2629292F282629292926F4
:1003B00030484D4020380808080808080808382F39
:1003C00010C8ACBA2F102834FA00007B00000814C3
:1003D0002A142222142A14085500550055AA55AA99
:1003E00055AAFF55FF55FF000000FF00101010FF39
:1003F00000141414FF001010FF00FF1010F010F094
:10040000141414FC001414F700FF0000FF00FF1484
:1004100014F404FC141417101F10101F101F1414D0
:10042000141F00101010F0000000001F101010101A
:100430001F10101010F010000000FF10101010100E
:1004400010101010FF10000000FF140000FF00FF4C
:1004500000001F10170000FC04F4141417101714E8
:1004600014F404F40000FF00F7141414141414140A
:10047000F700F7141414171410101F101F1414147D
:10048000F4141010F010F000001F101F0000001FE7
:1004900014000000FC140000F010F01010FF10FF1A
:1004A000141414FF141010101F00000000F010FFAF
:1004B000FFFFFFFFF0F0F0F0F0FFFFFF0000000093
:1004C00000FFFF0F0F0F0F0F3844443844FC4A4A17
:1004D0004A347E02020606027E027E0263554941CC
:1004E000633844443C04407E201E2006027E020203
:1004F00099A5E7A5991C2A492A1C4C7201724C3017
:100500004A4D4D303048784830BC625A463D3E49ED
:100510004949007E0101017E2A2A2A2A2A44445F91
:10052000444440514A444040444A51400000FF0185
:1005300003E080FF000008086B6B08361236243693
:10054000060F090F060000181800000010100030F8
:1005500040FF0101001F01011E00191D1712003C80
:100560003C3C3C0000000000000103070F1F3F7FE0
:100570000080C0E0F0F8FCFEDB40A4A62EAF200017
:10058000A1C8D300408DAED580A800006000000057
:100590000000000000000000000000E0000000007B
:1005A00000000000000000000001E000000000006A
:1005B000000000000000000001F00000000000004A
:1005C0000000000000000003F00000000000000038
:1005D00000000000000007F0000000000000000024
:1005E000000000000007F80000000000000000000C
:1005F000000000000FF800000003C0007E000001B2
:10060000E0007F0FF800000003C000FE000001E0E2
:1006100000FFEFF800000003C000FE000001E00052
:10062000FFFFF800000003C000F00000000F007F93
:10063000FE7FC0000003C000F00000000F003FFE7E
:100640007FF83FF1FBCFFCFEF3BC3DEFE01FFE7FE8
:10065000FF7FFBFFDFFEFEFFBC3DEFE01FC6FFFF9D
:100660007FFBFFDFFEFEFFBC3DEFE00FE3C7FE7840
:100670007BC3DE1EF0FFBC3DEF0007FF87FC787BED
:10068000C3DE1EF0F83C3DEF0001FFFFF0007BC32E
:10069000C01EF0F03C3DEF0001F37FE03FFBC3CF15
:1006A000FEF0F03C3DEF0003E33F807FFBC3DFFE45
:1006B000F0F03C3DEF0007E73C00787BC3DE1EF026
:1006C000F03C3DEF0007FFBE00787BC3DE1EF0F07C
:1006D0003C3DEF0007FFFE00787BC3DE1EF0F03CE0
:1006E0003DEF000FFFFE007FFBFFDFFEF0F03FFD60
:1006F000EFE00FFFFF007FFBFFDFFEF0F03FFDEFBD
:10070000E00FF9FF003E79F9CF9EF0F01F3DE7E0E2
:100710001FF1FF0000000000000000000000001FAB
:1007200080FF007FFFFFFFFFFFFFFFFFFFE01C00D8
:100730007F007FFFFFFFFEB46D888D18E000001F73
:10074000007FFFFFFFFE95AD7DB577E000000F0055
:100750007FFFFFFFFEA5AD9D8D19E0000006007F25
:10076000FFFFFFFEB5ADEDB57EE00000000000012B
:100770008000000000000000000003800000000076
:10078000000000000007C0000000000000000000A2
:1007900007C00000000000000000000FC0000000C3
:1007A0000000000000001FE000000000000000004A
:1007B000001FE00000000000000000003FE000001B
:1007C000000000000000003FF000000000000000FA
:1007D00000007FF0000000000000001FF87FF00024
:1007E0000000000000003FFE7FF00000000000005D
:1007F000003FFF7FF0000000000000001FFFFBE053
:10080000000000000000000FFFF9FFC00000000022
:1008100000000FFFF9FFF800000000000007FFF1E3
:10082000FFFF00000000000003FC73FFFF800000DA
:1008300000000001FE3FFFFF80000000000000FFFD
:100840001E0FFF000000000000007FFE1FFC0000E4
:1008500000000000003FFFFFF80000000000000063
:100860000FDFFFE0000000000000001F19FFC000C4
:100870000000000000003F3CFF00000000000000FE
:10088000007E7CF800000000000000007FFE7C007D
:1008900000000000000000FFFFFC0000000000005E
:1008A0000000FFFFFE0000000000000000FFFFFE50
:1008B0000000000000000001FFEFFE00000000004B
:1008C000000001FFCFFE0000000000000003FF0752
:1008D000FE0000000000000003FC07FE0000000016
:1008E00000000003F003FE00000000000000018093
:1008F00000FE000000000000000000007E0000007C
:10090000000000000000003E0000000000000000A9
:1009100000000C000000000000078000FC00000345
:10092000C0000000078001FC000003C000000007B9
:100930008001FC000003C0000000078001E000000F
:10094000001E000000078001E00000001E007FE3A1
:10095000F79FF9FDE7787BDFC0FFF7FFBFFDFDFFE5
:10096000787BDFC0FFF7FFBFFDFDFF787BDFC0F0C6
:10097000F787BC3DE1FF787BDE00F0F787BC3DE107
:10098000F0787BDE0000F787803DE1E0787BDE00D9
:100990007FF7879FFDE1E0787BDE00FFF787BFFDF3
:1009A000E1E0787BDE00F0F787BC3DE1E0787BDEBC
:1009B00000F0F787BC3DE1E0787BDE00F0F787BC14
:1009C0003DE1E0787BDE00FFF7FFBFFDE1E07FFB6C
:1009D000DFC0FFF7FFBFFDE1E07FFBDFC07CF3F38B
:1009E0009F3DE1E03E7BCFC0000000000000000022
:1009F000000000FFFFFFFFFFFFFFFFFFFFC0FFFF43
:100A0000FFFFFD68DB111A31C0FFFFFFFFFD2B5A0E
:100A1000FB6AEFC0FFFFFFFFFD4B5B3B1A33C0FFDC
:100A2000FFFFFFFD6B5BDB6AFDC053534431333086
:100A30003620616C6C6F636174696F6E20666169EA
:100A40006C65640000000000240027002A000000FC
:100A50000000250028002B000000000023002600D5
:100A60002900040404040404040402020202020231
:100A70000303030303030102040810204080010262
:100A800004081020010204081020000000080002E1
:100A90000100000304070000000000000000220025
:100AA000FF2100009B1ADB2711241FBECFEFD8E0E7
:100AB000DEBFCDBF13E0A0E0B1E0E6E2F7E502C0A3
:100AC00005900D92A234B107D9F725E0A2E4B3E076
:100AD00001C01D92A43BB207E1F715E0C3E5D5E0E4
:100AE00004C02197FE010E944F2AC235D107C9F7E1
:100AF0000E94BD1B0C94862B0C94000096E0899FED
:100B0000D0011124AF5BBA4F90967C936E935F97A0
:100B100091E091969C939197E091AE05F091AF058D
:100B20009091AD05992339F0309751F0811108C0AB
:100B300080915D050994309719F05C968C91FACFFD
:100B4000089591E09093280480934A041092290418
:100B500010924B040895089508950895833081F00C
:100B600028F4813099F08230A9F008958730A9F0F7
:100B70008830C9F08430B1F4809180008F7D03C04B
:100B8000809180008F7780938000089584B58F775F
:100B900084BD089584B58F7DFBCF8091B0008F77A1
:100BA0008093B00008958091B0008F7DF9CFCF93EE
:100BB000DF93282F30E0F901E657F54F8491F901D2
:100BC000EA58F54FD491F901EE59F54FC491CC2371
:100BD000A1F081110E94AE05EC2FF0E0EE0FFF1F97
:100BE000E85AF54FA591B491EC91ED2381E090E0A6
:100BF00009F480E0DF91CF91089580E090E0FACF92
:100C00001F93CF93DF93282F30E0F901E657F54F7C
:100C10008491F901EA58F54FD491F901EE59F54F55
:100C2000C491CC23A9F0162F81110E94AE05EC2FA0
:100C3000F0E0EE0FFF1FE25BF54FA591B4918FB787
:100C4000F894EC91111108C0D095DE23DC938FBF8E
:100C5000DF91CF911F910895DE2BF8CFCF93DF93D3
:100C600090E0FC01EA58F54F24918E59954FFC0114
:100C700084918823C9F090E0880F991FFC01EC5BF8
:100C8000F54FA591B491FC01E25BF54FC591D4916C
:100C900061110DC09FB7F8948C91209582238C939D
:100CA0008881282328839FBFDF91CF9108956230E8
:100CB00051F49FB7F8943C91822F809583238C93B5
:100CC000E8812E2BEFCF8FB7F894EC912E2B2C933D
:100CD0008FBFEACF3FB7F8948091D2039091D303AE
:100CE000A091D403B091D50326B5A89B05C02F3F92
:100CF00019F00196A11DB11D3FBFBA2FA92F982F42
:100D00008827BC01CD01620F711D811D911D42E03C
:100D1000660F771F881F991F4A95D1F708958F9204
:100D20009F92AF92BF92CF92DF92EF92FF924B01D0
:100D30005C010E946A066B017C010E946A066C19C4
:100D40007D098E099F09683E734081059105A8F3CE
:100D500021E0821A9108A108B10888EEC80E83E04C
:100D6000D81EE11CF11C81149104A104B10429F7DF
:100D7000FF90EF90DF90CF90BF90AF909F908F90BB
:100D800008952FB7F8946091CE037091CF038091AE
:100D9000D0039091D1032FBF08950F931F93CF934A
:100DA000DF93C82FD62F86E0C89FF0011124EF5B98
:100DB000FA4F11A2878D90A181309105F1F058F082
:100DC00082309105F1F1039709F440C0DF91CF9192
:100DD0001F910F9108956623C9F361E070E08C2F95
:100DE0000E947E050E94C1066093990570939A0542
:100DF00080939B0590939C05E9CF0E94C1060091CA
:100E0000990510919A0520919B0530919C05AB01A5
:100E1000BC01401B510B620B730B8091AB05909191
:100E2000AC05B0E0A0E084179507A607B70748F423
:100E300062E070E08C2FDF91CF911F910F910C94A5
:100E40007E0563E070E0D111C1CFF4CF70E060E0C7
:100E5000F1CF862F642F0C942E06862F642F0C94CE
:100E60000006862F0C94D705DC01ED91FC910190D2
:100E7000F081E02D0994AF92BF92CF92DF92EF9272
:100E8000FF920F931F93CF93DF936C017B018B0134
:100E9000040F151FEB015E01AE18BF08C017D10784
:100EA00059F06991D601ED91FC910190F081E02D0E
:100EB000C6010995892B79F7C501DF91CF911F9163
:100EC0000F91FF90EF90DF90CF90BF90AF9008957B
:100ED000FC01538D448D252F30E0842F90E0821B40
:100EE000930B541710F0CF96089501970895FC01C5
:100EF000918D828D981761F0A28DAE0FBF2FB11D1D
:100F00005D968C91928D9F5F9F73928F90E0089574
:100F10008FEF9FEF0895FC01918D828D981731F02E
:100F2000828DE80FF11D858D90E008958FEF9FEF82
:100F30000895FC01918D228D892F90E0805C9F4F58
:100F4000821B91098F73992708958CE494E00E9485
:100F5000990721E0892B09F420E0822F089580E091
:100F600090E0892B29F00E94A50781110C940000C4
:100F70000895FC01A48DA80FB92FB11DA35ABF4F2E
:100F80002C91848D90E001968F739927848FA68988
:100F9000B7892C93A089B1898C91837080648C93DC
:100FA000938D848D981306C00288F389E02D80818B
:100FB0008F7D80830895EF92FF920F931F93CF93BD
:100FC000DF93EC0181E0888F9B8D8C8D98131AC084
:100FD000E889F989808185FF15C09FB7F894EE896B
:100FE000FF896083E889F9898081837080648083C8
:100FF0009FBF81E090E0DF91CF911F910F91FF9013
:10100000EF900895F62E0B8D10E00F5F1F4F0F73BA
:101010001127E02E8C8D8E110CC00FB607FCFACF75
:10102000E889F989808185FFF5CFCE010E94B90753
:10103000F1CFEB8DEC0FFD2FF11DE35AFF4FF08246
:101040009FB7F8940B8FEA89FB8980818062CFCFAC
:10105000CF93DF93EC01888D8823B9F0AA89BB89EF
:10106000E889F9898C9185FD03C0808186FD0DC0DA
:101070000FB607FCF7CF8C9185FFF2CF808185FFFB
:10108000EDCFCE010E94B907E9CFDF91CF9108954E
:10109000EF92FF920F931F93CF93DF93EC01EC80BD
:1010A000FD806E157F050CF070C057FF04C0240F43
:1010B000351F50E040E08E819F81FA01E20FF31F5F
:1010C0008E179F071CF49C01241B350B1216130668
:1010D0000CF05BC0922F842F8695869586958E9D09
:1010E000D0018F9DB00D11246A0F7B1FAF8DB8A169
:1010F000A60FB71F477049F188E0841B482F682F5F
:1011000070E0FB01E059FA4FE491281708F063C042
:10111000621B71092FEF30E002C0359527956A9563
:10112000E2F7E2230130110539F0B0F10230110588
:1011300061F58C91E82702C08C91E82BEC93941711
:1011400020F12C813D81A20FB31FE92FE41BE83071
:1011500078F00230110521F58E2F9C9190959C938B
:101160002C813D81A20FB31F88508830B0F7E77003
:10117000EE2359F0F0E0E859FA4FE49101301105FF
:10118000F9F010F10230110519F1DF91CF911F91A3
:101190000F91FF90EF900895E0958C91E823CECFCA
:1011A00081E00115110509F480E081959E2F8C9353
:1011B0002C813D81A20FB31F98509830C0F7D7CF34
:1011C0008C91E82BEC93E1CFE0958C91E823FACF5A
:1011D0008C91E827F7CF0130110509F4ADCFE0F28B
:1011E0000230110509F4A5CFAE0DBF1DAECF0F9390
:1011F0001F93CF93DF9377FF04C0260F371F70E054
:1012000060E0DC011496CD91DC91FB01E20FF31F4D
:10121000CE17DF071CF49E01261B370B1216130690
:101220004CF5FA0157FD3796A3E0F595E795AA9599
:10123000E1F7EC9FD001ED9FB00DFC9FB00D1124A4
:101240006A0F7B1FDC015F96ED91FC91E60FF71FA3
:101250004770552781E090E001C0880F4A95EAF772
:10126000482F0130110559F0A8F02E0F3F1F023012
:101270001105E1F0DF91CF911F910F9108952E0F8D
:101280003F1FE217F307B1F38191DF011197842B20
:101290008C93F7CF80952E0F3F1FE217F30751F382
:1012A0009191DF01119798239C93F7CFE217F307F1
:1012B00009F38191DF01119784278C93F7CF0F9366
:1012C0001F93FA01DC0156964C9156974230E9F093
:1012D0004330A1F1413061F514964D915C91DA01F2
:1012E000AE1BBF0BFD01E21BF30B77FD0BC0DC0156
:1012F00016964D915C916417750724F4AB01BF01FC
:101300000E94F7081F910F91089514964D915C91DA
:10131000DA01A61BB70BBD0161507109DC011696FD
:101320004D915C91DA01AE1BBF0BFD01E21BF30B8B
:1013300077FDE8CFAF010E944808E4CF16964D91A3
:101340005C91DA01A61BB70BBD0161507109CDCFCD
:101350000F931F93FA01DC0156964C915697423039
:10136000A9F0433091F1413019F514964D915C91FB
:10137000DA01AE1BBF0BFD013197F7FD04C0AB01D5
:10138000BF010E9448081F910F91089514964D9136
:101390005C91DA01A61BB70BBD01DC0116964D91DD
:1013A0005C91DA01AE1BBF0BFD013197621B730B21
:1013B000F7FDE9CFDC0116964D915C91E417F50736
:1013C00014F7AF010E94F708DECF16964D915C919D
:1013D000DA01A61BB70BBD01621B730BCECFFC015C
:1013E00077FD64C080859185681779070CF05EC031
:1013F00057FD5CC082859385481759070CF056C08D
:1014000086898230B1F0833029F1813041F48481C2
:101410009581841B950BAB01BC0161507109213092
:10142000310509F108F443C02230310509F463C0E5
:10143000089584819581DC01A61BB70BBD01615025
:10144000710986819781DC01A41BB50BAD01415068
:101450005109E5CF86819781861B970BBA01AC01B4
:1014600041505109DCCFCA0157FD0796A3E095957D
:101470008795AA95E1F7A481B5818A9F90018B9FFA
:10148000300D9A9F300D1124620F731F078CF0A14D
:10149000E02DE60FF71F4770552721E030E001C02F
:1014A000220F4A95EAF78081822B80830895CA0132
:1014B00057FD079633E0959587953A95E1F7A48116
:1014C000B5818A9F90018B9F300D9A9F300D11241A
:1014D000620F731F078CF0A1E02DE60FF71F477016
:1014E000552781E090E001C0880F4A95EAF7809582
:1014F00090818923DACFCA0157FD079623E095959D
:1015000087952A95E1F7A481B5818A9F90018B9FE9
:10151000300D9A9F300D1124620F731F078CF0A1BC
:10152000E02DE60FF71F4770552721E030E001C09E
:10153000220F4A95EAF780818227B7CF8EBD00003F
:101540000DB407FEFDCF8EB508950895FC016370BC
:10155000668B8481958126813781613039F06330D3
:1015600029F09187808733872287089531872087E4
:101570009387828708952F923F924F925F926F9246
:101580007F928F929F92AF92BF92CF92DF92EF9213
:10159000FF920F931F93CF93DF93CDB7DEB76A9778
:1015A0000FB6F894DEBF0FBECDBF9A8F898F7A83B6
:1015B00069834A01D22E18870F833701BC2CDC01C6
:1015C00059962D913C915A972115310509F015C175
:1015D00018968D919C911997681779070CF0D7C1CF
:1015E0001A968D919C91481759070CF0D0C14C2C3C
:1015F000512CB6E0CB9E600D711D11247C876B874A
:10160000161617060CF0C3C1EA2DF0E0FA87E98739
:1016100093E0EE0FFF1F9A95E1F7F88BEF87CF016C
:10162000840F951F181619060CF0B1C1A98DBA8D3B
:1016300058968C91811104C0BFEABD1508F4D3946B
:10164000A98DBA8DED91FC9111970284F385E02D5F
:10165000CD010995B5E0DB9EC0011124E981FA8135
:10166000FC83EB83312C212C9C0128593F4F388F70
:101670002F8B4A2D50E05E8B4D8BEF89F88DE20D5C
:10168000F31D44919E828D82D12CC12C69817A8177
:10169000620D731D7A8B698B842F90E09C8B8B8BF2
:1016A000E98DFA8DA081B18140FF82C0F1E0BF12C7
:1016B0006FC0AF126DC01C96ED91FC912F813885E3
:1016C000A4014C0D5D1D69897A89898D9A8D0995D2
:1016D000EB89FC89F595E7954E2F5FEFC51AD50A82
:1016E0006D817E818D899E89680F791F7E836D83D0
:1016F00098E0C916D10481F6AFEF2A1A3A0AEB81B5
:10170000FC81E40DF51DFC83EB83F5E02F1631041D
:1017100009F0B3CF2F81388526153705B9F0A98D8B
:10172000BA8DED91FC91B1E0BB1257C0AB1255C020
:1017300069817A816B5F7F4F0088F189E02D830199
:1017400028E030E0A401898D9A8D0995A98DBA8D84
:10175000ED91FC9111970688F789E02DCD016A96ED
:101760000FB6F894DEBF0FBECDBFDF91CF911F91B2
:101770000F91FF90EF90DF90CF90BF90AF909F9030
:101780008F907F906F905F904F903F902F90099433
:101790001E96ED91FC91EF80F88409851A859201DF
:1017A0004D815E816B817C81898D9A8D099590CF69
:1017B0002F8138852615370509F48ACF31E0B31219
:1017C00007C0A31205C01C96ED91FC91930178CF40
:1017D0001E96ED91FC917301E0CF6B857C856419B9
:1017E00075090684F785E02D73010F85188992012C
:1017F000A401898D9A8D0995A9CFF9013496949108
:10180000329745915491D91AB7E0DB9E400D511D96
:101810001124F901259134913C8B2B8BFA012590F1
:101820003490FA013296749031963491398B329615
:1018300064903196449041E04C1518F04A1508F038
:101840007FC0662D062C000C770B7C836B83842D68
:10185000042C000C990B9E838D83A98DBA8DED917C
:10186000FC9111970284F385E02DCD010995512C4F
:10187000D12CC12CEA2DF0E0FA87E9872B2D30E03E
:101880003C872B87A401440D511D47FC5A95588F66
:101890004F8B69817A81660D711D67FC7A957E8711
:1018A0006D877989C71608F051CF2C2D30E04D8116
:1018B0005E81420F531FA985BA854A9FC0014B9F85
:1018C000900D5A9F900D1124FC01E80DF91DF88B25
:1018D000EF87852D612C4F89588D420F531F5E8BEA
:1018E0004D8B671408F050C044244394480E877011
:1018F00041F4C1010196EB89FC89E20DF31DD490FE
:101900001C01D7FE19C0A98DBA8DED91FC91662DF1
:1019100070E0B1E0BB1219C0AB1217C02D853E8537
:10192000620F731F0484F585E02D2F8138854D8962
:101930005E89898D9A8D0995DD0C6394842DD1CFB4
:101940001E821D821C821B8288CF4B815C81640FAA
:10195000751FAB85BC856A9FC0016B9F900D7A9FF8
:10196000900D112469817A81680F791F0684F785AB
:10197000E02DEF80F88409851A859D014F855889EF
:10198000898D9A8D0995D8CF570CC3948ACF6A96C2
:101990000FB6F894DEBF0FBECDBFDF91CF911F9180
:1019A0000F91FF90EF90DF90CF90BF90AF909F90FE
:1019B0008F907F906F905F904F903F902F90089501
:1019C0008F929F92AF92CF92EF92FF920F931F93BD
:1019D000CF93DF93EC01262F898D9A8D009709F024
:1019E00051C06A30D1F41D861C868D8948E0849FE1
:1019F000900111248E859F85820F931F9F878E876C
:101A000081E090E0DF91CF911F910F91FF90EF90D7
:101A1000CF90AF909F908F9008956D3089F3CC88D0
:101A2000AD888F898823C1F08C859D8536E0C39E63
:101A3000800D911D1124488559854817590764F474
:101A40004E855F851D861C8638E0A39EC00111244B
:101A5000840F951F9F878E87EA88FB8808891989DC
:101A60004E855F856C857D85CE010E94BB0A2C89E1
:101A70008C859D8546E0249F800D911D11249D87B6
:101A80008C87BECF6A3069F41D861C86FC013896AF
:101A9000E4912D898E859F85E29F800D911D1124F3
:101AA000ADCF6D3009F4ACCFFC013496349163179F
:101AB00008F4A6CF3296E491E61708F4A1CFFC0112
:101AC000329685909490462F431B342F47E0349FE5
:101AD000800C911C1124F401329634913196E491DA
:101AE0003323A9F1EE2399F1CC88F4013596E491E2
:101AF000AD884F89442301F10E2E000CFF0BE30F3C
:101B0000F11DCE9EA001CF9E500D11246C857D85C8
:101B1000460F571F68857985641775076CF44E85E5
:101B20005F851D861C86FC013896E491AE9E400DB3
:101B3000511D11245F874E87EA88FB88088919891F
:101B40004E855F856C857D85CE010E94BB0AF401C0
:101B50003496E4912C898C859D85E29F800D911DA2
:101B600011248DCF6F927F928F929F92AF92BF92EE
:101B7000CF92DF92EF92FF920F931F93CF93DF9359
:101B8000EC016B015A0139014801E881F9810284B5
:101B9000F385E02D0995E881F9810288F389E02D2C
:101BA00087019301A501B601CE010995A501480D54
:101BB000591D41505109E881F9810288F389E02DCE
:101BC0009301B601CE010995E881F9810088F18978
:101BD000E02D9401A501B601CE010995C60CD71CD4
:101BE000B60161507109E881F9810088F189E02D21
:101BF0009401A501CE010995E881F9810688F7894C
:101C0000E02DCE01DF91CF911F910F91FF90EF90CA
:101C1000DF90CF90BF90AF909F908F907F906F900C
:101C200009946F927F928F929F92AF92BF92CF92C0
:101C3000DF92EF92FF920F931F93CF93DF935C019C
:101C4000EB016A01490138018701DC01ED91FC914A
:101C50006217730719F5641675062CF0962D872DFB
:101C60003A01C92ED82E9601261937092F5F3F4F0A
:101C7000048CF58DE02DA301BE01C5010995DF910E
:101C8000CF911F910F91FF90EF90DF90CF90BF9079
:101C9000AF909F908F907F906F9008954615570555
:101CA00091F42617370724F0892D4B01C22FD82F26
:101CB0009E01281939092F5F3F4F068CF78DE02DC3
:101CC000A601B401DACF0284F385E02D0995D50190
:101CD000ED91FC910488F589E02D83019401A60122
:101CE000BE01C5010995D501ED91FC910688F789E2
:101CF000E02DC501DF91CF911F910F91FF90EF90E3
:101D0000DF90CF90BF90AF909F908F907F906F901B
:101D10000994EF92FF920F931F93DC011A960D9195
:101D20001C911B9718962D913C911997ED91FC9160
:101D300000A0F1A1E02D7B0150E040E070E060E008
:101D400009951F910F91FF90EF9008954F925F9228
:101D50006F927F928F929F92AF92BF92CF92DF92BB
:101D6000EF92FF920F931F93CF93DF936C012B01A0
:101D70005A0139014801DC01ED91FC910284F3859F
:101D8000E02D0995E201640C751CD601ED91FC91E2
:101D9000C615D7055CF40088F189E02D8701940110
:101DA000A501BE01C60109952196EFCF0688F789E6
:101DB000E02DC601DF91CF911F910F91FF90EF9021
:101DC000DF90CF90BF90AF909F908F907F906F905B
:101DD0005F904F9009948F929F92AF92BF92CF9253
:101DE000DF92EF92FF920F931F93CF93DF93EC015B
:101DF0005B014A016901E881F9810284F385E02DE4
:101E0000099595012C0D3D1D21503109E881F9817D
:101E10000488F589E02D78018401A401B501CE0183
:101E20000995E881F9810688F789E02DCE01DF91D7
:101E3000CF911F910F91FF90EF90DF90CF90BF90C7
:101E4000AF909F908F9009948F929F92AF92BF9284
:101E5000CF92DF92EF92FF920F931F93CF93DF9376
:101E6000EC015B014A0169017801E881F981028492
:101E7000F385E02D0995C80CD91C86010150110984
:101E8000E881F9810488F589E02D9501A401B50167
:101E9000CE010995E881F9810688F789E02DCE0108
:101EA000DF91CF911F910F91FF90EF90DF90CF9036
:101EB000BF90AF909F908F900994EF92FF920F93F5
:101EC0001F93DC01ED91FC9100A0F1A1E02D09959B
:101ED0001F910F91FF90EF9008950F931F93DC01D6
:101EE000ED91FC91068CF78DE02D09951F910F91D6
:101EF00008950F931F93DC01ED91FC91048CF58DF7
:101F0000E02D09951F910F910895DC01ED91FC9151
:101F10000084F185E02D09943F924F925F926F9279
:101F20007F928F929F92AF92BF92CF92DF92EF9269
:101F3000FF920F931F93CF93DF935C017B014A01C4
:101F40006901390187E0680E711C93E0759467940C
:101F50009A95E1F72B01400E511E10E000E0312C64
:101F6000D0E0C0E0CE0187709927330C892B59F45B
:101F7000FE0183E0F595E7958A95E1F7E00FF11F03
:101F8000E80DF91D349037FE0AC021E030E0A701CA
:101F9000B5016C0F7D1F81E095E00E94850F2196B1
:101FA000CC16DD06F9F68FEFE81AF80A060D171DB4
:101FB000E414F504A9F6DF91CF911F910F91FF90E2
:101FC000EF90DF90CF90BF90AF909F908F907F90D9
:101FD0006F905F904F903F9008952F923F924F9255
:101FE0005F926F927F928F929F92AF92BF92CF92A9
:101FF000DF92EF92FF920F931F93CF93DF9300D066
:1020000000D000D0CDB7DEB73C016A013E832D83FE
:10201000FC82EB825801A41AB50AB7FE03C0B19442
:10202000A194B1088D809E80861A970A97FE03C0FE
:102030009194819491088A149B045CF0902F812FD5
:102040000D811E819D838E839C2D8D2D6B01692FAB
:10205000782F0C151D055CF09D818E817E836D832C
:10206000692F782F902F812F8601C92ED82E160127
:10207000201A310A2B012D813E81421A530A57FE44
:1020800003C0519441945108710137FE03C03FEFE2
:10209000E31AF30AF594E7948D819E8186179707DA
:1020A0005CF5A1E0B0E0BA83A983C016D1064CF17B
:1020B000D301ED91FC910484F585E02D2B813C81C9
:1020C000A8016D817E818A149B041CF04D815E8184
:1020D000B801C3010995E418F508F7FE0AC02D817F
:1020E0003E8189819A81280F391F3E832D83E20C1E
:1020F000F31C0F5F1F4FD9CF2FEF3FEF3A83298398
:10210000D4CF26960FB6F894DEBF0FBECDBFDF91B9
:10211000CF911F910F91FF90EF90DF90CF90BF90E4
:10212000AF909F908F907F906F905F904F903F9077
:102130002F900895089508958CBD9DBD0895209118
:102140006303260F3327331F21323105ECF420912E
:102150002204FC0190E080E0243069F082E00895E0
:10216000A09163032191AC014D5B5C4FA40FB52F8F
:10217000B11D2C930196861798F380916303680F25
:102180006093630380E0089581E008951092220433
:1021900081E0809321041092FC0361E082E10E94BF
:1021A000000661E083E10E940006E9EBF0E0808137
:1021B0008E7F808380818D7F808388E48093B800C8
:1021C00085E48093BC0008951092FB031092FA03FB
:1021D0001092290410924B040E94C6108BEA95E0DD
:1021E0009093F9038093F8038CEA95E09093F703BA
:1021F0008093F6030895CF93DF9391E09093420389
:102200008823B9F0C091B800D091BA008091BC0089
:102210008A7B8093BC0060E082E10E94000660E05F
:1022200083E10E9400060E94C610D093BA00C093BA
:10223000B800DF91CF9108958F929F92AF92BF9295
:10224000CF92DF92EF92FF920F931F93CF93DF9382
:10225000D0914B04D13208F0D7C0182FC0914A0456
:102260000E946A066B017C018091220481116BC07F
:1022700082E080932204109321048FEF8093200446
:1022800010921F04D0931E04AAE2B4E0EEEFF3E034
:1022900080E0D81391C01092FD038091FD03CC0F14
:1022A000C82BC093FD038091FC03813009F088C0E6
:1022B0001092FC030E946A066B017C018091FD0371
:1022C0008093BB008091240490912504A091260462
:1022D000B0912704892B8A2B8B2BA1F00E946A06D0
:1022E00000912404109125042091260430912704A4
:1022F0006C197D098E099F090617170728073907EA
:1023000008F442C08091BC0083FDD8CF85EC809357
:10231000BC000E946A066B017C018091220482301D
:1023200009F450C0809120048F3F09F46FC0809160
:102330002004803209F46CC080912004803309F4B9
:1023400069C084E026C08091240490912504A09166
:102350002604B0912704892B8A2B8B2B09F484CF78
:102360000E946A068090240490902504A090260480
:10237000B09027046C197D098E099F09861697066F
:10238000A806B90608F070CF809123040E94FB10C4
:1023900085E01092290410924B0410922804DF91DA
:1023A000CF911F910F91FF90EF90DF90CF90BF9052
:1023B000AF909F908F9008959D9191938F5F69CF7B
:1023C00085EEA5CF8091240490912504A091260448
:1023D000B0912704892B8A2B8B2B09F49ECF0E9466
:1023E0006A0600912404109125042091260430915E
:1023F00027046C197D098E099F09061717072807FE
:10240000390708F08ACFC0CF81E0C3CF80E0C1CFC9
:1024100082E0BFCF83E0BDCFCF93DF93EA01DC0141
:1024200011968D919C91DC01ED91FC910280F381DC
:10243000E02D0995C817D90729F481E00E941C11E5
:1024400091E0811190E0892FDF91CF910895E09183
:10245000FB038091FA03E81730F4F0E0EA52FC4FF6
:10246000808190E008958FEF9FEF08959091FB0396
:102470008091FA032FEF3FEF981748F4E92FF0E02F
:10248000EA52FC4F208130E09F5F9093FB03C9012B
:1024900008958091FA039091FB03891B990B08958D
:1024A000CF92DF92EF92FF920F931F93CF93DF9320
:1024B0007C01CB018A0120912804222389F0EB01C1
:1024C0006B01C40ED51ECC15DD0569F06991D701ED
:1024D000ED91FC910190F081E02DC7010995F3CFBA
:1024E000642F0E949F10C801DF91CF911F910F911F
:1024F000FF90EF90DF90CF900895CF93DF931F92DE
:10250000CDB7DEB76983209128042223F9F020910A
:102510004B04203258F021E030E0FC013383228369
:1025200090E080E00F90DF91CF9108958091290491
:10253000E82FF0E0E65DFB4F998190838F5F8093F9
:10254000290480934B0481E090E0ECCF61E0CE0160
:1025500001960E949F10F7CF81E00C941C11EF921E
:10256000FF920F931F93CF937C01C62F80911E057E
:1025700090911F05892B09F44EC0809122050E947D
:10258000A10580911E0590911F05DC01ED91FC9144
:102590000190F081E02D60E009958701EE24E3943D
:1025A000F12CC15080911E0590911F05CF3F61F124
:1025B000B0E2EB16F104A8F00E94AC128091220563
:1025C0000E94A10580911E0590911F05DC01ED91EF
:1025D000FC910190F081E02D60E00995EE24E394F8
:1025E000F12C80911E0590911F05F8016491DC018A
:1025F000ED91FC910190F081E02D0995BFEFEB1A70
:10260000FB0A0F5F1F4FCDCFCF911F910F91FF900E
:10261000EF900C94AC12E0912E05F0912F05908173
:10262000809134058095892380838701C15008F407
:1026300038C0F801849120911C0530911D05232B91
:1026400029F00E949E0A0F5F1F4FF0CF28E030E074
:1026500040E8E0912A05F0912B0590913205582F22
:102660005423D9F05081952B9083E0912C05F09163
:102670002D05908150913305952B9083E0912C0589
:10268000F0912D055081909133059095952390837D
:10269000469521503109E9F6D6CF50819095952382
:1026A000E3CFCF911F910F91FF90EF9008951F936B
:1026B000CF93DF93EC018D8D9E8D892BF9F0162F32
:1026C00089A10E94A1058D8D9E8DDC01ED91FC916B
:1026D0000190F081E02D60E009958D8D9E8DDC01EB
:1026E000ED91FC910190F081E02D612F09958D8D88
:1026F0009E8DDF91CF911F910C94AC12ADA5BEA51C
:102700009C918BA9809589238C938B8D9C8D892B93
:1027100031F0862FDF91CF911F910C949E0A28E013
:1027200030E080E8A9A5BAA599A9462F4823C1F0B1
:102730004C91942B9C93ABA5BCA59C914AA9942B3E
:102740009C93ABA5BCA54C919AA9909594239C937E
:1027500086952150310931F7DF91CF911F9108956E
:102760004C9190959423E6CFEF92FF920F931F9395
:10277000CF93DF9380911E0590911F05892B09F45B
:102780008DC0209136053091370540913805509124
:10279000390560E074E284EF90E00E942D2A205118
:1027A0003109410951095695479537952795209349
:1027B000B80065E08EE99AE00E94AF1260910505CD
:1027C000615081E095E00E945713209107053091F8
:1027D0000805C901079697FD079633E095958795FB
:1027E0003A95E1F72091050530910605829F800119
:1027F000839F100D929F100D1124C0912005D09140
:10280000210580911E0590911F050C0F1D1F892B1E
:1028100009F483C0809122050E94A10580911E05C4
:1028200090911F05DC01ED91FC910190F081E02D6C
:1028300060E40995EE24E394F12C80911E059091BB
:102840001F050C171D0709F440C0B0E2EB16F10498
:10285000A8F00E94AC12809122050E94A1058091EF
:102860001E0590911F05DC01ED91FC910190F08116
:10287000E02D60E40995EE24E394F12C80911E058F
:1028800090911F056991DC01ED91FC910190F0811F
:10289000E02D0995BFEFEB1AFB0ACFCF80911C0505
:1028A00090911D05892B31F080913F059091400555
:1028B0000E949C10E0913005F0913105908180914B
:1028C000350580958923808374CF0E94AC12809156
:1028D0001E0590911F05892B09F460C020913A05CF
:1028E00030913B0540913C0550913D0560E074E21C
:1028F00084EF90E00E942D2A2051310941095109AD
:1029000056954795379527952093B800DF91CF913D
:102910001F910F91FF90EF900895E0912E05F09197
:102920002F05808190913405892B80830C171D071A
:1029300071F2899120911C0530911D05232B19F00E
:102940000E949E0AF3CF28E030E040E8E0912A059B
:10295000F0912B0590913205582F5423D9F05081D6
:10296000952B9083E0912C05F0912D05908150914D
:102970003305952B9083E0912C05F0912D05508126
:102980009091330590959523908346952150310978
:10299000E9F6CCCF508190959523E3CFE0913005B7
:1029A000F0913105808190913505892B8083AECFE0
:1029B0001F93CF93DF93EC01162F8D8D9E8D892B66
:1029C000B1F12DA93EA94FA958AD60E074E284EFA2
:1029D00090E00E942D2A2051310941095109569554
:1029E0004795379527952093B80066EA111167EA55
:1029F000CE010E9457138D8D9E8D892B41F129ADFB
:102A00003AAD4BAD5CAD60E074E284EF90E00E94C3
:102A10002D2A20513109410951095695479537957D
:102A200027952093B800DF91CF911F9108958B8D4A
:102A30009C8D892B21F08EAD9FAD0E949C10EFA53F
:102A4000F8A990818CA9809589238083CECFEFA5AA
:102A5000F8A980819CA9892B8083E5CFCF93DF9350
:102A6000EC018B81882371F088810E94A105898106
:102A70009A810E94AC1291E0811190E0892FDF9140
:102A8000CF9108950E94E41081E08B83CE010E94D3
:102A90002E15982F8111E8CFF1CF90E080E00895B6
:102AA000CF93DF938093F2047093F3046093F40464
:102AB000C091EB04D091EC048C819D81039760F070
:102AC00088810E94A10543E050E062EF74E0CE01EE
:102AD000DF91CF910C940C12DF91CF9108952F923A
:102AE0003F924F925F926F927F928F929F92AF929E
:102AF000BF92CF92DF92EF92FF920F931F93CF93EB
:102B0000DF938093F204C091EB04D091EC048C81AC
:102B10009D81892B51F088810E94A10541E050E000
:102B200062EF74E0CE010E940C12C090EB04D090D2
:102B3000EC0410E000E082E0A82EB12CD1E03324B8
:102B40003A9495EE892E25EC922ED60114968D910D
:102B50009C917501E01AF10A8E159F0508F47C011D
:102B6000F60120800E946A062B013C01809122041C
:102B700081116FC0CE2DC13208F0C0E2D093220483
:102B800021E0C5018E199F090817190708F420E0F4
:102B9000209321043092200410921F048FEF8C0F99
:102BA00080931E04D093FD038091FD03220C282AFC
:102BB0002092FD038091FC03813009F095C01092B2
:102BC000FC030E946A062B013C018091FD03809367
:102BD000BB008091240490912504A0912604B0911B
:102BE0002704892B8A2B8B2BA1F00E946A06209147
:102BF000240430912504409126045091270464193F
:102C0000750986099709261737074807590708F4F1
:102C100041C08091BC0083FDD8CF9092BC000E943F
:102C20006A062B013C0180912204813009F45FC0C7
:102C300080911F048C1710F4C0911F04AEEFB3E015
:102C4000E6EDF3E080E08C1751F19D9191938F5F59
:102C5000FACF8091240490912504A0912604B0918C
:102C60002704892B8A2B8B2B09F480CF0E946A06BC
:102C7000209124043091250440912604509127048A
:102C800064197509860997092617370748075907F0
:102C900008F06CCF809123040E94FB10C0E01092DA
:102CA000FB03C093FA03CE151F0409F048C0C80106
:102CB00085519B4F3C01C301801B910B8B5E94405F
:102CC0008E159F05B0F5D60111968D919C91DC0172
:102CD000ED91FC910284F385E02D0995F301878342
:102CE000FFEF6F1A7F0AE7CF8092BC0098CF8091E8
:102CF000240490912504A0912604B0912704892BE7
:102D00008A2B8B2B09F48FCF0E946A062091240412
:102D100030912504409126045091270464197509C7
:102D200086099709261737074807590708F07BCF08
:102D3000B1CF0E0D1F1D0230110508F406CF809192
:102D4000F2049091F304982789279827DF91CF9177
:102D50001F910F91FF90EF90DF90CF90BF90AF90B9
:102D60009F908F907F906F905F904F903F902F90AB
:102D700008956091EE047091EF042091F004309179
:102D8000F104622B732B7168E82FF0E0EE0FFF1F48
:102D9000EE5CFE4F80819181682B792B81E00E944F
:102DA000501560E070E883E00E94501570E060E02C
:102DB00082E00E94501581E00E946F1597FFFBCFC3
:102DC00080E00E946F152091ED04022E02C09695BE
:102DD00087950A94E2F7222329F0811528E09207CB
:102DE00008F0906F08952091070530910805C901FA
:102DF000079697FD079623E0959587952A95E1F725
:102E00002091050530910605829FA001839F500DFA
:102E1000929F500D112470E060E080912005909108
:102E200021050C947F2B0E947A2BFB01019000203E
:102E3000E9F73197AF01461B570BDC01ED91FC918F
:102E40000280F381E02D09948F929F92AF92BF92FE
:102E5000EF92FF920F931F93CF93DF93CDB7DEB71F
:102E6000A1970FB6F894DEBF0FBECDBF7C01FA016B
:102E7000CB0119A2223008F42AE08E010F5D1F4F0A
:102E8000822E912CB12CA12CBF01A50194010E948E
:102E90002D2AF901CA016A300CF5605DD8016E93E4
:102EA0008D01232B242B252B79F790E080E01097C0
:102EB00021F0BD01C7010E941517A1960FB6F89425
:102EC000DEBF0FBECDBFDF91CF911F910F91FF905D
:102ED000EF90BF90AF909F908F900895695CDECF88
:102EE000CF92DF92EF92FF920F931F93CF93DF93D6
:102EF0006B01770FEE08FF08F7FE1BC0EC016DE2D7
:102F00000E9434078C0144275527BA014C195D09EA
:102F10006E097F092AE0CE010E942417800F911FBD
:102F2000DF91CF911F910F91FF90EF90DF90CF90A5
:102F300008952AE0B701A601DF91CF911F910F916B
:102F4000FF90EF90DF90CF900C9424172F923F9238
:102F50004F925F926F927F928F929F92AF92BF92A9
:102F6000CF92DF92EF92FF921F93CF93DF93EC010A
:102F70006A017B01722EAB019601CB01B6010E9462
:102F8000282A64E971E0811126C046015701E894BE
:102F9000B7F82FEF3FEF4FE75FE7C501B4010E949D
:102FA000282A81110CC02FEF3FEF4FE75FE7C501E3
:102FB000B4010E94572868E971E0181664F02FEFF9
:102FC0003FEF4FE75FE4C701B6010E94B62918162C
:102FD000B4F46CE971E0CE01DF91CF911F91FF90C5
:102FE000EF90DF90CF90BF90AF909F908F907F90A9
:102FF0006F905F904F903F902F900C9415172FEF8C
:103000003FEF4FE75FECC701B6010E94572887FDED
:10301000E0CF20E030E0A901C701B6010E945728A7
:10302000312C212C87FF09C06DE2CE010E943407AC
:103030001C01F7FAF094F7F8F09410E060E070E00B
:1030400080E09FE3711641F020E030E040E251E47F
:103050000E945C281F5FF6CFA70196010E94EB2714
:103060002B013C010E94D5284B015C012AE0BC01E8
:10307000A401CE010E9424177C01E20CF31C112351
:10308000C1F1C501B4010E9404299B01AC01C30137
:10309000B2010E94EA274B015C016EE2CE010E9460
:1030A0003407E80EF91E115020F120E030E040E234
:1030B00051E4C501B4010E94BB292B013C010E94CF
:1030C000D5284B01B12CA12C2AE0B501A401CE01D9
:1030D0000E942417E80EF91EC501B4010E940429BC
:1030E0009B01AC01C301B2010E94EA274B015C01C4
:1030F000DACFC701DF91CF911F91FF90EF90DF9062
:10310000CF90BF90AF909F908F907F906F905F9087
:103110004F903F902F9008950F931F93CF93DF937D
:10312000EC010E9415178C0160EA71E0CE010E944B
:103130001517800F911FDF91CF911F910F91089567
:103140000C94151785ED8093BC0080912404909118
:103150002504A0912604B09127040796A11DB11D56
:1031600023E0B695A795979587952A95D1F7209155
:10317000BC0024FD03C01092220408954091240451
:10318000509125046091260470912704452B462B0D
:10319000472B69F30097A105B10541F02AE22A9572
:1031A000F1F700C00197A109B109E1CF8091230493
:1031B0000C94FB101F920F920FB60F9211242F93B5
:1031C0003F938F939F93AF93BF938091CE03909142
:1031D000CF03A091D003B091D1033091CD0323E070
:1031E000230F2D3758F50196A11DB11D2093CD0356
:1031F0008093CE039093CF03A093D003B093D103D9
:103200008091D2039091D303A091D403B091D503C0
:103210000196A11DB11D8093D2039093D303A09377
:10322000D403B093D503BF91AF919F918F913F91FC
:103230002F910F900FBE0F901F90189526E8230F27
:103240000296A11DB11DD2CF1F920F920FB60F9201
:1032500011242F933F934F935F936F937F938F939B
:103260009F93AF93BF93EF93FF938CE494E00E94FE
:10327000B907FF91EF91BF91AF919F918F917F918E
:103280006F915F914F913F912F910F900FBE0F90D3
:103290001F9018951F920F920FB60F9211242F9323
:1032A0008F939F93EF93FF93E0915C04F0915D0403
:1032B0008081E0916204F091630482FD1BC09081E3
:1032C000809165048F5F8F7320916604821741F0AF
:1032D000E0916504F0E0E45BFB4F958F809365041B
:1032E000FF91EF919F918F912F910F900FBE0F90B3
:1032F0001F9018958081F4CF1F920F920FB60F92F6
:1033000011242F933F934F935F936F937F938F93EA
:103310009F93AF93BF93EF93FF938091B900887F02
:10332000803609F44AC0F0F5883209F4A7C018F5D0
:10333000803109F49BC0B8F4882309F4F9C08830BF
:1033400009F494C0FF91EF91BF91AF919F918F913C
:103350007F916F915F914F913F912F910F900FBE91
:103360000F901F901895883109F488C0803251F76A
:103370008093200414C0803409F49DC040F480334D
:10338000B9F38833F9F68093200485ECB0C080351A
:1033900009F485C0883509F496C0883499F60E94EE
:1033A000A218D0CF883909F48CC038F5883729F0B5
:1033B00050F4883611F0803729F683E08093220498
:1033C0001092850357C0883809F47BC0803919F002
:1033D000803809F0B7CF80918503803208F071C042
:1033E000E091850381E08E0F809385038091BB007F
:1033F000F0E0EB59FC4F80833DC0803B39F0E0F4B6
:10340000803A09F479C0883A09F09CCF84E080932F
:1034100022041092640310926303E091F803F09188
:10342000F90309958091630381110FC081E08093B6
:1034300063031092430309C0803C09F4A6CF883C83
:1034400009F4A3CF883B09F07DCFE091640381E0CC
:103450008E0F80936403F0E0ED5BFC4F80818093DE
:10346000BB00909164038091630329C08091FD03A8
:103470008093BB0085EC8093BC0064CF90911F04C7
:1034800080911E04981758F5E0911F0481E08E0F7B
:1034900080931F04F0E0E250FC4F8081E9CFE0917F
:1034A0001F0481E08E0F80931F048091BB00F0E029
:1034B000E250FC4F808390911F0480911E04981766
:1034C000C8F285E8D8CFE0911F0481E08E0F809389
:1034D0001F048091BB00F0E0E250FC4F808380919C
:1034E000210481115CCF81E08093FC0384EA809306
:1034F000BC001092220426CF85EC8093BC00109271
:10350000220480918503803230F4E0918503F0E05D
:10351000EB59FC4F10826091850370E0E091F60357
:10352000F091F70385E693E00995109285030ACFA1
:103530001092200434CF10924F0410924E0488EE63
:1035400093E0A0E0B0E08093500490935104A093E6
:103550005204B09353042EE331E030934D04209392
:103560004C0425EC30E0309359042093580424ECAB
:1035700030E030935B0420935A0420EC30E0309329
:103580005D0420935C0421EC30E030935F042093D1
:103590005E0422EC30E0309361042093600426EC5A
:1035A00030E030936304209362041092650410921B
:1035B000660410926704109268041092F804109246
:1035C000F7048093F9049093FA04A093FB04B0935A
:1035D000FC0480E591E09093F6048093F50410924A
:1035E00043051092470510924605109248058EE853
:1035F00091E09093420580934105EDE5F5E010825E
:10360000148213821582369685E0E939F807B9F7F6
:1036100088E191E09093A4058093A30584E191E073
:103620009093A6058093A50584E08093A7058093D9
:10363000A8058CE191E09093A2058093A1058AE012
:1036400090E09093AA058093A90584EF91E0909370
:10365000AC058093AB051092AF051092AE051092A9
:103660009D0510929E0510929F051092A005109244
:10367000AD05109204051092030520E830E0309368
:1036800006052093050580E290E09093080580935D
:10369000070530930A052093090590930C05809344
:1036A0000B051092170510920E0510920D05109241
:1036B000100510920F0581E0809316058093150583
:1036C0004FEF5FEF5093140540931305509312058D
:1036D00040931105809318051092190510921B054F
:1036E00010921A0582E691E09093020580930105FD
:1036F00010921D0510921C0585EF94E090931F0514
:1037000080931E0510922105109220058FEF809363
:1037100025058093260580932705809328058093AF
:10372000290580E89AE1A6E0B0E080933605909301
:103730003705A0933805B093390580EA96E8A1E0F3
:10374000B0E080933A0590933B05A0933C05B0937D
:103750003D0580E580933F05109240051092ED04F1
:103760001092EF041092EE043093F1042093F004D1
:103770001092EA041092E9040895CF93DF9300D0E9
:103780001F92CDB7DEB7789484B5826084BD84B5CE
:10379000816084BD85B5826085BD85B5816085BD4C
:1037A00080916E00816080936E0010928100809104
:1037B000810082608093810080918100816080938C
:1037C0008100809180008160809380008091B100B1
:1037D00084608093B1008091B00081608093B000DC
:1037E00080917A00846080937A0080917A00826070
:1037F00080937A0080917A00816080937A00809132
:103800007A00806880937A001092C100E0915C0495
:10381000F0915D0482E08083E0915804F0915904B6
:103820001082E0915A04F0915B048FEC8083109237
:103830006404E0916004F091610486E08083E0918B
:103840005E04F0915F04808180618083E0915E047A
:10385000F0915F04808188608083E0915E04F09144
:103860005F04808180688083E0915E04F0915F0452
:1038700080818F7D80830E94E41060E08CE00E9454
:103880002E0660E08DE00E942E0662E08EE00E942F
:103890002E068CE00E94D7059093B6038093B50363
:1038A00060E08FE00E942E0660E080E10E942E061C
:1038B00062E081E10E942E068FE00E94D70590937E
:1038C000BB038093BA030E94E4108091200590917D
:1038D0002105892B11F10E94F316209107053091E3
:1038E00008058091050590910605213231050CF0FF
:1038F0004BC0B9016052710977FF02C06F5F7F4F03
:10390000759567958357910997FD019600E210E040
:1039100023E730E04AE855E04AC02091070530919E
:103920000805C901079697FD0796B3E09595879519
:10393000BA95E1F72091050530910605AC01429F4B
:10394000C001439F900D529F900D11240E94552A53
:103950009093210580932005892B09F0BCCF0AE2C2
:103960001AE0F8016491662341F08CE494E00E942F
:10397000DB070F5F1F4F892BA1F760EA71E08CE432
:1039800094E00E941517FFCFB9016054710977FFC9
:1039900002C06F5F7F4F759567958255910997FDBE
:1039A000019600E410E022E530E04AE657E0959504
:1039B00087950E948C0F82E08093230580911E05DD
:1039C00090911F05892B09F462C28CE38093220534
:1039D0000E94E4108091290587FD1EC061E00E94CD
:1039E0002E0661E0809129050E94000661E070E0EA
:1039F00080E090E00E948F0660E0809129050E949F
:103A000000066AE070E080E090E00E948F0661E0CE
:103A1000809129050E94000680911E0590911F0546
:103A2000892B09F4F3C22091360530913705409176
:103A300038055091390560E074E284EF90E00E940F
:103A40002D2A20513109410951095695479537953D
:103A500027952093B80064E086E895E00E94AF12B5
:103A600060910705615081E095E00E94571364E082
:103A700082E895E00E94AF128091230560E18130D9
:103A800009F064E181E095E00E94571364E08EE75D
:103A900095E00E94AF128FE880933E058091050566
:103AA000909106058038910509F0C9C280910705FB
:103AB000909108058034910509F0D1C280912305C9
:103AC000813009F0BAC28FE980933E0512E16AEDB8
:103AD00081E095E00E945713612F81E095E00E94FC
:103AE000571361E881E095E00E94571360913E050D
:103AF00081E095E00E94571369ED81E095E00E9416
:103B000057138091230562E2813009F061EF81E073
:103B100095E00E94571366E088E795E00E94AF1297
:103B200080911E0590911F05892B09F49CC220915C
:103B30003A0530913B0540913C0550913D0560E0D0
:103B400074E284EF90E00E942D2A2051310941094E
:103B5000510956954795379527952093B8000E94AF
:103B6000F316FF24F394F0921505F092160581E008
:103B700090E0909314058093130590931205809321
:103B8000110510920E0510920D051092100510925D
:103B90000F0563EA71E081E095E00E948C181092B5
:103BA0000E0510920D058AE090E090931005809329
:103BB0000F0560EB71E081E095E00E948C180E9497
:103BC000B41364E670E080E090E00E948F0686E027
:103BD00090E00E94552A8C0188E4D8018C9385EFEF
:103BE00094E012969C938E93119713961C921397C0
:103BF00080E290E015969C938E9314971093EC04BA
:103C00000093EB040E94E410F801F382C8010E94C3
:103C10002E158091E9049091EA04009711F00E941A
:103C2000F12A86E090E00E94552A8C0180E6D801B6
:103C30008C9385EF94E012969C938E931197139634
:103C40001C92139780E290E015969C938E931497A4
:103C50001093EA040093E9040E94E41081E0F80163
:103C60008383C8010E942E1580EE90E09093F104AA
:103C70008093F0046BEB71E08CE494E00E948C186C
:103C80001092BE031092BF031092C0031092C103A2
:103C900080E090E0A0E7B1E480930C0190930D01E7
:103CA000A0930E01B0930F0180E090E0A0E8BFE385
:103CB0008093100190931101A0931201B09313010E
:103CC00082E090E0909388038093870388E20E94CB
:103CD000A10560E085EF94E00E947D1262E385EF2C
:103CE00094E00E947D1285EF94E00E94AC1261E0A6
:103CF00082E00E942E0661E082E00E9400061AE047
:103D0000E12EF12C04E1202E312C80E00E94B91626
:103D10009093CC038093CB0381E00E94B9168C0171
:103D20006091CB037091CC03072E000C880B990B8C
:103D30000E94062928EE3CE944E459E30E94BB298D
:103D400020E030E040EE50E40E94BB294B015C01D2
:103D50008092C7039092C803A092C903B092CA038D
:103D6000B801110F880B990B0E94062928EE3CE937
:103D700044E459E30E94BB292AE939E949E15FE3B8
:103D80000E94BB292B013C014092C3035092C40303
:103D90006092C5037092C6032DEC3CEC4CE85FE3E7
:103DA00060910C0170910D0180910E0190910F01B5
:103DB0000E94BB299B01AC01C501B4010E94572898
:103DC00087FF74C180918D03811157C10E94C10684
:103DD0006093890370938A0380938B0390938C0381
:103DE00081E080938D030E94F31611E01093150576
:103DF0001093160521E030E030931405209313054D
:103E000030931205209311058091B1039091B20374
:103E10008230910509F4A5C20CF04CC1009709F459
:103E2000CCC1019709F442C20E94B41381E080938F
:103E3000AD050E94C10600919D0510919E0520913F
:103E40009F053091A005AB01BC01401B510B620BDB
:103E5000730B8091A9059091AA05B0E0A0E08417AA
:103E60009507A607B70708F0CAC510E08091A70517
:103E7000181708F083C3E091A305F091A405E10FA2
:103E8000F11D62E080810E942E061F5FEFCF61E08E
:103E9000809127050E942E0661E0809128050E94EE
:103EA0002E0680912705082E000C990BFC01EE5977
:103EB000F54FE491F0E0EE0FFF1FE25BF54F259127
:103EC000349130932F0520932E05FC01EA58F54FCD
:103ED000E491E093340580912805082E000C990B9D
:103EE000FC01EE59F54FE491F0E0EE0FFF1FE25BAD
:103EF000F54FA591B491B0933105A0933005FC0125
:103F0000EA58F54FE491E09335058C91E82BEC935A
:103F100080911C0590911D05892B09F434C01FB7B1
:103F2000F89480918603811127C0ECE6FAE0849131
:103F3000E0E8FAE09491E82FF0E0EE0FFF1FEC5B71
:103F4000F54FA591B491EC91E92321F461E08AE069
:103F50000E94000661E08AE00E942E068CB5806116
:103F60008CBD8CB580648CBD61E08DE00E942E0616
:103F700061E08BE00E942E06809186038F5F809324
:103F800086031FBF27CD61E0809125050E942E0684
:103F900061E0809126050E942E0680912505082E5D
:103FA000000C990BFC01EE59F54FE491F0E0EE0F97
:103FB000FF1FE25BF54F2591349130932B05209341
:103FC0002A05FC01EA58F54FE491E093320580910F
:103FD0002605082E000C990BFC01EE59F54FE491D3
:103FE000F0E0EE0FFF1FE25BF54FA591B491B093A7
:103FF0002D05A0932C05FC01EA58F54FE491E093C0
:1040000033058C91E095E823EC93E4CC80911C057A
:1040100090911D05892B31F080913F0590914005CD
:104020000E949C10E0913005F091310590818091C3
:1040300035058095892380830ECD8FEC45CD803664
:10404000910569F48091070590910805409739F42E
:1040500080912305813029F480E180933E0512E0B0
:1040600036CD8FEAFACFE0913005F09131058081AD
:1040700090913505892B808372CD0E94C1060091F5
:10408000890310918A0320918B0330918C03601B6C
:10409000710B820B930B603D77408105910508F40D
:1040A000A2CE61E082E00E9400069DCE10928D03B8
:1040B00060E0F8CF8430910509F4E3C10CF48CC1C1
:1040C000059709F0B1CE0E94F316109315051093D1
:1040D000160541E050E050931405409313055093AA
:1040E00012054093110510920E0510920D051092C5
:1040F000100510920F0580910A0190910B018230FA
:10410000910509F4EAC18330910509F4FAC10197D8
:1041100009F08ACE65E772E081E095E00E94A01880
:1041200005E011E0D8016D918D0181E095E00E94DC
:104130003407E9E0F1E0E017F107A1F76FE772E07B
:1041400081E095E00E94A0186091070181E095E070
:104150000E94340710920E0510920D05F092100582
:10416000E0920F0561E872E081E095E00E94A018FE
:1041700000E011E0D8016D918D0181E095E00E9491
:104180003407E4E0F1E0E017F107A1F76FE772E030
:1041900081E095E00E94A0186091010181E095E026
:1041A0000E94340710920E0510920D0530921005F2
:1041B00020920F056DE872E062C010920E05109219
:1041C0000D051092100510920F0580910A01909133
:1041D0000B01019731F461EC71E081E095E00E9400
:1041E000A01864EC71E081E095E00E948C181092B8
:1041F0000E0510920D05F0921005E0920F058091CA
:104200000A0190910B01029731F461EC71E081E0B9
:1042100095E00E94A0186FEC71E081E095E00E94AB
:104220008C1810920E0510920D05309210052092F8
:104230000F0580910A0190910B01039731F461EC15
:1042400071E081E095E00E94A0186CED71E081E0E2
:1042500095E00E94A0188091AF039091B003813047
:104260009105F1F08CF467EE71E0892BA1F080915B
:10427000C20365EF71E0811102C06BEF71E081E074
:1042800095E00E94A018D0CD8230910561F062EFD8
:1042900071E0039761F781E095E00E94A018E7CFF5
:1042A0006CEE71E0F8CF6FEE71E0F5CF10920E0575
:1042B00010920D051092100510920F0560E072E04B
:1042C00081E095E00E94A01823E0B501A40181E0FF
:1042D00095E00E94A6176AE372E081E095E00E94F3
:1042E000A01840910C0150910D0160910E01709148
:1042F0000F0122E081E095E00E94A61710920E05C2
:1043000010920D05F0921005E0920F0566E072E044
:1043100081E095E00E94A01823E0B301A20181E0B2
:1043200095E00E94A6176AE372E081E095E00E94A2
:10433000A0184091100150911101609112017091EB
:10434000130122E081E095E00E94A61710920E056D
:1043500010920D053092100520920F056CE072E06E
:104360008ECF10920E0510920D051092100510922E
:104370000F0569E172E081E095E00E94A01823E05A
:10438000B301A20181E095E00E94A61710920E05EC
:1043900010920D05F0921005E0920F056FE172E0AA
:1043A00081E095E00E94A018409110015091110108
:1043B000609112017091130122E081E095E00E946A
:1043C000A61710920E0510920D053092100520923E
:1043D0000F0569E272E053CF10920E0510920D05A1
:1043E0001092100510920F0560E072E081E095E0F8
:1043F0000E94A01823E0B501A40181E095E00E948D
:10440000A61768E372E081E095E00E94A018409151
:104410000C0150910D0160910E0170910F0122E08D
:1044200081E095E00E94A61710920E0510920D05EE
:10443000F0921005E0920F056EE372E081E095E0E6
:104440000E94A01870E060E081E095E00E94701783
:1044500064E472E081E095E00E94A01860918E0310
:1044600070918F0381E095E00E94701710920E0505
:1044700010920D053092100520920F0569E472E04C
:10448000FECE10920E0510920D051092100510929E
:104490000F0564E572E081E095E00E948C181092AF
:1044A0000E0510920D05F0921005E0920F0566E6DC
:1044B00072E081E095E00E948C1880910A01909151
:1044C0000B018130910521F08230910509F0ACCCCF
:1044D0009093B2038093B103A7CC6EE972E081E0C0
:1044E00095E00E94A01800E011E0D8016D918D01C7
:1044F00081E095E00E943407B1E004301B07A9F782
:1045000093CC65E772E081E095E00E94A01805E099
:1045100011E0F80161918F0181E095E00E9434077C
:1045200029E031E020173107A1F76FE772E081E061
:1045300095E00E94A0186091070181E095E00E943B
:10454000340710920E0510920D05F0921005E092BE
:104550000F056EEA72E081E095E00E94A01860917C
:10456000000181E095E00E9434076091010181E043
:1045700095E00E94340767EB72E081CE712C809148
:10458000A805781608F063C0C72CD12CE091A505CA
:10459000F091A605EC0DFD1D61E080810E942E06C4
:1045A000E091A505F091A605EC0DFD1D60E0808170
:1045B0000E94000681E090E0A0E0B0E0072C04C07B
:1045C000880F991FAA1FBB1F0A94D2F74C015C01E8
:1045D000A094B094612C8091A705681608F5062D6B
:1045E00010E0E091A305F091A405E00FF11F808198
:1045F0000E94D7050C5F1F4F000F111FF801EF5BE2
:10460000FA4F892B41F480819181882999299183DE
:1046100080836394E0CF808191818A219B21F7CFB1
:10462000E091A505F091A605EC0DFD1D61E08081EE
:104630000E9400068091A5059091A605C80ED91E7E
:1046400060E0D6018C910E942E06739498CFA1E46D
:10465000CA2EA5E0DA2E8DE795E08601F801278DB8
:1046600030A1232B31F4148E2FEF3FEF368F258F9F
:1046700011A20A5F1F4F8017910781F7912C80913B
:10468000A705981608F053C0812CA92CB12CAA0CB0
:10469000BB1CA501475B5A4F5A012091A805821601
:1046A00008F043C0D5016D917C91082C02C076952D
:1046B00067950A94E2F7929E90011124280D311D0E
:1046C000E1E4F5E080E0458D568D2417350709F4C7
:1046D0005DC48F5F36968A30B1F760FF24C0E1E495
:1046E000F5E090E080E0448D411118C0E091A10513
:1046F000F091A205E20FF31F4081B6E0B89FF001F0
:10470000B99FF00D1124EF5BFA4F448F368F258F40
:1047100010A2178E61E00E94CD0605C00196369664
:104720008A30910501F78394B8CF9394A8CFB12C28
:10473000F60181A18111B82EF6E0CF0ED11C0C1527
:104740001D05B1F70E94C10660939D0570939E05FB
:1047500080939F059093A005BB2009F450C18091E0
:104760006205882309F44BC1809160059091610531
:10477000019709F044C160915D056093B303611135
:1047800043C18091C203882309F4E8C08CE00E94F1
:10479000D7059093B8038093B7032091B503309168
:1047A000B6038217930709F44AC0892B09F047C062
:1047B0008DE00E94D70580900C0190900D01A09093
:1047C0000E01B0900F01892B09F496C320E030E070
:1047D00040EF51E4C501B4010E94572887FF16C07D
:1047E0002DEC3CEC4CEC5DE3C501B4010E94EB27E1
:1047F00060930C0170930D0180930E0190930F0153
:104800006AEC72E08CE494E00E94A01867EE72E01B
:104810008CE494E00E94A01840910C0150910D018D
:1048200060910E0170910F0122E08CE494E00E94EF
:10483000A61760EA71E08CE494E00E94151780915D
:10484000B7039091B8039093B6038093B5038EE0BD
:104850000E94D7052091B403892B09F06AC3211166
:1048600009C081E08093B4036FEE72E08CE494E0C1
:104870000E948C188FE00E94D7059093BD0380930F
:10488000BC032091BA033091BB038217930709F44C
:104890004AC0892B09F047C080E10E94D70580906B
:1048A000100190901101A0901201B0901301892B7A
:1048B00009F447C320E030E040E450E4C501B4010E
:1048C0000E94572887FF16C02DEC3CEC4CEC5DE3B2
:1048D000C501B4010E94EB27609310017093110190
:1048E00080931201909313016AEC72E08CE494E0DF
:1048F0000E94A0186CE073E08CE494E00E94A01881
:1049000040911001509111016091120170911301B9
:1049100022E08CE494E00E94A61760EA71E08CE447
:1049200094E00E9415178091BC039091BD03909371
:10493000BB038093BA0381E10E94D7052091B9039C
:10494000892B09F01BC3211109C081E08093B903B1
:104950006EE173E08CE494E00E948C1820E030EF6C
:104960004FE755E46091BE037091BF038091C0038F
:104970009091C1030E94BB2920E030E040EA50E45E
:104980000E945C280E94CE281092B9002CE020934F
:10499000B80020E429839B0184E0369527958A9509
:1049A000E1F72A836295607F6B830091E90410919F
:1049B000EA04D80114968D919C911597039790F075
:1049C0008C910E94A10543E050E0BE016F5F7F4FD4
:1049D000C8010E940C12882329F01092B90088E4C3
:1049E0008093B80080E090E0892B09F48EC90E9482
:1049F000A507882309F489C90E94000086C910927E
:104A0000AD051092B303BDCE8CE494E00E94340750
:104A100060EA71E08CE494E00E9415172091B303E2
:104A2000022F022E000C110B8091AE03882309F493
:104A3000F8C0B801605371096A30710508F0F1C01F
:104A4000C0900A01D0900B018091AC039091AD030E
:104A5000AC014F5F5F4FFC0133E0C316D10409F492
:104A60006EC1843091050CF023C1EB5FFE4F2083B3
:104A7000880F991FFC01E456FC4F718360835093AB
:104A8000AD034093AC034830510509F0CAC0109201
:104A9000AE0380919C0390919D032AE0289FB00172
:104AA000299F700D112480919E0390919F03680FA0
:104AB000791F072E000C880B990B0E9406294B01C9
:104AC0005C016091A0037091A103072E000C880B7C
:104AD000990B0E9406292DEC3CEC4CEC5DE30E9406
:104AE000BB299B01AC01C501B4010E94EB274B011E
:104AF0005C016091A2037091A303072E000C880B48
:104B0000990B0E9406292AE037ED43E25CE30E94FC
:104B1000BB299B01AC01C501B4010E94EB272B010D
:104B20003C0120E030E040EF51E40E945728181685
:104B30000CF4FEC06091A6037091A703072E000C31
:104B4000880B990B0E9406292DEC3CEC4CEC5DE3A4
:104B50000E94BB294B015C016091A4037091A503E5
:104B6000072E000C880B990B0E9406299B01AC01B3
:104B7000C501B4010E94EB274B015C016091A803C1
:104B80007091A903072E000C880B990B0E9406292F
:104B90002AE037ED43E25CE30E94BB299B01AC01B4
:104BA000C501B4010E94EB274B015C016091AA038F
:104BB0007091AB03072E000C880B990B0E940629FD
:104BC0002FE632E143E85AE30E94BB299B01AC0186
:104BD000C501B4010E94EB274B015C0120E030E0ED
:104BE00040E450E40E94572818160CF4A1C04092EB
:104BF0000C0150920D0160920E0170920F01809293
:104C0000100190921101A0921201B092130141E0A3
:104C1000C416D10409F44FC052E0C516D10409F4FA
:104C20004AC00134110509F04EC08091B103909142
:104C3000B203892B09F45EC081E08093AE0385E066
:104C400090E09093B2038093B10380910A01909118
:104C50000B018230910509F424C18330910511F0D4
:104C6000019721F41092AD031092AC0345E050E09F
:104C700060E270E085E091E00E947F2B45E050E02B
:104C800060E270E080E091E00E947F2BECE9F3E0CD
:104C900080E1DF011D928A95E9F70A32110551F58D
:104CA0008091C203882309F417C11092C20322C065
:104CB000E450FF4FDCCED092B203C092B103013476
:104CC000110509F4B9CF0234110509F0F8C080913B
:104CD000B1039091B203892B69F480910A019091FC
:104CE0000B010196843091050CF0E2C090930B010A
:104CF00080930A018091B303833209F042CD809101
:104D0000B1039091B203892B09F43BCD80910A0144
:104D100090910B018130910509F4E9C00CF0E0C0DD
:104D2000892B09F02ECD1092B0031092AF0329CD3C
:104D300084E090E09093B2038093B103C0CF8430BD
:104D400091050CF0A6C0EB5FFE4F2083880F991FE2
:104D5000FC01E057FC4F718360835093AD03409397
:104D6000AC034630510509F05CCF1092AE03809140
:104D70009003909191032AE0D22ED89EB001D99E43
:104D8000700D11248091920390919303680F791F05
:104D9000072E000C880B990B0E9406294B015C0121
:104DA0006091940370919503072E000C880B990B6A
:104DB0000E9406292DEC3CEC4CEC5DE30E94BB29E3
:104DC0009B01AC01C501B4010E94EB274B015C01C2
:104DD0006091960370919703072E000C880B990B36
:104DE0000E9406292AE037ED43E25CE30E94BB29DA
:104DF0009B01AC01C501B4010E94EB2720E030E02B
:104E000040EF51E40E94572818160CF491CF2091DE
:104E1000980330919903D29EC001D39E900D112426
:104E200020919A0330919B03820F931F97FD80CFAF
:104E300090938F0380938E036AEB72E08CE494E08E
:104E40000E94A01880908E0390908F03092C000C74
:104E5000AA08BB082AE0B501A401B7FE0DC06DE2A7
:104E60008CE494E00E94340744275527BA0148197E
:104E700059096A097B092AE08CE494E00E9424170E
:104E800060EA71E08CE494E00E94151783E090E002
:104E900051CF3497329708F060CFFC01E450FF4FB8
:104EA00054CF84E090E09093AD038093AC03DECECA
:104EB000E1E0F0E0F0930B01E0930A011BCF033433
:104EC000110509F065C080910A0190910B01909342
:104ED000B2038093B1030ECF81E08093C2030ACF67
:104EE0008230910521F08330910509F04ACC9093EE
:104EF000B0038093AF0345CC20E030E0A901C501A9
:104F0000B4010E94B62918160CF080CC2DEC3CECB4
:104F10004CEC5DE3C501B4010E94EA2760930C01EB
:104F200070930D0180930E0190930F0167ED72E075
:104F300069CC222309F49ECC1092B4036DEF72E089
:104F400095CC20E030E0A901C501B4010E94B6294A
:104F500018160CF0CFCC2DEC3CEC4CEC5DE3C5010D
:104F6000B4010E94EA2760931001709311018093AD
:104F700012019093130167ED72E0B8CC222309F47B
:104F8000EDCC1092B9036FE273E0E4CC6170C3CB57
:104F90000434110509F081CE8091B1039091B203E0
:104FA000892B21F41092B0031092AF031092B20338
:104FB0001092B1039FCE82E691E090930205809318
:104FC00001058091200590912105009711F00C9426
:104FD000F12A08955058BB27AA270E9402280C9452
:104FE0007C290E946E2938F00E94752920F039F43E
:104FF0009F3F19F426F40C946B290EF4E095E7FB1F
:105000000C946529E92F0E948D2958F3BA1762077D
:1050100073078407950720F079F4A6F50C94AF295F
:105020000EF4E0950B2EBA2FA02D0B01B9019001C3
:105030000C01CA01A0011124FF27591B99F0593F07
:1050400050F4503E68F11A16F040A22F232F342F4F
:105050004427585FF3CF469537952795A795F0409D
:105060005395C9F77EF41F16BA0B620B730B840BB2
:10507000BAF09150A1F0FF0FBB1F661F771F881F6A
:10508000C2F70EC0BA0F621F731F841F48F48795C2
:1050900077956795B795F7959E3F08F0B0CF9395B4
:1050A000880F08F09927EE0F9795879508950E942D
:1050B000412908F481E008950E9470280C947C290D
:1050C0000E94752958F00E946E2940F029F45F3F34
:1050D00029F00C94652951110C94B0290C946B297A
:1050E0000E948D2968F39923B1F3552391F3951B01
:1050F000550BBB27AA2762177307840738F09F5FF9
:105100005F4F220F331F441FAA1FA9F335D00E2E65
:105110003AF0E0E832D091505040E695001CCAF7D2
:105120002BD0FE2F29D0660F771F881FBB1F261795
:1051300037074807AB07B0E809F0BB0B802DBF016C
:10514000FF2793585F4F3AF09E3F510578F00C943B
:1051500065290C94B0295F3FE4F3983ED4F386951B
:1051600077956795B795F7959F5FC9F7880F911D5C
:105170009695879597F90895E1E0660F771F881F48
:10518000BB1F621773078407BA0720F0621B730BFB
:10519000840BBA0BEE1F88F7E09508950E94D5287E
:1051A0006894B1110C94B02908950E94952988F053
:1051B0009F5798F0B92F9927B751B0F0E1F0660FDB
:1051C000771F881F991F1AF0BA95C9F714C0B1301C
:1051D00091F00E94AF29B1E008950C94AF29672F98
:1051E000782F8827B85F39F0B93FCCF3869577954B
:1051F0006795B395D9F73EF4909580957095619534
:105200007F4F8F4F9F4F0895E89409C097FB3EF45E
:1052100090958095709561957F4F8F4F9F4F992303
:10522000A9F0F92F96E9BB279395F6958795779581
:105230006795B795F111F8CFFAF4BB0F11F460FF41
:105240001BC06F5F7F4F8F4F9F4F16C0882311F099
:1052500096E911C0772321F09EE8872F762F05C0AD
:10526000662371F096E8862F70E060E02AF09A9548
:10527000660F771F881FDAF7880F9695879597F93D
:105280000895990F0008550FAA0BE0E8FEEF1616D7
:105290001706E807F907C0F012161306E407F5072A
:1052A00098F0621B730B840B950B39F40A2661F09E
:1052B000232B242B252B21F408950A2609F4A14041
:1052C000A6958FEF811D811D089597F99F6780E84E
:1052D00070E060E008959FEF80EC089500240A9448
:1052E0001616170618060906089500240A941216C1
:1052F0001306140605060895092E0394000C11F4F4
:10530000882352F0BB0F40F4BF2B11F460FF04C0A0
:105310006F5F7F4F8F4F9F4F089557FD9058440FF9
:10532000551F59F05F3F71F04795880F97FB991F04
:1053300061F09F3F79F087950895121613061406C1
:10534000551FF2CF4695F1DF08C01616170618064E
:10535000991FF1CF86957105610508940895E89429
:10536000BB2766277727CB0197F908950E9441292B
:1053700008F48FEF08950E94CE290C947C290E9496
:105380006E2938F00E94752920F0952311F00C94B5
:1053900065290C946B2911240C94B0290E948D2945
:1053A00070F3959FC1F3950F50E0551F629FF00178
:1053B000729FBB27F00DB11D639FAA27F00DB11D91
:1053C000AA1F649F6627B00DA11D661F829F22271A
:1053D000B00DA11D621F739FB00DA11D621F839FA1
:1053E000A00D611D221F749F3327A00D611D231F77
:1053F000849F600D211D822F762F6A2F11249F57C5
:1054000050409AF0F1F088234AF0EE0FFF1FBB1FC7
:10541000661F771F881F91505040A9F79E3F510586
:1054200080F00C9465290C94B0295F3FE4F3983E1A
:10543000D4F3869577956795B795F795E7959F5F30
:10544000C1F7FE2B880F911D9695879597F90895C2
:105450000E944129880B990B0895A1E21A2EAA1BDC
:10546000BB1BFD010DC0AA1FBB1FEE1FFF1FA21714
:10547000B307E407F50720F0A21BB30BE40BF50B11
:10548000661F771F881F991F1A9469F7609570959A
:10549000809590959B01AC01BD01CF010895EE0F61
:1054A000FF1F0590F491E02D09940F931F93CF9364
:1054B000DF938230910510F482E090E0E091B20534
:1054C000F091B30530E020E0B0E0A0E0309799F42F
:1054D0002115310509F44AC0281B390B2430310548
:1054E000D8F58A819B816115710589F1FB01938350
:1054F0008283FE0111C040815181028113814817CE
:105500005907E0F04817590799F4109761F012967F
:105510000C93129713961C933296CF01DF91CF9183
:105520001F910F9108950093B2051093B305F4CF26
:105530002115310551F04217530738F0A901DB015D
:105540009A01BD01DF01F801C1CFEF01F9CF9093BE
:10555000B3058093B205CDCFFE01E20FF31F819317
:1055600091932250310939832883D7CF2091B005F8
:105570003091B105232B41F420912E0130912F0160
:105580003093B1052093B00520912C0130912D016D
:105590002115310541F42DB73EB7409130015091AE
:1055A0003101241B350BE091B005F091B105E217F4
:1055B000F307A0F42E1B3F0B2817390778F0AC0136
:1055C0004E5F5F4F2417350748F04E0F5F1F509313
:1055D000B1054093B005819391939FCFF0E0E0E057
:1055E0009CCFCF93DF930097E9F0FC0132971382B1
:1055F0001282A091B205B091B305ED0130E020E038
:105600001097A1F420813181820F931F2091B00562
:105610003091B1052817390709F061C0F093B10541
:10562000E093B005DF91CF910895EA01CE17DF072F
:10563000E8F54A815B819E0141155105B1F7E90109
:10564000FB83EA8349915991C40FD51FEC17FD07DD
:1056500061F4808191810296840F951FE9019983FD
:105660008883828193819B838A83F0E0E0E01296B5
:105670008D919C9113970097B9F52D913C911197BD
:10568000CD010296820F931F2091B0053091B10594
:105690002817390739F6309751F51092B305109253
:1056A000B205B093B105A093B005BCCFD383C2833C
:1056B00040815181840F951FC817D90761F44E5F4F
:1056C0005F4F88819981480F591F518340838A8198
:1056D0009B81938382832115310509F0B0CFF0932C
:1056E000B305E093B2059ECFFD01DC01C0CF13826C
:1056F0001282D7CF81E090E0F8940C94862BDC01E5
:1057000001C06D9341505040E0F7089515E0C3E5A6
:10571000D5E004C0FE010E944F2A2196C435D1076E
:06572000C9F7F894FFCF69
:1057260020202020002020202000010000007041C1
:105736000000C03F070605040B0A09083132334151
:1057460034353642373839432A3023440000B4050D
:105756008000004000500060007000000000DB0781
:105766003B0768072808990777078B0700000000A2
:105776007D1250124D15AD05491236122712000042
:105786000000E00C3B074D159A10EF09AD05850F9B
:105796005D0F790F6D0FED0FAD05A60AD8145F09E1
:1057A600A809A60E890E110EB20D000000002907E9
:1057B6002D0731076E616E00696E66006F766600B2
:1057C6000D0A00486F6C612045726E6573746F0038
:1057D6004269656E76656E69646F005265736574BD
:1057E600002A2000312E2054656E73696F6E0032D8
:1057F6002E20436F727269656E746500332E2052D7
:10580600616D70612020004F464620005420004301
:105816002000522000456E636F200054656320000F
:10582600542E20523A00432E20523A004D4F444FF8
:105836002054454E53494F4E005265616C3A004420
:105846006573656164613A20004D4F444F20434FB4
:10585600525249454E5445002020443A2000742EA9
:1058660020523A002020443A004D4F444F205241E6
:105876004D50410056616C6F72657320496E7661BA
:105886006C69646F730050726573696F6E6520543E
:1058960065636C610054454E53494F4E3A20002EC5
:1058A60000434F525249454E54453A20004544491B
:1058B6005441522056414C4F5245533A2000436FB3
:1058C600727269656E7465204D41583A20005449DC
:1058D600454D504F3A20002073005469656D706F36
:1058E6004361726761646F3A20004769726F206195
:1058F600756D656E746F004769726F2064656372BB
:10590600656D656E746F0056616C6F723A20004269
:105916006F746F6E2050756C7361646F00426F74A4
:105926006F6E204C6962657261646F0056616C6FC0
:105936007220695F656E636F6465723A2000426F1C
:1059460074C3B36E20322050756C7361646F00426D
:105956006F74C3B36E2032204C6962657261646FE6
:0259660000003F
:00000001FF
