:100000000C9454050C947C050C947C050C947C0594
:100010000C947C050C947C050C947C050C947C055C
:100020000C947C050C947C050C947C050C947C054C
:100030000C947C050C947C050C947C050C947C053C
:100040000C943B170C947C050C94AB170C948517FF
:100050000C947C050C947C050C947C050C947C051C
:100060000C94DD170C947C0500000000003E5B4FF3
:100070005B3E3E6B4F6B3E1C3E7C3E1C183C7E3C08
:10008000181C577D571C1C5E7F5E1C00183C180016
:10009000FFE7C3E7FF0018241800FFE7DBE7FF30A6
:1000A000483A060E2629792926407F050507407F14
:1000B00005253F5A3CE73C5A7F3E1C1C08081C1C87
:1000C0003E7F14227F22145F5F005F5F06097F017D
:1000D0007F006689956A606060606094A2FFA29468
:1000E00008047E040810207E201008082A1C080836
:1000F0001C2A08081E101010100C1E0C1E0C303884
:100100003E3830060E3E0E06000000000000005F84
:1001100000000007000700147F147F14242A7F2AA0
:100120001223130864623649562050000807030062
:10013000001C2241000041221C002A1C7F1C2A08AE
:10014000083E080800807030000808080808000011
:1001500060600020100804023E5149453E00427F85
:10016000400072494949462141494D331814127FD4
:100170001027454545393C4A494931412111090774
:100180003649494936464949291E000014000000F5
:1001900040340000000814224114141414140041C7
:1001A00022140802015909063E415D594E7C121184
:1001B000127C7F494949363E414141227F414141BC
:1001C0003E7F494949417F090909013E4141517337
:1001D0007F0808087F00417F41002040413F017FA8
:1001E000081422417F404040407F021C027F7F0470
:1001F00008107F3E4141413E7F090909063E4151B9
:10020000215E7F09192946264949493203017F01A8
:10021000033F4040403F1F2040201F3F4038403FA9
:10022000631408146303047804036159494D4300BF
:100230007F4141410204081020004141417F0402F6
:10024000010204404040404000030708002054548D
:1002500078407F284444383844444428384444286B
:100260007F385454541800087E090218A4A49C78BE
:100270007F0804047800447D40002040403D007F1A
:100280001028440000417F40007C047804787C08FA
:100290000404783844444438FC18242418182424CE
:1002A00018FC7C08040408485454542404043F44B3
:1002B000243C4040207C1C2040201C3C4030403CE2
:1002C00044281028444C9090907C4464544C440042
:1002D00008364100000077000000413608000201A6
:1002E0000204023C2623263C1EA1A161123A404092
:1002F000207A38545455592155557941225454780F
:1003000042215554784020545579400C1E527212A7
:100310003955555559395454545939555454580030
:1003200000457C410002457D420001457C407D1234
:1003300011127DF0282528F07C5455450020545496
:100340007C547C0A097F4932494949323A44444441
:100350003A324A4848303A4141217A3A424020787C
:10036000009DA0A07D3D4242423D3D4040403D3C7D
:1003700024FF2424487E4943662B2FFC2F2BFF09A2
:1003800029F620C0887E0903205454794100004496
:100390007D413048484A32384040227A007A0A0A81
:1003A000727D0D19317D2629292F282629292926F4
:1003B00030484D4020380808080808080808382F39
:1003C00010C8ACBA2F102834FA00007B00000814C3
:1003D0002A142222142A14085500550055AA55AA99
:1003E00055AAFF55FF55FF000000FF00101010FF39
:1003F00000141414FF001010FF00FF1010F010F094
:10040000141414FC001414F700FF0000FF00FF1484
:1004100014F404FC141417101F10101F101F1414D0
:10042000141F00101010F0000000001F101010101A
:100430001F10101010F010000000FF10101010100E
:1004400010101010FF10000000FF140000FF00FF4C
:1004500000001F10170000FC04F4141417101714E8
:1004600014F404F40000FF00F7141414141414140A
:10047000F700F7141414171410101F101F1414147D
:10048000F4141010F010F000001F101F0000001FE7
:1004900014000000FC140000F010F01010FF10FF1A
:1004A000141414FF141010101F00000000F010FFAF
:1004B000FFFFFFFFF0F0F0F0F0FFFFFF0000000093
:1004C00000FFFF0F0F0F0F0F3844443844FC4A4A17
:1004D0004A347E02020606027E027E0263554941CC
:1004E000633844443C04407E201E2006027E020203
:1004F00099A5E7A5991C2A492A1C4C7201724C3017
:100500004A4D4D303048784830BC625A463D3E49ED
:100510004949007E0101017E2A2A2A2A2A44445F91
:10052000444440514A444040444A51400000FF0185
:1005300003E080FF000008086B6B08361236243693
:10054000060F090F060000181800000010100030F8
:1005500040FF0101001F01011E00191D1712003C80
:100560003C3C3C0000000000000103070F1F3F7FE0
:100570000080C0E0F0F8FCFEDB40A4A62EAF200017
:10058000A1C8D300408DAED580A800006000000057
:100590000000000000000000000000E0000000007B
:1005A00000000000000000000001E000000000006A
:1005B000000000000000000001F00000000000004A
:1005C0000000000000000003F00000000000000038
:1005D00000000000000007F0000000000000000024
:1005E000000000000007F80000000000000000000C
:1005F000000000000FF800000003C0007E000001B2
:10060000E0007F0FF800000003C000FE000001E0E2
:1006100000FFEFF800000003C000FE000001E00052
:10062000FFFFF800000003C000F00000000F007F93
:10063000FE7FC0000003C000F00000000F003FFE7E
:100640007FF83FF1FBCFFCFEF3BC3DEFE01FFE7FE8
:10065000FF7FFBFFDFFEFEFFBC3DEFE01FC6FFFF9D
:100660007FFBFFDFFEFEFFBC3DEFE00FE3C7FE7840
:100670007BC3DE1EF0FFBC3DEF0007FF87FC787BED
:10068000C3DE1EF0F83C3DEF0001FFFFF0007BC32E
:10069000C01EF0F03C3DEF0001F37FE03FFBC3CF15
:1006A000FEF0F03C3DEF0003E33F807FFBC3DFFE45
:1006B000F0F03C3DEF0007E73C00787BC3DE1EF026
:1006C000F03C3DEF0007FFBE00787BC3DE1EF0F07C
:1006D0003C3DEF0007FFFE00787BC3DE1EF0F03CE0
:1006E0003DEF000FFFFE007FFBFFDFFEF0F03FFD60
:1006F000EFE00FFFFF007FFBFFDFFEF0F03FFDEFBD
:10070000E00FF9FF003E79F9CF9EF0F01F3DE7E0E2
:100710001FF1FF0000000000000000000000001FAB
:1007200080FF007FFFFFFFFFFFFFFFFFFFE01C00D8
:100730007F007FFFFFFFFEB46D888D18E000001F73
:10074000007FFFFFFFFE95AD7DB577E000000F0055
:100750007FFFFFFFFEA5AD9D8D19E0000006007F25
:10076000FFFFFFFEB5ADEDB57EE00000000000012B
:100770008000000000000000000003800000000076
:10078000000000000007C0000000000000000000A2
:1007900007C00000000000000000000FC0000000C3
:1007A0000000000000001FE000000000000000004A
:1007B000001FE00000000000000000003FE000001B
:1007C000000000000000003FF000000000000000FA
:1007D00000007FF0000000000000001FF87FF00024
:1007E0000000000000003FFE7FF00000000000005D
:1007F000003FFF7FF0000000000000001FFFFBE053
:10080000000000000000000FFFF9FFC00000000022
:1008100000000FFFF9FFF800000000000007FFF1E3
:10082000FFFF00000000000003FC73FFFF800000DA
:1008300000000001FE3FFFFF80000000000000FFFD
:100840001E0FFF000000000000007FFE1FFC0000E4
:1008500000000000003FFFFFF80000000000000063
:100860000FDFFFE0000000000000001F19FFC000C4
:100870000000000000003F3CFF00000000000000FE
:10088000007E7CF800000000000000007FFE7C007D
:1008900000000000000000FFFFFC0000000000005E
:1008A0000000FFFFFE0000000000000000FFFFFE50
:1008B0000000000000000001FFEFFE00000000004B
:1008C000000001FFCFFE0000000000000003FF0752
:1008D000FE0000000000000003FC07FE0000000016
:1008E00000000003F003FE00000000000000018093
:1008F00000FE000000000000000000007E0000007C
:10090000000000000000003E0000000000000000A9
:1009100000000C000000000000078000FC00000345
:10092000C0000000078001FC000003C000000007B9
:100930008001FC000003C0000000078001E000000F
:10094000001E000000078001E00000001E007FE3A1
:10095000F79FF9FDE7787BDFC0FFF7FFBFFDFDFFE5
:10096000787BDFC0FFF7FFBFFDFDFF787BDFC0F0C6
:10097000F787BC3DE1FF787BDE00F0F787BC3DE107
:10098000F0787BDE0000F787803DE1E0787BDE00D9
:100990007FF7879FFDE1E0787BDE00FFF787BFFDF3
:1009A000E1E0787BDE00F0F787BC3DE1E0787BDEBC
:1009B00000F0F787BC3DE1E0787BDE00F0F787BC14
:1009C0003DE1E0787BDE00FFF7FFBFFDE1E07FFB6C
:1009D000DFC0FFF7FFBFFDE1E07FFBDFC07CF3F38B
:1009E0009F3DE1E03E7BCFC0000000000000000022
:1009F000000000FFFFFFFFFFFFFFFFFFFFC0FFFF43
:100A0000FFFFFD68DB111A31C0FFFFFFFFFD2B5A0E
:100A1000FB6AEFC0FFFFFFFFFD4B5B3B1A33C0FFDC
:100A2000FFFFFFFD6B5BDB6AFDC053534431333086
:100A30003620616C6C6F636174696F6E20666169EA
:100A40006C65640000000000240027002A000000FC
:100A50000000250028002B000000000023002600D5
:100A60002900040404040404040402020202020231
:100A70000303030303030102040810204080010262
:100A800004081020010204081020000000080002E1
:100A90000100000304070000000000000000220025
:100AA000FF210000FC18E12511241FBECFEFD8E084
:100AB000DEBFCDBF13E0A0E0B1E0E4E2F3E502C0A9
:100AC00005900D92A831B107D9F725E0A8E1B3E070
:100AD00001C01D92A538B207E1F715E0C3E5D5E0E6
:100AE00004C02197FE010E944E28C235D107C9F7E4
:100AF0000E94201A0C9485290C94000008950895F2
:100B0000089596E0899FD0011124AA53BB4F909677
:100B10007C936E935F9791E091969C939197E0916F
:100B20003305F091340590913205992339F03097CF
:100B300051F0811108C08091E2040994309719F0B6
:100B40005C968C91FACF0895CF92DF92EF92FF924C
:100B50000F931F9396E0899FF0011124EA53FB4FF6
:100B600011A2278D30A12130310551F178F02230CA
:100B7000310509F451C02330310509F452C01F91E9
:100B80000F91FF90EF90DF90CF9008956623B9F317
:100B900061E070E00E9481052FB7F89480910F0406
:100BA00090911004A0911104B09112042FBF809372
:100BB0001E0590931F05A0932005B0932105DFCF5C
:100BC0009FB7F894C0900F04D0901004E0901104E7
:100BD000F09012049FBF00911E0510911F052091F7
:100BE000200530912105C01AD10AE20AF30A0091CA
:100BF00030051091310530E020E00C151D052E0563
:100C00003F0550F462E070E01F910F91FF90EF906C
:100C1000DF90CF900C9481056111B1CF63E070E05B
:100C2000F3CF70E060E0F0CF833081F028F48130C2
:100C300099F08230A9F008958730A9F08830C9F082
:100C40008430B1F4809180008F7D03C0809180005A
:100C50008F7780938000089584B58F7784BD089541
:100C600084B58F7DFBCF8091B0008F778093B000EB
:100C700008958091B0008F7DF9CFCF93DF93282F17
:100C800030E0F901E657F54F8491F901EA58F54F44
:100C9000D491F901EE59F54FC491CC23A1F0811103
:100CA0000E941406EC2FF0E0EE0FFF1FE85AF54FFC
:100CB000A591B491EC91ED2381E090E009F480E0FE
:100CC000DF91CF91089580E090E0FACF1F93CF930A
:100CD000DF93282F30E0F901E657F54F8491F901B1
:100CE000EA58F54FD491F901EE59F54FC491CC2350
:100CF000A9F0162F81110E941406EC2FF0E0EE0FE0
:100D0000FF1FE25BF54FA591B4918FB7F894EC917A
:100D1000111108C0D095DE23DC938FBFDF91CF91F6
:100D20001F910895DE2BF8CFCF93DF9390E0FC0165
:100D3000EA58F54F24918E59954FFC0184918823F0
:100D4000C9F090E0880F991FFC01EC5BF54FA5916D
:100D5000B491FC01E25BF54FC591D49161110DC0D6
:100D60009FB7F8948C91209582238C9388812823B7
:100D700028839FBFDF91CF910895623051F49FB7D0
:100D8000F8943C91822F809583238C93E8812E2BBD
:100D9000EFCF8FB7F894EC912E2B2C938FBFEACF27
:100DA0003FB7F89480910B0490910C04A0910D042E
:100DB000B0910E0426B5A89B05C02F3F19F00196EF
:100DC000A11DB11D3FBFBA2FA92F982F8827BC01A5
:100DD000CD01620F711D811D911D42E0660F771FCD
:100DE000881F991F4A95D1F708958F929F92AF92CD
:100DF000BF92CF92DF92EF92FF924B015C010E9473
:100E0000D0066B017C010E94D0066C197D098E0909
:100E10009F09683E734081059105A8F321E0821A7D
:100E20009108A108B10888EEC80E83E0D81EE11C25
:100E3000F11C81149104A104B10429F7FF90EF90F3
:100E4000DF90CF90BF90AF909F908F900895862FA6
:100E5000642F0C949406862F642F0C946606862FBC
:100E60000C943D06DC01ED91FC910190F081E02DA8
:100E70000994AF92BF92CF92DF92EF92FF920F93BD
:100E80001F93CF93DF936C017B018B01040F151F20
:100E9000EB015E01AE18BF08C017D10759F0699188
:100EA000D601ED91FC910190F081E02DC6010995EC
:100EB000892B79F7C501DF91CF911F910F91FF9099
:100EC000EF90DF90CF90BF90AF900895FC01538DCD
:100ED000448D252F30E0842F90E0821B930B541714
:100EE00010F0CF96089501970895FC01918D828DA1
:100EF000981761F0A28DAE0FBF2FB11D5D968C913A
:100F0000928D9F5F9F73928F90E008958FEF9FEF78
:100F10000895FC01918D828D981731F0828DE80F34
:100F2000F11D858D90E008958FEF9FEF0895FC01EE
:100F3000918D228D892F90E0805C9F4F821B9109BB
:100F40008F73992708958DE194E00E94970721E01F
:100F5000892B09F420E0822F089580E090E0892B0E
:100F600029F00E94A30781110C9400000895FC0150
:100F7000A48DA80FB92FB11DA35ABF4F2C91848DFA
:100F800090E001968F739927848FA689B7892C9357
:100F9000A089B1898C91837080648C93938D848DAA
:100FA000981306C00288F389E02D80818F7D8083AD
:100FB0000895EF92FF920F931F93CF93DF93EC016D
:100FC00081E0888F9B8D8C8D98131AC0E889F989F0
:100FD000808185FF15C09FB7F894EE89FF896083F3
:100FE000E889F98980818370806480839FBF81E074
:100FF00090E0DF91CF911F910F91FF90EF900895B6
:10100000F62E0B8D10E00F5F1F4F0F731127E02E90
:101010008C8D8E110CC00FB607FCFACFE889F989C8
:10102000808185FFF5CFCE010E94B707F1CFEB8D10
:10103000EC0FFD2FF11DE35AFF4FF0829FB7F8949C
:101040000B8FEA89FB8980818062CFCFCF93DF93BA
:10105000EC01888D8823B9F0AA89BB89E889F989D0
:101060008C9185FD03C0808186FD0DC00FB607FC05
:10107000F7CF8C9185FFF2CF808185FFEDCFCE0138
:101080000E94B707E9CFDF91CF910895EF92FF92C9
:101090000F931F93CF93DF93EC01EC80FD806E15CF
:1010A0007F050CF070C057FF04C0240F351F50E0BF
:1010B00040E08E819F81FA01E20FF31F8E179F0798
:1010C0001CF49C01241B350B121613060CF05BC09C
:1010D000922F842F8695869586958E9DD0018F9D23
:1010E000B00D11246A0F7B1FAF8DB8A1A60FB71FDB
:1010F000477049F188E0841B482F682F70E0FB019E
:10110000E059FA4FE491281708F063C0621B710997
:101110002FEF30E002C0359527956A95E2F7E2237C
:101120000130110539F0B0F10230110561F58C91F3
:10113000E82702C08C91E82BEC93941720F12C81C6
:101140003D81A20FB31FE92FE41BE83078F0023095
:10115000110521F58E2F9C9190959C932C813D81BA
:10116000A20FB31F88508830B0F7E770EE2359F014
:10117000F0E0E859FA4FE49101301105F9F010F16F
:101180000230110519F1DF91CF911F910F91FF905E
:10119000EF900895E0958C91E823CECF81E0011582
:1011A000110509F480E081959E2F8C932C813D815F
:1011B000A20FB31F98509830C0F7D7CF8C91E82B6F
:1011C000EC93E1CFE0958C91E823FACF8C91E8275E
:1011D000F7CF0130110509F4ADCFE0F2023011056F
:1011E00009F4A5CFAE0DBF1DAECF0F931F93CF93C4
:1011F000DF9377FF04C0260F371F70E060E0DC014B
:101200001496CD91DC91FB01E20FF31FCE17DF079F
:101210001CF49E01261B370B121613064CF5FA011F
:1012200057FD3796A3E0F595E795AA95E1F7EC9F72
:10123000D001ED9FB00DFC9FB00D11246A0F7B1FF4
:10124000DC015F96ED91FC91E60FF71F4770552783
:1012500081E090E001C0880F4A95EAF7482F0130FD
:10126000110559F0A8F02E0F3F1F02301105E1F0D3
:10127000DF91CF911F910F9108952E0F3F1FE2171D
:10128000F307B1F38191DF011197842B8C93F7CF92
:1012900080952E0F3F1FE217F30751F39191DF0165
:1012A000119798239C93F7CFE217F30709F38191E5
:1012B000DF01119784278C93F7CF0F931F93FA01C7
:1012C000DC0156964C9156974230E9F04330A1F13B
:1012D000413061F514964D915C91DA01AE1BBF0B64
:1012E000FD01E21BF30B77FD0BC0DC0116964D915F
:1012F0005C916417750724F4AB01BF010E94F508E7
:101300001F910F91089514964D915C91DA01A61BDF
:10131000B70BBD0161507109DC0116964D915C91CE
:10132000DA01AE1BBF0BFD01E21BF30B77FDE8CF2B
:10133000AF010E944608E4CF16964D915C91DA0108
:10134000A61BB70BBD0161507109CDCF0F931F9341
:10135000FA01DC0156964C9156974230A9F0433081
:1013600091F1413019F514964D915C91DA01AE1B63
:10137000BF0BFD013197F7FD04C0AB01BF010E9417
:1013800046081F910F91089514964D915C91DA01D2
:10139000A61BB70BBD01DC0116964D915C91DA01DD
:1013A000AE1BBF0BFD013197621B730BF7FDE9CF3D
:1013B000DC0116964D915C91E417F50714F7AF0127
:1013C0000E94F508DECF16964D915C91DA01A61BBE
:1013D000B70BBD01621B730BCECFFC0177FD64C060
:1013E00080859185681779070CF05EC057FD5CC059
:1013F00082859385481759070CF056C0868982303C
:10140000B1F0833029F1813041F484819581841BCE
:10141000950BAB01BC01615071092130310509F117
:1014200008F443C02230310509F463C00895848173
:101430009581DC01A61BB70BBD0161507109868146
:101440009781DC01A41BB50BAD0141505109E5CFDB
:1014500086819781861B970BBA01AC0141505109D7
:10146000DCCFCA0157FD0796A3E095958795AA950D
:10147000E1F7A481B5818A9F90018B9F300D9A9FDF
:10148000300D1124620F731F078CF0A1E02DE60FC1
:10149000F71F4770552721E030E001C0220F4A9521
:1014A000EAF78081822B80830895CA0157FD079651
:1014B00033E0959587953A95E1F7A481B5818A9FA8
:1014C00090018B9F300D9A9F300D1124620F731F76
:1014D000078CF0A1E02DE60FF71F4770552781E03C
:1014E00090E001C0880F4A95EAF7809590818923A2
:1014F000DACFCA0157FD079623E0959587952A957F
:10150000E1F7A481B5818A9F90018B9F300D9A9F4E
:10151000300D1124620F731F078CF0A1E02DE60F30
:10152000F71F4770552721E030E001C0220F4A9590
:10153000EAF780818227B7CF8EBD00000DB407FE89
:10154000FDCF8EB508950895FC016370668B84818C
:10155000958126813781613039F0633029F0918798
:1015600080873387228708953187208793878287F2
:1015700008952F923F924F925F926F927F928F9237
:101580009F92AF92BF92CF92DF92EF92FF920F9312
:101590001F93CF93DF93CDB7DEB76A970FB6F8945A
:1015A000DEBF0FBECDBF9A8F898F7A8369834A01D0
:1015B000D22E18870F833701BC2CDC0159962D9150
:1015C0003C915A972115310509F015C118968D9156
:1015D0009C911997681779070CF0D7C11A968D91CD
:1015E0009C91481759070CF0D0C14C2C512CB6E0F7
:1015F000CB9E600D711D11247C876B871616170614
:101600000CF0C3C1EA2DF0E0FA87E98793E0EE0F12
:10161000FF1F9A95E1F7F88BEF87CF01840F951F95
:10162000181619060CF0B1C1A98DBA8D58968C9177
:10163000811104C0BFEABD1508F4D394A98DBA8DF9
:10164000ED91FC9111970284F385E02DCD01099570
:10165000B5E0DB9EC0011124E981FA81FC83EB83B4
:10166000312C212C9C0128593F4F388F2F8B4A2D2C
:1016700050E05E8B4D8BEF89F88DE20DF31D4491A8
:101680009E828D82D12CC12C69817A81620D731D5D
:101690007A8B698B842F90E09C8B8B8BE98DFA8DF4
:1016A000A081B18140FF82C0F1E0BF126FC0AF12D4
:1016B0006DC01C96ED91FC912F813885A4014C0DD5
:1016C0005D1D69897A89898D9A8D0995EB89FC89D7
:1016D000F595E7954E2F5FEFC51AD50A6D817E818E
:1016E0008D899E89680F791F7E836D8398E0C91666
:1016F000D10481F6AFEF2A1A3A0AEB81FC81E40D9E
:10170000F51DFC83EB83F5E02F16310409F0B3CF10
:101710002F81388526153705B9F0A98DBA8DED9141
:10172000FC91B1E0BB1257C0AB1255C069817A8100
:101730006B5F7F4F0088F189E02D830128E030E066
:10174000A401898D9A8D0995A98DBA8DED91FC9191
:1017500011970688F789E02DCD016A960FB6F894A7
:10176000DEBF0FBECDBFDF91CF911F910F91FF90D4
:10177000EF90DF90CF90BF90AF909F908F907F9031
:101780006F905F904F903F902F9009941E96ED912F
:10179000FC91EF80F88409851A8592014D815E8164
:1017A0006B817C81898D9A8D099590CF2F813885A9
:1017B0002615370509F48ACF31E0B31207C0A3120A
:1017C00005C01C96ED91FC91930178CF1E96ED918A
:1017D000FC917301E0CF6B857C85641975090684E3
:1017E000F785E02D73010F8518899201A401898D79
:1017F0009A8D0995A9CFF901349694913297459124
:101800005491D91AB7E0DB9E400D511D1124F90106
:10181000259134913C8B2B8BFA0125903490FA0161
:101820003296749031963491398B32966490319619
:10183000449041E04C1518F04A1508F07FC0662D21
:10184000062C000C770B7C836B83842D042C000CFE
:10185000990B9E838D83A98DBA8DED91FC91119783
:101860000284F385E02DCD010995512CD12CC12C9A
:10187000EA2DF0E0FA87E9872B2D30E03C872B87B3
:10188000A401440D511D47FC5A95588F4F8B698117
:101890007A81660D711D67FC7A957E876D877989DF
:1018A000C71608F051CF2C2D30E04D815E81420FDC
:1018B000531FA985BA854A9FC0014B9F900D5A9F1F
:1018C000900D1124FC01E80DF91DF88BEF87852D93
:1018D000612C4F89588D420F531F5E8B4D8B6714BF
:1018E00008F050C044244394480E877041F4C1016D
:1018F0000196EB89FC89E20DF31DD4901C01D7FE03
:1019000019C0A98DBA8DED91FC91662D70E0B1E002
:10191000BB1219C0AB1217C02D853E85620F731F15
:101920000484F585E02D2F8138854D895E89898D68
:101930009A8D0995DD0C6394842DD1CF1E821D8272
:101940001C821B8288CF4B815C81640F751FAB8525
:10195000BC856A9FC0016B9F900D7A9F900D1124EA
:1019600069817A81680F791F0684F785E02DEF8001
:10197000F88409851A859D014F855889898D9A8D2E
:101980000995D8CF570CC3948ACF6A960FB6F894AE
:10199000DEBF0FBECDBFDF91CF911F910F91FF90A2
:1019A000EF90DF90CF90BF90AF909F908F907F90FF
:1019B0006F905F904F903F902F9008958F929F92DD
:1019C000AF92CF92EF92FF920F931F93CF93DF933B
:1019D000EC01262F898D9A8D009709F051C06A304D
:1019E000D1F41D861C868D8948E0849F90011124C6
:1019F0008E859F85820F931F9F878E8781E090E061
:101A0000DF91CF911F910F91FF90EF90CF90AF900A
:101A10009F908F9008956D3089F3CC88AD888F8921
:101A20008823C1F08C859D8536E0C39E800D911D75
:101A30001124488559854817590764F44E855F85F8
:101A40001D861C8638E0A39EC0011124840F951FBB
:101A50009F878E87EA88FB88088919894E855F856C
:101A60006C857D85CE010E94B90A2C898C859D8567
:101A700046E0249F800D911D11249D878C87BECF49
:101A80006A3069F41D861C86FC013896E4912D8924
:101A90008E859F85E29F800D911D1124ADCF6D3005
:101AA00009F4ACCFFC0134963491631708F4A6CF47
:101AB0003296E491E61708F4A1CFFC0132968590A6
:101AC0009490462F431B342F47E0349F800C911C89
:101AD0001124F401329634913196E4913323A9F123
:101AE000EE2399F1CC88F4013596E491AD884F89C5
:101AF000442301F10E2E000CFF0BE30FF11DCE9ECF
:101B0000A001CF9E500D11246C857D85460F571F77
:101B100068857985641775076CF44E855F851D8629
:101B20001C86FC013896E491AE9E400D511D112497
:101B30005F874E87EA88FB88088919894E855F850B
:101B40006C857D85CE010E94B90AF4013496E4913A
:101B50002C898C859D85E29F800D911D11248DCF50
:101B60006F927F928F929F92AF92BF92CF92DF92AD
:101B7000EF92FF920F931F93CF93DF93EC016B01D2
:101B80005A0139014801E881F9810284F385E02D89
:101B90000995E881F9810288F389E02D8701930195
:101BA000A501B601CE010995A501480D591D415069
:101BB0005109E881F9810288F389E02D9301B6018A
:101BC000CE010995E881F9810088F189E02D940121
:101BD000A501B601CE010995C60CD71CB60161500E
:101BE0007109E881F9810088F189E02D9401A5014E
:101BF000CE010995E881F9810688F789E02DCE01AB
:101C0000DF91CF911F910F91FF90EF90DF90CF90D8
:101C1000BF90AF909F908F907F906F9009946F923C
:101C20007F928F929F92AF92BF92CF92DF92EF926C
:101C3000FF920F931F93CF93DF935C01EB016A0137
:101C4000490138018701DC01ED91FC9162177307AE
:101C500019F5641675062CF0962D872D3A01C92EBC
:101C6000D82E9601261937092F5F3F4F048CF58D2A
:101C7000E02DA301BE01C5010995DF91CF911F9110
:101C80000F91FF90EF90DF90CF90BF90AF909F901B
:101C90008F907F906F9008954615570591F4261701
:101CA000370724F0892D4B01C22FD82F9E01281908
:101CB00039092F5F3F4F068CF78DE02DA601B40147
:101CC000DACF0284F385E02D0995D501ED91FC91E1
:101CD0000488F589E02D83019401A601BE01C501A8
:101CE0000995D501ED91FC910688F789E02DC50194
:101CF000DF91CF911F910F91FF90EF90DF90CF90E8
:101D0000BF90AF909F908F907F906F900994EF92CB
:101D1000FF920F931F93DC011A960D911C911B9754
:101D200018962D913C911997ED91FC9100A0F1A18D
:101D3000E02D7B0150E040E070E060E009951F91EC
:101D40000F91FF90EF9008954F925F926F927F9264
:101D50008F929F92AF92BF92CF92DF92EF92FF92BB
:101D60000F931F93CF93DF936C012B015A0139011D
:101D70004801DC01ED91FC910284F385E02D099589
:101D8000E201640C751CD601ED91FC91C615D705D6
:101D90005CF40088F189E02D87019401A501BE0162
:101DA000C60109952196EFCF0688F789E02DC60177
:101DB000DF91CF911F910F91FF90EF90DF90CF9027
:101DC000BF90AF909F908F907F906F905F904F905B
:101DD00009948F929F92AF92BF92CF92DF92EF922F
:101DE000FF920F931F93CF93DF93EC015B014A01A6
:101DF0006901E881F9810284F385E02D0995950157
:101E00002C0D3D1D21503109E881F9810488F589A7
:101E1000E02D78018401A401B501CE010995E88186
:101E2000F9810688F789E02DCE01DF91CF911F91CE
:101E30000F91FF90EF90DF90CF90BF90AF909F9069
:101E40008F9009948F929F92AF92BF92CF92DF9220
:101E5000EF92FF920F931F93CF93DF93EC015B01FF
:101E60004A0169017801E881F9810284F385E02D56
:101E70000995C80CD91C860101501109E881F98126
:101E80000488F589E02D9501A401B501CE010995DD
:101E9000E881F9810688F789E02DCE01DF91CF91A5
:101EA0001F910F91FF90EF90DF90CF90BF90AF9078
:101EB0009F908F900994EF92FF920F931F93DC01F4
:101EC000ED91FC9100A0F1A1E02D09951F910F91DA
:101ED000FF90EF9008950F931F93DC01ED91FC911B
:101EE000068CF78DE02D09951F910F9108950F93A2
:101EF0001F93DC01ED91FC91048CF58DE02D09958B
:101F00001F910F910895DC01ED91FC910084F18502
:101F1000E02D09943F924F925F926F927F928F9241
:101F20009F92AF92BF92CF92DF92EF92FF920F9368
:101F30001F93CF93DF935C017B014A016901390153
:101F400087E0680E711C93E0759467949A95E1F7A9
:101F50002B01400E511E10E000E0312CD0E0C0E01B
:101F6000CE0187709927330C892B59F4FE0183E049
:101F7000F595E7958A95E1F7E00FF11FE80DF91D5A
:101F8000349037FE0AC021E030E0A701B5016C0FA4
:101F90007D1F81E495E00E94830F2196CC16DD061B
:101FA000F9F68FEFE81AF80A060D171DE414F50488
:101FB000A9F6DF91CF911F910F91FF90EF90DF90E5
:101FC000CF90BF90AF909F908F907F906F905F90D9
:101FD0004F903F9008952F923F924F925F926F9251
:101FE0007F928F929F92AF92BF92CF92DF92EF92A9
:101FF000FF920F931F93CF93DF9300D000D000D0B8
:10200000CDB7DEB73C016A013E832D83FC82EB82B3
:102010005801A41AB50AB7FE03C0B194A194B1083F
:102020008D809E80861A970A97FE03C091948194B2
:1020300091088A149B045CF0902F812F0D811E81E2
:102040009D838E839C2D8D2D6B01692F782F0C1510
:102050001D055CF09D818E817E836D83692F782FB5
:10206000902F812F8601C92ED82E1601201A310AF1
:102070002B012D813E81421A530A57FE03C0519411
:1020800041945108710137FE03C03FEFE31AF30A90
:10209000F594E7948D819E81861797075CF5A1E002
:1020A000B0E0BA83A983C016D1064CF1D301ED91FB
:1020B000FC910484F585E02D2B813C81A8016D8184
:1020C0007E818A149B041CF04D815E81B801C3019E
:1020D0000995E418F508F7FE0AC02D813E81898133
:1020E0009A81280F391F3E832D83E20CF31C0F5F6A
:1020F0001F4FD9CF2FEF3FEF3A832983D4CF2696B6
:102100000FB6F894DEBF0FBECDBFDF91CF911F9108
:102110000F91FF90EF90DF90CF90BF90AF909F9086
:102120008F907F906F905F904F903F902F90089589
:10213000089508958CBD9DBD089520917E03260FBE
:102140003327331F21323105ECF42091A203FC0127
:1021500090E080E0243069F082E00895A0917E0351
:102160002191AC01425A5C4FA40FB52FB11D2C93A5
:102170000196861798F380917E03680F60937E0323
:1021800080E0089581E008951092A20381E0809399
:10219000A4031092A30361E082E10E94660661E05D
:1021A00083E10E946606E9EBF0E080818E7F808308
:1021B00080818D7F808388E48093B80085E480935C
:1021C000BC000895109218041092170410921A047B
:1021D000109219040E94C4108EE795E090931604A3
:1021E000809315048FE795E0909314048093130473
:1021F0000895CF93DF9391E090935D038823B9F026
:10220000C091B800D091BA008091BC008A7B8093C5
:10221000BC0060E082E10E94660660E083E10E940B
:1022200066060E94C410D093BA00C093B800DF9134
:10223000CF910895E091180480911704E81730F4C5
:10224000F0E0E85CFC4F808190E008958FEF9FEF15
:10225000089590911804809117042FEF3FEF98177D
:1022600048F4E92FF0E0E85CFC4F208130E09F5F0C
:1022700090931804C901089580911704909118044F
:10228000891B990B0895CF92DF92EF92FF920F93E3
:102290001F93CF93DF937C01CB018A0120911C0413
:1022A000222389F0EB016B01C40ED51ECC15DD0590
:1022B00069F06991D701ED91FC910190F081E02DD9
:1022C000C7010995F3CF642F0E949D10C801DF91CB
:1022D000CF911F910F91FF90EF90DF90CF900895D5
:1022E000CF93DF931F92CDB7DEB7698320911C0493
:1022F0002223F9F020911904203258F021E030E037
:10230000FC013383228390E080E00F90DF91CF9136
:10231000089580911A04E82FF0E0E85EFC4F99815F
:1023200090838F5F80931A048093190481E090E07A
:10233000ECCF61E0CE0101960E949D10F7CFCF92C5
:10234000DF92EF92FF920F931F93CF93DF93D09181
:10235000190481E0D13208F09CC0C0911B040E9496
:10236000D0066B017C018091A20381116CC082E0D8
:102370008093A20381E08093A4038FEF8093A10355
:102380001092C603D093C503A8E1B3E0E5EAF3E0F9
:1023900080E0D8138DC01092C7038091C703CC0F83
:1023A000C82BC093C7038091A303813009F084C078
:1023B0001092A3030E94D0066B017C018091C70399
:1023C0008093BB008091590390915A03A0915B03C5
:1023D000B0915C03892B8A2B8B2BA1F00E94D00635
:1023E0000091590310915A0320915B0330915C03D3
:1023F0006C197D098E099F090617170728073907E9
:1024000008F442C08091BC0083FDD8CF85EC809356
:10241000BC000E94D0066B017C018091A203823037
:1024200009F44CC08091A1038F3F09F469C08091E9
:10243000A103803209F466C08091A103803309F4BE
:1024400063C084E026C08091590390915A03A09103
:102450005B03B0915C03892B8A2B8B2B09F483CF10
:102460000E94D0060091590310915A0320915B03FA
:1024700030915C036C197D098E099F0906171707B7
:102480002807390708F06FCF809158030E94F91090
:1024900085E010921A041092190410921C04DF9126
:1024A000CF911F910F91FF90EF90DF90CF90089503
:1024B0009D9191938F5F6DCF85EEA9CF8091590348
:1024C00090915A03A0915B03B0915C03892B8A2BF6
:1024D0008B2B09F4A2CF0E94D006009159031091D2
:1024E0005A0320915B0330915C036C197D098E09BE
:1024F0009F09061717072807390708F08ECFC4CFA2
:1025000080E0C7CF82E0C5CF83E0C3CFEF92FF92D8
:102510000F931F93CF93DF937C01C62F80915E05AD
:1025200090915F05009709F459C02091620531E050
:1025300030931C0420931B0410921A041092190467
:10254000DC01ED91FC910190F081E02D60E00995B6
:102550008701EE24E394F12CD1E0C15080915E0517
:1025600090915F05CF3F91F1B0E2EB16F104D8F006
:102570000E949F1180915E0590915F0520916205F8
:10258000D0931C0420931B0410921A041092190477
:10259000DC01ED91FC910190F081E02D60E0099566
:1025A000EE24E394F12C80915E0590915F05F80193
:1025B0006491DC01ED91FC910190F081E02D099591
:1025C000BFEFEB1AFB0A0F5F1F4FC7CFDF91CF9111
:1025D0001F910F91FF90EF900C949F11E0916E0569
:1025E000F0916F0590818091740580958923808397
:1025F0008701C15008F438C0F801849120915C052E
:1026000030915D05232B29F00E949C0A0F5F1F4F1C
:10261000F0CF28E030E040E8E0916A05F0916B05EA
:1026200090917205582F5423D9F05081952B9083A7
:10263000E0916C05F0916D05908150917305952B9B
:102640009083E0916C05F0916D0550819091730538
:10265000909595239083469521503109E9F6D6CF80
:10266000508190959523E3CFDF91CF911F910F91EA
:10267000FF90EF9008951F93CF93DF93EC018D8D22
:102680009E8D009721F1162F29A131E030931C0473
:1026900020931B0410921A0410921904DC01ED918E
:1026A000FC910190F081E02D60E009958D8D9E8D6B
:1026B000DC01ED91FC910190F081E02D612F0995F5
:1026C0008D8D9E8DDF91CF911F910C949F11ADA5A3
:1026D000BEA59C918BA9809589238C938B8D9C8D15
:1026E000892B31F0862FDF91CF911F910C949C0A9A
:1026F00028E030E080E8A9A5BAA599A9462F48238B
:10270000C1F04C91942B9C93ABA5BCA59C914AA97C
:10271000942B9C93ABA5BCA54C919AA9909594231E
:102720009C9386952150310931F7DF91CF911F910C
:1027300008954C9190959423E6CFDF92EF92FF920B
:102740000F931F93CF93DF9380915E0590915F0568
:10275000892B09F498C02091760530917705409136
:1027600078055091790560E074E284EF90E00E9472
:102770002C28205131094109510956954795379523
:1027800027952093B80065E08EE99AE00E948612B2
:1027900060914505615081E495E00E943B132091D2
:1027A000470530914805C901079697FD079633E024
:1027B000959587953A95E1F7209145053091460525
:1027C000829F8001839F100D929F100D1124C09154
:1027D0006005D091610580915E0590915F050C0FB9
:1027E0001D1F009709F48FC02091620531E03093DE
:1027F0001C0420931B0410921A0410921904DC018B
:10280000ED91FC910190F081E02D60E40995EE24BA
:10281000E394F12CDD24D39480915E0590915F05C3
:102820000C171D0709F446C0B0E2EB16F104D8F00E
:102830000E949F1180915E0590915F052091620535
:10284000D0921C0420931B0410921A0410921904B5
:10285000DC01ED91FC910190F081E02D60E409959F
:10286000EE24E394F12C80915E0590915F056991CF
:10287000DC01ED91FC910190F081E02D0995BFEF15
:10288000EB1AFB0AC9CF80915C0590915D05892BFD
:1028900031F080917F05909180050E949A10E0911F
:1028A0007005F0917105908180917505809589235F
:1028B000808369CF0E949F1180915E0590915F0592
:1028C000892B09F461C020917A0530917B054091F4
:1028D0007C0550917D0560E074E284EF90E00E94F9
:1028E0002C282051310941095109569547953795B2
:1028F00027952093B800DF91CF911F910F91FF9002
:10290000EF90DF900895E0916E05F0916F05808162
:1029100090917405892B80830C171D0769F28991AA
:1029200020915C0530915D05232B19F00E949C0AD3
:10293000F3CF28E030E040E8E0916A05F0916B05C4
:1029400090917205582F5423D9F05081952B908384
:10295000E0916C05F0916D05908150917305952B78
:102960009083E0916C05F0916D0550819091730515
:10297000909595239083469521503109E9F6CCCF67
:10298000508190959523E3CFE0917005F09171050A
:10299000808190917505892B8083ADCF1F93CF9354
:1029A000DF93EC01162F8D8D9E8D892BB1F12DA912
:1029B0003EA94FA958AD60E074E284EF90E00E9418
:1029C0002C282051310941095109569547953795D1
:1029D00027952093B80066EA111167EACE010E949C
:1029E0003B138D8D9E8D892B41F129AD3AAD4BADB9
:1029F0005CAD60E074E284EF90E00E942C282051EE
:102A000031094109510956954795379527952093E6
:102A1000B800DF91CF911F9108958B8D9C8D892BEC
:102A200021F08EAD9FAD0E949A10EFA5F8A990817C
:102A30008CA9809589238083CECFEFA5F8A98081CA
:102A40009CA9892B8083E5CFCF93DF93EC018B8109
:102A50008823A9F089819A81288131E030931C0470
:102A600020931B0410921A04109219040E949F11C3
:102A700091E0811190E0892FDF91CF9108950E941C
:102A8000E21081E08B83CE010E942415982F8111E2
:102A9000E1CFF1CF90E080E008952091470530919B
:102AA0004805C901079697FD079623E095958795F8
:102AB0002A95E1F72091450530914605829FA001B6
:102AC000839F500D929F500D112470E060E0809123
:102AD0006005909161050C947E290E947929FB0183
:102AE00001900020E9F73197AF01461B570BDC013D
:102AF000ED91FC910280F381E02D09948F929F92D9
:102B0000AF92BF92EF92FF920F931F93CF93DF93F9
:102B1000CDB7DEB7A1970FB6F894DEBF0FBECDBF1D
:102B20007C01FA01CB0119A2223008F42AE08E01BF
:102B30000F5D1F4F822E912CB12CA12CBF01A5013E
:102B400094010E942C28F901CA016A300CF5605DDD
:102B5000D8016E938D01232B242B252B79F790E040
:102B600080E0109721F0BD01C7010E946F15A1966A
:102B70000FB6F894DEBF0FBECDBFDF91CF911F918E
:102B80000F91FF90EF90BF90AF909F908F9008951E
:102B9000695CDECFCF92DF92EF92FF920F931F938B
:102BA000CF93DF936B01770FEE08FF08F7FE1BC092
:102BB000EC016DE20E9432078C0144275527BA01CF
:102BC0004C195D096E097F092AE0CE010E947E152D
:102BD000800F911FDF91CF911F910F91FF90EF9088
:102BE000DF90CF9008952AE0B701A601DF91CF9141
:102BF0001F910F91FF90EF90DF90CF900C947E1576
:102C00002F923F924F925F926F927F928F929F92FC
:102C1000AF92BF92CF92DF92EF92FF921F93CF932A
:102C2000DF93EC016A017B01722EAB019601CB01AF
:102C3000B6010E9427286DE871E0811126C0460187
:102C40005701E894B7F82FEF3FEF4FE75FE7C50173
:102C5000B4010E94272881110CC02FEF3FEF4FE7EE
:102C60005FE7C501B4010E945D2661E971E01816B5
:102C700064F02FEF3FEF4FE75FE4C701B6010E941A
:102C8000B5271816B4F465E971E0CE01DF91CF9154
:102C90001F91FF90EF90DF90CF90BF90AF909F90EB
:102CA0008F907F906F905F904F903F902F900C94FB
:102CB0006F152FEF3FEF4FE75FECC701B6010E94A2
:102CC0005D2687FDE0CF20E030E0A901C701B60115
:102CD0000E945D26312C212C87FF09C06DE2CE01B8
:102CE0000E9432071C01F7FAF094F7F8F09410E014
:102CF00060E070E080E09FE3711641F020E030E09A
:102D000040E251E40E9462261F5FF6CFA7019601C0
:102D10000E94F1252B013C010E94D4264B015C014D
:102D20002AE0BC01A401CE010E947E157C01E20CC8
:102D3000F31C1123C1F1C501B4010E9403279B01BB
:102D4000AC01C301B2010E94F0254B015C016EE2AF
:102D5000CE010E943207E80EF91E115020F120E04A
:102D600030E040E251E4C501B4010E94BA272B01D2
:102D70003C010E94D4264B01B12CA12C2AE0B501C4
:102D8000A401CE010E947E15E80EF91EC501B40112
:102D90000E9403279B01AC01C301B2010E94F025F0
:102DA0004B015C01DACFC701DF91CF911F91FF90FA
:102DB000EF90DF90CF90BF90AF909F908F907F90DB
:102DC0006F905F904F903F902F900895242FAB010C
:102DD000BC0181E495E00C9400160F931F93CF93F0
:102DE000DF93EC010E946F158C0169E971E0CE015F
:102DF0000E946F15800F911FDF91CF911F910F914E
:102E000008950C946F1585ED8093BC008091590353
:102E100090915A03A0915B03B0915C030796A11DAA
:102E2000B11D23E0B695A795979587952A95D1F77B
:102E30002091BC0024FD03C01092A203089540918C
:102E4000590350915A0360915B0370915C03452BC9
:102E5000462B472B69F30097A105B10541F02AE203
:102E60002A95F1F700C00197A109B109E1CF80913E
:102E700058030C94F9101F920F920FB60F92112461
:102E80002F933F938F939F93AF93BF9380910F04A2
:102E900090911004A0911104B091120430910A0491
:102EA00023E0230F2D3758F50196A11DB11D209366
:102EB0000A0480930F0490931004A0931104B0931C
:102EC000120480910B0490910C04A0910D04B09118
:102ED0000E040196A11DB11D80930B0490930C0468
:102EE000A0930D04B0930E04BF91AF919F918F9169
:102EF0003F912F910F900FBE0F901F90189526E8CD
:102F0000230F0296A11DB11DD2CF1F920F920FB6B3
:102F10000F9211242F933F934F935F936F937F935F
:102F20008F939F93AF93BF93EF93FF938DE194E0C3
:102F30000E94B707FF91EF91BF91AF919F918F9141
:102F40007F916F915F914F913F912F910F900FBEA5
:102F50000F901F9018951F920F920FB60F92112489
:102F60002F938F939F93EF93FF93E0912D04F09114
:102F70002E048081E0913304F091340482FD1BC063
:102F80009081809136048F5F8F7320913704821770
:102F900041F0E0913604F0E0E35EFB4F958F8093C3
:102FA0003604FF91EF919F918F912F910F900FBE5B
:102FB0000F901F9018958081F4CF1F920F920FB63B
:102FC0000F9211242F933F934F935F936F937F93AF
:102FD0008F939F93AF93BF93EF93FF938091B9002B
:102FE000887F803609F44AC0F0F5883209F4A7C01A
:102FF00018F5803109F49BC0B8F4882309F4F9C0AE
:10300000883009F494C0FF91EF91BF91AF919F91E7
:103010008F917F916F915F914F913F912F910F9081
:103020000FBE0F901F901895883109F488C0803228
:1030300051F78093A10314C0803409F49DC040F47B
:103040008033B9F38833F9F68093A10385ECB0C0DF
:10305000803509F485C0883509F496C0883499F61E
:103060000E940317D0CF883909F48CC038F588370F
:1030700029F050F4883611F0803729F683E08093E8
:10308000A2031092A00357C0883809F47BC080398E
:1030900019F0803809F0B7CF8091A003803208F092
:1030A00071C0E091A00381E08E0F8093A003809116
:1030B000BB00F0E0E058FC4F80833DC0803B39F01E
:1030C000E0F4803A09F479C0883A09F09CCF84E0B2
:1030D0008093A20310927F0310927E03E091150467
:1030E000F0911604099580917E0381110FC081E053
:1030F00080937E0310925E0309C0803C09F4A6CF42
:10310000883C09F4A3CF883B09F07DCFE0917F0391
:1031100081E08E0F80937F03F0E0E25AFC4F8081C4
:103120008093BB0090917F0380917E0329C08091A2
:10313000C7038093BB0085EC8093BC0064CF909163
:10314000C6038091C503981758F5E091C60381E046
:103150008E0F8093C603F0E0EB55FC4F8081E9CFE2
:10316000E091C60381E08E0F8093C6038091BB007F
:10317000F0E0EB55FC4F80839091C6038091C5032E
:103180009817C8F285E8D8CFE091C60381E08E0F8A
:103190008093C6038091BB00F0E0EB55FC4F808329
:1031A0008091A40381115CCF81E08093A30384EA22
:1031B0008093BC001092A20326CF85EC8093BC00C4
:1031C0001092A2038091A003803230F4E091A0031A
:1031D000F0E0E058FC4F10826091A00370E0E091B5
:1031E0001304F091140480E893E009951092A00371
:1031F0000ACF1092A10334CF1092200410921F0422
:1032000088EE93E0A0E0B0E0809321049093220444
:10321000A0932304B093240427E331E030931E04E9
:1032200020931D0425EC30E030932A0420932904D8
:1032300024EC30E030932C0420932B0420EC30E07D
:1032400030932E0420932D0421EC30E03093300491
:1032500020932F0422EC30E0309332042093310489
:1032600026EC30E03093340420933304109236047B
:1032700010923704109238041092390410923805D5
:10328000109237058093390590933A05A0933B053A
:10329000B0933C0589E491E0909336058093350521
:1032A000109244051092430520E830E03093460523
:1032B0002093450580E290E0909348058093470570
:1032C00030934A052093490590934C0580934B0514
:1032D0001092570510924E0510924D051092500510
:1032E00010924F0581E080935605809355052FEF8E
:1032F0003FEF3093540520935305309352052093AC
:103300005105809358051092590510925B05109253
:103310005A0585E691E0909342058093410510920D
:103320005D0510925C0585E395E090935F058093C1
:103330005E0510926105109260058FEF8093650520
:10334000809366058093670580936805809369057F
:1033500080E89AE1A6E0B0E0809376059093770547
:10336000A0937805B093790580EA96E8A1E0B0E0F3
:1033700080937A0590937B05A0937C05B0937D059F
:1033800080E580937F05109280051092C80410920A
:10339000CC041092CB041092CD048BE591E0909375
:1033A000C7048093C604E2EEF4E010821482138214
:1033B0001582369685E0EE31F807B9F789E191E09C
:1033C000909329058093280585E191E090932B0542
:1033D00080932A0584E080932C0580932D058DE150
:1033E00091E090932705809326058AE090E09093E2
:1033F0002F0580932E0584EF91E090933105809303
:103400003005109234051092330510922205109267
:103410002305109224051092250510923205109272
:10342000BE041092C0041092BF0480E890E0909314
:10343000C2048093C1041092BB041092BA04089590
:10344000789484B5826084BD84B5816084BD85B57F
:10345000826085BD85B5816085BD80916E0081608B
:1034600080936E0010928100809181008260809331
:103470008100809181008160809381008091800033
:103480008160809380008091B10084608093B1005E
:103490008091B00081608093B00080917A00846058
:1034A00080937A0080917A00826080937A00809184
:1034B0007A00816080937A0080917A00806880939E
:1034C0007A001092C100E0912D04F0912E0482E068
:1034D0008083E0912904F0912A041082E0912B046A
:1034E000F0912C048FEC808310923504E09131042C
:1034F000F091320486E08083E0912F04F091300453
:10350000808180618083E0912F04F091300480817C
:1035100088608083E0912F04F0913004808180687E
:103520008083E0912F04F091300480818F7D80832F
:103530000E94E21060E08CE00E94940660E08DE062
:103540000E94940662E08EE00E9494068CE00E9445
:103550003D069093F2038093F10360E08FE00E94B8
:10356000940660E080E10E94940662E081E10E949E
:1035700094068FE00E943D069093F7038093F60334
:103580000E94E2108091600590916105892B11F1F4
:103590000E944D15209147053091480580914505C1
:1035A00090914605213231050CF04AC0B9016052B4
:1035B000710977FF02C06F5F7F4F759567958357DD
:1035C000910997FD019600E210E023E730E04AE818
:1035D00055E049C02091470530914805C90107963B
:1035E00097FD0796B3E095958795BA95E1F72091F9
:1035F000450530914605AC01429FC001439F900DA7
:10360000529F900D11240E9454289093610580933D
:103610006005892B09F0BCCFCAE2DAE0FE016491B3
:10362000662339F08DE194E00E94D9072196892B19
:10363000A9F769E971E08DE194E00E946F15FFCF71
:10364000B9016054710977FF02C06F5F7F4F7595B4
:1036500067958255910997FD019600E410E022E5F7
:1036600030E04AE657E0959587950E948A0F82E000
:103670008093630580915E0590915F05892B09F425
:1036800081C18CE3809362050E94E21080916905FC
:1036900087FD1EC061E00E94940661E0809169058B
:1036A0000E94660661E070E080E090E00E94F5060E
:1036B00060E0809169050E9466066AE070E080E043
:1036C00090E00E94F50661E0809169050E9466061F
:1036D00080915E0590915F05892B09F412C22091BB
:1036E000760530917705409178055091790560E035
:1036F00074E284EF90E00E942C28205131094109A6
:10370000510956954795379527952093B80064E061
:1037100086E895E00E94861260914705615081E439
:1037200095E00E943B1364E082E895E00E948612D7
:103730008091630560E1813009F064E181E495E006
:103740000E943B1364E08EE795E00E9486128FE8AA
:1037500080937E05809145059091460580389105BE
:1037600009F0E8C1809147059091480580349105A2
:1037700009F0F0C180916305813009F0D9C18FE96A
:1037800080937E0512E16AED81E495E00E943B138F
:10379000612F81E495E00E943B1361E881E495E0AC
:1037A0000E943B1360917E0581E495E00E943B13EB
:1037B00069ED81E495E00E943B138091630562E22C
:1037C000813009F061EF81E495E00E943B1366E0EF
:1037D00088E795E00E94861280915E0590915F05D2
:1037E000892B09F4BBC120917A0530917B0540916A
:1037F0007C0550917D0560E074E284EF90E00E94CA
:103800002C28205131094109510956954795379582
:1038100027952093B8000E944D15FF24F394F09251
:103820005505F092560581E090E090935405809301
:103830005305909352058093510510924E051092B6
:103840004D051092500510924F056CE971E081E42E
:1038500095E00E94ED1610924E0510924D058AE0FB
:1038600090E09093500580934F0569EA71E081E400
:1038700095E00E94ED160E949D1364E670E080E0E2
:1038800090E00E94F50686E090E00E9454288C01AA
:1038900088E4F801808385E395E092838183138235
:1038A00080E290E0958384831093BD040093BC0470
:1038B0000E94E210F801F382C8010E942415809151
:1038C000BA049091BB04009711F00E94F02886E0A2
:1038D00090E00E9454288C0180E6F801808385E303
:1038E00095E092838183138280E290E095838483C4
:1038F0001093BB040093BA040E94E21081E0F80127
:103900008383C8010E942415B5E02B2E312C882416
:103910008394912C81E0809332058FB7F894409185
:103920000F045091100460911104709112048FBF24
:103930008091220590912305A0912405B091250541
:10394000481B590B6A0B7B0B80912E0590912F051C
:10395000B0E0A0E084179507A607B70708F01CC2DF
:1039600010E080912C05181708F002C1E09128059D
:10397000F0912905E10FF11D62E080810E9494061B
:103980001F5FEFCF61E0809167050E94940661E0C0
:10399000809168050E94940680916705082E000CAE
:1039A000990BFC01EE59F54FE491F0E0EE0FFF1F8B
:1039B000E25BF54F2591349130936F0520936E05AE
:1039C000FC01EA58F54FE491E09374058091680595
:1039D000082E000C990BFC01EE59F54FE491F0E034
:1039E000EE0FFF1FE25BF54FA591B491B093710507
:1039F000A0937005FC01EA58F54FE491E09375053A
:103A00008C91E82BEC9380915C0590915D05892B5E
:103A100009F434C01FB7F8948091C803811127C0FE
:103A2000ECE6FAE08491E0E8FAE09491E82FF0E027
:103A3000EE0FFF1FEC5BF54FA591B491EC91E923DC
:103A400021F461E08AE00E94660661E08AE00E945B
:103A500094068CB580618CBD8CB580648CBD61E0B2
:103A60008DE00E94940661E08BE00E9494068091B4
:103A7000C8038F5F8093C8031FBF08CE61E08091A9
:103A800065050E94940661E0809166050E94940697
:103A900080916505082E000C990BFC01EE59F54F3D
:103AA000E491F0E0EE0FFF1FE25BF54F25913491BA
:103AB00030936B0520936A05FC01EA58F54FE491B9
:103AC000E093720580916605082E000C990BFC01AD
:103AD000EE59F54FE491F0E0EE0FFF1FE25BF54F7A
:103AE000A591B491B0936D05A0936C05FC01EA58C3
:103AF000F54FE491E09373058C91E095E823EC9306
:103B0000C5CD80915C0590915D05892B31F0809148
:103B10007F05909180050E949A10E0917005F091C8
:103B20007105908180917505809589238083EFCD03
:103B30008FEC26CE8036910569F4809147059091EF
:103B40004805409739F480916305813029F480E17C
:103B500080937E0512E017CE8FEAFACFE0917005D0
:103B6000F0917105808190917505892B808353CEEA
:103B7000712C80912D05781608F064C0E72CF12C8B
:103B8000E0912A05F0912B05EE0DFF1D61E080818B
:103B90000E949406E0912A05F0912B05EE0DFF1D81
:103BA00060E080810E94660681E090E0A0E0B0E0E5
:103BB000072C04C0880F991FAA1FBB1F0A94D2F7B5
:103BC0005C016C01C094D094612C80912C05681626
:103BD00010F5062D10E08091280590912905800FA1
:103BE000911FFC0180810E943D060C5F1F4F000F5A
:103BF000111FF801EA53FB4F892B41F48081918119
:103C00008A299B29918380836394DFCF808191816E
:103C10008C219D21F7CFE0912A05F0912B05EE0D27
:103C2000FF1D61E080810E94660680912A059091C7
:103C30002B05E80EF91E60E0F70180810E949406D2
:103C4000739497CFF6ECCF2EF4E0DF2E8601F801C7
:103C5000878D90A1892B31F4148E4FEF5FEF568F33
:103C6000458F11A20A5F1F4F55E00230150779F703
:103C7000B12C80912C05B81608F053C0A12CEB2C68
:103C8000F12CEE0CFF1CC70182539B4F7C0120914D
:103C90002D05A21608F043C0F701608171810A2C3E
:103CA00002C0769567950A94E2F7B29E90011124BE
:103CB0002A0D311DE6ECF4E080E0458D568D241789
:103CC000350709F469C78F5F36968A30B1F760FF10
:103CD00024C0E6ECF4E090E080E0448D411118C08F
:103CE000E0912605F0912705E20FF31F408156E091
:103CF000589FF001599FF00D1124EA53FB4F448F58
:103D0000368F258F10A2178E61E00E94A40505C092
:103D1000019636968A30910501F7A394B8CFB394F3
:103D2000A8CF80E0F60191A19111892FF6E0CF0E86
:103D3000D11C0C151D05B1F79FB7F89440910F04E5
:103D40005091100460911104709112049FBF409330
:103D5000220550932305609324057093250588233D
:103D6000D9F08091E7048823B9F08091E50490911F
:103D7000E604019789F46091E2046093E80361111D
:103D800010C0C230D10509F419C40CF02AC4C130E6
:103D9000D10509F4CFC385C2109232051092E80311
:103DA000F0CF8DE194E00E94320769E971E08DE186
:103DB00094E00E946F15A091E803CA2F0A2E000C10
:103DC000DD0B8091E703882309F4F5C0AE01405371
:103DD00051094A30510508F0EEC000910B011091D5
:103DE0000C018091E5039091E6039C012F5F3F4F0A
:103DF0000330110509F467C1FC01843091050CF012
:103E00001DC1EA5FFE4FA083880F991FFC01EB5292
:103E1000FC4F518340833093E6032093E503283021
:103E2000310509F0C8C01092E7038091D503909145
:103E3000D6032AE0289FB001299F700D112480919C
:103E4000D7039091D803680F791F072E000C880BB9
:103E5000990B0E9405276B017C016091D903709139
:103E6000DA03072E000C880B990B0E9405272DEC16
:103E70003CEC4CEC5DE30E94BA279B01AC01C7010E
:103E8000B6010E94F1256B017C016091DB0370910A
:103E9000DC03072E000C880B990B0E9405272AE0F3
:103EA00037ED43E25CE30E94BA279B01AC01C701F6
:103EB000B6010E94F1252B013C0120E030E040EFEB
:103EC00051E40E945D2618160CF4F6C06091DF03E1
:103ED0007091E003072E000C880B990B0E940527B8
:103EE0002DEC3CEC4CEC5DE30E94BA276B017C01AD
:103EF0006091DD037091DE03072E000C880B990B97
:103F00000E9405279B01AC01C701B6010E94F12563
:103F10006B017C016091E1037091E203072E000CBC
:103F2000880B990B0E9405272AE037ED43E25CE3FA
:103F30000E94BA279B01AC01C701B6010E94F1257E
:103F40006B017C016091E3037091E403072E000C88
:103F5000880B990B0E9405272FE632E143E85AE3CC
:103F60000E94BA279B01AC01C701B6010E94F1254E
:103F70006B017C0120E030E040E450E40E945D26CB
:103F800018160CF499C040920604509207046092EF
:103F9000080470920904C092FE03D092FF03E092DD
:103FA0000004F09201040130110509F44AC0023006
:103FB000110509F446C0C134D10509F04AC0809109
:103FC000EE039091EF03892B09F45AC081E08093AE
:103FD000E7033092EF032092EE0380910B01909162
:103FE0000C018230910509F42EC18330910511F046
:103FF000019721F41092E6031092E50345E050E0AA
:1040000060E270E086E091E00E947E2945E050E0A9
:1040100060E270E081E091E00E947E2980E1E5EDC0
:10402000F3E011928A95E9F7AA9751F58091EB0395
:10403000882309F421C11092EB0322C0E350FF4F03
:10404000E2CE1093EF030093EE03C134D10509F4DF
:10405000BDCFC234D10509F002C18091EE03909129
:10406000EF03892B69F480910B0190910C0101966B
:10407000843091050CF0EEC090930C0180930B01FD
:104080008091E803833299F48091EE039091EF03DD
:10409000892B69F0C0910B01D0910C01C130D10581
:1040A00009F419C20CF0ECC0209709F4F6C0C091D5
:1040B000E903D091EA0365CE44E050E05093EF036A
:1040C0004093EE03C2CFFC01EA5FFE4F84309105BE
:1040D0004CF0BC01645071096230710558F4FC0168
:1040E000E350FF4FA083880F991FFC01E753FC4F5B
:1040F000518340833093E6032093E5032630310556
:1041000009F059CF1092E7038091C9039091CA0337
:104110001AE0189FB001199F700D11248091CB03F4
:104120009091CC03680F791F072E000C880B990B18
:104130000E9405276B017C016091CD037091CE0335
:10414000072E000C880B990B0E9405272DEC3CECE8
:104150004CEC5DE30E94BA279B01AC01C701B6019C
:104160000E94F1256B017C016091CF037091D00317
:10417000072E000C880B990B0E9405272AE037EDCB
:1041800043E25CE30E94BA279B01AC01C701B60180
:104190000E94F1256B017C0120E030E040EF51E40A
:1041A0000E945D2618160CF487CF2091D103309120
:1041B000D203129FC001139F900D11242091D303AD
:1041C0003091D403820F931F97FD76CFC0920604DF
:1041D000D0920704E0920804F09209049093ED0352
:1041E0008093EC0364EB71E08DE194E00E94011791
:1041F000C090EC03D090ED030D2C000CEE08FF08EE
:104200002AE0B701A601F7FE0DC06DE28DE194E052
:104210000E94320744275527BA014C195D096E09DF
:104220007F092AE08DE194E00E947E1569E971E042
:104230008DE194E00E946F1583E090E09093EF038E
:104240008093EE0302CF84E090E09093E6038093A6
:10425000E503D4CE90920C0180920B0111CFC334B0
:10426000D10509F09BC480910B0190910C019093B2
:10427000EF038093EE0304CF81E08093EB0300CF44
:10428000C230D10509F479C1C330D10509F00FCF8F
:10429000D093EA03C093E90304C01092EA0310929A
:1042A000E9034090FA035090FB036090FC03709088
:1042B000FD03C0900204D0900304E0900404F09049
:1042C00005040E944D1511E01093550510935605F5
:1042D0009092540580925305909252058092510518
:1042E0008091EE039091EF038230910509F4FAC2B8
:1042F0000CF07FC1009709F402C2019709F47CC257
:104300000E949D138CE00E943D069093F4038093DD
:10431000F3032091F1033091F2038217930709F41C
:1043200044C0892B09F041C08DE00E943D06C09039
:104330001101D0901201E0901301F0901401892B2B
:1043400009F4F4C320E030E040EF51E4C701B601C6
:104350000E945D2687FF10C02DEC3CEC4CEC5DE329
:10436000C701B6010E94F1256093110170931201FB
:1043700080931301909314016DEB72E08DE194E052
:104380000E94011740911101509112016091130197
:104390007091140122E08DE194E00E94001669E919
:1043A00071E08DE194E00E946F158091F30390918C
:1043B000F4039093F2038093F1038EE00E943D0694
:1043C0002091F003892B09F0C4C3211109C081E0B9
:1043D0008093F00365EC72E08DE194E00E94ED16AD
:1043E0008FE00E943D069093F9038093F80320919B
:1043F000F6033091F7038217930709F444C0892B21
:1044000009F041C080E10E943D06C0900D01D090AE
:104410000E01E0900F01F0901001892B09F4A1C367
:1044200020E030E040E450E4C701B6010E945D2680
:1044300087FF10C02DEC3CEC4CEC5DE3C701B601EE
:104440000E94F12560930D0170930E0180930F017E
:104450009093100162EE72E08DE194E00E940117EA
:1044600040910D0150910E0160910F01709110016A
:1044700022E08DE194E00E94001669E971E08DE18F
:1044800094E00E946F158091F8039091F903909346
:10449000F7038093F60381E10E943D062091F50326
:1044A000892B09F071C3211109C081E08093F503C4
:1044B00064EF72E08DE194E00E94ED1680E090E000
:1044C000892B09F427CA0E94A307882309F422CA6A
:1044D0000E9400001FCA8091EB03882339F13092BB
:1044E000EA032092E9038091110190911201A091B9
:1044F0001301B09114018093020490930304A093DC
:104500000404B093050480910D0190910E01A091D7
:104510000F01B09110018093FA039093FB03A093D5
:10452000FC03B093FD03C5E0D0E0BBCED093EA031B
:10453000C093E9038091060490910704A0910804B8
:10454000B09109048093020490930304A09304049F
:10455000B09305048091FE039091FF03A0910004A5
:10456000B09101048093FA039093FB03A093FC03A2
:10457000B093FD03C1E0D0E094CE8091EB0388239B
:10458000C9F046E050E05093EA034093E90380917C
:104590000D0190910E01A0910F01B0911001809337
:1045A000FA039093FB03A093FC03B093FD03C6E0D2
:1045B000D0E077CED093EA03C093E9038091FE0365
:1045C0009091FF03A0910004B09101048093FA033D
:1045D0009093FB03A093FC03B093FD03C2E0D0E0F3
:1045E00060CEC530D10509F47ECFC630D10579F251
:1045F00058CE8430910509F416C20CF4BDC105975C
:1046000009F07ECE0E944D15109355051093560566
:1046100090925405809253059092520580925105D4
:1046200010924E0510924D051092500510924F05B4
:1046300080910B0190910C018230910509F421C207
:104640008330910509F431C2019709F059CE68E72A
:1046500072E081E495E00E94011706E011E09AE023
:10466000E92E91E0F92EF80161918F0181E495E046
:104670000E943207E016F106B1F762E872E081E4C9
:1046800095E00E9401176091080181E495E00E9485
:10469000320710924E0510924D058AE090E09093FB
:1046A000500580934F0564E872E081E495E00E9434
:1046B000011701E011E0F80161918F0181E495E0BB
:1046C0000E943207F1E005301F07A9F762E872E0A7
:1046D00081E495E00E9401176091020181E495E078
:1046E0000E94320710924E0510924D0584E190E031
:1046F0009093500580934F0560E972E066C0109278
:104700004E0510924D051092500510924F05809164
:104710000B0190910C01019731F464EC71E081E49C
:1047200095E00E94011767EC71E081E495E00E943A
:10473000ED1610924E0510924D058AE090E0909390
:10474000500580934F0580910B0190910C010297C9
:1047500031F464EC71E081E495E00E94011762EDB0
:1047600071E081E495E00E94ED1610924E051092E2
:104770004D0584E190E09093500580934F05809122
:104780000B0190910C01039731F464EC71E081E42A
:1047900095E00E9401176FED71E081E495E00E94C1
:1047A00001178091E9039091EA0381309105F1F0BE
:1047B0008CF46AEE71E0892BA1F08091EB0368EF35
:1047C00071E0811102C06EEF71E081E495E00E941A
:1047D000011796CD8230910561F065EF71E0039786
:1047E00061F781E495E00E940117E7CF6FEE71E079
:1047F000F8CF62EF71E0F5CF10924E0510924D05A3
:104800001092500510924F0563E072E081E495E04C
:104810000E94011743E050E0C701B6010E94E6166E
:104820006DE372E081E495E00E9401178091EB0353
:10483000882309F445C060911101709112018091A3
:1048400013019091140142E050E00E94E61610928C
:104850004E0510924D058AE090E0909350058093AC
:104860004F0569E072E081E495E00E94011743E0A2
:1048700050E0C301B2010E94E6166DE372E081E4EC
:1048800095E00E9401178091EB03882311F160915C
:104890000D0170910E0180910F019091100142E085
:1048A00050E00E94E61610924E0510924D0584E1EC
:1048B00090E09093500580934F056FE072E085CFB4
:1048C0006091060470910704809108049091090496
:1048D000BACF6091FE037091FF0380910004909124
:1048E0000104DDCF10924E0510924D051092500537
:1048F00010924F056CE172E081E495E00E9401178F
:1049000043E050E0C301B2010E94E61610924E054A
:1049100010924D058AE090E09093500580934F05EA
:1049200062E272E081E495E00E9401178091EB035E
:104930008823C9F060910D0170910E0180910F01E3
:104940009091100142E050E00E94E61610924E0550
:1049500010924D0584E190E09093500580934F05AF
:104960006CE272E032CF6091FE037091FF038091A0
:10497000000490910104E6CF10924E0510924D056F
:104980001092500510924F0563E072E081E495E0CB
:104990000E94011743E050E0C701B6010E94E616ED
:1049A0006BE372E081E495E00E94011760910604D8
:1049B00070910704809108049091090442E050E04E
:1049C0000E94E61610924E0510924D058AE090E086
:1049D0009093500580934F0561E472E081E495E087
:1049E0000E94011770E060E081E495E00E94CA1522
:1049F00067E472E081E495E00E9401176091EC03A6
:104A00007091ED0381E495E00E94CA1510924E0565
:104A100010924D0584E190E09093500580934F05EE
:104A20006CE472E0D2CE10924E0510924D051092B9
:104A3000500510924F0567E572E081E495E00E9411
:104A4000ED1610924E0510924D058AE090E090937D
:104A5000500580934F0569E672E081E495E00E947D
:104A6000ED1680910B0190910C018130910521F0A0
:104A70008230910509F044CC9093EF038093EE03CC
:104A80003FCC61EA72E081E495E00E94011701E009
:104A900011E0F80161918F0181E495E00E943207F5
:104AA000F1E005301F07A9F72BCC68E772E081E43D
:104AB00095E00E94011706E011E08AE0E82E81E00F
:104AC000F82EF80161918F0181E495E00E94320790
:104AD000E016F106B1F762E872E081E495E00E9429
:104AE00001176091080181E495E00E94320710925D
:104AF0004E0510924D058AE090E09093500580930A
:104B00004F0561EB72E081E495E00E94011760912E
:104B1000010181E495E00E9432076091020181E485
:104B200095E00E9432076AEB72E04FCE20E030E061
:104B3000A901C701B6010E94B52718160CF01CCCBC
:104B40002DEC3CEC4CEC5DE3C701B6010E94F02576
:104B50000BCC222309F444CC1092F00363ED72E0F5
:104B60003BCC20E030E0A901C701B6010E94B52787
:104B700018160CF06FCC2DEC3CEC4CEC5DE3C7014F
:104B8000B6010E94F0255ECC222309F497CC109246
:104B9000F50365E073E08ECC6170B7C8C434D1050D
:104BA00009F042CA8091EE039091EF03892B21F422
:104BB0001092EA031092E9031092EF031092EE03B1
:104BC0005FCA85E691E0909342058093410580910C
:104BD000600590916105009711F00C94F0280895FC
:104BE0005058BB27AA270E9408260C947B270E94B6
:104BF0006D2738F00E94742720F039F49F3F19F494
:104C000026F40C946A270EF4E095E7FB0C946427D5
:104C1000E92F0E948C2758F3BA176207730784079D
:104C2000950720F079F4A6F50C94AE270EF4E095E4
:104C30000B2EBA2FA02D0B01B90190010C01CA0156
:104C4000A0011124FF27591B99F0593F50F4503E01
:104C500068F11A16F040A22F232F342F4427585FF3
:104C6000F3CF469537952795A795F0405395C9F70B
:104C70007EF41F16BA0B620B730B840BBAF09150C3
:104C8000A1F0FF0FBB1F661F771F881FC2F70EC062
:104C9000BA0F621F731F841F48F487957795679535
:104CA000B795F7959E3F08F0B0CF9395880F08F021
:104CB0009927EE0F9795879508950E94402708F44D
:104CC00081E008950E9476260C947B270E94742729
:104CD00058F00E946D2740F029F45F3F29F00C94B2
:104CE000642751110C94AF270C946A270E948C27DB
:104CF00068F39923B1F3552391F3951B550BBB270B
:104D0000AA2762177307840738F09F5F5F4F220F4F
:104D1000331F441FAA1FA9F335D00E2E3AF0E0E846
:104D200032D091505040E695001CCAF72BD0FE2F90
:104D300029D0660F771F881FBB1F26173707480724
:104D4000AB07B0E809F0BB0B802DBF01FF279358DC
:104D50005F4F3AF09E3F510578F00C9464270C9415
:104D6000AF275F3FE4F3983ED4F386957795679538
:104D7000B795F7959F5FC9F7880F911D9695879511
:104D800097F90895E1E0660F771F881FBB1F621730
:104D900073078407BA0720F0621B730B840BBA0BEE
:104DA000EE1F88F7E09508950E94942788F09F579A
:104DB00098F0B92F9927B751B0F0E1F0660F771F3F
:104DC000881F991F1AF0BA95C9F714C0B13091F035
:104DD0000E94AE27B1E008950C94AE27672F782F7C
:104DE0008827B85F39F0B93FCCF3869577956795FA
:104DF000B395D9F73EF490958095709561957F4F66
:104E00008F4F9F4F0895E89409C097FB3EF490950B
:104E10008095709561957F4F8F4F9F4F9923A9F093
:104E2000F92F96E9BB279395F69587957795679522
:104E3000B795F111F8CFFAF4BB0F11F460FF1BC066
:104E40006F5F7F4F8F4F9F4F16C0882311F096E9F9
:104E500011C0772321F09EE8872F762F05C06623A7
:104E600071F096E8862F70E060E02AF09A95660F60
:104E7000771F881FDAF7880F9695879597F9089519
:104E8000990F0008550FAA0BE0E8FEEF161617065B
:104E9000E807F907C0F012161306E407F50798F0C3
:104EA000621B730B840B950B39F40A2661F0232BDC
:104EB000242B252B21F408950A2609F4A140A69558
:104EC0008FEF811D811D089597F99F6780E870E03D
:104ED00060E008959FEF80EC089500240A94161670
:104EE000170618060906089500240A9412161306D8
:104EF000140605060895092E0394000C11F4882366
:104F000052F0BB0F40F4BF2B11F460FF04C06F5F81
:104F10007F4F8F4F9F4F089557FD9058440F551F57
:104F200059F05F3F71F04795880F97FB991F61F02B
:104F30009F3F79F087950895121613061406551FA2
:104F4000F2CF4695F1DF08C0161617061806991F0E
:104F5000F1CF86957105610508940895E894BB2703
:104F600066277727CB0197F908950E94402708F418
:104F70008FEF08950E94CD270C947B270E946D2708
:104F800038F00E94742720F0952311F00C946427C8
:104F90000C946A2711240C94AF270E948C2770F37D
:104FA000959FC1F3950F50E0551F629FF001729FCE
:104FB000BB27F00DB11D639FAA27F00DB11DAA1FDD
:104FC000649F6627B00DA11D661F829F2227B00D2A
:104FD000A11D621F739FB00DA11D621F839FA00DB5
:104FE000611D221F749F3327A00D611D231F849F05
:104FF000600D211D822F762F6A2F11249F5750405C
:105000009AF0F1F088234AF0EE0FFF1FBB1F661FD6
:10501000771F881F91505040A9F79E3F510580F09F
:105020000C9464270C94AF275F3FE4F3983ED4F3CD
:10503000869577956795B795F795E7959F5FC1F743
:10504000FE2B880F911D9695879597F908950E94DC
:105050004027880B990B0895A1E21A2EAA1BBB1BAF
:10506000FD010DC0AA1FBB1FEE1FFF1FA217B30734
:10507000E407F50720F0A21BB30BE40BF50B661F4A
:10508000771F881F991F1A9469F76095709580950E
:1050900090959B01AC01BD01CF010895EE0FFF1F5C
:1050A0000590F491E02D09940F931F93CF93DF9314
:1050B0008230910510F482E090E0E0918305F09158
:1050C000840530E020E0B0E0A0E0309799F42115AD
:1050D000310509F44AC0281B390B24303105D8F5B5
:1050E0008A819B816115710589F1FB01938382831C
:1050F000FE0111C040815181028113814817590777
:10510000E0F04817590799F4109761F012960C9344
:10511000129713961C933296CF01DF91CF911F9176
:105120000F9108950093830510938405F4CF211502
:10513000310551F04217530738F0A901DB019A01FC
:10514000BD01DF01F801C1CFEF01F9CF90938405D4
:1051500080938305CDCFFE01E20FF31F81939193DE
:105160002250310939832883D7CF2091810530918E
:105170008205232B41F420912F013091300130938F
:1051800082052093810520912D0130912E0121155A
:10519000310541F42DB73EB74091310150913201B4
:1051A000241B350BE0918105F0918205E217F3078E
:1051B000A0F42E1B3F0B2817390778F0AC014E5F87
:1051C0005F4F2417350748F04E0F5F1F509382053D
:1051D00040938105819391939FCFF0E0E0E09CCFD5
:1051E000CF93DF930097E9F0FC013297138212828C
:1051F000A0918305B0918405ED0130E020E0109787
:10520000A1F420813181820F931F2091810530917B
:1052100082052817390709F061C0F0938205E093F1
:105220008105DF91CF910895EA01CE17DF07E8F5F8
:105230004A815B819E0141155105B1F7E901FB836C
:10524000EA8349915991C40FD51FEC17FD0761F40A
:10525000808191810296840F951FE901998388834B
:10526000828193819B838A83F0E0E0E012968D91A6
:105270009C9113970097B9F52D913C911197CD0111
:105280000296820F931F2091810530918205281785
:10529000390739F6309751F510928405109283053D
:1052A000B0938205A0938105BCCFD383C283408194
:1052B0005181840F951FC817D90761F44E5F5F4F66
:1052C00088819981480F591F518340838A819B812E
:1052D000938382832115310509F0B0CFF0938405C3
:1052E000E09383059ECFFD01DC01C0CF13821282C3
:1052F000D7CF81E090E0F8940C948529DC0101C0BF
:105300006D9341505040E0F7089515E0C3E5D5E0B6
:1053100004C0FE010E944E282196C435D107C9F76A
:04532000F894FFCF2F
:1053240020202020200020202020000100CDCC4C73
:105334003E00002041070605040B0A0908313233F8
:105344004134353642373839432A30234400008506
:1053540005800000000000D9073907660726089772
:10536400077507890700000000701143114A158072
:10537400053C1129111A110000000027072B072FE3
:105384000700000000DE0C39074A159810ED09806B
:1053940005830F5B0F770F6B0FEB0F8005A40ACE0D
:1053A400145D09A609A40E870E0F0EB00D6E616E72
:1053B40000696E66006F7666000D0A00486F6C61C6
:1053C4002045726E6573746F004269656E76656E12
:1053D40069646F005469656D706F436172676164DD
:1053E4006F3A20002A2000312E2054656E73696FB5
:1053F4006E00322E20436F727269656E74650033DD
:105404002E2052616D70612020004F4646200054CA
:105414002000432000522000456E636F2000546535
:105424006E2000542E20523A00432E20523A004D52
:105434004F444F2054454E53494F4E005265616CC2
:105444003A00446573656164613A20004D4F444FEE
:1054540020434F525249454E5445002020443A209F
:1054640000742E20523A002020443A004D4F444FFD
:105474002052414D50410056616C6F726573204952
:105484006E76616C69646F730050726573696F6ED8
:1054940065205465636C610054454E53494F4E3A40
:1054A40020002E00434F525249454E54453A2000A5
:1054B4004544495441522056414C4F5245533A2099
:1054C40000436F727269656E7465204D41583A20CD
:1054D400005449454D504F3A200020730056616CEA
:1054E4006F723A2000426F746F6E2050756C736156
:1054F400646F00426F746F6E204C69626572616400
:105504006F0056616C6F7220695F656E636F6465CE
:10551400723A2000426F74C3B36E20322050756C0F
:105524007361646F00426F74C3B36E2032204C69A0
:0855340062657261646F000002
:00000001FF
