:100000000C9454050C947C050C947C050C947C0594
:100010000C947C050C947C050C947C050C947C055C
:100020000C947C050C947C050C947C050C947C054C
:100030000C947C050C947C050C947C050C947C053C
:100040000C947C190C947C050C94EC190C94C61936
:100050000C947C050C947C050C947C050C947C051C
:100060000C941E1A0C947C0500000000003E5B4FAF
:100070005B3E3E6B4F6B3E1C3E7C3E1C183C7E3C08
:10008000181C577D571C1C5E7F5E1C00183C180016
:10009000FFE7C3E7FF0018241800FFE7DBE7FF30A6
:1000A000483A060E2629792926407F050507407F14
:1000B00005253F5A3CE73C5A7F3E1C1C08081C1C87
:1000C0003E7F14227F22145F5F005F5F06097F017D
:1000D0007F006689956A606060606094A2FFA29468
:1000E00008047E040810207E201008082A1C080836
:1000F0001C2A08081E101010100C1E0C1E0C303884
:100100003E3830060E3E0E06000000000000005F84
:1001100000000007000700147F147F14242A7F2AA0
:100120001223130864623649562050000807030062
:10013000001C2241000041221C002A1C7F1C2A08AE
:10014000083E080800807030000808080808000011
:1001500060600020100804023E5149453E00427F85
:10016000400072494949462141494D331814127FD4
:100170001027454545393C4A494931412111090774
:100180003649494936464949291E000014000000F5
:1001900040340000000814224114141414140041C7
:1001A00022140802015909063E415D594E7C121184
:1001B000127C7F494949363E414141227F414141BC
:1001C0003E7F494949417F090909013E4141517337
:1001D0007F0808087F00417F41002040413F017FA8
:1001E000081422417F404040407F021C027F7F0470
:1001F00008107F3E4141413E7F090909063E4151B9
:10020000215E7F09192946264949493203017F01A8
:10021000033F4040403F1F2040201F3F4038403FA9
:10022000631408146303047804036159494D4300BF
:100230007F4141410204081020004141417F0402F6
:10024000010204404040404000030708002054548D
:1002500078407F284444383844444428384444286B
:100260007F385454541800087E090218A4A49C78BE
:100270007F0804047800447D40002040403D007F1A
:100280001028440000417F40007C047804787C08FA
:100290000404783844444438FC18242418182424CE
:1002A00018FC7C08040408485454542404043F44B3
:1002B000243C4040207C1C2040201C3C4030403CE2
:1002C00044281028444C9090907C4464544C440042
:1002D00008364100000077000000413608000201A6
:1002E0000204023C2623263C1EA1A161123A404092
:1002F000207A38545455592155557941225454780F
:1003000042215554784020545579400C1E527212A7
:100310003955555559395454545939555454580030
:1003200000457C410002457D420001457C407D1234
:1003300011127DF0282528F07C5455450020545496
:100340007C547C0A097F4932494949323A44444441
:100350003A324A4848303A4141217A3A424020787C
:10036000009DA0A07D3D4242423D3D4040403D3C7D
:1003700024FF2424487E4943662B2FFC2F2BFF09A2
:1003800029F620C0887E0903205454794100004496
:100390007D413048484A32384040227A007A0A0A81
:1003A000727D0D19317D2629292F282629292926F4
:1003B00030484D4020380808080808080808382F39
:1003C00010C8ACBA2F102834FA00007B00000814C3
:1003D0002A142222142A14085500550055AA55AA99
:1003E00055AAFF55FF55FF000000FF00101010FF39
:1003F00000141414FF001010FF00FF1010F010F094
:10040000141414FC001414F700FF0000FF00FF1484
:1004100014F404FC141417101F10101F101F1414D0
:10042000141F00101010F0000000001F101010101A
:100430001F10101010F010000000FF10101010100E
:1004400010101010FF10000000FF140000FF00FF4C
:1004500000001F10170000FC04F4141417101714E8
:1004600014F404F40000FF00F7141414141414140A
:10047000F700F7141414171410101F101F1414147D
:10048000F4141010F010F000001F101F0000001FE7
:1004900014000000FC140000F010F01010FF10FF1A
:1004A000141414FF141010101F00000000F010FFAF
:1004B000FFFFFFFFF0F0F0F0F0FFFFFF0000000093
:1004C00000FFFF0F0F0F0F0F3844443844FC4A4A17
:1004D0004A347E02020606027E027E0263554941CC
:1004E000633844443C04407E201E2006027E020203
:1004F00099A5E7A5991C2A492A1C4C7201724C3017
:100500004A4D4D303048784830BC625A463D3E49ED
:100510004949007E0101017E2A2A2A2A2A44445F91
:10052000444440514A444040444A51400000FF0185
:1005300003E080FF000008086B6B08361236243693
:10054000060F090F060000181800000010100030F8
:1005500040FF0101001F01011E00191D1712003C80
:100560003C3C3C0000000000000103070F1F3F7FE0
:100570000080C0E0F0F8FCFEDB40A4A62EAF200017
:10058000A1C8D300408DAED580A800006000000057
:100590000000000000000000000000E0000000007B
:1005A00000000000000000000001E000000000006A
:1005B000000000000000000001F00000000000004A
:1005C0000000000000000003F00000000000000038
:1005D00000000000000007F0000000000000000024
:1005E000000000000007F80000000000000000000C
:1005F000000000000FF800000003C0007E000001B2
:10060000E0007F0FF800000003C000FE000001E0E2
:1006100000FFEFF800000003C000FE000001E00052
:10062000FFFFF800000003C000F00000000F007F93
:10063000FE7FC0000003C000F00000000F003FFE7E
:100640007FF83FF1FBCFFCFEF3BC3DEFE01FFE7FE8
:10065000FF7FFBFFDFFEFEFFBC3DEFE01FC6FFFF9D
:100660007FFBFFDFFEFEFFBC3DEFE00FE3C7FE7840
:100670007BC3DE1EF0FFBC3DEF0007FF87FC787BED
:10068000C3DE1EF0F83C3DEF0001FFFFF0007BC32E
:10069000C01EF0F03C3DEF0001F37FE03FFBC3CF15
:1006A000FEF0F03C3DEF0003E33F807FFBC3DFFE45
:1006B000F0F03C3DEF0007E73C00787BC3DE1EF026
:1006C000F03C3DEF0007FFBE00787BC3DE1EF0F07C
:1006D0003C3DEF0007FFFE00787BC3DE1EF0F03CE0
:1006E0003DEF000FFFFE007FFBFFDFFEF0F03FFD60
:1006F000EFE00FFFFF007FFBFFDFFEF0F03FFDEFBD
:10070000E00FF9FF003E79F9CF9EF0F01F3DE7E0E2
:100710001FF1FF0000000000000000000000001FAB
:1007200080FF007FFFFFFFFFFFFFFFFFFFE01C00D8
:100730007F007FFFFFFFFEB46D888D18E000001F73
:10074000007FFFFFFFFE95AD7DB577E000000F0055
:100750007FFFFFFFFEA5AD9D8D19E0000006007F25
:10076000FFFFFFFEB5ADEDB57EE00000000000012B
:100770008000000000000000000003800000000076
:10078000000000000007C0000000000000000000A2
:1007900007C00000000000000000000FC0000000C3
:1007A0000000000000001FE000000000000000004A
:1007B000001FE00000000000000000003FE000001B
:1007C000000000000000003FF000000000000000FA
:1007D00000007FF0000000000000001FF87FF00024
:1007E0000000000000003FFE7FF00000000000005D
:1007F000003FFF7FF0000000000000001FFFFBE053
:10080000000000000000000FFFF9FFC00000000022
:1008100000000FFFF9FFF800000000000007FFF1E3
:10082000FFFF00000000000003FC73FFFF800000DA
:1008300000000001FE3FFFFF80000000000000FFFD
:100840001E0FFF000000000000007FFE1FFC0000E4
:1008500000000000003FFFFFF80000000000000063
:100860000FDFFFE0000000000000001F19FFC000C4
:100870000000000000003F3CFF00000000000000FE
:10088000007E7CF800000000000000007FFE7C007D
:1008900000000000000000FFFFFC0000000000005E
:1008A0000000FFFFFE0000000000000000FFFFFE50
:1008B0000000000000000001FFEFFE00000000004B
:1008C000000001FFCFFE0000000000000003FF0752
:1008D000FE0000000000000003FC07FE0000000016
:1008E00000000003F003FE00000000000000018093
:1008F00000FE000000000000000000007E0000007C
:10090000000000000000003E0000000000000000A9
:1009100000000C000000000000078000FC00000345
:10092000C0000000078001FC000003C000000007B9
:100930008001FC000003C0000000078001E000000F
:10094000001E000000078001E00000001E007FE3A1
:10095000F79FF9FDE7787BDFC0FFF7FFBFFDFDFFE5
:10096000787BDFC0FFF7FFBFFDFDFF787BDFC0F0C6
:10097000F787BC3DE1FF787BDE00F0F787BC3DE107
:10098000F0787BDE0000F787803DE1E0787BDE00D9
:100990007FF7879FFDE1E0787BDE00FFF787BFFDF3
:1009A000E1E0787BDE00F0F787BC3DE1E0787BDEBC
:1009B00000F0F787BC3DE1E0787BDE00F0F787BC14
:1009C0003DE1E0787BDE00FFF7FFBFFDE1E07FFB6C
:1009D000DFC0FFF7FFBFFDE1E07FFBDFC07CF3F38B
:1009E0009F3DE1E03E7BCFC0000000000000000022
:1009F000000000FFFFFFFFFFFFFFFFFFFFC0FFFF43
:100A0000FFFFFD68DB111A31C0FFFFFFFFFD2B5A0E
:100A1000FB6AEFC0FFFFFFFFFD4B5B3B1A33C0FFDC
:100A2000FFFFFFFD6B5BDB6AFDC053534431333086
:100A30003620616C6C6F636174696F6E20666169EA
:100A40006C65640000000000240027002A000000FC
:100A50000000250028002B000000000023002600D5
:100A60002900040404040404040402020202020231
:100A70000303030303030102040810204080010262
:100A800004081020010204081020000000080002E1
:100A90000100000304070000000000000000220025
:100AA000FF2100003D1BEE2711241FBECFEFD8E031
:100AB000DEBFCDBF13E0A0E0B1E0ECE4F7E502C09B
:100AC00005900D92A635B107D9F725E0A6E5B3E06C
:100AD00001C01D92A73CB207E1F715E0C3E5D5E0E0
:100AE00004C02197FE010E94622AC235D107C9F7CE
:100AF0000E945F1C0C94992B0C94000096E0899F37
:100B0000D0011124AC5ABA4F90967C936E935F97A4
:100B100091E091969C939197E091C105F091C20567
:100B20009091C005992339F0309751F0811108C098
:100B3000809170050994309719F05C968C91FACFEA
:100B40000895CF92DF92EF92FF920F931F9396E05A
:100B5000899FF0011124EC5AFA4F11A2278D30A180
:100B60002130310551F178F02230310509F451C0BE
:100B70002330310509F452C01F910F91FF90EF907F
:100B8000DF90CF9008956623B9F361E070E00E9492
:100B90007E052FB7F89480915B0490915C04A0913E
:100BA0005D04B0915E042FBF8093AC059093AD05BA
:100BB000A093AE05B093AF05DFCF9FB7F894C09078
:100BC0005B04D0905C04E0905D04F0905E049FBFF5
:100BD0000091AC051091AD052091AE053091AF05A7
:100BE000C01AD10AE20AF30A0091BE051091BF05AE
:100BF00030E020E00C151D052E053F0550F462E0A5
:100C000070E01F910F91FF90EF90DF90CF900C94C8
:100C10007E056111B1CF63E070E0F3CF70E060E07A
:100C2000F0CF91E0909337048093590410923804E8
:100C300010925A040895089508950895833081F01C
:100C400028F4813099F08230A9F008958730A9F016
:100C50008830C9F08430B1F4809180008F7D03C06A
:100C6000809180008F7780938000089584B58F777E
:100C700084BD089584B58F7DFBCF8091B0008F77C0
:100C80008093B00008958091B0008F7DF9CFCF930D
:100C9000DF93282F30E0F901E657F54F8491F901F1
:100CA000EA58F54FD491F901EE59F54FC491CC2390
:100CB000A1F081110E941E06EC2FF0E0EE0FFF1F45
:100CC000E85AF54FA591B491EC91ED2381E090E0C5
:100CD00009F480E0DF91CF91089580E090E0FACFB1
:100CE0001F93CF93DF93282F30E0F901E657F54F9C
:100CF0008491F901EA58F54FD491F901EE59F54F75
:100D0000C491CC23A9F0162F81110E941E06EC2F4E
:100D1000F0E0EE0FFF1FE25BF54FA591B4918FB7A6
:100D2000F894EC91111108C0D095DE23DC938FBFAD
:100D3000DF91CF911F910895DE2BF8CFCF93DF93F2
:100D400090E0FC01EA58F54F24918E59954FFC0133
:100D500084918823C9F090E0880F991FFC01EC5B17
:100D6000F54FA591B491FC01E25BF54FC591D4918B
:100D700061110DC09FB7F8948C91209582238C93BC
:100D80008881282328839FBFDF91CF910895623007
:100D900051F49FB7F8943C91822F809583238C93D4
:100DA000E8812E2BEFCF8FB7F894EC912E2B2C935C
:100DB0008FBFEACF3FB7F8948091E1039091E203AF
:100DC000A091E303B091E40326B5A89B05C02F3F93
:100DD00019F00196A11DB11D3FBFBA2FA92F982F61
:100DE0008827BC01CD01620F711D811D911D42E05C
:100DF000660F771F881F991F4A95D1F708958F9224
:100E00009F92AF92BF92CF92DF92EF92FF924B01EF
:100E10005C010E94DA066B017C010E94DA066C1903
:100E20007D098E099F09683E734081059105A8F3ED
:100E300021E0821A9108A108B10888EEC80E83E06B
:100E4000D81EE11CF11C81149104A104B10429F7FE
:100E5000FF90EF90DF90CF90BF90AF909F908F90DA
:100E60000895862F642F0C949E06862F642F0C9471
:100E70007006862F0C944706DC01ED91FC910190E1
:100E8000F081E02D0994AF92BF92CF92DF92EF9262
:100E9000FF920F931F93CF93DF936C017B018B0124
:100EA000040F151FEB015E01AE18BF08C017D10774
:100EB00059F06991D601ED91FC910190F081E02DFE
:100EC000C6010995892B79F7C501DF91CF911F9153
:100ED0000F91FF90EF90DF90CF90BF90AF9008956B
:100EE000FC01538D448D252F30E0842F90E0821B30
:100EF000930B541710F0CF96089501970895FC01B5
:100F0000918D828D981761F0A28DAE0FBF2FB11D0C
:100F10005D968C91928D9F5F9F73928F90E0089564
:100F20008FEF9FEF0895FC01918D828D981731F01E
:100F3000828DE80FF11D858D90E008958FEF9FEF72
:100F40000895FC01918D228D892F90E0805C9F4F48
:100F5000821B91098F73992708958FE594E00E9471
:100F6000A10721E0892B09F420E0822F089580E079
:100F700090E0892B29F00E94AD0781110C940000AC
:100F80000895FC01A48DA80FB92FB11DA35ABF4F1E
:100F90002C91848D90E001968F739927848FA68978
:100FA000B7892C93A089B1898C91837080648C93CC
:100FB000938D848D981306C00288F389E02D80817B
:100FC0008F7D80830895EF92FF920F931F93CF93AD
:100FD000DF93EC0181E0888F9B8D8C8D98131AC074
:100FE000E889F989808185FF15C09FB7F894EE895B
:100FF000FF896083E889F9898081837080648083B8
:101000009FBF81E090E0DF91CF911F910F91FF9002
:10101000EF900895F62E0B8D10E00F5F1F4F0F73AA
:101020001127E02E8C8D8E110CC00FB607FCFACF65
:10103000E889F989808185FFF5CFCE010E94C1073B
:10104000F1CFEB8DEC0FFD2FF11DE35AFF4FF08236
:101050009FB7F8940B8FEA89FB8980818062CFCF9C
:10106000CF93DF93EC01888D8823B9F0AA89BB89DF
:10107000E889F9898C9185FD03C0808186FD0DC0CA
:101080000FB607FCF7CF8C9185FFF2CF808185FFEB
:10109000EDCFCE010E94C107E9CFDF91CF91089536
:1010A000EF92FF920F931F93CF93DF93EC01EC80AD
:1010B000FD806E157F050CF070C057FF04C0240F33
:1010C000351F50E040E08E819F81FA01E20FF31F4F
:1010D0008E179F071CF49C01241B350B1216130658
:1010E0000CF05BC0922F842F8695869586958E9DF9
:1010F000D0018F9DB00D11246A0F7B1FAF8DB8A159
:10110000A60FB71F477049F188E0841B482F682F4E
:1011100070E0FB01E059FA4FE491281708F063C032
:10112000621B71092FEF30E002C0359527956A9553
:10113000E2F7E2230130110539F0B0F10230110578
:1011400061F58C91E82702C08C91E82BEC93941701
:1011500020F12C813D81A20FB31FE92FE41BE83061
:1011600078F00230110521F58E2F9C9190959C937B
:101170002C813D81A20FB31F88508830B0F7E770F3
:10118000EE2359F0F0E0E859FA4FE49101301105EF
:10119000F9F010F10230110519F1DF91CF911F9193
:1011A0000F91FF90EF900895E0958C91E823CECFBA
:1011B00081E00115110509F480E081959E2F8C9343
:1011C0002C813D81A20FB31F98509830C0F7D7CF24
:1011D0008C91E82BEC93E1CFE0958C91E823FACF4A
:1011E0008C91E827F7CF0130110509F4ADCFE0F27B
:1011F0000230110509F4A5CFAE0DBF1DAECF0F9380
:101200001F93CF93DF9377FF04C0260F371F70E043
:1012100060E0DC011496CD91DC91FB01E20FF31F3D
:10122000CE17DF071CF49E01261B370B1216130680
:101230004CF5FA0157FD3796A3E0F595E795AA9589
:10124000E1F7EC9FD001ED9FB00DFC9FB00D112494
:101250006A0F7B1FDC015F96ED91FC91E60FF71F93
:101260004770552781E090E001C0880F4A95EAF762
:10127000482F0130110559F0A8F02E0F3F1F023002
:101280001105E1F0DF91CF911F910F9108952E0F7D
:101290003F1FE217F307B1F38191DF011197842B10
:1012A0008C93F7CF80952E0F3F1FE217F30751F372
:1012B0009191DF01119798239C93F7CFE217F307E1
:1012C00009F38191DF01119784278C93F7CF0F9356
:1012D0001F93FA01DC0156964C9156974230E9F083
:1012E0004330A1F1413061F514964D915C91DA01E2
:1012F000AE1BBF0BFD01E21BF30B77FD0BC0DC0146
:1013000016964D915C916417750724F4AB01BF01EB
:101310000E94FF081F910F91089514964D915C91C2
:10132000DA01A61BB70BBD0161507109DC011696ED
:101330004D915C91DA01AE1BBF0BFD01E21BF30B7B
:1013400077FDE8CFAF010E945008E4CF16964D918B
:101350005C91DA01A61BB70BBD0161507109CDCFBD
:101360000F931F93FA01DC0156964C915697423029
:10137000A9F0433091F1413019F514964D915C91EB
:10138000DA01AE1BBF0BFD013197F7FD04C0AB01C5
:10139000BF010E9450081F910F91089514964D911E
:1013A0005C91DA01A61BB70BBD01DC0116964D91CD
:1013B0005C91DA01AE1BBF0BFD013197621B730B11
:1013C000F7FDE9CFDC0116964D915C91E417F50726
:1013D00014F7AF010E94FF08DECF16964D915C9185
:1013E000DA01A61BB70BBD01621B730BCECFFC014C
:1013F00077FD64C080859185681779070CF05EC021
:1014000057FD5CC082859385481759070CF056C07C
:1014100086898230B1F0833029F1813041F48481B2
:101420009581841B950BAB01BC0161507109213082
:10143000310509F108F443C02230310509F463C0D5
:10144000089584819581DC01A61BB70BBD01615015
:10145000710986819781DC01A41BB50BAD01415058
:101460005109E5CF86819781861B970BBA01AC01A4
:1014700041505109DCCFCA0157FD0796A3E095956D
:101480008795AA95E1F7A481B5818A9F90018B9FEA
:10149000300D9A9F300D1124620F731F078CF0A13D
:1014A000E02DE60FF71F4770552721E030E001C01F
:1014B000220F4A95EAF78081822B80830895CA0122
:1014C00057FD079633E0959587953A95E1F7A48106
:1014D000B5818A9F90018B9F300D9A9F300D11240A
:1014E000620F731F078CF0A1E02DE60FF71F477006
:1014F000552781E090E001C0880F4A95EAF7809572
:1015000090818923DACFCA0157FD079623E095958C
:1015100087952A95E1F7A481B5818A9F90018B9FD9
:10152000300D9A9F300D1124620F731F078CF0A1AC
:10153000E02DE60FF71F4770552721E030E001C08E
:10154000220F4A95EAF780818227B7CF8EBD00002F
:101550000DB407FEFDCF8EB508950895FC016370AC
:10156000668B8481958126813781613039F06330C3
:1015700029F09187808733872287089531872087D4
:101580009387828708952F923F924F925F926F9236
:101590007F928F929F92AF92BF92CF92DF92EF9203
:1015A000FF920F931F93CF93DF93CDB7DEB76A9768
:1015B0000FB6F894DEBF0FBECDBF9A8F898F7A83A6
:1015C00069834A01D22E18870F833701BC2CDC01B6
:1015D00059962D913C915A972115310509F015C165
:1015E00018968D919C911997681779070CF0D7C1BF
:1015F0001A968D919C91481759070CF0D0C14C2C2C
:10160000512CB6E0CB9E600D711D11247C876B8739
:10161000161617060CF0C3C1EA2DF0E0FA87E98729
:1016200093E0EE0FFF1F9A95E1F7F88BEF87CF015C
:10163000840F951F181619060CF0B1C1A98DBA8D2B
:1016400058968C91811104C0BFEABD1508F4D3945B
:10165000A98DBA8DED91FC9111970284F385E02D4F
:10166000CD010995B5E0DB9EC0011124E981FA8125
:10167000FC83EB83312C212C9C0128593F4F388F60
:101680002F8B4A2D50E05E8B4D8BEF89F88DE20D4C
:10169000F31D44919E828D82D12CC12C69817A8167
:1016A000620D731D7A8B698B842F90E09C8B8B8BE2
:1016B000E98DFA8DA081B18140FF82C0F1E0BF12B7
:1016C0006FC0AF126DC01C96ED91FC912F813885D3
:1016D000A4014C0D5D1D69897A89898D9A8D0995C2
:1016E000EB89FC89F595E7954E2F5FEFC51AD50A72
:1016F0006D817E818D899E89680F791F7E836D83C0
:1017000098E0C916D10481F6AFEF2A1A3A0AEB81A4
:10171000FC81E40DF51DFC83EB83F5E02F1631040D
:1017200009F0B3CF2F81388526153705B9F0A98D7B
:10173000BA8DED91FC91B1E0BB1257C0AB1255C010
:1017400069817A816B5F7F4F0088F189E02D830189
:1017500028E030E0A401898D9A8D0995A98DBA8D74
:10176000ED91FC9111970688F789E02DCD016A96DD
:101770000FB6F894DEBF0FBECDBFDF91CF911F91A2
:101780000F91FF90EF90DF90CF90BF90AF909F9020
:101790008F907F906F905F904F903F902F90099423
:1017A0001E96ED91FC91EF80F88409851A859201CF
:1017B0004D815E816B817C81898D9A8D099590CF59
:1017C0002F8138852615370509F48ACF31E0B31209
:1017D00007C0A31205C01C96ED91FC91930178CF30
:1017E0001E96ED91FC917301E0CF6B857C856419A9
:1017F00075090684F785E02D73010F85188992011C
:10180000A401898D9A8D0995A9CFF90134969491F7
:10181000329745915491D91AB7E0DB9E400D511D86
:101820001124F901259134913C8B2B8BFA012590E1
:101830003490FA013296749031963491398B329605
:1018400064903196449041E04C1518F04A1508F028
:101850007FC0662D062C000C770B7C836B83842D58
:10186000042C000C990B9E838D83A98DBA8DED916C
:10187000FC9111970284F385E02DCD010995512C3F
:10188000D12CC12CEA2DF0E0FA87E9872B2D30E02E
:101890003C872B87A401440D511D47FC5A95588F56
:1018A0004F8B69817A81660D711D67FC7A957E8701
:1018B0006D877989C71608F051CF2C2D30E04D8106
:1018C0005E81420F531FA985BA854A9FC0014B9F75
:1018D000900D5A9F900D1124FC01E80DF91DF88B15
:1018E000EF87852D612C4F89588D420F531F5E8BDA
:1018F0004D8B671408F050C044244394480E877001
:1019000041F4C1010196EB89FC89E20DF31DD490ED
:101910001C01D7FE19C0A98DBA8DED91FC91662DE1
:1019200070E0B1E0BB1219C0AB1217C02D853E8527
:10193000620F731F0484F585E02D2F8138854D8952
:101940005E89898D9A8D0995DD0C6394842DD1CFA4
:101950001E821D821C821B8288CF4B815C81640F9A
:10196000751FAB85BC856A9FC0016B9F900D7A9FE8
:10197000900D112469817A81680F791F0684F7859B
:10198000E02DEF80F88409851A859D014F855889DF
:10199000898D9A8D0995D8CF570CC3948ACF6A96B2
:1019A0000FB6F894DEBF0FBECDBFDF91CF911F9170
:1019B0000F91FF90EF90DF90CF90BF90AF909F90EE
:1019C0008F907F906F905F904F903F902F900895F1
:1019D0008F929F92AF92CF92EF92FF920F931F93AD
:1019E000CF93DF93EC01262F898D9A8D009709F014
:1019F00051C06A30D1F41D861C868D8948E0849FD1
:101A0000900111248E859F85820F931F9F878E875B
:101A100081E090E0DF91CF911F910F91FF90EF90C7
:101A2000CF90AF909F908F9008956D3089F3CC88C0
:101A3000AD888F898823C1F08C859D8536E0C39E53
:101A4000800D911D1124488559854817590764F464
:101A50004E855F851D861C8638E0A39EC00111243B
:101A6000840F951F9F878E87EA88FB8808891989CC
:101A70004E855F856C857D85CE010E94C30A2C89C9
:101A80008C859D8546E0249F800D911D11249D87A6
:101A90008C87BECF6A3069F41D861C86FC0138969F
:101AA000E4912D898E859F85E29F800D911D1124E3
:101AB000ADCF6D3009F4ACCFFC013496349163178F
:101AC00008F4A6CF3296E491E61708F4A1CFFC0102
:101AD000329685909490462F431B342F47E0349FD5
:101AE000800C911C1124F401329634913196E491CA
:101AF0003323A9F1EE2399F1CC88F4013596E491D2
:101B0000AD884F89442301F10E2E000CFF0BE30F2B
:101B1000F11DCE9EA001CF9E500D11246C857D85B8
:101B2000460F571F68857985641775076CF44E85D5
:101B30005F851D861C86FC013896E491AE9E400DA3
:101B4000511D11245F874E87EA88FB88088919890F
:101B50004E855F856C857D85CE010E94C30AF401A8
:101B60003496E4912C898C859D85E29F800D911D92
:101B700011248DCF6F927F928F929F92AF92BF92DE
:101B8000CF92DF92EF92FF920F931F93CF93DF9349
:101B9000EC016B015A0139014801E881F9810284A5
:101BA000F385E02D0995E881F9810288F389E02D1C
:101BB00087019301A501B601CE010995A501480D44
:101BC000591D41505109E881F9810288F389E02DBE
:101BD0009301B601CE010995E881F9810088F18968
:101BE000E02D9401A501B601CE010995C60CD71CC4
:101BF000B60161507109E881F9810088F189E02D11
:101C00009401A501CE010995E881F9810688F7893B
:101C1000E02DCE01DF91CF911F910F91FF90EF90BA
:101C2000DF90CF90BF90AF909F908F907F906F90FC
:101C300009946F927F928F929F92AF92BF92CF92B0
:101C4000DF92EF92FF920F931F93CF93DF935C018C
:101C5000EB016A01490138018701DC01ED91FC913A
:101C60006217730719F5641675062CF0962D872DEB
:101C70003A01C92ED82E9601261937092F5F3F4FFA
:101C8000048CF58DE02DA301BE01C5010995DF91FE
:101C9000CF911F910F91FF90EF90DF90CF90BF9069
:101CA000AF909F908F907F906F9008954615570545
:101CB00091F42617370724F0892D4B01C22FD82F16
:101CC0009E01281939092F5F3F4F068CF78DE02DB3
:101CD000A601B401DACF0284F385E02D0995D50180
:101CE000ED91FC910488F589E02D83019401A60112
:101CF000BE01C5010995D501ED91FC910688F789D2
:101D0000E02DC501DF91CF911F910F91FF90EF90D2
:101D1000DF90CF90BF90AF909F908F907F906F900B
:101D20000994EF92FF920F931F93DC011A960D9185
:101D30001C911B9718962D913C911997ED91FC9150
:101D400000A0F1A1E02D7B0150E040E070E060E0F8
:101D500009951F910F91FF90EF9008954F925F9218
:101D60006F927F928F929F92AF92BF92CF92DF92AB
:101D7000EF92FF920F931F93CF93DF936C012B0190
:101D80005A0139014801DC01ED91FC910284F3858F
:101D9000E02D0995E201640C751CD601ED91FC91D2
:101DA000C615D7055CF40088F189E02D8701940100
:101DB000A501BE01C60109952196EFCF0688F789D6
:101DC000E02DC601DF91CF911F910F91FF90EF9011
:101DD000DF90CF90BF90AF909F908F907F906F904B
:101DE0005F904F9009948F929F92AF92BF92CF9243
:101DF000DF92EF92FF920F931F93CF93DF93EC014B
:101E00005B014A016901E881F9810284F385E02DD3
:101E1000099595012C0D3D1D21503109E881F9816D
:101E20000488F589E02D78018401A401B501CE0173
:101E30000995E881F9810688F789E02DCE01DF91C7
:101E4000CF911F910F91FF90EF90DF90CF90BF90B7
:101E5000AF909F908F9009948F929F92AF92BF9274
:101E6000CF92DF92EF92FF920F931F93CF93DF9366
:101E7000EC015B014A0169017801E881F981028482
:101E8000F385E02D0995C80CD91C86010150110974
:101E9000E881F9810488F589E02D9501A401B50157
:101EA000CE010995E881F9810688F789E02DCE01F8
:101EB000DF91CF911F910F91FF90EF90DF90CF9026
:101EC000BF90AF909F908F900994EF92FF920F93E5
:101ED0001F93DC01ED91FC9100A0F1A1E02D09958B
:101EE0001F910F91FF90EF9008950F931F93DC01C6
:101EF000ED91FC91068CF78DE02D09951F910F91C6
:101F000008950F931F93DC01ED91FC91048CF58DE6
:101F1000E02D09951F910F910895DC01ED91FC9141
:101F20000084F185E02D09943F924F925F926F9269
:101F30007F928F929F92AF92BF92CF92DF92EF9259
:101F4000FF920F931F93CF93DF935C017B014A01B4
:101F50006901390187E0680E711C93E075946794FC
:101F60009A95E1F72B01400E511E10E000E0312C54
:101F7000D0E0C0E0CE0187709927330C892B59F44B
:101F8000FE0183E0F595E7958A95E1F7E00FF11FF3
:101F9000E80DF91D349037FE0AC021E030E0A701BA
:101FA000B5016C0F7D1F84E195E00E948D0F219695
:101FB000CC16DD06F9F68FEFE81AF80A060D171DA4
:101FC000E414F504A9F6DF91CF911F910F91FF90D2
:101FD000EF90DF90CF90BF90AF909F908F907F90C9
:101FE0006F905F904F903F9008952F923F924F9245
:101FF0005F926F927F928F929F92AF92BF92CF9299
:10200000DF92EF92FF920F931F93CF93DF9300D055
:1020100000D000D0CDB7DEB73C016A013E832D83EE
:10202000FC82EB825801A41AB50AB7FE03C0B19432
:10203000A194B1088D809E80861A970A97FE03C0EE
:102040009194819491088A149B045CF0902F812FC5
:102050000D811E819D838E839C2D8D2D6B01692F9B
:10206000782F0C151D055CF09D818E817E836D831C
:10207000692F782F902F812F8601C92ED82E160117
:10208000201A310A2B012D813E81421A530A57FE34
:1020900003C0519441945108710137FE03C03FEFD2
:1020A000E31AF30AF594E7948D819E8186179707CA
:1020B0005CF5A1E0B0E0BA83A983C016D1064CF16B
:1020C000D301ED91FC910484F585E02D2B813C81B9
:1020D000A8016D817E818A149B041CF04D815E8174
:1020E000B801C3010995E418F508F7FE0AC02D816F
:1020F0003E8189819A81280F391F3E832D83E20C0E
:10210000F31C0F5F1F4FD9CF2FEF3FEF3A83298387
:10211000D4CF26960FB6F894DEBF0FBECDBFDF91A9
:10212000CF911F910F91FF90EF90DF90CF90BF90D4
:10213000AF909F908F907F906F905F904F903F9067
:102140002F900895089508958CBD9DBD0895209108
:102150007903260F3327331F21323105ECF4209108
:102160003104FC0190E080E0243069F082E00895C1
:10217000A09179032191AC01475A5C4FA40FB52F70
:10218000B11D2C930196861798F380917903680FFF
:102190006093790380E0089581E0089510923104FE
:1021A00081E08093300410920B0461E082E10E9490
:1021B000700661E083E10E947006E9EBF0E0808147
:1021C0008E7F808380818D7F808388E48093B800B8
:1021D00085E48093BC00089510920A0410920904CB
:1021E0001092380410925A040E94CE108BE196E0AF
:1021F00090930804809307048CE196E09093060482
:10220000809305040895CF93DF9391E09093580352
:102210008823B9F0C091B800D091BA008091BC0079
:102220008A7B8093BC0060E082E10E94700660E0DF
:1022300083E10E9470060E94CE10D093BA00C09332
:10224000B800DF91CF9108958F929F92AF92BF9285
:10225000CF92DF92EF92FF920F931F93CF93DF9372
:10226000D0915A04D13208F0D7C0182FC091590428
:102270000E94DA066B017C018091310481116BC0F0
:1022800082E080933104109330048FEF80932F0409
:1022900010922E04D0932D04A9E3B4E0EDE0F4E015
:1022A00080E0D81391C010920C0480910C04CC0FE4
:1022B000C82BC0930C0480910B04813009F088C0B6
:1022C00010920B040E94DA066B017C0180910C04D1
:1022D0008093BB008091330490913404A091350425
:1022E000B0913604892B8A2B8B2BA1F00E94DA0641
:1022F0000091330410913404209135043091360458
:102300006C197D098E099F090617170728073907D9
:1023100008F442C08091BC0083FDD8CF85EC809347
:10232000BC000E94DA066B017C018091310482308E
:1023300009F450C080912F048F3F09F46FC0809141
:102340002F04803209F46CC080912F04803309F48B
:1023500069C084E026C08091330490913404A09138
:102360003504B0913604892B8A2B8B2B09F484CF4A
:102370000E94DA068090330490903404A0903504D3
:10238000B09036046C197D098E099F098616970650
:10239000A806B90608F070CF809132040E9403119C
:1023A00085E01092380410925A0410923704DF919D
:1023B000CF911F910F91FF90EF90DF90CF90BF9042
:1023C000AF909F908F9008959D9191938F5F69CF6B
:1023D00085EEA5CF8091330490913404A09135040B
:1023E000B0913604892B8A2B8B2B09F49ECF0E9447
:1023F000DA060091330410913404209135043091B1
:1024000036046C197D098E099F09061717072807DE
:10241000390708F08ACFC0CF81E0C3CF80E0C1CFB9
:1024200082E0BFCF83E0BDCFCF93DF93EA01DC0131
:1024300011968D919C91DC01ED91FC910280F381CC
:10244000E02D0995C817D90729F481E00E942411CD
:1024500091E0811190E0892FDF91CF910895E09173
:102460000A0480910904E81730F4F0E0EB51FC4FC6
:10247000808190E008958FEF9FEF089590910A0476
:10248000809109042FEF3FEF981748F4E92FF0E00F
:10249000EB51FC4F208130E09F5F90930A04C9010B
:1024A00008958091090490910A04891B990B08955D
:1024B000CF92DF92EF92FF920F931F93CF93DF9310
:1024C0007C01CB018A0120913704222389F0EB01A2
:1024D0006B01C40ED51ECC15DD0569F06991D701DD
:1024E000ED91FC910190F081E02DC7010995F3CFAA
:1024F000642F0E94A710C801DF91CF911F910F9107
:10250000FF90EF90DF90CF900895CF93DF931F92CD
:10251000CDB7DEB76983209137042223F9F02091EB
:102520005A04203258F021E030E0FC01338322834A
:1025300090E080E00F90DF91CF9108958091380472
:10254000E82FF0E0E75CFB4F998190838F5F8093E9
:10255000380480935A0481E090E0ECCF61E0CE0132
:1025600001960E94A710F7CF81E00C942411EF92FE
:10257000FF920F931F93CF937C01C62F809131055B
:1025800090913205892B09F44EC0809135050E9447
:1025900011068091310590913205DC01ED91FC919D
:1025A0000190F081E02D60E009958701EE24E3942D
:1025B000F12CC1508091310590913205CF3F61F1EE
:1025C000B0E2EB16F104A8F00E94B4128091350538
:1025D0000E9411068091310590913205DC01ED9148
:1025E000FC910190F081E02D60E00995EE24E394E8
:1025F000F12C8091310590913205F8016491DC0154
:10260000ED91FC910190F081E02D0995BFEFEB1A5F
:10261000FB0A0F5F1F4FCDCFCF911F910F91FF90FE
:10262000EF900C94B412E0914105F0914205908135
:10263000809147058095892380838701C15008F4E4
:1026400038C0F801849120912F0530913005232B5B
:1026500029F00E94A60A0F5F1F4FF0CF28E030E05C
:1026600040E8E0913D05F0913E0590914505582FD9
:102670005423D9F05081952B9083E0913F05F09140
:102680004005908150914605952B9083E0913F0540
:10269000F091400550819091460590959523908347
:1026A000469521503109E9F6D6CF50819095952372
:1026B000E3CFCF911F910F91FF90EF9008951F935B
:1026C000CF93DF93EC018D8D9E8D892BF9F0162F22
:1026D00089A10E9411068D8D9E8DDC01ED91FC91EA
:1026E0000190F081E02D60E009958D8D9E8DDC01DB
:1026F000ED91FC910190F081E02D612F09958D8D78
:102700009E8DDF91CF911F910C94B412ADA5BEA503
:102710009C918BA9809589238C938B8D9C8D892B83
:1027200031F0862FDF91CF911F910C94A60A28E0FB
:1027300030E080E8A9A5BAA599A9462F4823C1F0A1
:102740004C91942B9C93ABA5BCA59C914AA9942B2E
:102750009C93ABA5BCA54C919AA9909594239C936E
:1027600086952150310931F7DF91CF911F9108955E
:102770004C9190959423E6CFEF92FF920F931F9385
:10278000CF93DF938091310590913205892B09F425
:102790008DC02091490530914A0540914B055091DB
:1027A0004C0560E074E284EF90E00E94402A2051E2
:1027B0003109410951095695479537952795209339
:1027C000B80065E08EE99AE00E94B71260911805A2
:1027D000615084E195E00E945F1320911A053091C9
:1027E0001B05C901079697FD079633E095958795D8
:1027F0003A95E1F72091180530911905829F8001E3
:10280000839F100D929F100D1124C0913305D0911C
:10281000340580913105909132050C0F1D1F892BD5
:1028200009F483C0809135050E941106809131051D
:1028300090913205DC01ED91FC910190F081E02D49
:1028400060E40995EE24E394F12C80913105909198
:1028500032050C171D0709F440C0B0E2EB16F10475
:10286000A8F00E94B412809135050E941106809153
:10287000310590913205DC01ED91FC910190F081E0
:10288000E02D60E40995EE24E394F12C809131056C
:10289000909132056991DC01ED91FC910190F081FC
:1028A000E02D0995BFEFEB1AFB0ACFCF80912F05E2
:1028B00090913005892B31F080915205909153050C
:1028C0000E94A410E0914305F0914405908180910D
:1028D000480580958923808374CF0E94B41280912B
:1028E000310590913205892B09F460C020914D0586
:1028F00030914E0540914F055091500560E074E2D3
:1029000084EF90E00E94402A205131094109510989
:1029100056954795379527952093B800DF91CF912D
:102920001F910F91FF90EF900895E0914105F09174
:102930004205808190914705892B80830C171D07E4
:1029400071F2899120912F0530913005232B19F0D8
:102950000E94A60AF3CF28E030E040E8E0913D0570
:10296000F0913E0590914505582F5423D9F05081A0
:10297000952B9083E0913F05F09140059081509117
:102980004605952B9083E0913F05F09140055081DD
:102990009091460590959523908346952150310955
:1029A000E9F6CCCF508190959523E3CFE091430594
:1029B000F0914405808190914805892B8083AECFAA
:1029C0001F93CF93DF93EC01162F8D8D9E8D892B56
:1029D000B1F12DA93EA94FA958AD60E074E284EF92
:1029E00090E00E94402A2051310941095109569531
:1029F0004795379527952093B80066EA111167EA45
:102A0000CE010E945F138D8D9E8D892B41F129ADE2
:102A10003AAD4BAD5CAD60E074E284EF90E00E94B3
:102A2000402A20513109410951095695479537955A
:102A300027952093B800DF91CF911F9108958B8D3A
:102A40009C8D892B21F08EAD9FAD0E94A410EFA527
:102A5000F8A990818CA9809589238083CECFEFA59A
:102A6000F8A980819CA9892B8083E5CFCF93DF9340
:102A7000EC018B81882371F088810E941106898185
:102A80009A810E94B41291E0811190E0892FDF9128
:102A9000CF9108950E94EC1081E08B83CE010E94BB
:102AA0003615982F8111E8CFF1CF90E080E008959E
:102AB000CF93DF9380930505709306056093070518
:102AC000C091FE04D091FF048C819D81039760F03A
:102AD00088810E94110643E050E065E075E0CE0178
:102AE000DF91CF910C941412DF91CF9108952F9222
:102AF0003F924F925F926F927F928F929F92AF928E
:102B0000BF92CF92DF92EF92FF920F931F93CF93DA
:102B1000DF9380930505C091FE04D091FF048C8162
:102B20009D81892B51F088810E94110641E050E07F
:102B300065E075E0CE010E941412C090FE04D090B2
:102B4000FF0410E000E082E0A82EB12CD1E0332495
:102B50003A9495EE892E25EC922ED60114968D91FD
:102B60009C917501E01AF10A8E159F0508F47C010D
:102B7000F60120800E94DA062B013C01809131048D
:102B800081116FC0CE2DC13208F0C0E2D093310464
:102B900021E0C5018E199F090817190708F420E0E4
:102BA0002093300430922F0410922E048FEF8C0F5C
:102BB00080932D04D0930C0480910C04220C282ABD
:102BC00020920C0480910B04813009F095C0109282
:102BD0000B040E94DA062B013C0180910C048093C7
:102BE000BB008091330490913404A0913504B091DE
:102BF0003604892B8A2B8B2BA1F00E94DA062091B8
:102C000033043091340440913504509136046419F2
:102C1000750986099709261737074807590708F4E1
:102C200041C08091BC0083FDD8CF9092BC000E942F
:102C3000DA062B013C0180913104813009F45FC038
:102C400080912E048C1710F4C0912E04ADE0B4E0F6
:102C5000E5EEF3E080E08C1751F19D9191938F5F49
:102C6000FACF8091330490913404A0913504B0914F
:102C70003604892B8A2B8B2B09F480CF0E94DA062D
:102C8000209133043091340440913504509136043E
:102C900064197509860997092617370748075907E0
:102CA00008F06CCF809132040E940311C0E01092B2
:102CB0000A04C0930904CE151F0409F048C0C801D6
:102CC00082509B4F3C01C301801B910B8E5F94404F
:102CD0008E159F05B0F5D60111968D919C91DC0162
:102CE000ED91FC910284F385E02D0995F301878332
:102CF000FFEF6F1A7F0AE7CF8092BC0098CF8091D8
:102D0000330490913404A0913504B0913604892B9A
:102D10008A2B8B2B09F48FCF0E94DA062091330483
:102D2000309134044091350450913604641975098A
:102D300086099709261737074807590708F07BCFF8
:102D4000B1CF0E0D1F1D0230110508F406CF809182
:102D5000050590910605982789279827DF91CF913F
:102D60001F910F91FF90EF90DF90CF90BF90AF90A9
:102D70009F908F907F906F905F904F903F902F909B
:102D8000089560910105709102052091030530912D
:102D90000405622B732B7168E82FF0E0EE0FFF1F24
:102DA000E25DFE4F80819181682B792B81E00E944A
:102DB000581560E070E883E00E94581570E060E00C
:102DC00082E00E94581581E00E94771597FFFBCFA3
:102DD00080E00E94771520910005022E02C0969592
:102DE00087950A94E2F7222329F0811528E09207BB
:102DF00008F0906F0895CF93DF9380E00E94C11692
:102E0000909357038093560381E00E94C116EC0112
:102E10006091560370915703072E000C880B990B95
:102E20000E94192928EE3CE944E459E30E94CE2986
:102E300020E030E040EE50E40E94CE296093D503BC
:102E40007093D6038093D7039093D803BE01DD0F10
:102E5000880B990B0E94192928EE3CE944E459E3B8
:102E60000E94CE292AE939E949E15FE30E94CE298F
:102E70006093D9037093DA038093DB039093DC03B0
:102E8000DF91CF9108950F931F93CF93DF9300D0DD
:102E90001F92CDB7DEB720E030EF4FE755E46091E9
:102EA0009D0370919E0380919F039091A0030E94C7
:102EB000CE2920E030E040EA50E40E946F280E94D2
:102EC000E1281092B9002CE02093B80020E4298377
:102ED0009B0184E0369527958A95E1F72A836295D0
:102EE000607F6B830091FC041091FD04F8018481E4
:102EF0009581039790F080810E94110643E050E095
:102F0000BE016F5F7F4FC8010E941412882329F011
:102F10001092B90088E48093B8000F900F900F9042
:102F2000DF91CF911F910F91089520911A05309153
:102F30001B05C901079697FD079623E09595879590
:102F40002A95E1F72091180530911905829FA0017B
:102F5000839F500D929F500D112470E060E080918E
:102F60003305909134050C94922B0E948D2BFB011C
:102F700001900020E9F73197AF01461B570BDC01A8
:102F8000ED91FC910280F381E02D09948F929F9244
:102F9000AF92BF92EF92FF920F931F93CF93DF9365
:102FA000CDB7DEB7A1970FB6F894DEBF0FBECDBF89
:102FB0007C01FA01CB0119A2223008F42AE08E012B
:102FC0000F5D1F4F822E912CB12CA12CBF01A501AA
:102FD00094010E94402AF901CA016A300CF5605D33
:102FE000D8016E938D01232B242B252B79F790E0AC
:102FF00080E0109721F0BD01C7010E94B717A1968C
:103000000FB6F894DEBF0FBECDBFDF91CF911F91F9
:103010000F91FF90EF90BF90AF909F908F90089589
:10302000695CDECFCF92DF92EF92FF920F931F93F6
:10303000CF93DF936B01770FEE08FF08F7FE1BC0FD
:10304000EC016DE20E943C078C0144275527BA0130
:103050004C195D096E097F092AE0CE010E94C6174E
:10306000800F911FDF91CF911F910F91FF90EF90F3
:10307000DF90CF9008952AE0B701A601DF91CF91AC
:103080001F910F91FF90EF90DF90CF900C94C61797
:103090002F923F924F925F926F927F928F929F9268
:1030A000AF92BF92CF92DF92EF92FF921F93CF9396
:1030B000DF93EC016A017B01722EAB019601CB011B
:1030C000B6010E943B2A60E971E0811126C04601E9
:1030D0005701E894B7F82FEF3FEF4FE75FE7C501DF
:1030E000B4010E943B2A81110CC02FEF3FEF4FE744
:1030F0005FE7C501B4010E946A2864E971E018160F
:1031000064F02FEF3FEF4FE75FE4C701B6010E9485
:10311000C9291816B4F468E971E0CE01DF91CF91A6
:103120001F91FF90EF90DF90CF90BF90AF909F9056
:103130008F907F906F905F904F903F902F900C9466
:10314000B7172FEF3FEF4FE75FECC701B6010E94C3
:103150006A2887FDE0CF20E030E0A901C701B60171
:103160000E946A28312C212C87FF09C06DE2CE0114
:103170000E943C071C01F7FAF094F7F8F09410E075
:1031800060E070E080E09FE3711641F020E030E005
:1031900040E251E40E946F281F5FF6CFA70196011D
:1031A0000E94FE272B013C010E94E8284B015C0194
:1031B0002AE0BC01A401CE010E94C6177C01E20CEA
:1031C000F31C1123C1F1C501B4010E9417299B0111
:1031D000AC01C301B2010E94FD274B015C016EE20C
:1031E000CE010E943C07E80EF91E115020F120E0AC
:1031F00030E040E251E4C501B4010E94CE292B0128
:103200003C010E94E8284B01B12CA12C2AE0B50119
:10321000A401CE010E94C617E80EF91EC501B40133
:103220000E9417299B01AC01C301B2010E94FD2736
:103230004B015C01DACFC701DF91CF911F91FF9065
:10324000EF90DF90CF90BF90AF909F908F907F9046
:103250006F905F904F903F902F9008950F931F9322
:10326000CF93DF93EC010E94B7178C016CE971E0FA
:10327000CE010E94B717800F911FDF91CF911F9150
:103280000F9108950C94B71785ED8093BC00809141
:10329000330490913404A0913504B091360407961C
:1032A000A11DB11D23E0B695A795979587952A9501
:1032B000D1F72091BC0024FD03C010923104089581
:1032C0004091330450913404609135047091360478
:1032D000452B462B472B69F30097A105B10541F01B
:1032E0002AE22A95F1F700C00197A109B109E1CFBF
:1032F000809132040C9403111F920F920FB60F921B
:1033000011242F933F938F939F93AF93BF938091FB
:103310005B0490915C04A0915D04B0915E043091D7
:10332000E00323E0230F2D3758F50196A11DB11DB1
:103330002093E00380935B0490935C04A0935D046E
:10334000B0935E048091E1039091E203A091E303C6
:10335000B091E4030196A11DB11D8093E103909308
:10336000E203A093E303B093E403BF91AF919F9175
:103370008F913F912F910F900FBE0F901F90189536
:1033800026E8230F0296A11DB11DD2CF1F920F92E6
:103390000FB60F9211242F933F934F935F936F9328
:1033A0007F938F939F93AF93BF93EF93FF938FE59B
:1033B00094E00E94C107FF91EF91BF91AF919F915F
:1033C0008F917F916F915F914F913F912F910F90CE
:1033D0000FBE0F901F9018951F920F920FB60F926D
:1033E00011242F938F939F93EF93FF93E0916F049A
:1033F000F09170048081E0917504F091760482FD73
:103400001BC09081809178048F5F8F732091790425
:10341000821741F0E0917804F0E0E15AFB4F958F7C
:1034200080937804FF91EF919F918F912F910F904E
:103430000FBE0F901F9018958081F4CF1F920F92AE
:103440000FB60F9211242F933F934F935F936F9377
:103450007F938F939F93AF93BF93EF93FF9380914D
:10346000B900887F803609F44AC0F0F5883209F443
:10347000A7C018F5803109F49BC0B8F4882309F47B
:10348000F9C0883009F494C0FF91EF91BF91AF91DA
:103490009F918F917F916F915F914F913F912F916C
:1034A0000F900FBE0F901F901895883109F488C0B7
:1034B000803251F780932F0414C0803409F49DC0EA
:1034C00040F48033B9F38833F9F680932F0485EC08
:1034D000B0C0803509F485C0883509F496C08834B9
:1034E00099F60E944419D0CF883909F48CC038F578
:1034F000883729F050F4883611F0803729F683E0B8
:103500008093310410929B0357C0883809F47BC024
:10351000803919F0803809F0B7CF80919B03803251
:1035200008F071C0E0919B0381E08E0F80939B03B4
:103530008091BB00F0E0E558FC4F80833DC0803BAC
:1035400039F0E0F4803A09F479C0883A09F09CCF68
:1035500084E08093310410927A0310927903E09111
:103560000704F091080409958091790381110FC037
:1035700081E0809379031092590309C0803C09F4DB
:10358000A6CF883C09F4A3CF883B09F07DCFE0911A
:103590007A0381E08E0F80937A03F0E0E75AFC4FC4
:1035A00080818093BB0090917A038091790329C038
:1035B00080910C048093BB0085EC8093BC0064CFA9
:1035C00090912E0480912D04981758F5E0912E04C7
:1035D00081E08E0F80932E04F0E0E35FFB4F80814B
:1035E000E9CFE0912E0481E08E0F80932E0480912C
:1035F000BB00F0E0E35FFB4F808390912E0480914D
:103600002D049817C8F285E8D8CFE0912E0481E008
:103610008E0F80932E048091BB00F0E0E35FFB4FA0
:1036200080838091300481115CCF81E080930B0412
:1036300084EA8093BC001092310426CF85EC8093FD
:10364000BC001092310480919B03803230F4E091F1
:103650009B03F0E0E558FC4F108260919B0370E003
:10366000E0910504F09106048BE793E00995109230
:103670009B030ACF10922F0434CF10926204109251
:10368000610488EE93E0A0E0B0E08093630490933F
:103690006404A0936504B09366042AE331E0309398
:1036A000600420935F0425EC30E030936C04209399
:1036B0006B0424EC30E030936E0420936D0420EC16
:1036C00030E03093700420936F0421EC30E03093AD
:1036D00072042093710422EC30E030937404209340
:1036E000730426EC30E03093760420937504109236
:1036F00078041092790410927A0410927B0410924C
:103700000B0510920A0580930C0590930D05A0936C
:103710000E05B0930F058CE491E09093090580931A
:1037200008051092560510925A05109259051092EC
:103730005B058AE891E09093550580935405E0E796
:10374000F5E01082148213821582369685E0EC3AF9
:10375000F807B9F784E191E09093B7058093B60537
:1037600080E191E09093B9058093B80584E080935F
:10377000BA058093BB0588E191E09093B5058093ED
:10378000B4058AE090E09093BD058093BC0584EF7A
:1037900091E09093BF058093BE051092C2051092F0
:1037A000C1051092B0051092B1051092B2051092A9
:1037B000B3051092C005109217051092160520E867
:1037C00030E0309319052093180580E290E0909343
:1037D0001B0580931A0530931D0520931C059093BB
:1037E0001F0580931E0510922A0510922105109244
:1037F0002005109223051092220581E0809329056F
:10380000809328054FEF5FEF5093270540932605DF
:10381000509325054093240580932B0510922C0589
:1038200010922E0510922D058EE591E090931505CE
:10383000809314051092300510922F0588E095E0D2
:103840009093320580933105109234051092330520
:103850008FEF809338058093390580933A058093E4
:103860003B0580933C0580E89AE1A6E0B0E08093B8
:10387000490590934A05A0934B05B0934C0580EA07
:1038800096E8A1E0B0E080934D0590934E05A0939B
:103890004F05B093500580E5809352051092530573
:1038A0001092000510920205109201053093040554
:1038B000209303051092FD041092FC04089578945F
:1038C00084B5826084BD84B5816084BD85B5826025
:1038D00085BD85B5816085BD80916E0081608093D6
:1038E0006E0010928100809181008260809381003F
:1038F000809181008160809381008091800081604F
:10390000809380008091B10084608093B1008091A9
:10391000B00081608093B00080917A0084608093D1
:103920007A0080917A00826080937A0080917A0098
:10393000816080937A0080917A00806880937A0019
:103940001092C100E0916F04F091700482E08083D6
:10395000E0916B04F0916C041082E0916D04F091A1
:103960006E048FEC808310927704E0917304F091E1
:10397000740486E08083E0917104F0917204808188
:1039800080618083E0917104F0917204808188608D
:103990008083E0917104F09172048081806880835B
:1039A000E0917104F091720480818F7D80830E9488
:1039B000EC1060E08CE00E949E0660E08DE00E94CA
:1039C0009E0662E08EE00E949E068CE00E94470602
:1039D0009093C5038093C40360E08FE00E949E062D
:1039E00060E080E10E949E0662E081E10E949E0606
:1039F0008FE00E9447069093CA038093C9030E94F8
:103A0000EC108091330590913405892B11F10E94BF
:103A1000951720911A0530911B05809118059091FA
:103A20001905213231050CF04AC0B9016052710903
:103A300077FF02C06F5F7F4F759567958357910938
:103A400097FD019600E210E023E730E04AE855E0F8
:103A500049C020911A0530911B05C901079697FDB1
:103A60000796B3E095958795BA95E1F720911805EB
:103A700030911905AC01429FC001439F900D529FA8
:103A8000900D11240E94682A909334058093330589
:103A9000892B09F0BCCFCAE2DAE0FE01649166230B
:103AA00039F08FE594E00E94E3072196892BA9F76E
:103AB0006CE971E08FE594E00E94B717FFCFB90180
:103AC0006054710977FF02C06F5F7F4F75956795EE
:103AD0008255910997FD019600E410E022E530E05F
:103AE0004AE657E0959587950E94940F82E080936F
:103AF00036058091310590913205892B09F4C5C1B5
:103B00008CE3809335050E94EC1080913C0587FD85
:103B10001EC061E00E949E0661E080913C050E940B
:103B2000700661E070E080E090E00E94FF0660E0D7
:103B300080913C050E9470066AE070E080E090E0B1
:103B40000E94FF0661E080913C050E947006809112
:103B5000310590913205892B09F456C2209149050F
:103B600030914A0540914B0550914C0560E074E25C
:103B700084EF90E00E94402A205131094109510907
:103B800056954795379527952093B80064E086E8C9
:103B900095E00E94B71260911A05615084E195E0AA
:103BA0000E945F1364E082E895E00E94B712809162
:103BB000360560E1813009F064E184E195E00E941E
:103BC0005F1364E08EE795E00E94B7128FE8809360
:103BD000510580911805909119058038910509F0DB
:103BE0002CC280911A0590911B058034910509F033
:103BF00034C280913605813009F01DC28FE980936F
:103C00005105C2E16AED84E195E00E945F136C2FDB
:103C100084E195E00E945F1361E884E195E00E94F1
:103C20005F136091510584E195E00E945F1369ED97
:103C300084E195E00E945F138091360562E2813055
:103C400009F061EF84E195E00E945F1366E088E788
:103C500095E00E94B7128091310590913205892B31
:103C600009F4FFC120914D0530914E0540914F055B
:103C70005091500560E074E284EF90E00E94402A89
:103C80002051310941095109569547953795279596
:103C90002093B8000E94951711E010932805109307
:103CA000290581E090E09093270580932605909365
:103CB000250580932405109221051092200510926D
:103CC0002305109222056FE971E084E195E00E94DE
:103CD0002E1910922105109220058AE090E0909311
:103CE0002305809322056CEA71E084E195E00E944F
:103CF0002E190E94BC1364E670E080E090E00E9400
:103D0000FF0686E090E00E94682AEC0188E4888340
:103D100088E095E09A8389831B8280E290E09D830E
:103D20008C83D093FF04C093FE040E94EC101B838D
:103D3000CE010E9436158091FC049091FD040097FD
:103D400011F00E94042B86E090E00E94682AEC01AA
:103D500080E6888388E095E09A8389831B8280E2ED
:103D600090E09D838C83D093FD04C093FC040E945B
:103D7000EC1081E08B83CE010E94361580EE90E03E
:103D8000909304058093030567EB71E08FE594E061
:103D90000E942E1910929D0310929E0310929F0371
:103DA0001092A00380E090E0A0E7B1E48093CF03FD
:103DB0009093D003A093D103B093D20380E090E01E
:103DC000A0E8BFE38093000190930101A09302015A
:103DD000B093030182E090E09093A2038093A1034B
:103DE00088E20E94110660E088E095E00E9485125A
:103DF00062E388E095E00E94851288E095E00E94E9
:103E0000B41261E082E00E949E06B4E02B2E312CB9
:103E1000CC24C394D12CCAE0D0E081E08093C005CB
:103E20008FB7F89440915B0450915C0460915D04FD
:103E300070915E048FBF8091B0059091B105A09103
:103E4000B205B091B305481B590B6A0B7B0B8091EF
:103E5000BC059091BD05B0E0A0E084179507A607CA
:103E6000B70708F04BC310E08091BA05181708F0A7
:103E700002C1E091B605F091B705E10FF11D62E0D6
:103E800080810E949E061F5FEFCF61E080913A051E
:103E90000E949E0661E080913B050E949E068091F3
:103EA0003A05082E000C990BFC01EE59F54FE491F0
:103EB000F0E0EE0FFF1FE25BF54F25913491309358
:103EC000420520934105FC01EA58F54FE491E09347
:103ED000470580913B05082E000C990BFC01EE591B
:103EE000F54FE491F0E0EE0FFF1FE25BF54FA59177
:103EF000B491B0934405A0934305FC01EA58F54FF3
:103F0000E491E09348058C91E82BEC9380912F0588
:103F100090913005892B09F434C0CFB7F894809183
:103F20009C03811127C0ECE6FAE08491E0E8FAE016
:103F30009491E82FF0E0EE0FFF1FEC5BF54FA59199
:103F4000B491EC91E92321F461E08AE00E947006CB
:103F500061E08AE00E949E068CB580618CBD8CB5C4
:103F600080648CBD61E08DE00E949E0661E08BE084
:103F70000E949E0680919C038F5F80939C03CFBF1D
:103F8000C4CD61E0809138050E949E0661E0809179
:103F900039050E949E0680913805082E000C990B69
:103FA000FC01EE59F54FE491F0E0EE0FFF1FE25BEC
:103FB000F54F2591349130933E0520933D05FC014A
:103FC000EA58F54FE491E093450580913905082EB4
:103FD000000C990BFC01EE59F54FE491F0E0EE0F67
:103FE000FF1FE25BF54FA591B491B0934005A093FC
:103FF0003F05FC01EA58F54FE491E09346058C91AA
:10400000E095E823EC9381CD80912F0590913005C8
:10401000892B31F080915205909153050E94A41094
:10402000E0914305F0914405908180914805809589
:1040300089238083ABCD8FECE2CD8036910569F486
:1040400080911A0590911B05409739F480913605AF
:10405000813029F480E180935105C2E0D3CD8FEA0D
:10406000FACFE0914305F091440580819091480595
:10407000892B80830FCE712C8091BB05781608F0B8
:1040800063C0072D10E0E091B805F091B905E00F8D
:10409000F11F61E080810E949E06E091B805F091D9
:1040A000B905E00FF11F60E080810E94700681E099
:1040B00090E0A0E0B0E0072C04C0880F991FAA1F71
:1040C000BB1F0A94D2F75C017C01E094F094612C50
:1040D0008091BA05681608F5862C912C8091B6055A
:1040E0009091B705880D991DFC0180810E944706BB
:1040F000F4013496EE0FFF1FEC5AFA4F892B41F46E
:10410000808191818A299B29918380836394E0CF68
:10411000808191818E219F21F7CFE091B805F091A8
:10412000B905E00FF11F61E080810E947006809167
:10413000B8059091B905080F191F60E0F80180815A
:104140000E949E06739498CFF4E5AF2EF5E0BF2E43
:104150008501F801878D90A1892B31F4148E4FEFE2
:104160005FEF568F458F11A20A5F1F4F55E0003950
:10417000150779F7912C8091BA05981608F053C06D
:10418000812CE92CF12CEE0CFF1CC701845A9A4FAC
:104190007C012091BB05821608F043C0F7016081C5
:1041A0007181082C02C0769567950A94E2F7929E79
:1041B00090011124280D311DE4E5F5E080E0458DE6
:1041C000568D2417350709F4F4C68F5F36968A306A
:1041D000B1F760FF24C0E4E5F5E090E080E0448DB5
:1041E000411118C0E091B405F091B505E20FF31F3D
:1041F000408156E0589FF001599FF00D1124EC5A70
:10420000FA4F448F368F258F10A2178E61E00E94DF
:10421000A10505C0019636968A30910501F7839471
:10422000B8CF9394A8CF80E0F50191A19111892F87
:10423000F6E0AF0EB11C0A151B05B1F79FB7F89455
:1042400040915B0450915C0460915D0470915E0448
:104250009FBF4093B0055093B1056093B205709332
:10426000B305882309F44AC180917505882309F4B0
:1042700045C18091730590917405019709F03EC185
:10428000609170056093C20361113DC18091DF03AD
:10429000882309F4E8C08CE00E9447069093C70386
:1042A0008093C6032091C4033091C50382179307FE
:1042B00009F44AC0892B09F047C08DE00E944706E7
:1042C0008090CF039090D003A090D103B090D20300
:1042D000892B09F491C320E030E040EF51E4C5019F
:1042E000B4010E946A2887FF16C02DEC3CEC4CEC10
:1042F0005DE3C501B4010E94FE276093CF03709374
:10430000D0038093D1039093D2036DEC71E08FE5DD
:1043100094E00E9442196AEE71E08FE594E00E94F9
:1043200042194091CF035091D0036091D103709115
:10433000D20322E08FE594E00E9448186CE971E016
:104340008FE594E00E94B7178091C6039091C70350
:104350009093C5038093C4038EE00E94470620918A
:10436000C303892B09F065C3211109C081E0809343
:10437000C30362EF71E08FE594E00E942E198FE095
:104380000E9447069093CC038093CB032091C903EE
:104390003091CA038217930709F44AC0892B09F0A8
:1043A00047C080E10E944706809000019090010183
:1043B000A0900201B0900301892B09F442C320E0D0
:1043C00030E040E450E4C501B4010E946A2887FF50
:1043D00016C02DEC3CEC4CEC5DE3C501B4010E9431
:1043E000FE27609300017093010180930201909376
:1043F00003016DEC71E08FE594E00E9442196FE0DB
:1044000072E08FE594E00E944219409100015091C2
:104410000101609102017091030122E08FE594E0B7
:104420000E9448186CE971E08FE594E00E94B7178C
:104430008091CB039091CC039093CA038093C903DE
:1044400081E10E9447062091C803892B09F016C319
:10445000211109C081E08093C80361E272E08FE519
:1044600094E00E942E198091DD039091DE0381304B
:10447000910509F41DC30CF009C3892B09F413C37A
:104480004090D9035090DA036090DB037090DC0316
:104490008090D5039090D603A090D703B090D80316
:1044A0000E94951711E01093280510932905D092CA
:1044B0002705C0922605D0922505C092240580913B
:1044C000D3039091D4038230910509F45FC40CF0BA
:1044D00001C3009709F482C3019709F4FAC30E944B
:1044E000BC1380E090E0892B09F497CC0E94AD07C3
:1044F000882309F490CC0E9400008DCC1092C00556
:104500001092C203C3CE8FE594E00E943C076CE991
:1045100071E08FE594E00E94B717A091C2030A2FC3
:104520000A2E000C110B8091C103882309F4F8C0F6
:10453000A801405351094A30510508F0F1C0E090FC
:104540000E01F0900F018091BF039091C0039C0178
:104550002F5F3F4F63E0E616F10409F471C1FC01DF
:10456000843091050CF022C1E75FFE4FA083880FD5
:10457000991FFC01E155FC4F518340833093C003E8
:104580002093BF032830310509F0CAC01092C1033F
:104590008091AF039091B0032AE0289FB001299F3A
:1045A000700D11248091B1039091B203680F791FAF
:1045B000072E000C880B990B0E9419294B015C01F6
:1045C0006091B3037091B403072E000C880B990B14
:1045D0000E9419292DEC3CEC4CEC5DE30E94CE29A5
:1045E0009B01AC01C501B4010E94FE274B015C0197
:1045F0006091B5037091B603072E000C880B990BE0
:104600000E9419292AE037ED43E25CE30E94CE299B
:104610009B01AC01C501B4010E94FE272B013C01A6
:1046200020E030E040EF51E40E946A2818160CF4B4
:1046300002C16091B9037091BA03072E000C880B78
:10464000990B0E9419292DEC3CEC4CEC5DE30E9487
:10465000CE294B015C016091B7037091B803072E1E
:10466000000C880B990B0E9419299B01AC01C50114
:10467000B4010E94FE274B015C016091BB03709165
:10468000BC03072E000C880B990B0E9419292AE005
:1046900037ED43E25CE30E94CE299B01AC01C501EA
:1046A000B4010E94FE274B015C016091BD03709133
:1046B000BE03072E000C880B990B0E9419292FE6C8
:1046C00032E143E85AE30E94CE299B01AC01C501C7
:1046D000B4010E94FE274B015C0120E030E040E481
:1046E00050E40E946A2818160CF4A5C04092CF032B
:1046F0005092D0036092D1037092D2038092000155
:1047000090920101A0920201B092030181E0E816AB
:10471000F10409F44EC092E0E916F10409F449C02D
:104720000134110509F04DC08091D3039091D40359
:10473000892B09F45DC081E08093C10345E050E01E
:104740005093D4034093D30380910E0190910F01B5
:104750008230910509F435C18330910511F001973C
:1047600021F41092C0031092BF0345E050E060E2D4
:1047700070E089E091E00E94922B45E050E060E219
:1047800070E084E091E00E94922B80E1EFEAF3E098
:1047900011928A95E9F70A32110551F58091DF03EC
:1047A000882309F425C11092DF0322C0E050FF4F97
:1047B000DDCEF092D403E092D3030134110509F465
:1047C000BACF0234110509F006C18091D30390914C
:1047D000D403892B69F480910E0190910F01019609
:1047E000843091050CF0F2C090930F0180930E017C
:1047F0008091C203833209F049CD8091D303909117
:10480000D403892B09F442CD61E082E00E94700656
:1048100080910E0190910F018230910539F0833023
:10482000910521F08130910509F030CD9093DE03A0
:104830008093DD032BCD3092D4032092D303BDCFE0
:10484000FC01E75FFE4F843091054CF0BC016450E1
:1048500071096230710558F4FC01E050FF4FA083EC
:10486000880F991FFC01ED55FC4F51834083309315
:10487000C0032093BF032630310509F051CF1092B9
:10488000C1038091A3039091A4032AE0F22EF89E25
:10489000B001F99E700D11248091A5039091A6039B
:1048A000680F791F072E000C880B990B0E9419299D
:1048B0004B015C016091A7037091A803072E000CC7
:1048C000880B990B0E9419292DEC3CEC4CEC5DE314
:1048D0000E94CE299B01AC01C501B4010E94FE27B4
:1048E0004B015C016091A9037091AA03072E000C93
:1048F000880B990B0E9419292AE037ED43E25CE30B
:104900000E94CE299B01AC01C501B4010E94FE2783
:104910004B015C0120E030E040EF51E40E946A2846
:1049200018160CF488CF2091AB033091AC03F29EA3
:10493000C001F39E900D11242091AD033091AE0380
:10494000820F931F97FD77CF8092CF039092D00371
:10495000A092D103B092D2039093CE038093CD0363
:104960006DEB71E08FE594E00E9442198090CD03D9
:104970009090CE03092C000CAA08BB082AE0B501D0
:10498000A401B7FE0DC06DE28FE594E00E943C07E4
:1049900044275527BA01481959096A097B092AE0B1
:1049A0008FE594E00E94C6176CE971E08FE594E012
:1049B0000E94B717E3E0F0E0F093D403E093D30351
:1049C000FCCE3092C0032092BF03CFCED0920F0115
:1049D000C0920E010DCF0334110509F0ECC2809195
:1049E0000E0190910F019093D4038093D30300CFD5
:1049F00081E08093DF03FCCE20E030E0A901C50117
:104A0000B4010E94C92918160CF085CC2DEC3CECA1
:104A10004CEC5DE3C501B4010E94FD276093CF0318
:104A20007093D0038093D1039093D2036AED71E029
:104A30006ECC222309F4A3CC1092C30360E072E091
:104A40009ACC20E030E0A901C501B4010E94C92937
:104A500018160CF0D4CC2DEC3CEC4CEC5DE3C5010D
:104A6000B4010E94FD2760930001709301018093BF
:104A70000201909303016AED71E0BDCC222309F499
:104A8000F2CC1092C80362E372E0E9CC8230910567
:104A9000D1F0039709F0F4CC0E94FB160E94431753
:104AA00066E572E00BC060E082E00E947006E8CC30
:104AB0000E94FB160E94431764E472E08FE594E0C5
:104AC0000E942E19DDCC0E94FB160E9443176CE455
:104AD00072E0F4CF8430910509F4ECC10CF493C179
:104AE000059709F0FCCC0E949517109328051093A8
:104AF0002905D0922705C0922605D0922505C0929F
:104B00002405109221051092200510922305109281
:104B1000220580910E0190910F018230910509F4D8
:104B2000F5C18330910509F405C2019709F0D7CC8E
:104B300060E173E084E195E00E94421909E011E030
:104B40009DE0E92E91E0F92EF80161918F0184E159
:104B500095E00E943C07E016F106B1F76AE173E0C8
:104B600084E195E00E94421960910B0184E195E097
:104B70000E943C071092210510922005D093230536
:104B8000C09322056CE173E084E195E00E94421934
:104B900004E011E0F80161918F0184E195E00E9449
:104BA0003C07F1E008301F07A9F76AE173E084E1F0
:104BB00095E00E9442196091050184E195E00E9410
:104BC0003C07109221051092200584E190E090931B
:104BD00023058093220568E273E064C010922105EA
:104BE00010922005109223051092220580910E014B
:104BF00090910F01019731F46CE572E084E195E04A
:104C00000E9442196FE572E084E195E00E942E193E
:104C10001092210510922005D0932305C093220500
:104C200080910E0190910F01029731F46CE572E0D2
:104C300084E195E00E9442196AE672E084E195E021
:104C40000E942E19109221051092200584E190E017
:104C5000909323058093220580910E0190910F017E
:104C6000039731F46CE572E084E195E00E9442190B
:104C700067E772E084E195E00E9442198091DD03CC
:104C80009091DE0381309105F1F08CF462E872E0DE
:104C9000892BA1F08091DF0360E972E0811102C0ED
:104CA00066E972E084E195E00E94421918CC8230F6
:104CB000910561F06DE872E0039761F784E195E09A
:104CC0000E944219E7CF67E872E0F8CF6AE872E025
:104CD000F5CF109221051092200510922305109215
:104CE00022056BE972E084E195E00E94421923E01D
:104CF000B501A40184E195E00E94481865ED72E0D9
:104D000084E195E00E9442194091CF035091D00375
:104D10006091D1037091D20322E084E195E00E947A
:104D200048181092210510922005D0932305C093B6
:104D3000220561EA72E084E195E00E94421923E0D5
:104D4000B301A20184E195E00E94481865ED72E08C
:104D500084E195E00E9442194091000150910101C7
:104D6000609102017091030122E084E195E00E94CC
:104D70004818109221051092200584E190E090934C
:104D800023058093220567EA72E08CCF10922105FB
:104D900010922005109223051092220564EB72E018
:104DA00084E195E00E94421923E0B301A20184E16D
:104DB00095E00E9448181092210510922005D0938A
:104DC0002305C09322056AEB72E084E195E00E941E
:104DD00042194091000150910101609102017091CE
:104DE000030122E084E195E00E9448181092210519
:104DF0001092200584E190E0909323058093220592
:104E000064EC72E04FCF10922105109220051092B1
:104E10002305109222056BE972E084E195E00E947F
:104E2000421923E0B501A40184E195E00E944818ED
:104E300063ED72E084E195E00E9442194091CF0356
:104E40005091D0036091D1037091D20322E084E1AC
:104E500095E00E9448181092210510922005D093E9
:104E60002305C093220569ED72E084E195E00E947C
:104E7000421970E060E084E195E00E9412186FED45
:104E800072E084E195E00E9442196091CD03709137
:104E9000CE0384E195E00E94121810922105109231
:104EA000200584E190E0909323058093220564EE31
:104EB00072E0F8CE10922105109220051092230581
:104EC000109222056FEE72E084E195E00E942E19A7
:104ED0001092210510922005D0932305C09322053E
:104EE00061E073E084E195E00E942E1980910E014B
:104EF00090910F018130910521F08230910509F0E8
:104F0000EECA9093D4038093D303E9CA69E373E0B4
:104F100084E195E00E94421904E011E0F8016191FA
:104F20008F0184E195E00E943C07F1E008301F0703
:104F3000A9F7D5CA60E173E084E195E00E944219C7
:104F400009E011E08DE0E82E81E0F82EF801619192
:104F50008F0184E195E00E943C07E016F106B1F76D
:104F60006AE173E084E195E00E94421960910B01CF
:104F700084E195E00E943C071092210510922005E3
:104F8000D0932305C093220569E473E084E195E0A2
:104F90000E9442196091040184E195E00E943C075F
:104FA0006091050184E195E00E943C0762E573E0B1
:104FB00079CE61702CC90434110509F0ECCB8091D5
:104FC000D3039091D403892B21F41092DE03109225
:104FD000DD031092D4031092D3030ACC8EE591E046
:104FE00090931505809314058091330590913405B5
:104FF000009711F00C94042B08955058BB27AA2752
:105000000E9415280C948F290E94812938F00E9453
:10501000882920F039F49F3F19F426F40C947E2956
:105020000EF4E095E7FB0C947829E92F0E94A02963
:1050300058F3BA17620773078407950720F079F4CD
:10504000A6F50C94C2290EF4E0950B2EBA2FA02DD4
:105050000B01B90190010C01CA01A0011124FF2725
:10506000591B99F0593F50F4503E68F11A16F04020
:10507000A22F232F342F4427585FF3CF469537951F
:105080002795A795F0405395C9F77EF41F16BA0BE4
:10509000620B730B840BBAF09150A1F0FF0FBB1F92
:1050A000661F771F881FC2F70EC0BA0F621F731FDB
:1050B000841F48F4879577956795B795F7959E3F38
:1050C00008F0B0CF9395880F08F09927EE0F9795C9
:1050D000879508950E94542908F481E008950E945C
:1050E00083280C948F290E94882958F00E948129D6
:1050F00040F029F45F3F29F00C94782951110C9469
:10510000C3290C947E290E94A02968F39923B1F346
:10511000552391F3951B550BBB27AA2762177307DD
:10512000840738F09F5F5F4F220F331F441FAA1F71
:10513000A9F335D00E2E3AF0E0E832D0915050402D
:10514000E695001CCAF72BD0FE2F29D0660F771FDB
:10515000881FBB1F261737074807AB07B0E809F0C1
:10516000BB0B802DBF01FF2793585F4F3AF09E3F46
:10517000510578F00C9478290C94C3295F3FE4F32F
:10518000983ED4F3869577956795B795F7959F5F89
:10519000C9F7880F911D9695879597F90895E1E0D5
:1051A000660F771F881FBB1F621773078407BA0734
:1051B00020F0621B730B840BBA0BEE1F88F7E0958F
:1051C00008950E94E8286894B1110C94C3290895A9
:1051D0000E94A82988F09F5798F0B92F9927B751B6
:1051E000B0F0E1F0660F771F881F991F1AF0BA958B
:1051F000C9F714C0B13091F00E94C229B1E00895FE
:105200000C94C229672F782F8827B85F39F0B93FEF
:10521000CCF3869577956795B395D9F73EF490953D
:105220008095709561957F4F8F4F9F4F0895E894BB
:1052300009C097FB3EF490958095709561957F4FDE
:105240008F4F9F4F9923A9F0F92F96E9BB2793958C
:10525000F695879577956795B795F111F8CFFAF49C
:10526000BB0F11F460FF1BC06F5F7F4F8F4F9F4FCD
:1052700016C0882311F096E911C0772321F09EE82B
:10528000872F762F05C0662371F096E8862F70E091
:1052900060E02AF09A95660F771F881FDAF7880F6B
:1052A0009695879597F90895990F0008550FAA0BC1
:1052B000E0E8FEEF16161706E807F907C0F0121629
:1052C0001306E407F50798F0621B730B840B950B2C
:1052D00039F40A2661F0232B242B252B21F4089581
:1052E0000A2609F4A140A6958FEF811D811D08951E
:1052F00097F99F6780E870E060E008959FEF80EC89
:10530000089500240A94161617061806090608952B
:1053100000240A9412161306140605060895092E91
:105320000394000C11F4882352F0BB0F40F4BF2B00
:1053300011F460FF04C06F5F7F4F8F4F9F4F089540
:1053400057FD9058440F551F59F05F3F71F0479536
:10535000880F97FB991F61F09F3F79F0879508951B
:10536000121613061406551FF2CF4695F1DF08C03A
:10537000161617061806991FF1CF86957105610557
:1053800008940895E894BB2766277727CB0197F9FF
:1053900008950E94542908F48FEF08950E94E1298E
:1053A0000C948F290E94812938F00E94882920F0CE
:1053B000952311F00C9478290C947E2911240C94D7
:1053C000C3290E94A02970F3959FC1F3950F50E067
:1053D000551F629FF001729FBB27F00DB11D639FA7
:1053E000AA27F00DB11DAA1F649F6627B00DA11D4D
:1053F000661F829F2227B00DA11D621F739FB00DF3
:10540000A11D621F839FA00D611D221F749F332762
:10541000A00D611D231F849F600D211D822F762FFB
:105420006A2F11249F5750409AF0F1F088234AF0D8
:10543000EE0FFF1FBB1F661F771F881F9150504044
:10544000A9F79E3F510580F00C9478290C94C3294C
:105450005F3FE4F3983ED4F3869577956795B795CB
:10546000F795E7959F5FC1F7FE2B880F911D9695E5
:10547000879597F908950E945429880B990B0895F0
:10548000A1E21A2EAA1BBB1BFD010DC0AA1FBB1F48
:10549000EE1FFF1FA217B307E407F50720F0A21BBA
:1054A000B30BE40BF50B661F771F881F991F1A9427
:1054B00069F760957095809590959B01AC01BD0151
:1054C000CF010895EE0FFF1F0590F491E02D099490
:1054D0000F931F93CF93DF938230910510F482E0F6
:1054E00090E0E091C505F091C60530E020E0B0E025
:1054F000A0E0309799F42115310509F44AC0281B22
:10550000390B24303105D8F58A819B8161157105ED
:1055100089F1FB0193838283FE0111C04081518197
:105520000281138148175907E0F04817590799F489
:10553000109761F012960C93129713961C93329663
:10554000CF01DF91CF911F910F9108950093C50571
:105550001093C605F4CF2115310551F042175307BA
:1055600038F0A901DB019A01BD01DF01F801C1CFCB
:10557000EF01F9CF9093C6058093C505CDCFFE010D
:10558000E20FF31F819391932250310939832883CD
:10559000D7CF2091C3053091C405232B41F420912E
:1055A0002A0130912B013093C4052093C30520912B
:1055B0002801309129012115310541F42DB73EB75D
:1055C00040912C0150912D01241B350BE091C30516
:1055D000F091C405E217F307A0F42E1B3F0B281728
:1055E000390778F0AC014E5F5F4F2417350748F05C
:1055F0004E0F5F1F5093C4054093C3058193919351
:105600009FCFF0E0E0E09CCFCF93DF930097E9F0ED
:10561000FC01329713821282A091C505B091C60594
:10562000ED0130E020E01097A1F420813181820F5C
:10563000931F2091C3053091C4052817390709F03D
:1056400061C0F093C405E093C305DF91CF91089545
:10565000EA01CE17DF07E8F54A815B819E0141151B
:105660005105B1F7E901FB83EA8349915991C40FD0
:10567000D51FEC17FD0761F4808191810296840F9C
:10568000951FE90199838883828193819B838A8313
:10569000F0E0E0E012968D919C9113970097B9F598
:1056A0002D913C911197CD010296820F931F20916D
:1056B000C3053091C4052817390739F6309751F5DD
:1056C0001092C6051092C505B093C405A093C305FA
:1056D000BCCFD383C28340815181840F951FC817EB
:1056E000D90761F44E5F5F4F88819981480F591F38
:1056F000518340838A819B81938382832115310565
:1057000009F0B0CFF093C605E093C5059ECFFD012B
:10571000DC01C0CF13821282D7CF81E090E0F894F1
:105720000C94992BDC0101C06D9341505040E0F77F
:10573000089515E0C3E5D5E004C0FE010E94622A89
:0C5740002196C435D107C9F7F894FFCFBB
:10574C00CDCCCC3D202020200020202020000100AA
:10575C00070605040B0A0908313233413435364249
:10576C00373839432A3023440000C70580000040F5
:10577C0000500060007000000000E3074307700752
:10578C003008A1077F07930700000000851258120C
:10579C0055151D0651123E122F1200000000E80C88
:1057AC0043075515A210F7091D068D0F650F810FC4
:1057BC00750FF50F1D06AE0AE0146709B009AE0EA1
:1057CC00910E190EBA0D000000003107350739078C
:1057DC006E616E00696E66006F7666000D0A004899
:1057EC006F6C612045726E6573746F004269656EF3
:1057FC0076656E69646F00526573657400546965F3
:10580C006D706F4361726761646F3A200047697213
:10581C006F2061756D656E746F004769726F2064DF
:10582C00656372656D656E746F0056616C6F723A6C
:10583C002000426F746F6E2050756C7361646F0042
:10584C00426F746F6E204C6962657261646F0056B2
:10585C00616C6F7220695F656E636F6465723A206C
:10586C0000426F74C3B36E20322050756C73616448
:10587C006F00426F74C3B36E2032204C6962657244
:10588C0061646F0074656E73696F6E00636F727222
:10589C0069656E74650072616D7061002A2000315B
:1058AC002E2054656E73696F6E00322E20436F721A
:1058BC007269656E746500332E2052616D706120C3
:1058CC0020004F4646200054200043200052200068
:1058DC00456E636F20005465632000542E20523AAD
:1058EC0000432E20523A004D4F444F2054454E5306
:1058FC00494F4E005265616C3A00446573656164B2
:10590C00613A20004D4F444F20434F525249454E6F
:10591C005445002020443A2000742E20523A002096
:10592C0020443A004D4F444F2052414D50410056B7
:10593C00616C6F72657320496E76616C69646F730C
:10594C000050726573696F6E65205465636C6100FD
:10595C0054454E53494F4E3A20002E00434F52525D
:10596C0049454E54453A200045444954415220562D
:10597C00414C4F5245533A2000436F727269656E29
:10598C007465204D41583A20005449454D504F3ACA
:06599C0020002073000052
:00000001FF
