:100000000C9454050C947C050C947C050C947C0594
:100010000C947C050C947C050C947C050C947C055C
:100020000C947C050C947C050C947C050C947C054C
:100030000C947C050C947C050C947C050C947C053C
:100040000C940F190C947C050C947F190C9459197D
:100050000C947C050C947C050C947C050C947C051C
:100060000C94B1190C947C0500000000003E5B4F1D
:100070005B3E3E6B4F6B3E1C3E7C3E1C183C7E3C08
:10008000181C577D571C1C5E7F5E1C00183C180016
:10009000FFE7C3E7FF0018241800FFE7DBE7FF30A6
:1000A000483A060E2629792926407F050507407F14
:1000B00005253F5A3CE73C5A7F3E1C1C08081C1C87
:1000C0003E7F14227F22145F5F005F5F06097F017D
:1000D0007F006689956A606060606094A2FFA29468
:1000E00008047E040810207E201008082A1C080836
:1000F0001C2A08081E101010100C1E0C1E0C303884
:100100003E3830060E3E0E06000000000000005F84
:1001100000000007000700147F147F14242A7F2AA0
:100120001223130864623649562050000807030062
:10013000001C2241000041221C002A1C7F1C2A08AE
:10014000083E080800807030000808080808000011
:1001500060600020100804023E5149453E00427F85
:10016000400072494949462141494D331814127FD4
:100170001027454545393C4A494931412111090774
:100180003649494936464949291E000014000000F5
:1001900040340000000814224114141414140041C7
:1001A00022140802015909063E415D594E7C121184
:1001B000127C7F494949363E414141227F414141BC
:1001C0003E7F494949417F090909013E4141517337
:1001D0007F0808087F00417F41002040413F017FA8
:1001E000081422417F404040407F021C027F7F0470
:1001F00008107F3E4141413E7F090909063E4151B9
:10020000215E7F09192946264949493203017F01A8
:10021000033F4040403F1F2040201F3F4038403FA9
:10022000631408146303047804036159494D4300BF
:100230007F4141410204081020004141417F0402F6
:10024000010204404040404000030708002054548D
:1002500078407F284444383844444428384444286B
:100260007F385454541800087E090218A4A49C78BE
:100270007F0804047800447D40002040403D007F1A
:100280001028440000417F40007C047804787C08FA
:100290000404783844444438FC18242418182424CE
:1002A00018FC7C08040408485454542404043F44B3
:1002B000243C4040207C1C2040201C3C4030403CE2
:1002C00044281028444C9090907C4464544C440042
:1002D00008364100000077000000413608000201A6
:1002E0000204023C2623263C1EA1A161123A404092
:1002F000207A38545455592155557941225454780F
:1003000042215554784020545579400C1E527212A7
:100310003955555559395454545939555454580030
:1003200000457C410002457D420001457C407D1234
:1003300011127DF0282528F07C5455450020545496
:100340007C547C0A097F4932494949323A44444441
:100350003A324A4848303A4141217A3A424020787C
:10036000009DA0A07D3D4242423D3D4040403D3C7D
:1003700024FF2424487E4943662B2FFC2F2BFF09A2
:1003800029F620C0887E0903205454794100004496
:100390007D413048484A32384040227A007A0A0A81
:1003A000727D0D19317D2629292F282629292926F4
:1003B00030484D4020380808080808080808382F39
:1003C00010C8ACBA2F102834FA00007B00000814C3
:1003D0002A142222142A14085500550055AA55AA99
:1003E00055AAFF55FF55FF000000FF00101010FF39
:1003F00000141414FF001010FF00FF1010F010F094
:10040000141414FC001414F700FF0000FF00FF1484
:1004100014F404FC141417101F10101F101F1414D0
:10042000141F00101010F0000000001F101010101A
:100430001F10101010F010000000FF10101010100E
:1004400010101010FF10000000FF140000FF00FF4C
:1004500000001F10170000FC04F4141417101714E8
:1004600014F404F40000FF00F7141414141414140A
:10047000F700F7141414171410101F101F1414147D
:10048000F4141010F010F000001F101F0000001FE7
:1004900014000000FC140000F010F01010FF10FF1A
:1004A000141414FF141010101F00000000F010FFAF
:1004B000FFFFFFFFF0F0F0F0F0FFFFFF0000000093
:1004C00000FFFF0F0F0F0F0F3844443844FC4A4A17
:1004D0004A347E02020606027E027E0263554941CC
:1004E000633844443C04407E201E2006027E020203
:1004F00099A5E7A5991C2A492A1C4C7201724C3017
:100500004A4D4D303048784830BC625A463D3E49ED
:100510004949007E0101017E2A2A2A2A2A44445F91
:10052000444440514A444040444A51400000FF0185
:1005300003E080FF000008086B6B08361236243693
:10054000060F090F060000181800000010100030F8
:1005500040FF0101001F01011E00191D1712003C80
:100560003C3C3C0000000000000103070F1F3F7FE0
:100570000080C0E0F0F8FCFEDB40A4A62EAF200017
:10058000A1C8D300408DAED580A800006000000057
:100590000000000000000000000000E0000000007B
:1005A00000000000000000000001E000000000006A
:1005B000000000000000000001F00000000000004A
:1005C0000000000000000003F00000000000000038
:1005D00000000000000007F0000000000000000024
:1005E000000000000007F80000000000000000000C
:1005F000000000000FF800000003C0007E000001B2
:10060000E0007F0FF800000003C000FE000001E0E2
:1006100000FFEFF800000003C000FE000001E00052
:10062000FFFFF800000003C000F00000000F007F93
:10063000FE7FC0000003C000F00000000F003FFE7E
:100640007FF83FF1FBCFFCFEF3BC3DEFE01FFE7FE8
:10065000FF7FFBFFDFFEFEFFBC3DEFE01FC6FFFF9D
:100660007FFBFFDFFEFEFFBC3DEFE00FE3C7FE7840
:100670007BC3DE1EF0FFBC3DEF0007FF87FC787BED
:10068000C3DE1EF0F83C3DEF0001FFFFF0007BC32E
:10069000C01EF0F03C3DEF0001F37FE03FFBC3CF15
:1006A000FEF0F03C3DEF0003E33F807FFBC3DFFE45
:1006B000F0F03C3DEF0007E73C00787BC3DE1EF026
:1006C000F03C3DEF0007FFBE00787BC3DE1EF0F07C
:1006D0003C3DEF0007FFFE00787BC3DE1EF0F03CE0
:1006E0003DEF000FFFFE007FFBFFDFFEF0F03FFD60
:1006F000EFE00FFFFF007FFBFFDFFEF0F03FFDEFBD
:10070000E00FF9FF003E79F9CF9EF0F01F3DE7E0E2
:100710001FF1FF0000000000000000000000001FAB
:1007200080FF007FFFFFFFFFFFFFFFFFFFE01C00D8
:100730007F007FFFFFFFFEB46D888D18E000001F73
:10074000007FFFFFFFFE95AD7DB577E000000F0055
:100750007FFFFFFFFEA5AD9D8D19E0000006007F25
:10076000FFFFFFFEB5ADEDB57EE00000000000012B
:100770008000000000000000000003800000000076
:10078000000000000007C0000000000000000000A2
:1007900007C00000000000000000000FC0000000C3
:1007A0000000000000001FE000000000000000004A
:1007B000001FE00000000000000000003FE000001B
:1007C000000000000000003FF000000000000000FA
:1007D00000007FF0000000000000001FF87FF00024
:1007E0000000000000003FFE7FF00000000000005D
:1007F000003FFF7FF0000000000000001FFFFBE053
:10080000000000000000000FFFF9FFC00000000022
:1008100000000FFFF9FFF800000000000007FFF1E3
:10082000FFFF00000000000003FC73FFFF800000DA
:1008300000000001FE3FFFFF80000000000000FFFD
:100840001E0FFF000000000000007FFE1FFC0000E4
:1008500000000000003FFFFFF80000000000000063
:100860000FDFFFE0000000000000001F19FFC000C4
:100870000000000000003F3CFF00000000000000FE
:10088000007E7CF800000000000000007FFE7C007D
:1008900000000000000000FFFFFC0000000000005E
:1008A0000000FFFFFE0000000000000000FFFFFE50
:1008B0000000000000000001FFEFFE00000000004B
:1008C000000001FFCFFE0000000000000003FF0752
:1008D000FE0000000000000003FC07FE0000000016
:1008E00000000003F003FE00000000000000018093
:1008F00000FE000000000000000000007E0000007C
:10090000000000000000003E0000000000000000A9
:1009100000000C000000000000078000FC00000345
:10092000C0000000078001FC000003C000000007B9
:100930008001FC000003C0000000078001E000000F
:10094000001E000000078001E00000001E007FE3A1
:10095000F79FF9FDE7787BDFC0FFF7FFBFFDFDFFE5
:10096000787BDFC0FFF7FFBFFDFDFF787BDFC0F0C6
:10097000F787BC3DE1FF787BDE00F0F787BC3DE107
:10098000F0787BDE0000F787803DE1E0787BDE00D9
:100990007FF7879FFDE1E0787BDE00FFF787BFFDF3
:1009A000E1E0787BDE00F0F787BC3DE1E0787BDEBC
:1009B00000F0F787BC3DE1E0787BDE00F0F787BC14
:1009C0003DE1E0787BDE00FFF7FFBFFDE1E07FFB6C
:1009D000DFC0FFF7FFBFFDE1E07FFBDFC07CF3F38B
:1009E0009F3DE1E03E7BCFC0000000000000000022
:1009F000000000FFFFFFFFFFFFFFFFFFFFC0FFFF43
:100A0000FFFFFD68DB111A31C0FFFFFFFFFD2B5A0E
:100A1000FB6AEFC0FFFFFFFFFD4B5B3B1A33C0FFDC
:100A2000FFFFFFFD6B5BDB6AFDC053534431333086
:100A30003620616C6C6F636174696F6E20666169EA
:100A40006C65640000000000240027002A000000FC
:100A50000000250028002B000000000023002600D5
:100A60002900040404040404040402020202020231
:100A70000303030303030102040810204080010262
:100A800004081020010204081020000000080002E1
:100A90000100000304070000000000000000220025
:100AA000FF210000D01A592811241FBECFEFD8E033
:100AB000DEBFCDBF13E0A0E0B1E0E4E1F8E502C0A5
:100AC00005900D92A432B107D9F725E0A4E2B3E076
:100AD00001C01D92A939B207E1F715E0C3E5D5E0E1
:100AE00004C02197FE010E94C62AC235D107C9F76A
:100AF0000E94F21B0C94FD2B0C94000096E0899F41
:100B0000D0011124AA5DBA4F90967C936E935F97A3
:100B100091E091969C939197E0919305F0919405C3
:100B200090919205992339F0309751F0811108C0C6
:100B3000809142050994309719F05C968C91FACF18
:100B40000895CF92DF92EF92FF920F931F9396E05A
:100B5000899FF0011124EA5DFA4F11A2278D30A17F
:100B60002130310551F178F02230310509F451C0BE
:100B70002330310509F452C01F910F91FF90EF907F
:100B8000DF90CF9008956623B9F361E070E00E9492
:100B90007E052FB7F89480912D0490912E04A0919A
:100BA0002F04B09130042FBF80937E0590937F0572
:100BB000A0938005B0938105DFCF9FB7F894C090D4
:100BC0002D04D0902E04E0902F04F09030049FBFAD
:100BD00000917E0510917F0520918005309181055F
:100BE000C01AD10AE20AF30A00919005109191050A
:100BF00030E020E00C151D052E053F0550F462E0A5
:100C000070E01F910F91FF90EF90DF90CF900C94C8
:100C10007E056111B1CF63E070E0F3CF70E060E07A
:100C2000F0CF089508950895833081F028F481303D
:100C300099F08230A9F008958730A9F08830C9F082
:100C40008430B1F4809180008F7D03C0809180005A
:100C50008F7780938000089584B58F7784BD089541
:100C600084B58F7DFBCF8091B0008F778093B000EB
:100C700008958091B0008F7DF9CFCF93DF93282F17
:100C800030E0F901E657F54F8491F901EA58F54F44
:100C9000D491F901EE59F54FC491CC23A1F0811103
:100CA0000E941406EC2FF0E0EE0FFF1FE85AF54FFC
:100CB000A591B491EC91ED2381E090E009F480E0FE
:100CC000DF91CF91089580E090E0FACF1F93CF930A
:100CD000DF93282F30E0F901E657F54F8491F901B1
:100CE000EA58F54FD491F901EE59F54FC491CC2350
:100CF000A9F0162F81110E941406EC2FF0E0EE0FE0
:100D0000FF1FE25BF54FA591B4918FB7F894EC917A
:100D1000111108C0D095DE23DC938FBFDF91CF91F6
:100D20001F910895DE2BF8CFCF93DF9390E0FC0165
:100D3000EA58F54F24918E59954FFC0184918823F0
:100D4000C9F090E0880F991FFC01EC5BF54FA5916D
:100D5000B491FC01E25BF54FC591D49161110DC0D6
:100D60009FB7F8948C91209582238C9388812823B7
:100D700028839FBFDF91CF910895623051F49FB7D0
:100D8000F8943C91822F809583238C93E8812E2BBD
:100D9000EFCF8FB7F894EC912E2B2C938FBFEACF27
:100DA0003FB7F8948091B3039091B403A091B50339
:100DB000B091B60326B5A89B05C02F3F19F0019648
:100DC000A11DB11D3FBFBA2FA92F982F8827BC01A5
:100DD000CD01620F711D811D911D42E0660F771FCD
:100DE000881F991F4A95D1F708958F929F92AF92CD
:100DF000BF92CF92DF92EF92FF924B015C010E9473
:100E0000D0066B017C010E94D0066C197D098E0909
:100E10009F09683E734081059105A8F321E0821A7D
:100E20009108A108B10888EEC80E83E0D81EE11C25
:100E3000F11C81149104A104B10429F7FF90EF90F3
:100E4000DF90CF90BF90AF909F908F900895862FA6
:100E5000642F0C949406862F642F0C946606862FBC
:100E60000C943D06DC01ED91FC910190F081E02DA8
:100E70000994AF92BF92CF92DF92EF92FF920F93BD
:100E80001F93CF93DF936C017B018B01040F151F20
:100E9000EB015E01AE18BF08C017D10759F0699188
:100EA000D601ED91FC910190F081E02DC6010995EC
:100EB000892B79F7C501DF91CF911F910F91FF9099
:100EC000EF90DF90CF90BF90AF900895FC01538DCD
:100ED000448D252F30E0842F90E0821B930B541714
:100EE00010F0CF96089501970895FC01918D828DA1
:100EF000981761F0A28DAE0FBF2FB11D5D968C913A
:100F0000928D9F5F9F73928F90E008958FEF9FEF78
:100F10000895FC01918D828D981731F0828DE80F34
:100F2000F11D858D90E008958FEF9FEF0895FC01EE
:100F3000918D228D892F90E0805C9F4F821B9109BB
:100F40008F739927089581E394E00E94970721E029
:100F5000892B09F420E0822F089580E090E0892B0E
:100F600029F00E94A30781110C9400000895FC0150
:100F7000A48DA80FB92FB11DA35ABF4F2C91848DFA
:100F800090E001968F739927848FA689B7892C9357
:100F9000A089B1898C91837080648C93938D848DAA
:100FA000981306C00288F389E02D80818F7D8083AD
:100FB0000895EF92FF920F931F93CF93DF93EC016D
:100FC00081E0888F9B8D8C8D98131AC0E889F989F0
:100FD000808185FF15C09FB7F894EE89FF896083F3
:100FE000E889F98980818370806480839FBF81E074
:100FF00090E0DF91CF911F910F91FF90EF900895B6
:10100000F62E0B8D10E00F5F1F4F0F731127E02E90
:101010008C8D8E110CC00FB607FCFACFE889F989C8
:10102000808185FFF5CFCE010E94B707F1CFEB8D10
:10103000EC0FFD2FF11DE35AFF4FF0829FB7F8949C
:101040000B8FEA89FB8980818062CFCFCF93DF93BA
:10105000EC01888D8823B9F0AA89BB89E889F989D0
:101060008C9185FD03C0808186FD0DC00FB607FC05
:10107000F7CF8C9185FFF2CF808185FFEDCFCE0138
:101080000E94B707E9CFDF91CF910895EF92FF92C9
:101090000F931F93CF93DF93EC01EC80FD806E15CF
:1010A0007F050CF070C057FF04C0240F351F50E0BF
:1010B00040E08E819F81FA01E20FF31F8E179F0798
:1010C0001CF49C01241B350B121613060CF05BC09C
:1010D000922F842F8695869586958E9DD0018F9D23
:1010E000B00D11246A0F7B1FAF8DB8A1A60FB71FDB
:1010F000477049F188E0841B482F682F70E0FB019E
:10110000E059FA4FE491281708F063C0621B710997
:101110002FEF30E002C0359527956A95E2F7E2237C
:101120000130110539F0B0F10230110561F58C91F3
:10113000E82702C08C91E82BEC93941720F12C81C6
:101140003D81A20FB31FE92FE41BE83078F0023095
:10115000110521F58E2F9C9190959C932C813D81BA
:10116000A20FB31F88508830B0F7E770EE2359F014
:10117000F0E0E859FA4FE49101301105F9F010F16F
:101180000230110519F1DF91CF911F910F91FF905E
:10119000EF900895E0958C91E823CECF81E0011582
:1011A000110509F480E081959E2F8C932C813D815F
:1011B000A20FB31F98509830C0F7D7CF8C91E82B6F
:1011C000EC93E1CFE0958C91E823FACF8C91E8275E
:1011D000F7CF0130110509F4ADCFE0F2023011056F
:1011E00009F4A5CFAE0DBF1DAECF0F931F93CF93C4
:1011F000DF9377FF04C0260F371F70E060E0DC014B
:101200001496CD91DC91FB01E20FF31FCE17DF079F
:101210001CF49E01261B370B121613064CF5FA011F
:1012200057FD3796A3E0F595E795AA95E1F7EC9F72
:10123000D001ED9FB00DFC9FB00D11246A0F7B1FF4
:10124000DC015F96ED91FC91E60FF71F4770552783
:1012500081E090E001C0880F4A95EAF7482F0130FD
:10126000110559F0A8F02E0F3F1F02301105E1F0D3
:10127000DF91CF911F910F9108952E0F3F1FE2171D
:10128000F307B1F38191DF011197842B8C93F7CF92
:1012900080952E0F3F1FE217F30751F39191DF0165
:1012A000119798239C93F7CFE217F30709F38191E5
:1012B000DF01119784278C93F7CF0F931F93FA01C7
:1012C000DC0156964C9156974230E9F04330A1F13B
:1012D000413061F514964D915C91DA01AE1BBF0B64
:1012E000FD01E21BF30B77FD0BC0DC0116964D915F
:1012F0005C916417750724F4AB01BF010E94F508E7
:101300001F910F91089514964D915C91DA01A61BDF
:10131000B70BBD0161507109DC0116964D915C91CE
:10132000DA01AE1BBF0BFD01E21BF30B77FDE8CF2B
:10133000AF010E944608E4CF16964D915C91DA0108
:10134000A61BB70BBD0161507109CDCF0F931F9341
:10135000FA01DC0156964C9156974230A9F0433081
:1013600091F1413019F514964D915C91DA01AE1B63
:10137000BF0BFD013197F7FD04C0AB01BF010E9417
:1013800046081F910F91089514964D915C91DA01D2
:10139000A61BB70BBD01DC0116964D915C91DA01DD
:1013A000AE1BBF0BFD013197621B730BF7FDE9CF3D
:1013B000DC0116964D915C91E417F50714F7AF0127
:1013C0000E94F508DECF16964D915C91DA01A61BBE
:1013D000B70BBD01621B730BCECFFC0177FD64C060
:1013E00080859185681779070CF05EC057FD5CC059
:1013F00082859385481759070CF056C0868982303C
:10140000B1F0833029F1813041F484819581841BCE
:10141000950BAB01BC01615071092130310509F117
:1014200008F443C02230310509F463C00895848173
:101430009581DC01A61BB70BBD0161507109868146
:101440009781DC01A41BB50BAD0141505109E5CFDB
:1014500086819781861B970BBA01AC0141505109D7
:10146000DCCFCA0157FD0796A3E095958795AA950D
:10147000E1F7A481B5818A9F90018B9F300D9A9FDF
:10148000300D1124620F731F078CF0A1E02DE60FC1
:10149000F71F4770552721E030E001C0220F4A9521
:1014A000EAF78081822B80830895CA0157FD079651
:1014B00033E0959587953A95E1F7A481B5818A9FA8
:1014C00090018B9F300D9A9F300D1124620F731F76
:1014D000078CF0A1E02DE60FF71F4770552781E03C
:1014E00090E001C0880F4A95EAF7809590818923A2
:1014F000DACFCA0157FD079623E0959587952A957F
:10150000E1F7A481B5818A9F90018B9F300D9A9F4E
:10151000300D1124620F731F078CF0A1E02DE60F30
:10152000F71F4770552721E030E001C0220F4A9590
:10153000EAF780818227B7CF8EBD00000DB407FE89
:10154000FDCF8EB508950895FC016370668B84818C
:10155000958126813781613039F0633029F0918798
:1015600080873387228708953187208793878287F2
:1015700008952F923F924F925F926F927F928F9237
:101580009F92AF92BF92CF92DF92EF92FF920F9312
:101590001F93CF93DF93CDB7DEB76A970FB6F8945A
:1015A000DEBF0FBECDBF9A8F898F7A8369834A01D0
:1015B000D22E18870F833701BC2CDC0159962D9150
:1015C0003C915A972115310509F015C118968D9156
:1015D0009C911997681779070CF0D7C11A968D91CD
:1015E0009C91481759070CF0D0C14C2C512CB6E0F7
:1015F000CB9E600D711D11247C876B871616170614
:101600000CF0C3C1EA2DF0E0FA87E98793E0EE0F12
:10161000FF1F9A95E1F7F88BEF87CF01840F951F95
:10162000181619060CF0B1C1A98DBA8D58968C9177
:10163000811104C0BFEABD1508F4D394A98DBA8DF9
:10164000ED91FC9111970284F385E02DCD01099570
:10165000B5E0DB9EC0011124E981FA81FC83EB83B4
:10166000312C212C9C0128593F4F388F2F8B4A2D2C
:1016700050E05E8B4D8BEF89F88DE20DF31D4491A8
:101680009E828D82D12CC12C69817A81620D731D5D
:101690007A8B698B842F90E09C8B8B8BE98DFA8DF4
:1016A000A081B18140FF82C0F1E0BF126FC0AF12D4
:1016B0006DC01C96ED91FC912F813885A4014C0DD5
:1016C0005D1D69897A89898D9A8D0995EB89FC89D7
:1016D000F595E7954E2F5FEFC51AD50A6D817E818E
:1016E0008D899E89680F791F7E836D8398E0C91666
:1016F000D10481F6AFEF2A1A3A0AEB81FC81E40D9E
:10170000F51DFC83EB83F5E02F16310409F0B3CF10
:101710002F81388526153705B9F0A98DBA8DED9141
:10172000FC91B1E0BB1257C0AB1255C069817A8100
:101730006B5F7F4F0088F189E02D830128E030E066
:10174000A401898D9A8D0995A98DBA8DED91FC9191
:1017500011970688F789E02DCD016A960FB6F894A7
:10176000DEBF0FBECDBFDF91CF911F910F91FF90D4
:10177000EF90DF90CF90BF90AF909F908F907F9031
:101780006F905F904F903F902F9009941E96ED912F
:10179000FC91EF80F88409851A8592014D815E8164
:1017A0006B817C81898D9A8D099590CF2F813885A9
:1017B0002615370509F48ACF31E0B31207C0A3120A
:1017C00005C01C96ED91FC91930178CF1E96ED918A
:1017D000FC917301E0CF6B857C85641975090684E3
:1017E000F785E02D73010F8518899201A401898D79
:1017F0009A8D0995A9CFF901349694913297459124
:101800005491D91AB7E0DB9E400D511D1124F90106
:10181000259134913C8B2B8BFA0125903490FA0161
:101820003296749031963491398B32966490319619
:10183000449041E04C1518F04A1508F07FC0662D21
:10184000062C000C770B7C836B83842D042C000CFE
:10185000990B9E838D83A98DBA8DED91FC91119783
:101860000284F385E02DCD010995512CD12CC12C9A
:10187000EA2DF0E0FA87E9872B2D30E03C872B87B3
:10188000A401440D511D47FC5A95588F4F8B698117
:101890007A81660D711D67FC7A957E876D877989DF
:1018A000C71608F051CF2C2D30E04D815E81420FDC
:1018B000531FA985BA854A9FC0014B9F900D5A9F1F
:1018C000900D1124FC01E80DF91DF88BEF87852D93
:1018D000612C4F89588D420F531F5E8B4D8B6714BF
:1018E00008F050C044244394480E877041F4C1016D
:1018F0000196EB89FC89E20DF31DD4901C01D7FE03
:1019000019C0A98DBA8DED91FC91662D70E0B1E002
:10191000BB1219C0AB1217C02D853E85620F731F15
:101920000484F585E02D2F8138854D895E89898D68
:101930009A8D0995DD0C6394842DD1CF1E821D8272
:101940001C821B8288CF4B815C81640F751FAB8525
:10195000BC856A9FC0016B9F900D7A9F900D1124EA
:1019600069817A81680F791F0684F785E02DEF8001
:10197000F88409851A859D014F855889898D9A8D2E
:101980000995D8CF570CC3948ACF6A960FB6F894AE
:10199000DEBF0FBECDBFDF91CF911F910F91FF90A2
:1019A000EF90DF90CF90BF90AF909F908F907F90FF
:1019B0006F905F904F903F902F9008958F929F92DD
:1019C000AF92CF92EF92FF920F931F93CF93DF933B
:1019D000EC01262F898D9A8D009709F051C06A304D
:1019E000D1F41D861C868D8948E0849F90011124C6
:1019F0008E859F85820F931F9F878E8781E090E061
:101A0000DF91CF911F910F91FF90EF90CF90AF900A
:101A10009F908F9008956D3089F3CC88AD888F8921
:101A20008823C1F08C859D8536E0C39E800D911D75
:101A30001124488559854817590764F44E855F85F8
:101A40001D861C8638E0A39EC0011124840F951FBB
:101A50009F878E87EA88FB88088919894E855F856C
:101A60006C857D85CE010E94B90A2C898C859D8567
:101A700046E0249F800D911D11249D878C87BECF49
:101A80006A3069F41D861C86FC013896E4912D8924
:101A90008E859F85E29F800D911D1124ADCF6D3005
:101AA00009F4ACCFFC0134963491631708F4A6CF47
:101AB0003296E491E61708F4A1CFFC0132968590A6
:101AC0009490462F431B342F47E0349F800C911C89
:101AD0001124F401329634913196E4913323A9F123
:101AE000EE2399F1CC88F4013596E491AD884F89C5
:101AF000442301F10E2E000CFF0BE30FF11DCE9ECF
:101B0000A001CF9E500D11246C857D85460F571F77
:101B100068857985641775076CF44E855F851D8629
:101B20001C86FC013896E491AE9E400D511D112497
:101B30005F874E87EA88FB88088919894E855F850B
:101B40006C857D85CE010E94B90AF4013496E4913A
:101B50002C898C859D85E29F800D911D11248DCF50
:101B60006F927F928F929F92AF92BF92CF92DF92AD
:101B7000EF92FF920F931F93CF93DF93EC016B01D2
:101B80005A0139014801E881F9810284F385E02D89
:101B90000995E881F9810288F389E02D8701930195
:101BA000A501B601CE010995A501480D591D415069
:101BB0005109E881F9810288F389E02D9301B6018A
:101BC000CE010995E881F9810088F189E02D940121
:101BD000A501B601CE010995C60CD71CB60161500E
:101BE0007109E881F9810088F189E02D9401A5014E
:101BF000CE010995E881F9810688F789E02DCE01AB
:101C0000DF91CF911F910F91FF90EF90DF90CF90D8
:101C1000BF90AF909F908F907F906F9009946F923C
:101C20007F928F929F92AF92BF92CF92DF92EF926C
:101C3000FF920F931F93CF93DF935C01EB016A0137
:101C4000490138018701DC01ED91FC9162177307AE
:101C500019F5641675062CF0962D872D3A01C92EBC
:101C6000D82E9601261937092F5F3F4F048CF58D2A
:101C7000E02DA301BE01C5010995DF91CF911F9110
:101C80000F91FF90EF90DF90CF90BF90AF909F901B
:101C90008F907F906F9008954615570591F4261701
:101CA000370724F0892D4B01C22FD82F9E01281908
:101CB00039092F5F3F4F068CF78DE02DA601B40147
:101CC000DACF0284F385E02D0995D501ED91FC91E1
:101CD0000488F589E02D83019401A601BE01C501A8
:101CE0000995D501ED91FC910688F789E02DC50194
:101CF000DF91CF911F910F91FF90EF90DF90CF90E8
:101D0000BF90AF909F908F907F906F900994EF92CB
:101D1000FF920F931F93DC011A960D911C911B9754
:101D200018962D913C911997ED91FC9100A0F1A18D
:101D3000E02D7B0150E040E070E060E009951F91EC
:101D40000F91FF90EF9008954F925F926F927F9264
:101D50008F929F92AF92BF92CF92DF92EF92FF92BB
:101D60000F931F93CF93DF936C012B015A0139011D
:101D70004801DC01ED91FC910284F385E02D099589
:101D8000E201640C751CD601ED91FC91C615D705D6
:101D90005CF40088F189E02D87019401A501BE0162
:101DA000C60109952196EFCF0688F789E02DC60177
:101DB000DF91CF911F910F91FF90EF90DF90CF9027
:101DC000BF90AF909F908F907F906F905F904F905B
:101DD00009948F929F92AF92BF92CF92DF92EF922F
:101DE000FF920F931F93CF93DF93EC015B014A01A6
:101DF0006901E881F9810284F385E02D0995950157
:101E00002C0D3D1D21503109E881F9810488F589A7
:101E1000E02D78018401A401B501CE010995E88186
:101E2000F9810688F789E02DCE01DF91CF911F91CE
:101E30000F91FF90EF90DF90CF90BF90AF909F9069
:101E40008F9009948F929F92AF92BF92CF92DF9220
:101E5000EF92FF920F931F93CF93DF93EC015B01FF
:101E60004A0169017801E881F9810284F385E02D56
:101E70000995C80CD91C860101501109E881F98126
:101E80000488F589E02D9501A401B501CE010995DD
:101E9000E881F9810688F789E02DCE01DF91CF91A5
:101EA0001F910F91FF90EF90DF90CF90BF90AF9078
:101EB0009F908F900994EF92FF920F931F93DC01F4
:101EC000ED91FC9100A0F1A1E02D09951F910F91DA
:101ED000FF90EF9008950F931F93DC01ED91FC911B
:101EE000068CF78DE02D09951F910F9108950F93A2
:101EF0001F93DC01ED91FC91048CF58DE02D09958B
:101F00001F910F910895DC01ED91FC910084F18502
:101F1000E02D09943F924F925F926F927F928F9241
:101F20009F92AF92BF92CF92DF92EF92FF920F9368
:101F30001F93CF93DF935C017B014A016901390153
:101F400087E0680E711C93E0759467949A95E1F7A9
:101F50002B01400E511E10E000E0312CD0E0C0E01B
:101F6000CE0187709927330C892B59F4FE0183E049
:101F7000F595E7958A95E1F7E00FF11FE80DF91D5A
:101F8000349037FE0AC021E030E0A701B5016C0FA4
:101F90007D1F86EE94E00E94830F2196CC16DD060D
:101FA000F9F68FEFE81AF80A060D171DE414F50488
:101FB000A9F6DF91CF911F910F91FF90EF90DF90E5
:101FC000CF90BF90AF909F908F907F906F905F90D9
:101FD0004F903F9008952F923F924F925F926F9251
:101FE0007F928F929F92AF92BF92CF92DF92EF92A9
:101FF000FF920F931F93CF93DF9300D000D000D0B8
:10200000CDB7DEB73C016A013E832D83FC82EB82B3
:102010005801A41AB50AB7FE03C0B194A194B1083F
:102020008D809E80861A970A97FE03C091948194B2
:1020300091088A149B045CF0902F812F0D811E81E2
:102040009D838E839C2D8D2D6B01692F782F0C1510
:102050001D055CF09D818E817E836D83692F782FB5
:10206000902F812F8601C92ED82E1601201A310AF1
:102070002B012D813E81421A530A57FE03C0519411
:1020800041945108710137FE03C03FEFE31AF30A90
:10209000F594E7948D819E81861797075CF5A1E002
:1020A000B0E0BA83A983C016D1064CF1D301ED91FB
:1020B000FC910484F585E02D2B813C81A8016D8184
:1020C0007E818A149B041CF04D815E81B801C3019E
:1020D0000995E418F508F7FE0AC02D813E81898133
:1020E0009A81280F391F3E832D83E20CF31C0F5F6A
:1020F0001F4FD9CF2FEF3FEF3A832983D4CF2696B6
:102100000FB6F894DEBF0FBECDBFDF91CF911F9108
:102110000F91FF90EF90DF90CF90BF90AF909F9086
:102120008F907F906F905F904F903F902F90089589
:10213000089508958CBD9DBD089520914503260FF7
:102140003327331F21323105ECF420910304FC01C5
:1021500090E080E0243069F082E00895A09145038A
:102160002191AC014B5D5C4FA40FB52FB11D2C9399
:102170000196861798F380914503680F6093450395
:1021800080E0089581E008951092030481E0809337
:1021900002041092DD0361E082E10E94660661E0C4
:1021A00083E10E946606E9EBF0E080818E7F808308
:1021B00080818D7F808388E48093B80085E480935C
:1021C000BC0008951092DC031092DB0310920A0405
:1021D00010922C040E94C41081E196E09093DA03DF
:1021E0008093D90382E196E09093D8038093D7033C
:1021F0000895CF93DF9391E0909324038823B9F05F
:10220000C091B800D091BA008091BC008A7B8093C5
:10221000BC0060E082E10E94660660E083E10E940B
:1022200066060E94C410D093BA00C093B800DF9134
:10223000CF9108958F929F92AF92BF92CF92DF92EB
:10224000EF92FF920F931F93CF93DF93D0912C04C3
:10225000D13208F0D7C0182FC0912B040E94D006AD
:102260006B017C018091030481116BC082E080933B
:102270000304109302048FEF809301041092000472
:10228000D093FF03ABE0B4E0EFEDF3E080E0D813D0
:1022900091C01092DE038091DE03CC0FC82BC09357
:1022A000DE038091DD03813009F088C01092DD03E8
:1022B0000E94D0066B017C018091DE038093BB00FD
:1022C0008091050490910604A0910704B091080440
:1022D000892B8A2B8B2BA1F00E94D006009105043C
:1022E0001091060420910704309108046C197D09AF
:1022F0008E099F09061717072807390708F442C0F7
:102300008091BC0083FDD8CF85EC8093BC000E94F7
:10231000D0066B017C0180910304823009F450C027
:10232000809101048F3F09F46FC0809101048032D5
:1023300009F46CC080910104803309F469C084E021
:1023400026C08091050490910604A0910704B091E5
:102350000804892B8A2B8B2B09F484CF0E94D0068A
:102360008090050490900604A0900704B0900804A3
:102370006C197D098E099F0986169706A806B9066D
:1023800008F070CF809104040E94F91085E010924B
:102390000A0410922C0410920904DF91CF911F912E
:1023A0000F91FF90EF90DF90CF90BF90AF909F90F4
:1023B0008F9008959D9191938F5F69CF85EEA5CF02
:1023C0008091050490910604A0910704B09108043F
:1023D000892B8A2B8B2B09F49ECF0E94D00600916B
:1023E00005041091060420910704309108046C192B
:1023F0007D098E099F09061717072807390708F076
:102400008ACFC0CF81E0C3CF80E0C1CF82E0BFCF11
:1024100083E0BDCFCF93DF93EA01DC0111968D916C
:102420009C91DC01ED91FC910280F381E02D0995F6
:10243000C817D90729F481E00E941A1191E081118F
:1024400090E0892FDF91CF910895E091DC03809196
:10245000DB03E81730F4F0E0E954FC4F808190E0B2
:1024600008958FEF9FEF08959091DC038091DB0337
:102470002FEF3FEF981748F4E92FF0E0E954FC4FB5
:10248000208130E09F5F9093DC03C9010895809123
:10249000DB039091DC03891B990B0895CF92DF92A7
:1024A000EF92FF920F931F93CF93DF937C01CB01A9
:1024B0008A0120910904222389F0EB016B01C40EEB
:1024C000D51ECC15DD0569F06991D701ED91FC9120
:1024D0000190F081E02DC7010995F3CF642F0E9490
:1024E0009D10C801DF91CF911F910F91FF90EF9048
:1024F000DF90CF900895CF93DF931F92CDB7DEB7D3
:102500006983209109042223F9F020912C042032C0
:1025100058F021E030E0FC013383228390E080E03A
:102520000F90DF91CF91089580910A04E82FF0E099
:10253000E55FFB4F998190838F5F80930A048093BE
:102540002C0481E090E0ECCF61E0CE0101960E9486
:102550009D10F7CF81E00C941A11EF92FF920F9328
:102560001F93CF93DF937C01C62F80910305909139
:102570000405009709F459C02091070531E0309314
:10258000090420932B0410920A0410922C04DC01FD
:10259000ED91FC910190F081E02D60E009958701BB
:1025A000EE24E394F12CD1E0C15080910305909189
:1025B0000405CF3F91F1B0E2EB16F104D8F00E9490
:1025C000AA12809103059091040520910705D093EC
:1025D000090420932B0410920A0410922C04DC01AD
:1025E000ED91FC910190F081E02D60E00995EE24E1
:1025F000E394F12C8091030590910405F801649116
:10260000DC01ED91FC910190F081E02D0995BFEF87
:10261000EB1AFB0A0F5F1F4FC7CFDF91CF911F91BE
:102620000F91FF90EF900C94AA12E0911305F09196
:1026300014059081809119058095892380838701F5
:10264000C15008F438C0F8018491209101053091FF
:102650000205232B29F00E949C0A0F5F1F4FF0CF29
:1026600028E030E040E8E0910F05F09110059091EE
:102670001705582F5423D9F05081952B9083E09162
:102680001105F0911205908150911805952B9083BA
:10269000E0911105F09112055081909118059095E7
:1026A00095239083469521503109E9F6D6CF508184
:1026B00090959523E3CFDF91CF911F910F91FF90DC
:1026C000EF9008951F93CF93DF93EC018D8D9E8D36
:1026D000009721F1162F29A131E0309309042093AE
:1026E0002B0410920A0410922C04DC01ED91FC9151
:1026F0000190F081E02D60E009958D8D9E8DDC01CB
:10270000ED91FC910190F081E02D612F09958D8D67
:102710009E8DDF91CF911F910C94AA12ADA5BEA5FD
:102720009C918BA9809589238C938B8D9C8D892B73
:1027300031F0862FDF91CF911F910C949C0A28E0F5
:1027400030E080E8A9A5BAA599A9462F4823C1F091
:102750004C91942B9C93ABA5BCA59C914AA9942B1E
:102760009C93ABA5BCA54C919AA9909594239C935E
:1027700086952150310931F7DF91CF911F9108954E
:102780004C9190959423E6CFDF92EF92FF920F93B6
:102790001F93CF93DF938091030590910405892BBC
:1027A00009F498C020911B0530911C0540911D052E
:1027B00050911E0560E074E284EF90E00E94A42A2C
:1027C000205131094109510956954795379527956B
:1027D0002093B80065E08EE99AE00E94AD12609106
:1027E000EA04615086EE94E00E9462132091EC04AA
:1027F0003091ED04C901079697FD079633E0959552
:1028000087953A95E1F72091EA043091EB04829F95
:102810008001839F100D929F100D1124C09105051A
:10282000D091060580910305909104050C0F1D1FA2
:10283000009709F48FC02091070531E03093090417
:1028400020932B0410920A0410922C04DC01ED91C9
:10285000FC910190F081E02D60E40995EE24E39471
:10286000F12CDD24D39480910305909104050C177D
:102870001D0709F446C0B0E2EB16F104D8F00E943F
:10288000AA12809103059091040520910705D0922A
:10289000090420932B0410920A0410922C04DC01EA
:1028A000ED91FC910190F081E02D60E40995EE241A
:1028B000E394F12C80910305909104056991DC016A
:1028C000ED91FC910190F081E02D0995BFEFEB1A9D
:1028D000FB0AC9CF8091010590910205892B31F047
:1028E00080912405909125050E949A10E09115058C
:1028F000F0911605908180911A0580958923808337
:1029000069CF0E94AA128091030590910405892B3A
:1029100009F461C020911F053091200540912105E7
:102920005091220560E074E284EF90E00E94A42AB6
:1029300020513109410951095695479537952795F9
:102940002093B800DF91CF911F910F91FF90EF90EE
:10295000DF900895E0911305F09114058081909126
:102960001905892B80830C171D0769F28991209125
:10297000010530910205232B19F00E949C0AF3CF28
:1029800028E030E040E8E0910F05F09110059091CB
:102990001705582F5423D9F05081952B9083E0913F
:1029A0001105F0911205908150911805952B908397
:1029B000E0911105F09112055081909118059095C4
:1029C00095239083469521503109E9F6CCCF50816B
:1029D00090959523E3CFE0911505F0911605808140
:1029E00090911A05892B8083ADCF1F93CF93DF93EE
:1029F000EC01162F8D8D9E8D892BB1F12DA93EA94D
:102A00004FA958AD60E074E284EF90E00E94A42AE0
:102A10002051310941095109569547953795279518
:102A20002093B80066EA111167EACE010E94621392
:102A30008D8D9E8D892B41F129AD3AAD4BAD5CADAD
:102A400060E074E284EF90E00E94A42A20513109F2
:102A50004109510956954795379527952093B80018
:102A6000DF91CF911F9108958B8D9C8D892B21F043
:102A70008EAD9FAD0E949A10EFA5F8A990818CA908
:102A8000809589238083CECFEFA5F8A980819CA96A
:102A9000892B8083E5CFCF93DF93EC018B81882353
:102AA000A9F089819A81288131E03093090420932B
:102AB0002B0410920A0410922C040E94AA1291E096
:102AC000811190E0892FDF91CF9108950E94E2104B
:102AD00081E08B83CE010E944B15982F8111E1CFAD
:102AE000F1CF90E080E008958093D7047093D804EC
:102AF0006093D9048091D0049091D104FC01248189
:102B000035812330310580F0208131E03093090494
:102B100020932B0410920A0410922C0443E050E0FE
:102B200067ED74E00C940A1208952F923F924F9231
:102B30005F926F927F928F929F92AF92BF92CF924D
:102B4000DF92EF92FF920F931F93CF93DF938093C7
:102B5000D7048091D0049091D104DC0114962D917A
:102B60003C911597232B81F02C9131E0309309048F
:102B700020932B0410920A0410922C0441E050E0A0
:102B800067ED74E00E940A12C090D004D090D10486
:102B900010E000E082E0A82EB12CD1E033243A947A
:102BA00095EE892E25EC922EF60184819581750192
:102BB000E01AF10A8E159F0508F47C01D6012C90CD
:102BC0000E94D0062B013C018091030481116FC04B
:102BD000CE2DC13208F0C0E2D093030421E0C5013C
:102BE0008E199F090817190708F420E020930204A2
:102BF00030920104109200048FEF8C0F8093FF033A
:102C0000D093DE038091DE03220C282A2092DE037B
:102C10008091DD03813009F095C01092DD030E94A0
:102C2000D0062B013C018091DE038093BB00809194
:102C3000050490910604A0910704B0910804892B23
:102C40008A2B8B2BA1F00E94D00620910504309195
:102C50000604409107045091080464197509860917
:102C60009709261737074807590708F441C080918C
:102C7000BC0083FDD8CF9092BC000E94D0062B01EF
:102C80003C0180910304813009F45FC0809100040D
:102C90008C1710F4C0910004AFEDB3E0E7EBF3E064
:102CA00080E08C1751F19D9191938F5FFACF8091C5
:102CB000050490910604A0910704B0910804892BA3
:102CC0008A2B8B2B09F480CF0E94D006209105041B
:102CD0003091060440910704509108046419750965
:102CE00086099709261737074807590708F06CCF58
:102CF000809104040E94F910C0E01092DC03C0939C
:102D0000DB03CE151F0409F048C0F801E053FB4F68
:102D10003F01C301801B910B805D94408E159F0580
:102D2000B0F5D60111968D919C91DC01ED91FC914D
:102D30000284F385E02D0995F3018783FFEF6F1A75
:102D40007F0AE7CF8092BC0098CF809105049091D4
:102D50000604A0910704B0910804892B8A2B8B2BC1
:102D600009F48FCF0E94D00620910504309106040B
:102D70004091070450910804641975098609970960
:102D8000261737074807590708F07BCFB1CF0E0D3C
:102D90001F1D0230110508F407CF8091D7049091D0
:102DA000D804982789279827DF91CF911F910F91F9
:102DB000FF90EF90DF90CF90BF90AF909F908F905B
:102DC0007F906F905F904F903F902F90089560910B
:102DD000D3047091D4042091D5043091D604622B91
:102DE000732B7168E82FF0E0EE0FFF1FEE5CFE4FD3
:102DF00080819181682B792B81E00E94741560E0BD
:102E000070E883E00E94741570E060E082E00E9448
:102E1000741581E00E94951597FFFBCF80E00E941A
:102E200095152091D204022E02C0969587950A949A
:102E3000E2F7222329F0811528E0920708F0906F2D
:102E400008952091EC043091ED04C901079697FD97
:102E5000079623E0959587952A95E1F72091EA0456
:102E60003091EB04829FA001839F500D929F500DE3
:102E7000112470E060E080910505909106050C94A6
:102E8000F62B0E94F12BFB0101900020E9F731970E
:102E9000AF01461B570BDC01ED91FC910280F381E1
:102EA000E02D09948F929F92AF92BF92EF92FF9282
:102EB0000F931F93CF93DF93CDB7DEB7A1970FB6D4
:102EC000F894DEBF0FBECDBF7C01FA01CB0119A281
:102ED000223008F42AE08E010F5D1F4F822E912CC4
:102EE000B12CA12CBF01A50194010E94A42AF901D3
:102EF000CA016A300CF5605DD8016E938D01232BF9
:102F0000242B252B79F790E080E0109721F0BD016C
:102F1000C7010E944317A1960FB6F894DEBF0FBEFB
:102F2000CDBFDF91CF911F910F91FF90EF90BF9098
:102F3000AF909F908F900895695CDECFCF92DF9223
:102F4000EF92FF920F931F93CF93DF936B01770F55
:102F5000EE08FF08F7FE1BC0EC016DE20E9432078D
:102F60008C0144275527BA014C195D096E097F0968
:102F70002AE0CE010E945217800F911FDF91CF915E
:102F80001F910F91FF90EF90DF90CF9008952AE06E
:102F9000B701A601DF91CF911F910F91FF90EF90A4
:102FA000DF90CF900C9452172F923F924F925F92E6
:102FB0006F927F928F929F92AF92BF92CF92DF9249
:102FC000EF92FF921F93CF93DF93EC016A017B0195
:102FD000722EAB019601CB01B6010E949F2A64E9D3
:102FE00071E0811126C046015701E894B7F82FEF30
:102FF0003FEF4FE75FE7C501B4010E949F2A8111AF
:103000000CC02FEF3FEF4FE75FE7C501B4010E940F
:10301000D52868E971E0181664F02FEF3FEF4FE70D
:103020005FE4C701B6010E942D2A1816B4F46CE9BA
:1030300071E0CE01DF91CF911F91FF90EF90DF9073
:10304000CF90BF90AF909F908F907F906F905F9048
:103050004F903F902F900C9443172FEF3FEF4FE787
:103060005FECC701B6010E94D52887FDE0CF20E0C4
:1030700030E0A901C701B6010E94D528312C212CCE
:1030800087FF09C06DE2CE010E9432071C01F7FAEA
:10309000F094F7F8F09410E060E070E080E09FE3D7
:1030A000711641F020E030E040E251E40E94DA285D
:1030B0001F5FF6CFA70196010E9469282B013C01F2
:1030C0000E944C294B015C012AE0BC01A401CE0105
:1030D0000E9452177C01E20CF31C1123C1F1C501BF
:1030E000B4010E947B299B01AC01C301B2010E9483
:1030F00068284B015C016EE2CE010E943207E80EA7
:10310000F91E115020F120E030E040E251E4C50109
:10311000B4010E94322A2B013C010E944C294B0130
:10312000B12CA12C2AE0B501A401CE010E945217B6
:10313000E80EF91EC501B4010E947B299B01AC0178
:10314000C301B2010E9468284B015C01DACFC701BC
:10315000DF91CF911F91FF90EF90DF90CF90BF90C4
:10316000AF909F908F907F906F905F904F903F9027
:103170002F900895242FAB01BC0186EE94E00C94AF
:10318000D4170F931F93CF93DF93EC010E94431743
:103190008C0160EA71E0CE010E944317800F911FFD
:1031A000DF91CF911F910F9108950C94431785EDF6
:1031B0008093BC008091050490910604A0910704BF
:1031C000B09108040796A11DB11D23E0B695A795FF
:1031D000979587952A95D1F72091BC0024FD03C0CF
:1031E00010920304089540910504509106046091E3
:1031F000070470910804452B462B472B69F3009771
:10320000A105B10541F02AE22A95F1F700C0019726
:10321000A109B109E1CF809104040C94F9101F9227
:103220000F920FB60F9211242F933F938F939F937A
:10323000AF93BF9380912D0490912E04A0912F0401
:10324000B09130043091B20323E0230F2D3758F5AD
:103250000196A11DB11D2093B20380932D0490937C
:103260002E04A0932F04B09330048091B303909167
:10327000B403A091B503B091B6030196A11DB11D91
:103280008093B3039093B403A093B503B093B603B4
:10329000BF91AF919F918F913F912F910F900FBE52
:1032A0000F901F90189526E8230F0296A11DB11DBF
:1032B000D2CF1F920F920FB60F9211242F933F93EC
:1032C0004F935F936F937F938F939F93AF93BF932E
:1032D000EF93FF9381E394E00E94B707FF91EF9192
:1032E000BF91AF919F918F917F916F915F914F911E
:1032F0003F912F910F900FBE0F901F9018951F9226
:103300000F920FB60F9211242F938F939F93EF93E9
:10331000FF93E0914104F09142048081E0914704E1
:10332000F091480482FD1BC0908180914A048F5F18
:103330008F7320914B04821741F0E0914A04F0E032
:10334000EF5CFB4F958F80934A04FF91EF919F9123
:103350008F912F910F900FBE0F901F901895808125
:10336000F4CF1F920F920FB60F9211242F933F9319
:103370004F935F936F937F938F939F93AF93BF937D
:10338000EF93FF938091B900887F803609F44AC09B
:10339000F0F5883209F4A7C018F5803109F49BC014
:1033A000B8F4882309F4F9C0883009F494C0FF9177
:1033B000EF91BF91AF919F918F917F916F915F91AD
:1033C0004F913F912F910F900FBE0F901F90189526
:1033D000883109F488C0803251F78093010414C009
:1033E000803409F49DC040F48033B9F38833F9F692
:1033F0008093010485ECB0C0803509F485C0883520
:1034000009F496C0883499F60E94D718D0CF88392D
:1034100009F48CC038F5883729F050F4883611F05B
:10342000803729F683E0809303041092670357C026
:10343000883809F47BC0803919F0803809F0B7CF9B
:1034400080916703803208F071C0E091670381E0EA
:103450008E0F809367038091BB00F0E0E95BFC4F27
:1034600080833DC0803B39F0E0F4803A09F479C0B4
:10347000883A09F09CCF84E08093030410924603BD
:1034800010924503E091D903F091DA0309958091F8
:10349000450381110FC081E08093450310922503FD
:1034A00009C0803C09F4A6CF883C09F4A3CF883B2F
:1034B00009F07DCFE091460381E08E0F80934603B3
:1034C000F0E0EB5DFC4F80818093BB009091460360
:1034D0008091450329C08091DE038093BB0085EC79
:1034E0008093BC0064CF909100048091FF039817F3
:1034F00058F5E091000481E08E0F80930004F0E025
:10350000E152FC4F8081E9CFE091000481E08E0F11
:10351000809300048091BB00F0E0E152FC4F808377
:10352000909100048091FF039817C8F285E8D8CFE6
:10353000E091000481E08E0F809300048091BB0035
:10354000F0E0E152FC4F80838091020481115CCF56
:1035500081E08093DD0384EA8093BC001092030431
:1035600026CF85EC8093BC00109203048091670302
:10357000803230F4E0916703F0E0E95BFC4F1082A9
:103580006091670370E0E091D703F091D80387E47E
:1035900093E00995109267030ACF1092010434CF8B
:1035A000109234041092330488EE93E0A0E0B0E06F
:1035B0008093350490933604A0933704B093380475
:1035C0002EE331E0309332042093310425EC30E0D7
:1035D00030933E0420933D0424EC30E030934004CB
:1035E00020933F0420EC30E03093420420934104C8
:1035F00021EC30E0309344042093430422EC30E08B
:10360000309346042093450426EC30E03093480480
:103610002093470410924A0410924B0410924C04D9
:1036200010924D041092DD041092DC048093DE04AD
:103630009093DF04A093E004B093E10480E591E06F
:103640009093DB048093DA041092280510922C05E5
:1036500010922B0510922D058EE891E0909327058E
:1036600080932605E2E4F5E010821482138215822D
:10367000369685E0EE37F807B9F788E191E0909348
:1036800089058093880584E191E090938B05809370
:103690008A0584E080938C0580938D058CE191E010
:1036A00090938705809386058AE090E090938F053C
:1036B00080938E0584EF91E090939105809390051F
:1036C0001092940510929305109282051092830532
:1036D0001092840510928505109292051092E904CB
:1036E0001092E80420E830E03093EB042093EA04E1
:1036F00080E290E09093ED048093EC043093EF042B
:103700002093EE049093F1048093F0041092FC0453
:103710001092F3041092F2041092F5041092F40443
:1037200081E08093FB048093FA044FEF5FEF5093A6
:10373000F9044093F8045093F7044093F6048093FF
:10374000FD041092FE04109200051092FF0482E620
:1037500091E09093E7048093E604109202051092A2
:1037600001058AED94E0909304058093030510927F
:103770000605109205058FEF80930A0580930B05CF
:1037800080930C0580930D0580930E0580E89AE1E7
:10379000A6E0B0E080931B0590931C05A0931D0547
:1037A000B0931E0580EA96E8A1E0B0E080931F0583
:1037B00090932005A0932105B093220580E5809386
:1037C0002405109225051092D2041092D404109270
:1037D000D3043093D6042093D5041092CF041092D2
:1037E000CE040895789484B5826084BD84B58160E8
:1037F00084BD85B5826085BD85B5816085BD8091BC
:103800006E00816080936E00109281008091810033
:10381000826080938100809181008160809381002B
:10382000809180008160809380008091B1008460ED
:103830008093B1008091B00081608093B00080914E
:103840007A00846080937A0080917A00826080930D
:103850007A0080917A00816080937A0080917A006A
:10386000806880937A001092C100E0914104F09149
:10387000420482E08083E0913D04F0913E04108296
:10388000E0913F04F09140048FEC80831092490452
:10389000E0914504F091460486E08083E091430482
:1038A000F0914404808180618083E0914304F09131
:1038B0004404808188608083E0914304F091440453
:1038C000808180688083E0914304F091440480818A
:1038D0008F7D80830E94E21060E08CE00E9494065D
:1038E00060E08DE00E94940662E08EE00E94940603
:1038F0008CE00E943D069093A00380939F0360E0BC
:103900008FE00E94940660E080E10E94940662E0ED
:1039100081E10E9494068FE00E943D069093A503EA
:103920008093A4030E94E210809105059091060502
:10393000892B11F10E9421172091EC043091ED04A4
:103940008091EA049091EB04213231050CF04AC0D9
:10395000B9016052710977FF02C06F5F7F4F7595A3
:1039600067958357910997FD019600E210E023E7E0
:1039700030E04AE855E049C02091EC043091ED0474
:10398000C901079697FD0796B3E095958795BA9577
:10399000E1F72091EA043091EB04AC01429FC001B1
:1039A000439F900D529F900D11240E94CC2A90931A
:1039B000060580930505892B09F0BCCFCAE2DAE041
:1039C000FE016491662339F081E394E00E94D907F7
:1039D0002196892BA9F760EA71E081E394E00E94C7
:1039E0004317FFCFB9016054710977FF02C06F5FC1
:1039F0007F4F759567958255910997FD019600E473
:103A000010E022E530E04AE657E0959587950E9460
:103A10008A0F82E080930805809103059091040548
:103A2000892B09F4C2C18CE3809307050E94E21040
:103A300080910E0587FD1EC061E00E94940661E042
:103A400080910E050E94660661E070E080E090E0E3
:103A50000E94F50660E080910E050E9466066AE00D
:103A600070E080E090E00E94F50661E080910E0534
:103A70000E9466068091030590910405892B09F444
:103A800053C220911B0530911C0540911D0550919A
:103A90001E0560E074E284EF90E00E94A42A2051A9
:103AA0003109410951095695479537952795209336
:103AB000B80064E086E895E00E94AD126091EC04E5
:103AC000615086EE94E00E94621364E082E895E023
:103AD0000E94AD128091080560E1813009F064E137
:103AE00086EE94E00E94621364E08EE795E00E9407
:103AF000AD128FE8809323058091EA049091EB0446
:103B00008038910509F029C28091EC049091ED0470
:103B10008034910509F031C280910805813009F0A7
:103B20001AC28FE98093230512E16AED86EE94E0D4
:103B30000E946213612F86EE94E00E94621361E896
:103B400086EE94E00E9462136091230586EE94E075
:103B50000E94621369ED86EE94E00E9462138091E8
:103B6000080562E2813009F061EF86EE94E00E9480
:103B7000621366E088E795E00E94AD12809103052C
:103B800090910405892B09F4FCC120911F05309107
:103B90002005409121055091220560E074E284EFF8
:103BA00090E00E94A42A20513109410951095695FB
:103BB0004795379527952093B8000E942117FF2439
:103BC000F394F092FA04F092FB0481E090E0909379
:103BD000F9048093F8049093F7048093F60410920C
:103BE000F3041092F2041092F5041092F40463EAC4
:103BF00071E086EE94E00E94C1181092F3041092D6
:103C0000F2048AE090E09093F5048093F40460EB72
:103C100071E086EE94E00E94C1180E94C41364E62D
:103C200070E080E090E00E94F50686E090E00E945F
:103C3000CC2A8C0188E4D8018C938AED94E012960A
:103C40009C938E93119713961C92139780E290E0A9
:103C500015969C938E9314971093D1040093D004DF
:103C60000E94E210F801F382C8010E944B15809176
:103C7000CE049091CF04009711F00E94682B86E04B
:103C800090E00E94CC2A8C0180E6D8018C938AEDCA
:103C900094E012969C938E93119713961C9213970F
:103CA00080E290E015969C938E9314971093CF0426
:103CB0000093CE040E94E21081E0F8018383C801E2
:103CC0000E944B156BEB71E081E394E00E94C118F8
:103CD0008AE999E9A9E1BFE38093A8039093A90336
:103CE000A093AA03B093AB0380E090E0A0EEB0E411
:103CF0008093AC039093AD03A093AE03B093AF0356
:103D0000C0908B03D0908C03E0908D03F0908E03D5
:103D100020E030E040EA50E4C701B6010E94D52817
:103D200018160CF438C110926A0310926903B5E0BA
:103D30002B2E312C88248394912C81E08093920542
:103D40008FB7F89440912D0450912E0460912F0468
:103D5000709130048FBF8091820590918305A0916E
:103D60008405B0918505481B590B6A0B7B0B80912C
:103D70008E0590918F05B0E0A0E084179507A60707
:103D8000B70708F05FC210E080918C05181708F0A3
:103D90003DC1E0918805F0918905E10FF11D62E0D8
:103DA00080810E9494061F5FEFCF61E080910C0537
:103DB0000E94940661E080910D050E949406809116
:103DC0000C05082E000C990BFC01EE59F54FE491FF
:103DD000F0E0EE0FFF1FE25BF54F25913491309339
:103DE000140520931305FC01EA58F54FE491E09384
:103DF000190580910D05082E000C990BFC01EE5958
:103E0000F54FE491F0E0EE0FFF1FE25BF54FA59157
:103E1000B491B0931605A0931505FC01EA58F54F2F
:103E2000E491E0931A058C91E82BEC9380910105C5
:103E300090910205892B09F434C01FB7F894809142
:103E40006803811127C0ECE6FAE08491E0E8FAE02B
:103E50009491E82FF0E0EE0FFF1FEC5BF54FA5917A
:103E6000B491EC91E92321F461E08AE00E946606B6
:103E700061E08AE00E9494068CB580618CBD8CB5AF
:103E800080648CBD61E08DE00E94940661E08BE06F
:103E90000E949406809168038F5F809368031FBF20
:103EA000C7CD61E080910A050E94940661E080918F
:103EB0000B050E94940680910A05082E000C990BB0
:103EC000FC01EE59F54FE491F0E0EE0FFF1FE25BCD
:103ED000F54F259134913093100520930F05FC0187
:103EE000EA58F54FE491E093170580910B05082EF1
:103EF000000C990BFC01EE59F54FE491F0E0EE0F48
:103F0000FF1FE25BF54FA591B491B0931205A0930A
:103F10001105FC01EA58F54FE491E09318058C91E6
:103F2000E095E823EC9384CD809101059091020502
:103F3000892B31F080912405909125050E949A10DB
:103F4000E0911505F0911605908180911A058095F4
:103F500089238083AECD8FECE5CD8036910569F461
:103F60008091EC049091ED04409739F4809108051C
:103F7000813029F480E18093230512E0D6CD8FEAC9
:103F8000FACFE0911505F0911605808190911A0500
:103F9000892B808312CE20E030E040E251E4C7015B
:103FA000B6010E94D52818163CF081E090E090936D
:103FB0006A0380936903BBCE20E030E040E751E420
:103FC000C701B6010E94D52818161CF082E090E0C7
:103FD000EECF20E030E040EA51E4C701B6010E9494
:103FE000D52818161CF083E090E0E1CF20E030E007
:103FF00048EC51E4C701B6010E94D52818161CF000
:1040000084E090E0D4CF85E090E0D1CF712C809116
:104010008D05781608F064C0E72CF12CE0918A0534
:10402000F0918B05EE0DFF1D61E080810E949406EA
:10403000E0918A05F0918B05EE0DFF1D60E0808117
:104040000E94660681E090E0A0E0B0E0072C04C08A
:10405000880F991FAA1FBB1F0A94D2F75C016C013D
:10406000C094D094612C80918C05681610F5062DB3
:1040700010E08091880590918905800F911FDC01E7
:104080008C910E943D060C5F1F4F000F111FF8011D
:10409000EA5DFA4F892B41F4808191818A299B291D
:1040A000918380836394DFCF808191818C219D21D6
:1040B000F7CFE0918A05F0918B05EE0DFF1D61E0D1
:1040C00080810E94660680918A0590918B05E80E9A
:1040D000F91E60E0F70180810E949406739497CFE7
:1040E000F6E2CF2EF5E0DF2E8601D8015F968D91A6
:1040F0009C919097892B59F45C961C925C97EFEFFA
:10410000FFEF5E96FC93EE935D9791961C920A5F8B
:104110001F4F42E655E04017510739F7B12C809107
:104120008C05B81608F053C0A12CEB2CF12CEE0C2A
:10413000FF1CC701825D9A4F7C0120918D05A2165C
:1041400008F043C0D7016D917C910A2C02C076958E
:1041500067950A94E2F7B29E900111242A0D311D51
:10416000E6E2F5E080E0458D568D2417350709F429
:104170008BC78F5F36968A30B1F760FF24C0E6E2C6
:10418000F5E090E080E0448D411118C0E091860593
:10419000F0918705E20FF31F4081B6E0B89FF00170
:1041A000B99FF00D1124EA5DFA4F448F368F258FA9
:1041B00010A2178E61E00E94A10505C001963696F7
:1041C0008A30910501F7A394B8CFB394A8CF80E0CB
:1041D000F60191A19111892FF6E0CF0ED11C0C159B
:1041E0001D05B1F79FB7F89440912D0450912E040E
:1041F00060912F04709130049FBF409382055093CB
:10420000830560938405709385058823D9F0809198
:1042100047058823B9F0809145059091460501979F
:1042200089F46091420560938A03611110C0C33024
:10423000D10509F437C40CF048C4C130D10509F0E8
:10424000A0C207C41092920510928A03F0CF81E3B6
:1042500094E00E94320760EA71E081E394E00E94FA
:104260004317A0918A03CA2F0A2E000CDD0B809100
:104270008903882309F4F5C0AE01405351094A303F
:10428000510508F0EEC000910A0110910B018091D8
:104290008703909188039C012F5F3F4F03301105E6
:1042A00009F468C1FC01843091050CF01EC1EB5F7C
:1042B000FE4FA083880F991FFC01E958FC4F5183E2
:1042C000408330938803209387032830310509F019
:1042D000C8C01092890380917703909178032AE0F7
:1042E000289FB001299F700D11248091790390912E
:1042F0007A03680F791F072E000C880B990B0E9418
:104300007D296B017C0160917B0370917C03072EFA
:10431000000C880B990B0E947D292DEC3CEC4CEC99
:104320005DE30E94322A9B01AC01C701B6010E94E5
:1043300069286B017C0160917D0370917E03072EDB
:10434000000C880B990B0E947D292AE037ED43E28F
:104350005CE30E94322A9B01AC01C701B6010E94B6
:1043600069282B013C0120E030E040EF51E40E943D
:10437000D52818160CF4F7C0609181037091820360
:10438000072E000C880B990B0E947D292DEC3CEC2C
:104390004CEC5DE30E94322A6B017C0160917F034B
:1043A00070918003072E000C880B990B0E947D29C9
:1043B0009B01AC01C701B6010E9469286B017C0119
:1043C0006091830370918403072E000C880B990B76
:1043D0000E947D292AE037ED43E25CE30E94322A05
:1043E0009B01AC01C701B6010E9469286B017C01E9
:1043F0006091850370918603072E000C880B990B42
:104400000E947D292FE632E143E85AE30E94322AD6
:104410009B01AC01C701B6010E9469286B017C01B8
:1044200020E030E040E450E40E94D52818160CF457
:104430009AC0409298035092990360929A037092A6
:104440009B03C0929103D0929203E0929303F09267
:1044500094030130110509F44BC00230110509F431
:1044600047C0C134D10509F04BC080919C039091A5
:104470009D03892B09F45BC081E08093890330920E
:104480009D0320929C0380910A0190910B01823040
:10449000910509F42FC18330910511F0019721F4A2
:1044A000109288031092870345E050E060E270E0CC
:1044B00085E091E00E94F62B45E050E060E270E07C
:1044C00080E091E00E94F62BE7E7F3E080E1DF0176
:1044D0001D928A95E9F7AA9751F580919503882353
:1044E00009F421C11092950322C0E450FF4FE1CEA0
:1044F00010939D0300939C03C134D10509F4BCCFF4
:10450000C234D10509F002C180919C0390919D03B2
:10451000892B69F480910A0190910B0101968430F6
:1045200091050CF0EEC090930B0180930A018091ED
:104530008A03833299F480919C0390919D03892B87
:1045400069F0C0910A01D0910B01C130D10509F485
:1045500061C20CF0ECC0209709F40FC1C0918F0329
:10456000D091900364CE84E090E090939D0380937B
:104570009C03C2CFFC01EB5FFE4F843091054CF0F1
:10458000BC01645071096230710558F4FC01E450BB
:10459000FF4FA083880F991FFC01E559FC4F518301
:1045A000408330938803209387032630310509F038
:1045B00058CF1092890380916B0390916C031AE09D
:1045C000189FB001199F700D112480916D03909177
:1045D0006E03680F791F072E000C880B990B0E9441
:1045E0007D296B017C0160916F0370917003072E30
:1045F000000C880B990B0E947D292DEC3CEC4CECB7
:104600005DE30E94322A9B01AC01C701B6010E9402
:1046100069286B017C016091710370917203072E10
:10462000000C880B990B0E947D292AE037ED43E2AC
:104630005CE30E94322A9B01AC01C701B6010E94D3
:1046400069286B017C0120E030E040EF51E40E94DA
:10465000D52818160CF487CF20917303309174037A
:10466000129FC001139F900D11242091750330916A
:104670007603820F931F97FD76CFC0929803D09256
:104680009903E0929A03F0929B039093970380938F
:10469000960361EC71E081E394E00E94D518C0902C
:1046A0009603D09097030D2C000CEE08FF082AE02B
:1046B000B701A601F7FE0DC06DE281E394E00E9410
:1046C000320744275527BA014C195D096E097F0945
:1046D0002AE081E394E00E94521760EA71E081E3EE
:1046E00094E00E94431743E050E050939D034093B1
:1046F0009C0302CF84E090E090938803809387032B
:10470000D3CE90920B0180920A0111CFC334D10510
:1047100009F0BCC480910A0190910B0190939D0314
:1047200080939C0304CF81E08093950300CFC23037
:10473000D10509F4A1C1C330D10509F00FCF809193
:104740009503882309F4AAC147E050E050939003F1
:1047500040938F0380910C0190910D01A0910E0167
:10476000B0910F0180938B0390938C03A0938D03E2
:10477000B0938E03C7E0D0E004C010929003109273
:104780008F0380E00E94E7169093B1038093B003FB
:1047900081E00E94E7168C016091B0037091B10333
:1047A000072E000C880B990B0E947D2928EE3CE90E
:1047B00044E459E30E94322A2091AC033091AD03C6
:1047C0004091AE035091AF030E94322A6B017C01ED
:1047D000B801110F880B990B0E947D2928EE3CE946
:1047E00044E459E30E94322A2091A8033091A9039E
:1047F0004091AA035091AB030E94322A2B013C0145
:104800000E94211711E01093FA041093FB04909278
:10481000F9048092F8049092F7048092F604809153
:104820009C0390919D038230910509F4D0C20CF055
:1048300055C1009709F4D8C1019709F452C20E94EA
:10484000C4138CE00E943D069093A2038093A103C1
:1048500020919F033091A0038217930709F444C06D
:10486000892B09F041C08DE00E943D06C0900C01EB
:10487000D0900D01E0900E01F0900F01892B09F40A
:10488000CDC320E030E040EF51E4C701B6010E9403
:10489000D52887FF10C02DEC3CEC4CEC5DE3C70144
:1048A000B6010E94692860930C0170930D018093FA
:1048B0000E0190930F016AEC72E081E394E00E9494
:1048C000D51840910C0150910D0160910E0170912D
:1048D0000F0122E081E394E00E94D41760EA71E0C6
:1048E00081E394E00E9443178091A1039091A20379
:1048F0009093A00380939F038EE00E943D06209139
:104900009E03892B09F09DC3211109C081E080938A
:104910009E0362ED72E081E394E00E94C1188FE093
:104920000E943D069093A7038093A6032091A403C1
:104930003091A5038217930709F444C0892B09F02D
:1049400041C080E10E943D06C0901001D09011014D
:10495000E0901201F0901301892B09F47AC320E052
:1049600030E040E450E4C701B6010E94D52887FF3B
:1049700010C02DEC3CEC4CEC5DE3C701B6010E948D
:104980006928609310017093110180931201909334
:1049900013016FEE72E081E394E00E94D51840911C
:1049A000100150911101609112017091130122E0E8
:1049B00081E394E00E94D41760EA71E081E394E01F
:1049C0000E9443178091A6039091A7039093A5039B
:1049D0008093A40381E10E943D062091A303892BCB
:1049E00009F04AC3211109C081E08093A30361E06B
:1049F00073E081E394E00E94C11880E090E0892B8D
:104A000009F49BC90E94A307882309F496C90E9450
:104A1000000093C9809195038823B9F030929003E8
:104A200020928F0380910C0190910D01A0910E01B5
:104A3000B0910F0180938B0390938C03A0938D030F
:104A4000B0938E03C5E0D0E09CCED0939003C0938A
:104A50008F038091980390919903A0919A03B0914C
:104A60009B0380938B0390938C03A0938D03B0934F
:104A70008E03C1E0D0E085CE80919503882349F074
:104A8000E6E0F0E0F0939003E0938F03C6E0D0E01F
:104A900078CED0939003C0938F0373CED0939003BE
:104AA000C0938F038091980390919903A0919A03EA
:104AB000B0919B0380938B0390938C03A0938D0301
:104AC000B0938E03C3E0D0E05CCEC530D10509F4CD
:104AD000A9CFC730D10509F054CE3CCE8430910522
:104AE00009F416C20CF4BDC1059709F0A8CE0E94C6
:104AF00021171093FA041093FB049092F90480920A
:104B0000F8049092F7048092F6041092F304109245
:104B1000F2041092F5041092F40480910A0190912D
:104B20000B018230910509F421C28330910509F40B
:104B300034C2019709F083CE65E872E086EE94E016
:104B40000E94D51805E011E029E0E22E21E0F22EC6
:104B5000D8016D918D0186EE94E00E943207E01637
:104B6000F106B1F76FE872E086EE94E00E94D51886
:104B70006091070186EE94E00E9432071092F304E0
:104B80001092F2048AE090E09093F5048093F4048C
:104B900061E972E086EE94E00E94D51800E011E031
:104BA000F80161918F0186EE94E00E943207F1E0F6
:104BB00004301F07A9F76FE872E086EE94E00E94C8
:104BC000D5186091010186EE94E00E9432071092A0
:104BD000F3041092F20484E190E09093F504809342
:104BE000F4046DE972E066C01092F3041092F204CE
:104BF0001092F5041092F40480910A0190910B0137
:104C0000019731F461ED71E086EE94E00E94D518D1
:104C100064ED71E086EE94E00E94C1181092F304F6
:104C20001092F2048AE090E09093F5048093F404EB
:104C300080910A0190910B01029731F461ED71E0CE
:104C400086EE94E00E94D5186FED71E086EE94E058
:104C50000E94C1181092F3041092F20484E190E0D3
:104C60009093F5048093F40480910A0190910B01D4
:104C7000039731F461ED71E086EE94E00E94D5185F
:104C80006CEE71E086EE94E00E94D51880918F035F
:104C90009091900381309105F1F08CF467EF71E011
:104CA000892BA1F08091950365E072E0811102C02B
:104CB0006BE072E086EE94E00E94D518C0CD8230A1
:104CC000910561F062E072E0039761F786EE94E08F
:104CD0000E94D518E7CF6CEF71E0F8CF6FEF71E06D
:104CE000F5CF1092F3041092F2041092F504109292
:104CF000F40460E172E086EE94E00E94D51843E08F
:104D000050E0C701B6010E94BA186AE472E086EE6C
:104D100094E00E94D51880919503882309F445C03A
:104D200060910C0170910D0180910E0190910F0125
:104D300042E050E00E94BA181092F3041092F2047C
:104D40008AE090E09093F5048093F40466E172E0C9
:104D500086EE94E00E94D51843E050E0C301B20112
:104D60000E94BA186AE472E086EE94E00E94D518B8
:104D700080919503882311F16091100170911101C8
:104D8000809112019091130142E050E00E94BA1804
:104D90001092F3041092F20484E190E09093F504F1
:104DA0008093F4046CE172E085CF60919803709178
:104DB000990380919A0390919B03BACF60919103DC
:104DC000709192038091930390919403DDCF1092A0
:104DD000F3041092F2041092F5041092F40469E2C4
:104DE00072E086EE94E00E94D51843E050E0C301E3
:104DF000B2010E94BA181092F3041092F2048AE0F1
:104E000090E09093F5048093F4046FE272E086EEF4
:104E100094E00E94D518809195038823C9F0609191
:104E2000100170911101809112019091130142E0E3
:104E300050E00E94BA181092F3041092F20484E138
:104E400090E09093F5048093F40469E372E032CF2C
:104E500060919103709192038091930390919403D8
:104E6000E6CF1092F3041092F2041092F50410921F
:104E7000F40460E172E086EE94E00E94D51843E00D
:104E800050E0C701B6010E94BA1868E472E086EEED
:104E900094E00E94D51860919803709199038091D5
:104EA0009A0390919B0342E050E00E94BA1810923E
:104EB000F3041092F2048AE090E09093F50480935A
:104EC000F4046EE472E086EE94E00E94D51870E07F
:104ED00060E086EE94E00E949E1764E572E086EE44
:104EE00094E00E94D518609196037091970386EE26
:104EF00094E00E949E171092F3041092F20484E151
:104F000090E09093F5048093F40469E572E0D2CECA
:104F10001092F3041092F2041092F5041092F4042B
:104F200064E672E086EE94E00E94C1181092F304E9
:104F30001092F2048AE090E09093F5048093F404D8
:104F400066E772E086EE94E00E94C11880910A0143
:104F500090910B018130910521F08230910509F08B
:104F60006ECC90939D0380939C0369CC6EEA72E0B3
:104F700086EE94E00E94D51800E011E094E0E92E5E
:104F800091E0F92ED8016D918D0186EE94E00E949A
:104F90003207E016F106B1F752CC65E872E086EE12
:104FA00094E00E94D51805E011E089E0E82E81E048
:104FB000F82EF80161918F0186EE94E00E9432078D
:104FC000E016F106B1F76FE872E086EE94E00E9419
:104FD000D5186091070186EE94E00E943207109286
:104FE000F3041092F2048AE090E09093F504809329
:104FF000F4046EEB72E086EE94E00E94D5186091A6
:10500000000186EE94E00E9432076091010186EE75
:1050100094E00E94320767EC72E04CCE20E030E072
:10502000A901C701B6010E942D2A18160CF043CC25
:105030002DEC3CEC4CEC5DE3C701B6010E94682806
:1050400032CC222309F46BCC10929E0360EE72E006
:1050500062CC20E030E0A901C701B6010E942D2AF0
:1050600018160CF096CC2DEC3CEC4CEC5DE3C70133
:10507000B6010E94682885CC222309F4BECC109288
:10508000A30362E173E0B5CC617095C8C434D10567
:1050900009F021CA80919C0390919D03892B21F4F2
:1050A0001092900310928F0310929D0310929C0314
:1050B0003ECA82E691E09093E7048093E6048091F3
:1050C000050590910605009711F00C94682B089542
:1050D0005058BB27AA270E9480280C94F3290E94CD
:1050E000E52938F00E94EC2920F039F49F3F19F4AB
:1050F00026F40C94E2290EF4E095E7FB0C94DC29ED
:10510000E92F0E94042A58F3BA176207730784072D
:10511000950720F079F4A6F50C94262A0EF4E09574
:105120000B2EBA2FA02D0B01B90190010C01CA0161
:10513000A0011124FF27591B99F0593F50F4503E0C
:1051400068F11A16F040A22F232F342F4427585FFE
:10515000F3CF469537952795A795F0405395C9F716
:105160007EF41F16BA0B620B730B840BBAF09150CE
:10517000A1F0FF0FBB1F661F771F881FC2F70EC06D
:10518000BA0F621F731F841F48F487957795679540
:10519000B795F7959E3F08F0B0CF9395880F08F02C
:1051A0009927EE0F9795879508950E94B82908F4DE
:1051B00081E008950E94EE280C94F3290E94EC29C6
:1051C00058F00E94E52940F029F45F3F29F00C9443
:1051D000DC2951110C94272A0C94E2290E94042AFC
:1051E00068F39923B1F3552391F3951B550BBB2716
:1051F000AA2762177307840738F09F5F5F4F220F5B
:10520000331F441FAA1FA9F335D00E2E3AF0E0E851
:1052100032D091505040E695001CCAF72BD0FE2F9B
:1052200029D0660F771F881FBB1F2617370748072F
:10523000AB07B0E809F0BB0B802DBF01FF279358E7
:105240005F4F3AF09E3F510578F00C94DC290C94A6
:10525000272A5F3FE4F3983ED4F3869577956795C8
:10526000B795F7959F5FC9F7880F911D969587951C
:1052700097F90895E1E0660F771F881FBB1F62173B
:1052800073078407BA0720F0621B730B840BBA0BF9
:10529000EE1F88F7E09508950E940C2A88F09F572A
:1052A00098F0B92F9927B751B0F0E1F0660F771F4A
:1052B000881F991F1AF0BA95C9F714C0B13091F040
:1052C0000E94262AB1E008950C94262A672F782F91
:1052D0008827B85F39F0B93FCCF386957795679505
:1052E000B395D9F73EF490958095709561957F4F71
:1052F0008F4F9F4F0895E89409C097FB3EF4909517
:105300008095709561957F4F8F4F9F4F9923A9F09E
:10531000F92F96E9BB279395F6958795779567952D
:10532000B795F111F8CFFAF4BB0F11F460FF1BC071
:105330006F5F7F4F8F4F9F4F16C0882311F096E904
:1053400011C0772321F09EE8872F762F05C06623B2
:1053500071F096E8862F70E060E02AF09A95660F6B
:10536000771F881FDAF7880F9695879597F9089524
:10537000990F0008550FAA0BE0E8FEEF1616170666
:10538000E807F907C0F012161306E407F50798F0CE
:10539000621B730B840B950B39F40A2661F0232BE7
:1053A000242B252B21F408950A2609F4A140A69563
:1053B0008FEF811D811D089597F99F6780E870E048
:1053C00060E008959FEF80EC089500240A9416167B
:1053D000170618060906089500240A9412161306E3
:1053E000140605060895092E0394000C11F4882371
:1053F00052F0BB0F40F4BF2B11F460FF04C06F5F8D
:105400007F4F8F4F9F4F089557FD9058440F551F62
:1054100059F05F3F71F04795880F97FB991F61F036
:105420009F3F79F087950895121613061406551FAD
:10543000F2CF4695F1DF08C0161617061806991F19
:10544000F1CF86957105610508940895E894BB270E
:1054500066277727CB0197F908950E94B82908F4A9
:105460008FEF08950E94452A0C94F3290E94E529A4
:1054700038F00E94EC2920F0952311F00C94DC29DF
:105480000C94E22911240C94272A0E94042A70F318
:10549000959FC1F3950F50E0551F629FF001729FD9
:1054A000BB27F00DB11D639FAA27F00DB11DAA1FE8
:1054B000649F6627B00DA11D661F829F2227B00D35
:1054C000A11D621F739FB00DA11D621F839FA00DC0
:1054D000611D221F749F3327A00D611D231F849F10
:1054E000600D211D822F762F6A2F11249F57504067
:1054F0009AF0F1F088234AF0EE0FFF1FBB1F661FE2
:10550000771F881F91505040A9F79E3F510580F0AA
:105510000C94DC290C94272A5F3FE4F3983ED4F3E3
:10552000869577956795B795F795E7959F5FC1F74E
:10553000FE2B880F911D9695879597F908950E94E7
:10554000B829880B990B0895A1E21A2EAA1BBB1B40
:10555000FD010DC0AA1FBB1FEE1FFF1FA217B3073F
:10556000E407F50720F0A21BB30BE40BF50B661F55
:10557000771F881F991F1A9469F760957095809519
:1055800090959B01AC01BD01CF010895EE0FFF1F67
:105590000590F491E02D09940F931F93CF93DF931F
:1055A0008230910510F482E090E0E0919705F0914F
:1055B000980530E020E0B0E0A0E0309799F42115A4
:1055C000310509F44AC0281B390B24303105D8F5C0
:1055D0008A819B816115710589F1FB019383828327
:1055E000FE0111C040815181028113814817590782
:1055F000E0F04817590799F4109761F012960C9350
:10560000129713961C933296CF01DF91CF911F9181
:105610000F9108950093970510939805F4CF2115E5
:10562000310551F04217530738F0A901DB019A0107
:10563000BD01DF01F801C1CFEF01F9CF90939805CB
:1056400080939705CDCFFE01E20FF31F81939193D5
:105650002250310939832883D7CF20919505309185
:105660009605232B41F420912E0130912F01309388
:1056700096052093950520912C0130912D0121153F
:10568000310541F42DB73EB74091300150913101C1
:10569000241B350BE0919505F0919605E217F30771
:1056A000A0F42E1B3F0B2817390778F0AC014E5F92
:1056B0005F4F2417350748F04E0F5F1F5093960534
:1056C00040939505819391939FCFF0E0E0E09CCFCC
:1056D000CF93DF930097E9F0FC0132971382128297
:1056E000A0919705B0919805ED0130E020E010976A
:1056F000A1F420813181820F931F20919505309173
:1057000096052817390709F061C0F0939605E093D4
:105710009505DF91CF910895EA01CE17DF07E8F5EF
:105720004A815B819E0141155105B1F7E901FB8377
:10573000EA8349915991C40FD51FEC17FD0761F415
:10574000808191810296840F951FE9019983888356
:10575000828193819B838A83F0E0E0E012968D91B1
:105760009C9113970097B9F52D913C911197CD011C
:105770000296820F931F2091950530919605281768
:10578000390739F6309751F5109298051092970520
:10579000B0939605A0939505BCCFD383C283408177
:1057A0005181840F951FC817D90761F44E5F5F4F71
:1057B00088819981480F591F518340838A819B8139
:1057C000938382832115310509F0B0CFF0939805BA
:1057D000E09397059ECFFD01DC01C0CF13821282BA
:1057E000D7CF81E090E0F8940C94FD2BDC0101C050
:1057F0006D9341505040E0F7089515E0C3E5D5E0C2
:1058000004C0FE010E94C62A2196C435D107C9F7FB
:04581000F894FFCF3A
:105814002020202000202020200001000000204122
:10582400CDCC4C3F070605040B0A0908313233413D
:1058340034353642373839432A3023440000990539
:105844008000004000500060007000000000D90794
:1058540039076607260897077507890700000000BF
:105864007B124E12711513064712341225120000D2
:105874000000DE0C390771159810ED091306830F2B
:105884005B0F770F6B0FEB0F1306A40AF5145D097A
:10589400A609A40E870E0F0EB00D00000000270706
:1058A4002B072F076E616E00696E66006F766600C7
:1058B4000D0A00486F6C612045726E6573746F0049
:1058C4004269656E76656E69646F005265736574CE
:1058D400005469656D706F4361726761646F3A204B
:1058E400002A2000312E2054656E73696F6E0032D9
:1058F4002E20436F727269656E746500332E2052D8
:10590400616D70612020004F464620005420004302
:105914002000522000456E636F200054656E200005
:10592400542E20523A00432E20523A004D4F444FF9
:105934002054454E53494F4E005265616C3A004421
:105944006573656164613A20004D4F444F20434FB5
:10595400525249454E5445002020443A2000742EAA
:1059640020523A002020443A004D4F444F205241E7
:105974004D50410056616C6F72657320496E7661BB
:105984006C69646F730050726573696F6E6520543F
:1059940065636C610054454E53494F4E3A20002EC6
:1059A40000434F525249454E54453A20004544491C
:1059B4005441522056414C4F5245533A2000436FB4
:1059C400727269656E7465204D41583A20005449DD
:1059D400454D504F3A200020730056616C6F723A67
:1059E4002000426F746F6E2050756C7361646F0099
:1059F400426F746F6E204C6962657261646F005609
:105A0400616C6F7220695F656E636F6465723A20C2
:105A140000426F74C3B36E20322050756C7361649E
:105A24006F00426F74C3B36E2032204C696265729A
:045A340061646F003A
:00000001FF
