:100000000C9454050C9469170C9442170C947C05BD
:100010000C947C050C947C050C947C050C947C055C
:100020000C947C050C947C050C947C050C947C054C
:100030000C947C050C947C050C947C050C947C053C
:100040000C94F8160C947C050C94B6170C9490172D
:100050000C947C050C947C050C947C050C947C051C
:100060000C94E8170C947C0500000000003E5B4FE8
:100070005B3E3E6B4F6B3E1C3E7C3E1C183C7E3C08
:10008000181C577D571C1C5E7F5E1C00183C180016
:10009000FFE7C3E7FF0018241800FFE7DBE7FF30A6
:1000A000483A060E2629792926407F050507407F14
:1000B00005253F5A3CE73C5A7F3E1C1C08081C1C87
:1000C0003E7F14227F22145F5F005F5F06097F017D
:1000D0007F006689956A606060606094A2FFA29468
:1000E00008047E040810207E201008082A1C080836
:1000F0001C2A08081E101010100C1E0C1E0C303884
:100100003E3830060E3E0E06000000000000005F84
:1001100000000007000700147F147F14242A7F2AA0
:100120001223130864623649562050000807030062
:10013000001C2241000041221C002A1C7F1C2A08AE
:10014000083E080800807030000808080808000011
:1001500060600020100804023E5149453E00427F85
:10016000400072494949462141494D331814127FD4
:100170001027454545393C4A494931412111090774
:100180003649494936464949291E000014000000F5
:1001900040340000000814224114141414140041C7
:1001A00022140802015909063E415D594E7C121184
:1001B000127C7F494949363E414141227F414141BC
:1001C0003E7F494949417F090909013E4141517337
:1001D0007F0808087F00417F41002040413F017FA8
:1001E000081422417F404040407F021C027F7F0470
:1001F00008107F3E4141413E7F090909063E4151B9
:10020000215E7F09192946264949493203017F01A8
:10021000033F4040403F1F2040201F3F4038403FA9
:10022000631408146303047804036159494D4300BF
:100230007F4141410204081020004141417F0402F6
:10024000010204404040404000030708002054548D
:1002500078407F284444383844444428384444286B
:100260007F385454541800087E090218A4A49C78BE
:100270007F0804047800447D40002040403D007F1A
:100280001028440000417F40007C047804787C08FA
:100290000404783844444438FC18242418182424CE
:1002A00018FC7C08040408485454542404043F44B3
:1002B000243C4040207C1C2040201C3C4030403CE2
:1002C00044281028444C9090907C4464544C440042
:1002D00008364100000077000000413608000201A6
:1002E0000204023C2623263C1EA1A161123A404092
:1002F000207A38545455592155557941225454780F
:1003000042215554784020545579400C1E527212A7
:100310003955555559395454545939555454580030
:1003200000457C410002457D420001457C407D1234
:1003300011127DF0282528F07C5455450020545496
:100340007C547C0A097F4932494949323A44444441
:100350003A324A4848303A4141217A3A424020787C
:10036000009DA0A07D3D4242423D3D4040403D3C7D
:1003700024FF2424487E4943662B2FFC2F2BFF09A2
:1003800029F620C0887E0903205454794100004496
:100390007D413048484A32384040227A007A0A0A81
:1003A000727D0D19317D2629292F282629292926F4
:1003B00030484D4020380808080808080808382F39
:1003C00010C8ACBA2F102834FA00007B00000814C3
:1003D0002A142222142A14085500550055AA55AA99
:1003E00055AAFF55FF55FF000000FF00101010FF39
:1003F00000141414FF001010FF00FF1010F010F094
:10040000141414FC001414F700FF0000FF00FF1484
:1004100014F404FC141417101F10101F101F1414D0
:10042000141F00101010F0000000001F101010101A
:100430001F10101010F010000000FF10101010100E
:1004400010101010FF10000000FF140000FF00FF4C
:1004500000001F10170000FC04F4141417101714E8
:1004600014F404F40000FF00F7141414141414140A
:10047000F700F7141414171410101F101F1414147D
:10048000F4141010F010F000001F101F0000001FE7
:1004900014000000FC140000F010F01010FF10FF1A
:1004A000141414FF141010101F00000000F010FFAF
:1004B000FFFFFFFFF0F0F0F0F0FFFFFF0000000093
:1004C00000FFFF0F0F0F0F0F3844443844FC4A4A17
:1004D0004A347E02020606027E027E0263554941CC
:1004E000633844443C04407E201E2006027E020203
:1004F00099A5E7A5991C2A492A1C4C7201724C3017
:100500004A4D4D303048784830BC625A463D3E49ED
:100510004949007E0101017E2A2A2A2A2A44445F91
:10052000444440514A444040444A51400000FF0185
:1005300003E080FF000008086B6B08361236243693
:10054000060F090F060000181800000010100030F8
:1005500040FF0101001F01011E00191D1712003C80
:100560003C3C3C0000000000000103070F1F3F7FE0
:100570000080C0E0F0F8FCFEDB40A4A62EAF200017
:10058000A1C8D300408DAED580A800006000000057
:100590000000000000000000000000E0000000007B
:1005A00000000000000000000001E000000000006A
:1005B000000000000000000001F00000000000004A
:1005C0000000000000000003F00000000000000038
:1005D00000000000000007F0000000000000000024
:1005E000000000000007F80000000000000000000C
:1005F000000000000FF800000003C0007E000001B2
:10060000E0007F0FF800000003C000FE000001E0E2
:1006100000FFEFF800000003C000FE000001E00052
:10062000FFFFF800000003C000F00000000F007F93
:10063000FE7FC0000003C000F00000000F003FFE7E
:100640007FF83FF1FBCFFCFEF3BC3DEFE01FFE7FE8
:10065000FF7FFBFFDFFEFEFFBC3DEFE01FC6FFFF9D
:100660007FFBFFDFFEFEFFBC3DEFE00FE3C7FE7840
:100670007BC3DE1EF0FFBC3DEF0007FF87FC787BED
:10068000C3DE1EF0F83C3DEF0001FFFFF0007BC32E
:10069000C01EF0F03C3DEF0001F37FE03FFBC3CF15
:1006A000FEF0F03C3DEF0003E33F807FFBC3DFFE45
:1006B000F0F03C3DEF0007E73C00787BC3DE1EF026
:1006C000F03C3DEF0007FFBE00787BC3DE1EF0F07C
:1006D0003C3DEF0007FFFE00787BC3DE1EF0F03CE0
:1006E0003DEF000FFFFE007FFBFFDFFEF0F03FFD60
:1006F000EFE00FFFFF007FFBFFDFFEF0F03FFDEFBD
:10070000E00FF9FF003E79F9CF9EF0F01F3DE7E0E2
:100710001FF1FF0000000000000000000000001FAB
:1007200080FF007FFFFFFFFFFFFFFFFFFFE01C00D8
:100730007F007FFFFFFFFEB46D888D18E000001F73
:10074000007FFFFFFFFE95AD7DB577E000000F0055
:100750007FFFFFFFFEA5AD9D8D19E0000006007F25
:10076000FFFFFFFEB5ADEDB57EE00000000000012B
:100770008000000000000000000003800000000076
:10078000000000000007C0000000000000000000A2
:1007900007C00000000000000000000FC0000000C3
:1007A0000000000000001FE000000000000000004A
:1007B000001FE00000000000000000003FE000001B
:1007C000000000000000003FF000000000000000FA
:1007D00000007FF0000000000000001FF87FF00024
:1007E0000000000000003FFE7FF00000000000005D
:1007F000003FFF7FF0000000000000001FFFFBE053
:10080000000000000000000FFFF9FFC00000000022
:1008100000000FFFF9FFF800000000000007FFF1E3
:10082000FFFF00000000000003FC73FFFF800000DA
:1008300000000001FE3FFFFF80000000000000FFFD
:100840001E0FFF000000000000007FFE1FFC0000E4
:1008500000000000003FFFFFF80000000000000063
:100860000FDFFFE0000000000000001F19FFC000C4
:100870000000000000003F3CFF00000000000000FE
:10088000007E7CF800000000000000007FFE7C007D
:1008900000000000000000FFFFFC0000000000005E
:1008A0000000FFFFFE0000000000000000FFFFFE50
:1008B0000000000000000001FFEFFE00000000004B
:1008C000000001FFCFFE0000000000000003FF0752
:1008D000FE0000000000000003FC07FE0000000016
:1008E00000000003F003FE00000000000000018093
:1008F00000FE000000000000000000007E0000007C
:10090000000000000000003E0000000000000000A9
:1009100000000C000000000000078000FC00000345
:10092000C0000000078001FC000003C000000007B9
:100930008001FC000003C0000000078001E000000F
:10094000001E000000078001E00000001E007FE3A1
:10095000F79FF9FDE7787BDFC0FFF7FFBFFDFDFFE5
:10096000787BDFC0FFF7FFBFFDFDFF787BDFC0F0C6
:10097000F787BC3DE1FF787BDE00F0F787BC3DE107
:10098000F0787BDE0000F787803DE1E0787BDE00D9
:100990007FF7879FFDE1E0787BDE00FFF787BFFDF3
:1009A000E1E0787BDE00F0F787BC3DE1E0787BDEBC
:1009B00000F0F787BC3DE1E0787BDE00F0F787BC14
:1009C0003DE1E0787BDE00FFF7FFBFFDE1E07FFB6C
:1009D000DFC0FFF7FFBFFDE1E07FFBDFC07CF3F38B
:1009E0009F3DE1E03E7BCFC0000000000000000022
:1009F000000000FFFFFFFFFFFFFFFFFFFFC0FFFF43
:100A0000FFFFFD68DB111A31C0FFFFFFFFFD2B5A0E
:100A1000FB6AEFC0FFFFFFFFFD4B5B3B1A33C0FFDC
:100A2000FFFFFFFD6B5BDB6AFDC053534431333086
:100A30003620616C6C6F636174696F6E20666169EA
:100A40006C65640000000000240027002A000000FC
:100A50000000250028002B000000000023002600D5
:100A60002900040404040404040402020202020231
:100A70000303030303030102040810204080010262
:100A800004081020010204081020000000080002E1
:100A90000100000304070000000000000000220025
:100AA000FF2100000719D62511241FBECFEFD8E083
:100AB000DEBFCDBF12E0A0E0B1E0EEE9F3E502C099
:100AC00005900D92AC3DB107D9F725E0ACEDB2E051
:100AD00001C01D92A434B207E1F715E0C3E5D5E0EB
:100AE00004C02197FE010E948B28C235D107C9F7A7
:100AF0000E94291A0C94C2290C94000091E0909352
:100B0000B8038093DA031092B9031092DB030895BF
:100B100008950895089596E0899FD0011124AF5259
:100B2000BB4F90967C936E935F9791E091969C93C8
:100B30009197E0913E05F0913F0590913D059923F5
:100B400039F0309751F0811108C08091ED0409947B
:100B5000309719F05C968C91FACF0895833081F02C
:100B600028F4813099F08230A9F008958730A9F0F7
:100B70008830C9F08430B1F4809180008F7D03C04B
:100B8000809180008F7780938000089584B58F775F
:100B900084BD089584B58F7DFBCF8091B0008F77A1
:100BA0008093B00008958091B0008F7DF9CFCF93EE
:100BB000DF93282F30E0F901E657F54F8491F901D2
:100BC000EA58F54FD491F901EE59F54FC491CC2371
:100BD000A1F081110E94AE05EC2FF0E0EE0FFF1F97
:100BE000E85AF54FA591B491EC91ED2381E090E0A6
:100BF00009F480E0DF91CF91089580E090E0FACF92
:100C00001F93CF93DF93282F30E0F901E657F54F7C
:100C10008491F901EA58F54FD491F901EE59F54F55
:100C2000C491CC23A9F0162F81110E94AE05EC2FA0
:100C3000F0E0EE0FFF1FE25BF54FA591B4918FB787
:100C4000F894EC91111108C0D095DE23DC938FBF8E
:100C5000DF91CF911F910895DE2BF8CFCF93DF93D3
:100C600090E0FC01EA58F54F24918E59954FFC0114
:100C700084918823C9F090E0880F991FFC01EC5BF8
:100C8000F54FA591B491FC01E25BF54FC591D4916C
:100C900061110DC09FB7F8948C91209582238C939D
:100CA0008881282328839FBFDF91CF9108956230E8
:100CB00051F49FB7F8943C91822F809583238C93B5
:100CC000E8812E2BEFCF8FB7F894EC912E2B2C933D
:100CD0008FBFEACF3FB7F89480918203909183034E
:100CE000A0918403B091850326B5A89B05C02F3F32
:100CF00019F00196A11DB11D3FBFBA2FA92F982F42
:100D00008827BC01CD01620F711D811D911D42E03C
:100D1000660F771F881F991F4A95D1F708958F9204
:100D20009F92AF92BF92CF92DF92EF92FF924B01D0
:100D30005C010E946A066B017C010E946A066C19C4
:100D40007D098E099F09683E734081059105A8F3CE
:100D500021E0821A9108A108B10888EEC80E83E04C
:100D6000D81EE11CF11C81149104A104B10429F7DF
:100D7000FF90EF90DF90CF90BF90AF909F908F90BB
:100D800008952FB7F89460917E0370917F0380914E
:100D90008003909181032FBF08950F931F93CF93EA
:100DA000DF93C82FD62F86E0C89FF0011124EF52A1
:100DB000FB4F11A2878D90A181309105F1F058F081
:100DC00082309105F1F1039709F440C0DF91CF9192
:100DD0001F910F9108956623C9F361E070E08C2F95
:100DE0000E948B050E94C1066093290570932A0515
:100DF00080932B0590932C05E9CF0E94C1060091AA
:100E0000290510912A0520912B0530912C05AB0165
:100E1000BC01401B510B620B730B80913B05909101
:100E20003C05B0E0A0E084179507A607B70748F493
:100E300062E070E08C2FDF91CF911F910F910C94A5
:100E40008B0563E070E0D111C1CFF4CF70E060E0BA
:100E5000F1CF862F642F0C942E06862F642F0C94CE
:100E60000006862F0C94D70581E08093DC0260E0B9
:100E700082E00C9400060895DC01ED91FC91019054
:100E8000F081E02D0994AF92BF92CF92DF92EF9262
:100E9000FF920F931F93CF93DF936C017B018B0124
:100EA000040F151FEB015E01AE18BF08C017D10774
:100EB00059F06991D601ED91FC910190F081E02DFE
:100EC000C6010995892B79F7C501DF91CF911F9153
:100ED0000F91FF90EF90DF90CF90BF90AF9008956B
:100EE000FC01538D448D252F30E0842F90E0821B30
:100EF000930B541710F0CF96089501970895FC01B5
:100F0000918D828D981761F0A28DAE0FBF2FB11D0C
:100F10005D968C91928D9F5F9F73928F90E0089564
:100F20008FEF9FEF0895FC01918D828D981731F01E
:100F3000828DE80FF11D858D90E008958FEF9FEF72
:100F40000895FC01918D228D892F90E0805C9F4F48
:100F5000821B91098F73992708958CED93E00E946D
:100F6000A10721E0892B09F420E0822F089580E079
:100F700090E0892B29F00E94AD0781110C940000AC
:100F80000895FC01A48DA80FB92FB11DA35ABF4F1E
:100F90002C91848D90E001968F739927848FA68978
:100FA000B7892C93A089B1898C91837080648C93CC
:100FB000938D848D981306C00288F389E02D80817B
:100FC0008F7D80830895EF92FF920F931F93CF93AD
:100FD000DF93EC0181E0888F9B8D8C8D98131AC074
:100FE000E889F989808185FF15C09FB7F894EE895B
:100FF000FF896083E889F9898081837080648083B8
:101000009FBF81E090E0DF91CF911F910F91FF9002
:10101000EF900895F62E0B8D10E00F5F1F4F0F73AA
:101020001127E02E8C8D8E110CC00FB607FCFACF65
:10103000E889F989808185FFF5CFCE010E94C1073B
:10104000F1CFEB8DEC0FFD2FF11DE35AFF4FF08236
:101050009FB7F8940B8FEA89FB8980818062CFCF9C
:10106000CF93DF93EC01888D8823B9F0AA89BB89DF
:10107000E889F9898C9185FD03C0808186FD0DC0CA
:101080000FB607FCF7CF8C9185FFF2CF808185FFEB
:10109000EDCFCE010E94C107E9CFDF91CF91089536
:1010A000EF92FF920F931F93CF93DF93EC01EC80AD
:1010B000FD806E157F050CF070C057FF04C0240F33
:1010C000351F50E040E08E819F81FA01E20FF31F4F
:1010D0008E179F071CF49C01241B350B1216130658
:1010E0000CF05BC0922F842F8695869586958E9DF9
:1010F000D0018F9DB00D11246A0F7B1FAF8DB8A159
:10110000A60FB71F477049F188E0841B482F682F4E
:1011100070E0FB01E059FA4FE491281708F063C032
:10112000621B71092FEF30E002C0359527956A9553
:10113000E2F7E2230130110539F0B0F10230110578
:1011400061F58C91E82702C08C91E82BEC93941701
:1011500020F12C813D81A20FB31FE92FE41BE83061
:1011600078F00230110521F58E2F9C9190959C937B
:101170002C813D81A20FB31F88508830B0F7E770F3
:10118000EE2359F0F0E0E859FA4FE49101301105EF
:10119000F9F010F10230110519F1DF91CF911F9193
:1011A0000F91FF90EF900895E0958C91E823CECFBA
:1011B00081E00115110509F480E081959E2F8C9343
:1011C0002C813D81A20FB31F98509830C0F7D7CF24
:1011D0008C91E82BEC93E1CFE0958C91E823FACF4A
:1011E0008C91E827F7CF0130110509F4ADCFE0F27B
:1011F0000230110509F4A5CFAE0DBF1DAECF0F9380
:101200001F93CF93DF9377FF04C0260F371F70E043
:1012100060E0DC011496CD91DC91FB01E20FF31F3D
:10122000CE17DF071CF49E01261B370B1216130680
:101230004CF5FA0157FD3796A3E0F595E795AA9589
:10124000E1F7EC9FD001ED9FB00DFC9FB00D112494
:101250006A0F7B1FDC015F96ED91FC91E60FF71F93
:101260004770552781E090E001C0880F4A95EAF762
:10127000482F0130110559F0A8F02E0F3F1F023002
:101280001105E1F0DF91CF911F910F9108952E0F7D
:101290003F1FE217F307B1F38191DF011197842B10
:1012A0008C93F7CF80952E0F3F1FE217F30751F372
:1012B0009191DF01119798239C93F7CFE217F307E1
:1012C00009F38191DF01119784278C93F7CF0F9356
:1012D0001F93FA01DC0156964C9156974230E9F083
:1012E0004330A1F1413061F514964D915C91DA01E2
:1012F000AE1BBF0BFD01E21BF30B77FD0BC0DC0146
:1013000016964D915C916417750724F4AB01BF01EB
:101310000E94FF081F910F91089514964D915C91C2
:10132000DA01A61BB70BBD0161507109DC011696ED
:101330004D915C91DA01AE1BBF0BFD01E21BF30B7B
:1013400077FDE8CFAF010E945008E4CF16964D918B
:101350005C91DA01A61BB70BBD0161507109CDCFBD
:101360000F931F93FA01DC0156964C915697423029
:10137000A9F0433091F1413019F514964D915C91EB
:10138000DA01AE1BBF0BFD013197F7FD04C0AB01C5
:10139000BF010E9450081F910F91089514964D911E
:1013A0005C91DA01A61BB70BBD01DC0116964D91CD
:1013B0005C91DA01AE1BBF0BFD013197621B730B11
:1013C000F7FDE9CFDC0116964D915C91E417F50726
:1013D00014F7AF010E94FF08DECF16964D915C9185
:1013E000DA01A61BB70BBD01621B730BCECFFC014C
:1013F00077FD64C080859185681779070CF05EC021
:1014000057FD5CC082859385481759070CF056C07C
:1014100086898230B1F0833029F1813041F48481B2
:101420009581841B950BAB01BC0161507109213082
:10143000310509F108F443C02230310509F463C0D5
:10144000089584819581DC01A61BB70BBD01615015
:10145000710986819781DC01A41BB50BAD01415058
:101460005109E5CF86819781861B970BBA01AC01A4
:1014700041505109DCCFCA0157FD0796A3E095956D
:101480008795AA95E1F7A481B5818A9F90018B9FEA
:10149000300D9A9F300D1124620F731F078CF0A13D
:1014A000E02DE60FF71F4770552721E030E001C01F
:1014B000220F4A95EAF78081822B80830895CA0122
:1014C00057FD079633E0959587953A95E1F7A48106
:1014D000B5818A9F90018B9F300D9A9F300D11240A
:1014E000620F731F078CF0A1E02DE60FF71F477006
:1014F000552781E090E001C0880F4A95EAF7809572
:1015000090818923DACFCA0157FD079623E095958C
:1015100087952A95E1F7A481B5818A9F90018B9FD9
:10152000300D9A9F300D1124620F731F078CF0A1AC
:10153000E02DE60FF71F4770552721E030E001C08E
:10154000220F4A95EAF780818227B7CF8EBD00002F
:101550000DB407FEFDCF8EB508950895FC016370AC
:10156000668B8481958126813781613039F06330C3
:1015700029F09187808733872287089531872087D4
:101580009387828708952F923F924F925F926F9236
:101590007F928F929F92AF92BF92CF92DF92EF9203
:1015A000FF920F931F93CF93DF93CDB7DEB76A9768
:1015B0000FB6F894DEBF0FBECDBF9A8F898F7A83A6
:1015C00069834A01D22E18870F833701BC2CDC01B6
:1015D00059962D913C915A972115310509F015C165
:1015E00018968D919C911997681779070CF0D7C1BF
:1015F0001A968D919C91481759070CF0D0C14C2C2C
:10160000512CB6E0CB9E600D711D11247C876B8739
:10161000161617060CF0C3C1EA2DF0E0FA87E98729
:1016200093E0EE0FFF1F9A95E1F7F88BEF87CF015C
:10163000840F951F181619060CF0B1C1A98DBA8D2B
:1016400058968C91811104C0BFEABD1508F4D3945B
:10165000A98DBA8DED91FC9111970284F385E02D4F
:10166000CD010995B5E0DB9EC0011124E981FA8125
:10167000FC83EB83312C212C9C0128593F4F388F60
:101680002F8B4A2D50E05E8B4D8BEF89F88DE20D4C
:10169000F31D44919E828D82D12CC12C69817A8167
:1016A000620D731D7A8B698B842F90E09C8B8B8BE2
:1016B000E98DFA8DA081B18140FF82C0F1E0BF12B7
:1016C0006FC0AF126DC01C96ED91FC912F813885D3
:1016D000A4014C0D5D1D69897A89898D9A8D0995C2
:1016E000EB89FC89F595E7954E2F5FEFC51AD50A72
:1016F0006D817E818D899E89680F791F7E836D83C0
:1017000098E0C916D10481F6AFEF2A1A3A0AEB81A4
:10171000FC81E40DF51DFC83EB83F5E02F1631040D
:1017200009F0B3CF2F81388526153705B9F0A98D7B
:10173000BA8DED91FC91B1E0BB1257C0AB1255C010
:1017400069817A816B5F7F4F0088F189E02D830189
:1017500028E030E0A401898D9A8D0995A98DBA8D74
:10176000ED91FC9111970688F789E02DCD016A96DD
:101770000FB6F894DEBF0FBECDBFDF91CF911F91A2
:101780000F91FF90EF90DF90CF90BF90AF909F9020
:101790008F907F906F905F904F903F902F90099423
:1017A0001E96ED91FC91EF80F88409851A859201CF
:1017B0004D815E816B817C81898D9A8D099590CF59
:1017C0002F8138852615370509F48ACF31E0B31209
:1017D00007C0A31205C01C96ED91FC91930178CF30
:1017E0001E96ED91FC917301E0CF6B857C856419A9
:1017F00075090684F785E02D73010F85188992011C
:10180000A401898D9A8D0995A9CFF90134969491F7
:10181000329745915491D91AB7E0DB9E400D511D86
:101820001124F901259134913C8B2B8BFA012590E1
:101830003490FA013296749031963491398B329605
:1018400064903196449041E04C1518F04A1508F028
:101850007FC0662D062C000C770B7C836B83842D58
:10186000042C000C990B9E838D83A98DBA8DED916C
:10187000FC9111970284F385E02DCD010995512C3F
:10188000D12CC12CEA2DF0E0FA87E9872B2D30E02E
:101890003C872B87A401440D511D47FC5A95588F56
:1018A0004F8B69817A81660D711D67FC7A957E8701
:1018B0006D877989C71608F051CF2C2D30E04D8106
:1018C0005E81420F531FA985BA854A9FC0014B9F75
:1018D000900D5A9F900D1124FC01E80DF91DF88B15
:1018E000EF87852D612C4F89588D420F531F5E8BDA
:1018F0004D8B671408F050C044244394480E877001
:1019000041F4C1010196EB89FC89E20DF31DD490ED
:101910001C01D7FE19C0A98DBA8DED91FC91662DE1
:1019200070E0B1E0BB1219C0AB1217C02D853E8527
:10193000620F731F0484F585E02D2F8138854D8952
:101940005E89898D9A8D0995DD0C6394842DD1CFA4
:101950001E821D821C821B8288CF4B815C81640F9A
:10196000751FAB85BC856A9FC0016B9F900D7A9FE8
:10197000900D112469817A81680F791F0684F7859B
:10198000E02DEF80F88409851A859D014F855889DF
:10199000898D9A8D0995D8CF570CC3948ACF6A96B2
:1019A0000FB6F894DEBF0FBECDBFDF91CF911F9170
:1019B0000F91FF90EF90DF90CF90BF90AF909F90EE
:1019C0008F907F906F905F904F903F902F900895F1
:1019D0008F929F92AF92CF92EF92FF920F931F93AD
:1019E000CF93DF93EC01262F898D9A8D009709F014
:1019F00051C06A30D1F41D861C868D8948E0849FD1
:101A0000900111248E859F85820F931F9F878E875B
:101A100081E090E0DF91CF911F910F91FF90EF90C7
:101A2000CF90AF909F908F9008956D3089F3CC88C0
:101A3000AD888F898823C1F08C859D8536E0C39E53
:101A4000800D911D1124488559854817590764F464
:101A50004E855F851D861C8638E0A39EC00111243B
:101A6000840F951F9F878E87EA88FB8808891989CC
:101A70004E855F856C857D85CE010E94C30A2C89C9
:101A80008C859D8546E0249F800D911D11249D87A6
:101A90008C87BECF6A3069F41D861C86FC0138969F
:101AA000E4912D898E859F85E29F800D911D1124E3
:101AB000ADCF6D3009F4ACCFFC013496349163178F
:101AC00008F4A6CF3296E491E61708F4A1CFFC0102
:101AD000329685909490462F431B342F47E0349FD5
:101AE000800C911C1124F401329634913196E491CA
:101AF0003323A9F1EE2399F1CC88F4013596E491D2
:101B0000AD884F89442301F10E2E000CFF0BE30F2B
:101B1000F11DCE9EA001CF9E500D11246C857D85B8
:101B2000460F571F68857985641775076CF44E85D5
:101B30005F851D861C86FC013896E491AE9E400DA3
:101B4000511D11245F874E87EA88FB88088919890F
:101B50004E855F856C857D85CE010E94C30AF401A8
:101B60003496E4912C898C859D85E29F800D911D92
:101B700011248DCF6F927F928F929F92AF92BF92DE
:101B8000CF92DF92EF92FF920F931F93CF93DF9349
:101B9000EC016B015A0139014801E881F9810284A5
:101BA000F385E02D0995E881F9810288F389E02D1C
:101BB00087019301A501B601CE010995A501480D44
:101BC000591D41505109E881F9810288F389E02DBE
:101BD0009301B601CE010995E881F9810088F18968
:101BE000E02D9401A501B601CE010995C60CD71CC4
:101BF000B60161507109E881F9810088F189E02D11
:101C00009401A501CE010995E881F9810688F7893B
:101C1000E02DCE01DF91CF911F910F91FF90EF90BA
:101C2000DF90CF90BF90AF909F908F907F906F90FC
:101C300009946F927F928F929F92AF92BF92CF92B0
:101C4000DF92EF92FF920F931F93CF93DF935C018C
:101C5000EB016A01490138018701DC01ED91FC913A
:101C60006217730719F5641675062CF0962D872DEB
:101C70003A01C92ED82E9601261937092F5F3F4FFA
:101C8000048CF58DE02DA301BE01C5010995DF91FE
:101C9000CF911F910F91FF90EF90DF90CF90BF9069
:101CA000AF909F908F907F906F9008954615570545
:101CB00091F42617370724F0892D4B01C22FD82F16
:101CC0009E01281939092F5F3F4F068CF78DE02DB3
:101CD000A601B401DACF0284F385E02D0995D50180
:101CE000ED91FC910488F589E02D83019401A60112
:101CF000BE01C5010995D501ED91FC910688F789D2
:101D0000E02DC501DF91CF911F910F91FF90EF90D2
:101D1000DF90CF90BF90AF909F908F907F906F900B
:101D20000994EF92FF920F931F93DC011A960D9185
:101D30001C911B9718962D913C911997ED91FC9150
:101D400000A0F1A1E02D7B0150E040E070E060E0F8
:101D500009951F910F91FF90EF9008954F925F9218
:101D60006F927F928F929F92AF92BF92CF92DF92AB
:101D7000EF92FF920F931F93CF93DF936C012B0190
:101D80005A0139014801DC01ED91FC910284F3858F
:101D9000E02D0995E201640C751CD601ED91FC91D2
:101DA000C615D7055CF40088F189E02D8701940100
:101DB000A501BE01C60109952196EFCF0688F789D6
:101DC000E02DC601DF91CF911F910F91FF90EF9011
:101DD000DF90CF90BF90AF909F908F907F906F904B
:101DE0005F904F9009948F929F92AF92BF92CF9243
:101DF000DF92EF92FF920F931F93CF93DF93EC014B
:101E00005B014A016901E881F9810284F385E02DD3
:101E1000099595012C0D3D1D21503109E881F9816D
:101E20000488F589E02D78018401A401B501CE0173
:101E30000995E881F9810688F789E02DCE01DF91C7
:101E4000CF911F910F91FF90EF90DF90CF90BF90B7
:101E5000AF909F908F9009948F929F92AF92BF9274
:101E6000CF92DF92EF92FF920F931F93CF93DF9366
:101E7000EC015B014A0169017801E881F981028482
:101E8000F385E02D0995C80CD91C86010150110974
:101E9000E881F9810488F589E02D9501A401B50157
:101EA000CE010995E881F9810688F789E02DCE01F8
:101EB000DF91CF911F910F91FF90EF90DF90CF9026
:101EC000BF90AF909F908F900994EF92FF920F93E5
:101ED0001F93DC01ED91FC9100A0F1A1E02D09958B
:101EE0001F910F91FF90EF9008950F931F93DC01C6
:101EF000ED91FC91068CF78DE02D09951F910F91C6
:101F000008950F931F93DC01ED91FC91048CF58DE6
:101F1000E02D09951F910F910895DC01ED91FC9141
:101F20000084F185E02D09943F924F925F926F9269
:101F30007F928F929F92AF92BF92CF92DF92EF9259
:101F4000FF920F931F93CF93DF935C017B014A01B4
:101F50006901390187E0680E711C93E075946794FC
:101F60009A95E1F72B01400E511E10E000E0312C54
:101F7000D0E0C0E0CE0187709927330C892B59F44B
:101F8000FE0183E0F595E7958A95E1F7E00FF11FF3
:101F9000E80DF91D349037FE0AC021E030E0A701BA
:101FA000B5016C0F7D1F81E994E00E948D0F219691
:101FB000CC16DD06F9F68FEFE81AF80A060D171DA4
:101FC000E414F504A9F6DF91CF911F910F91FF90D2
:101FD000EF90DF90CF90BF90AF909F908F907F90C9
:101FE0006F905F904F903F9008952F923F924F9245
:101FF0005F926F927F928F929F92AF92BF92CF9299
:10200000DF92EF92FF920F931F93CF93DF9300D055
:1020100000D000D0CDB7DEB73C016A013E832D83EE
:10202000FC82EB825801A41AB50AB7FE03C0B19432
:10203000A194B1088D809E80861A970A97FE03C0EE
:102040009194819491088A149B045CF0902F812FC5
:102050000D811E819D838E839C2D8D2D6B01692F9B
:10206000782F0C151D055CF09D818E817E836D831C
:10207000692F782F902F812F8601C92ED82E160117
:10208000201A310A2B012D813E81421A530A57FE34
:1020900003C0519441945108710137FE03C03FEFD2
:1020A000E31AF30AF594E7948D819E8186179707CA
:1020B0005CF5A1E0B0E0BA83A983C016D1064CF16B
:1020C000D301ED91FC910484F585E02D2B813C81B9
:1020D000A8016D817E818A149B041CF04D815E8174
:1020E000B801C3010995E418F508F7FE0AC02D816F
:1020F0003E8189819A81280F391F3E832D83E20C0E
:10210000F31C0F5F1F4FD9CF2FEF3FEF3A83298387
:10211000D4CF26960FB6F894DEBF0FBECDBFDF91A9
:10212000CF911F910F91FF90EF90DF90CF90BF90D4
:10213000AF909F908F907F906F905F904F903F9067
:102140002F900895089508958CBD9DBD0895209108
:102150001E03260F3327331F21323105ECF4209163
:10216000B203FC0190E080E0243069F082E0089541
:10217000A0911E032191AC0142505D4FA40FB52FD9
:10218000B11D2C930196861798F380911E03680F5A
:1021900060931E0380E0089581E008951092B203D9
:1021A00081E08093B10310928C0361E082E10E9490
:1021B000000661E083E10E940006E9EBF0E0808127
:1021C0008E7F808380818D7F808388E48093B800B8
:1021D00085E48093BC00089510928B0310928A03CB
:1021E0001092B9031092DB030E94CE1088E895E0AC
:1021F000909389038093880389E895E090938703FF
:10220000809386030895CF93DF9391E09093FD022E
:102210008823B9F0C091B800D091BA008091BC0079
:102220008A7B8093BC0060E082E10E94000660E04F
:1022300083E10E9400060E94CE10D093BA00C093A2
:10224000B800DF91CF9108958F929F92AF92BF9285
:10225000CF92DF92EF92FF920F931F93CF93DF9372
:10226000D091DB03D13208F0D7C0182FC091DA0328
:102270000E946A066B017C018091B20381116BC0E0
:1022800082E08093B2031093B1038FEF8093B00389
:102290001092AF03D093AE03AAEBB3E0EEE8F3E005
:1022A00080E0D81391C010928D0380918D03CC0FE4
:1022B000C82BC0938D0380918C03813009F088C0B6
:1022C00010928C030E946A066B017C0180918D0341
:1022D0008093BB008091B4039091B503A091B603A5
:1022E000B091B703892B8A2B8B2BA1F00E946A0631
:1022F0000091B4031091B5032091B6033091B70358
:102300006C197D098E099F090617170728073907D9
:1023100008F442C08091BC0083FDD8CF85EC809347
:10232000BC000E946A066B017C018091B20382307E
:1023300009F450C08091B0038F3F09F46FC08091C1
:10234000B003803209F46CC08091B003803309F48B
:1023500069C084E026C08091B4039091B503A09138
:10236000B603B091B703892B8A2B8B2B09F484CF4A
:102370000E946A068090B4039090B503A090B603C3
:10238000B090B7036C197D098E099F0986169706D0
:10239000A806B90608F070CF8091B3030E9403111C
:1023A00085E01092B9031092DB031092B803DF911D
:1023B000CF911F910F91FF90EF90DF90CF90BF9042
:1023C000AF909F908F9008959D9191938F5F69CF6B
:1023D00085EEA5CF8091B4039091B503A091B6038B
:1023E000B091B703892B8A2B8B2B09F49ECF0E94C7
:1023F0006A060091B4031091B5032091B6033091A1
:10240000B7036C197D098E099F090617170728075E
:10241000390708F08ACFC0CF81E0C3CF80E0C1CFB9
:1024200082E0BFCF83E0BDCFE0918B0380918A0330
:10243000E81730F4F0E0E352FD4F808190E008951A
:102440008FEF9FEF089590918B0380918A032FEF78
:102450003FEF981748F4E92FF0E0E352FD4F208159
:1024600030E09F5F90938B03C901089580918A03A8
:1024700090918B03891B990B0895CF92DF92EF9275
:10248000FF920F931F93CF93DF937C01CB018A01BF
:102490002091B803222389F0EB016B01C40ED51EF5
:1024A000CC15DD0569F06991D701ED91FC910190A2
:1024B000F081E02DC7010995F3CF642F0E94A7108A
:1024C000C801DF91CF911F910F91FF90EF90DF90A6
:1024D000CF900895CF93DF931F92CDB7DEB7698376
:1024E0002091B8032223F9F02091DB03203258F029
:1024F00021E030E0FC013383228390E080E00F9004
:10250000DF91CF9108958091B903E82FF0E0E65470
:10251000FC4F998190838F5F8093B9038093DB0395
:1025200081E090E0ECCF61E0CE0101960E94A7101F
:10253000F7CF81E00C942411EF92FF920F931F9339
:10254000CF937C01C62F8091AE049091AF04892B6C
:1025500009F44EC08091B2040E947E058091AE04C1
:102560009091AF04DC01ED91FC910190F081E02DA0
:1025700060E009958701EE24E394F12CC15080912D
:10258000AE049091AF04CF3F61F1B0E2EB16F104DD
:10259000A8F00E9499128091B2040E947E05809159
:1025A000AE049091AF04DC01ED91FC910190F081BB
:1025B000E02D60E00995EE24E394F12C8091AE04C7
:1025C0009091AF04F8016491DC01ED91FC910190D0
:1025D000F081E02D0995BFEFEB1AFB0A0F5F1F4F4B
:1025E000CDCFCF911F910F91FF90EF900C94991246
:1025F000E091BE04F091BF0490818091C404809565
:10260000892380838701C15008F438C0F801849180
:102610002091AC043091AD04232B29F00E94A60A2E
:102620000F5F1F4FF0CF28E030E040E8E091BA04A0
:10263000F091BB049091C204582F5423D9F05081DB
:10264000952B9083E091BC04F091BD049081509152
:10265000C304952B9083E091BC04F091BD0450819C
:102660009091C3049095952390834695215031090C
:10267000E9F6D6CF508190959523E3CFCF911F9166
:102680000F91FF90EF900895CF93C82F88E20E949A
:102690007E0560E085E894E00E946A126C2F85E870
:1026A00094E00E946A1285E894E0CF910C9499120C
:1026B0001F93CF93DF93EC018D8D9E8D892BF9F0C5
:1026C000162F89A10E947E058D8D9E8DDC01ED91D6
:1026D000FC910190F081E02D60E009958D8D9E8D3B
:1026E000DC01ED91FC910190F081E02D612F0995C5
:1026F0008D8D9E8DDF91CF911F910C949912ADA578
:10270000BEA59C918BA9809589238C938B8D9C8DE4
:10271000892B31F0862FDF91CF911F910C94A60A5F
:1027200028E030E080E8A9A5BAA599A9462F48235A
:10273000C1F04C91942B9C93ABA5BCA59C914AA94C
:10274000942B9C93ABA5BCA54C919AA990959423EE
:102750009C9386952150310931F7DF91CF911F91DC
:1027600008954C9190959423E6CFEF92FF920F93AA
:102770001F93CF93DF938091AE049091AF04892B88
:1027800009F48DC02091C6043091C7044091C8045B
:102790005091C90460E074E284EF90E00E94172633
:1027A000205131094109510956954795379527958B
:1027B0002093B80065E08EE99AE00E949C12609137
:1027C0009504615081E994E00E9458132091970488
:1027D00030919804C901079697FD079633E09595C7
:1027E00087953A95E1F72091950430919604829F60
:1027F0008001839F100D929F100D1124C091B00491
:10280000D091B1048091AE049091AF040C0F1D1FC4
:10281000892B09F483C08091B2040E947E058091C7
:10282000AE049091AF04DC01ED91FC910190F08138
:10283000E02D60E40995EE24E394F12C8091AE0440
:102840009091AF040C171D0709F440C0B0E2EB16DD
:10285000F104A8F00E9499128091B2040E947E05B2
:102860008091AE049091AF04DC01ED91FC91019058
:10287000F081E02D60E40995EE24E394F12C809141
:10288000AE049091AF046991DC01ED91FC9101904F
:10289000F081E02D0995BFEFEB1AFB0ACFCF8091B5
:1028A000AC049091AD04892B31F08091CF049091CC
:1028B000D0040E94A410E091C004F091C104908162
:1028C0008091C50480958923808374CF0E949912DA
:1028D0008091AE049091AF04892B09F460C02091DF
:1028E000CA043091CB044091CC045091CD0460E0F7
:1028F00074E284EF90E00E941726205131094109CB
:10290000510956954795379527952093B800DF9143
:10291000CF911F910F91FF90EF900895E091BE0429
:10292000F091BF0480819091C404892B80830C179F
:102930001D0771F289912091AC043091AD04232BD5
:1029400019F00E94A60AF3CF28E030E040E8E091B9
:10295000BA04F091BB049091C204582F5423D9F0CB
:102960005081952B9083E091BC04F091BD0490813F
:102970005091C304952B9083E091BC04F091BD0469
:1029800050819091C3049095952390834695215052
:102990003109E9F6CCCF508190959523E3CFE091B2
:1029A000C004F091C10480819091C504892B80837B
:1029B000AECF1F93CF93DF93EC01162F8D8D9E8D9D
:1029C000892BB1F12DA93EA94FA958AD60E074E261
:1029D00084EF90E00E9417262051310941095109E6
:1029E00056954795379527952093B80066EA1111BB
:1029F00067EACE010E9458138D8D9E8D892B41F17F
:102A000029AD3AAD4BAD5CAD60E074E284EF90E08F
:102A10000E941726205131094109510956954795C1
:102A2000379527952093B800DF91CF911F91089596
:102A30008B8D9C8D892B21F08EAD9FAD0E94A410B3
:102A4000EFA5F8A990818CA9809589238083CECFAA
:102A5000EFA5F8A980819CA9892B8083E5CFCF932E
:102A6000DF93EC018B81882371F088810E947E05C1
:102A700089819A810E94991291E0811190E0892FB9
:102A8000DF91CF9108950E94EC1081E08B83CE01FD
:102A90000E942F15982F8111E8CFF1CF90E080E0B0
:102AA00008952091970430919804C901079697FDE5
:102AB000079623E0959587952A95E1F7209195044F
:102AC00030919604829FA001839F500D929F500DDC
:102AD000112470E060E08091B0049091B1040C94F6
:102AE000BB290E94B629FB0101900020E9F731972C
:102AF000AF01461B570BDC01ED91FC910280F38185
:102B0000E02D09948F929F92AF92BF920F931F93E3
:102B1000CF93DF93CDB7DEB7A1970FB6F894DEBFA2
:102B20000FBECDBF19A2423008F44AE08E010F5DFE
:102B30001F4F842E912CB12CA12CA50194010E9431
:102B40001726E62FB901CA01EA3004F5E05DD80185
:102B5000EE938D01232B242B252B79F790E080E039
:102B6000109729F0BD0181E994E00E947315A196A8
:102B70000FB6F894DEBF0FBECDBFDF91CF911F918E
:102B80000F91BF90AF909F908F900895E95CDFCF39
:102B90004F925F926F927F928F929F92AF92BF926D
:102BA000CF92DF92EF92FF920F931F93CF936B011F
:102BB0007C01742EAC019B010E94862862E971E0C1
:102BC000811126C046015701E894B7F82FEF3FEF77
:102BD0004FE75FE7C501B4010E94862881110CC050
:102BE0002FEF3FEF4FE75FE7C501B4010E94B52625
:102BF00066E971E0181664F02FEF3FEF4FE75FE4EE
:102C0000C701B6010E9414281816ACF46AE971E0F5
:102C100081E994E0CF911F910F91FF90EF90DF90A9
:102C2000CF90BF90AF909F908F907F906F905F906C
:102C30004F900C9473152FEF3FEF4FE75FECC701F8
:102C4000B6010E94B52687FDE1CF20E030E0A90162
:102C5000C701B6010E94B52610E000E087FF0AC058
:102C60006DE281E994E00E943C078C01F7FAF09450
:102C7000F7F8F094C0E060E070E080E09FE37C163D
:102C800041F020E030E040E251E40E94BA26CF5FFC
:102C9000F6CFA70196010E9449262B013C010E9414
:102CA00033274B015C014AE00E9482157C01E00E53
:102CB000F11ECC23C1F1C501B4010E9462279B0122
:102CC000AC01C301B2010E9448264B015C016EE2D7
:102CD00081E994E00E943C07E80EF91EC15018F10A
:102CE00020E030E040E251E4C501B4010E9419281F
:102CF0002B013C010E9433274B01B12CA12C4AE04F
:102D0000C501B4010E948215E80EF91EC501B40187
:102D10000E9462279B01AC01C301B2010E944826B8
:102D20004B015C01DBCFC701CF911F910F91FF9049
:102D3000EF90DF90CF90BF90AF909F908F907F905B
:102D40006F905F904F9008950F931F93CF93DF93F1
:102D5000EC010E9473158C016EE971E0CE010E94B6
:102D60007315800F911FDF91CF911F910F910895DF
:102D700061EA71E08CED93E00C94A4160C94731549
:102D800085ED8093BC008091B4039091B503A09130
:102D9000B603B091B7030796A11DB11D23E0B69508
:102DA000A795979587952A95D1F72091BC0024FD8A
:102DB00003C01092B20308954091B4035091B5033B
:102DC0006091B6037091B703452B462B472B69F3EF
:102DD0000097A105B10541F02AE22A95F1F700C05C
:102DE0000197A109B109E1CF8091B3030C940311BC
:102DF0001F920F920FB60F9211242F933F938F9330
:102E00009F93AF93BF9380917E0390917F03A09196
:102E10008003B091810330917D0323E0230F2D3790
:102E200058F50196A11DB11D20937D0380937E036B
:102E300090937F03A0938003B093810380918203DA
:102E400090918303A0918403B09185030196A11D05
:102E5000B11D8093820390938303A0938403B09366
:102E60008503BF91AF919F918F913F912F910F90CB
:102E70000FBE0F901F90189526E8230F0296A11DF4
:102E8000B11DD2CF1F920F920FB60F9211242F9324
:102E90003F934F935F936F937F938F939F93AF93E2
:102EA000BF93EF93FF93E0910201F0910301099525
:102EB000FF91EF91BF91AF919F918F917F916F9112
:102EC0005F914F913F912F910F900FBE0F901F90E8
:102ED00018951F920F920FB60F9211242F933F93C4
:102EE0004F935F936F937F938F939F93AF93BF9312
:102EF000EF93FF93E0910001F09101010995FF919B
:102F0000EF91BF91AF919F918F917F916F915F9161
:102F10004F913F912F910F900FBE0F901F901895DA
:102F20001F920F920FB60F9211242F933F934F933E
:102F30005F936F937F938F939F93AF93BF93EF9321
:102F4000FF938CED93E00E94C107FF91EF91BF9139
:102F5000AF919F918F917F916F915F914F913F9131
:102F60002F910F900FBE0F901F9018951F920F92E8
:102F70000FB60F9211242F938F939F93EF93FF938C
:102F8000E091EC03F091ED038081E091F203F09188
:102F9000F30382FD1BC090818091F5038F5F8F73D7
:102FA0002091F603821741F0E091F503F0E0E4523E
:102FB000FC4F958F8093F503FF91EF919F918F9137
:102FC0002F910F900FBE0F901F9018958081F4CF16
:102FD0001F920F920FB60F9211242F933F934F938E
:102FE0005F936F937F938F939F93AF93BF93EF9371
:102FF000FF938091B900887F803609F44AC0F0F5CC
:10300000883209F4A7C018F5803109F49BC0B8F4E0
:10301000882309F4F9C0883009F494C0FF91EF9136
:10302000BF91AF919F918F917F916F915F914F91E0
:103030003F912F910F900FBE0F901F9018958831E0
:1030400009F488C0803251F78093B00314C08034F3
:1030500009F49DC040F48033B9F38833F9F68093C6
:10306000B00385ECB0C0803509F485C0883509F41B
:1030700096C0883499F60E94C016D0CF883909F4DA
:103080008CC038F5883729F050F4883611F0803735
:1030900029F683E08093B2031092400357C088382A
:1030A00009F47BC0803919F0803809F0B7CF8091DE
:1030B0004003803208F071C0E091400381E08E0F40
:1030C000809340038091BB00F0E0E05EFC4F808382
:1030D0003DC0803B39F0E0F4803A09F479C0883A89
:1030E00009F09CCF84E08093B20310921F031092EA
:1030F0001E03E0918803F0918903099580911E03D6
:1031000081110FC081E080931E031092FE0209C05E
:10311000803C09F4A6CF883C09F4A3CF883B09F092
:103120007DCFE0911F0381E08E0F80931F03F0E0BD
:10313000E250FD4F80818093BB0090911F038091EE
:103140001E0329C080918D038093BB0085EC809382
:10315000BC0064CF9091AF038091AE03981758F5EF
:10316000E091AF0381E08E0F8093AF03F0E0E25770
:10317000FC4F8081E9CFE091AF0381E08E0F809317
:10318000AF038091BB00F0E0E257FC4F8083909149
:10319000AF038091AE039817C8F285E8D8CFE091CD
:1031A000AF0381E08E0F8093AF038091BB00F0E00E
:1031B000E257FC4F80838091B10381115CCF81E0A5
:1031C00080938C0384EA8093BC001092B20326CFD4
:1031D00085EC8093BC001092B20380914003803252
:1031E00030F4E0914003F0E0E05EFC4F108260912B
:1031F000400370E0E0918603F091870380E293E062
:103200000995109240030ACF1092B00334CF109268
:10321000DF031092DE0388EE93E0A0E0B0E080933D
:10322000E0039093E103A093E203B093E3032CE364
:1032300031E03093DD032093DC0325EC30E0309364
:10324000E9032093E80324EC30E03093EB03209370
:10325000EA0320EC30E03093ED032093EC0321EC03
:1032600030E03093EF032093EE0322EC30E0309314
:10327000F1032093F00326EC30E03093F303209326
:10328000F2031092F5031092F6031092F7031092D6
:10329000F803109288041092870480938904909315
:1032A0008A04A0938B04B0938C048EE491E09093F5
:1032B0008604809385041092D3041092D704109250
:1032C000D6041092D8048CE891E09093D2048093B5
:1032D000D104EDEEF4E0108214821382158236964A
:1032E00085E0E932F807B9F78EE191E09093340573
:1032F000809333058AE191E09093360580933505FC
:1033000084E0809337058093380582E291E09093C2
:103310003205809331058AE090E090933A058093DE
:10332000390584EF91E090933C0580933B05109222
:103330003F0510923E0510922D0510922E05109219
:103340002F051092300510923D05109294041092B2
:10335000930420E830E0309396042093950480E2B3
:1033600090E0909398048093970430939A0420936C
:10337000990490939C0480939B041092A70410924C
:103380009E0410929D041092A00410929F0481E06C
:103390008093A6048093A5044FEF5FEF5093A4049D
:1033A0004093A3045093A2044093A1048093A804E3
:1033B0001092A9041092AB041092AA0480E691E046
:1033C00090939204809391041092AD041092AC04F7
:1033D00085E894E09093AF048093AE041092B1041A
:1033E0001092B0048FEF8093B5048093B60480935D
:1033F000B7048093B8048093B90480E89AE1A6E00A
:10340000B0E08093C6049093C704A093C804B0931F
:10341000C90480EA96E8A1E0B0E08093CA049093E2
:10342000CB04A093CC04B093CD0480E58093CF046B
:103430001092D00410927D0410927F0410927E04AA
:10344000309381042093800410927A0410927904BE
:103450000895CF93DF9300D01F92CDB7DEB7789455
:1034600084B5826084BD84B5816084BD85B5826089
:1034700085BD85B5816085BD80916E00816080933A
:103480006E001092810080918100826080938100A3
:1034900080918100816080938100809180008160B3
:1034A000809380008091B10084608093B10080910E
:1034B000B00081608093B00080917A008460809336
:1034C0007A0080917A00826080937A0080917A00FD
:1034D000816080937A0080917A00806880937A007E
:1034E0001092C100E091EC03F091ED0382E0808343
:1034F000E091E803F091E9031082E091EA03F09192
:10350000EB0380E180831092F403E091F003F091EB
:10351000F10386E08083E091EE03F091EF03808178
:1035200080618083E091EE03F091EF0380818860F9
:103530008083E091EE03F091EF03808180688083C7
:10354000E091EE03F091EF0380818F7D80830E94F4
:10355000EC1060E08CE00E942E0660E08DE00E949E
:103560002E0662E08EE00E942E068CE00E94D705B7
:1035700060E08FE00E942E0660E080E10E942E064F
:1035800062E081E10E942E068FE00E94D7050E9432
:10359000EC108091B0049091B104892B11F10E943C
:1035A0005115209197043091980480919504909141
:1035B0009604213231050CF04BC0B90160527109FB
:1035C00077FF02C06F5F7F4F7595679583579109AD
:1035D00097FD019600E210E023E730E04AE855E06D
:1035E0004AC02091970430919804C901079697FD2D
:1035F0000796B3E095958795BA95E1F720919504E4
:10360000309196045C01A29EC001A39E900DB29ED3
:10361000900D11240E9491289093B1048093B004DE
:10362000892B09F0BCCF0AE21AE0F8016491662305
:1036300041F08CED93E00E94E3070F5F1F4F892B51
:10364000A1F76EE971E08CED93E00E947315FFCF56
:10365000B9016054710977FF02C06F5F7F4F7595A4
:1036600067958255910997FD019600E410E022E5E7
:1036700030E04AE657E0959587950E94940F82E0E6
:103680008093B3048091AE049091AF04892B09F428
:10369000F0C18CE38093B2040E94EC108091B904D5
:1036A00087FD1EC061E00E942E0661E08091B90492
:1036B0000E94000661E070E080E090E00E948F06CA
:1036C00060E08091B9040E9400066AE070E080E04A
:1036D00090E00E948F0661E08091B9040E9400068C
:1036E0008091AE049091AF04892B09F481C220919E
:1036F000C6043091C7044091C8045091C90460E0E9
:1037000074E284EF90E00E941726205131094109AC
:10371000510956954795379527952093B80064E051
:1037200086E895E00E949C1260919704615081E9BF
:1037300094E00E94581364E082E895E00E949C1295
:103740008091B30460E1813009F064E181E994E0A3
:103750000E94581364E08EE795E00E949C128FE867
:103760008093CE04809195049091960480389105C1
:1037700009F057C280919704909198048034910584
:1037800009F05FC28091B304813009F048C28FE92B
:103790008093CE0412E16AED81E994E00E9458130F
:1037A000612F81E994E00E94581361E881E994E077
:1037B0000E9458136091CE0481E994E00E9458134E
:1037C00069ED81E994E00E9458138091B30462E2AC
:1037D000813009F061EF81E994E00E94581366E0BE
:1037E00088E795E00E949C128091AE049091AF040E
:1037F000892B09F42AC22091CA043091CB0440914C
:10380000CC045091CD0460E074E284EF90E00E941B
:103810001726205131094109510956954795379589
:1038200027952093B8000E945115FF24F394F0923D
:10383000A504F092A60481E090E09093A404809304
:10384000A3049093A2048093A10410929E0410926A
:103850009D041092A00410929F0467EA71E081E930
:1038600094E00E94A41610929E0410929D048AE097
:1038700090E09093A00480939F0464EB71E081E951
:1038800094E00E94A4160E94B51364E670E080E004
:1038900090E00E948F0686E090E00E9491288C01C3
:1038A00088E4D8018C9385E894E012969C938E93DB
:1038B000119713961C92139780E290E015969C93B3
:1038C0008E93149710937C0400937B040E94EC1059
:1038D000F801F382C8010E942F158091790490911C
:1038E0007A04009711F00E942D2986E090E00E9452
:1038F00091288C0180E6D8018C9385E894E012969B
:103900009C938E93119713961C92139780E290E0EC
:1039100015969C938E93149710937A0400937904D0
:103920000E94EC1081E0F8018383C8010E942F15EA
:1039300080EE90E0909381048093800481E00E9467
:10394000441361E082E00E942E0660E083E00E9462
:103950002E0684E397E09093030180930201809107
:103960006900837F886080936900E99A0E94B81695
:1039700080E090E0A0E7B1E4809365039093660354
:10398000A0936703B093680380E090E0A0E8BFE3F2
:103990008093040190930501A0930601B093070161
:1039A0001092B9008CE08093B80080E489831A8279
:1039B0001B820091790410917A04D80114968D919C
:1039C0009C9115970397F0F08C910E947E05F80169
:1039D00081819281DC01ED91FC910280F381E02DE7
:1039E00043E050E0BE016F5F7F4F0995039751F4AC
:1039F00081E00E942411811105C01092B90088E471
:103A00008093B800EE24E394F12C36E0232E312C81
:103A100081E080933D050E94C10600912D05109123
:103A20002E0520912F0530913005AB01BC01401BC4
:103A3000510B620B730B8091390590913A05B0E000
:103A4000A0E084179507A607B70708F04BC210E05F
:103A500080913705181708F002C1E0913305F09105
:103A60003405E10FF11D62E080810E942E061F5F88
:103A7000EFCF61E08091B7040E942E0661E0809153
:103A8000B8040E942E068091B704082E000C990BF2
:103A9000FC01EE59F54FE491F0E0EE0FFF1FE25B01
:103AA000F54F259134913093BF042093BE04FC015F
:103AB000EA58F54FE491E093C4048091B804082ECD
:103AC000000C990BFC01EE59F54FE491F0E0EE0F7C
:103AD000FF1FE25BF54FA591B491B093C104A09391
:103AE000C004FC01EA58F54FE491E093C5048C91C1
:103AF000E82BEC938091AC049091AD04892B09F4F0
:103B000034C01FB7F89480914103811127C0ECE6BF
:103B1000FAE08491E0E8FAE09491E82FF0E0EE0F0B
:103B2000FF1FEC5BF54FA591B491EC91E92321F4D3
:103B300061E08AE00E94000661E08AE00E942E06B1
:103B40008CB580618CBD8CB580648CBD61E08DE0EE
:103B50000E942E0661E08BE00E942E0680914103B8
:103B60008F5F809341031FBF99CD61E08091B504C1
:103B70000E942E0661E08091B6040E942E0680917C
:103B8000B504082E000C990BFC01EE59F54FE49199
:103B9000F0E0EE0FFF1FE25BF54F2591349130937B
:103BA000BB042093BA04FC01EA58F54FE491E0937A
:103BB000C2048091B604082E000C990BFC01EE594A
:103BC000F54FE491F0E0EE0FFF1FE25BF54FA5919A
:103BD000B491B093BD04A093BC04FC01EA58F54F26
:103BE000E491E093C3048C91E095E823EC9356CDE7
:103BF0008091AC049091AD04892B31F08091CF0479
:103C00009091D0040E94A410E091C004F091C104EE
:103C100090818091C50480958923808380CD8FEC2D
:103C2000B7CD8036910569F48091970490919804FE
:103C3000409739F48091B304813029F480E1809376
:103C4000CE0412E0A8CD8FEAFACFE091C004F09143
:103C5000C10480819091C504892B8083E4CD712CAF
:103C600080913805781608F063C0C72CD12CE091FC
:103C70003505F0913605EC0DFD1D61E080810E9457
:103C80002E06E0913505F0913605EC0DFD1D60E046
:103C900080810E94000681E090E0A0E0B0E0072C67
:103CA00004C0880F991FAA1FBB1F0A94D2F74C01AA
:103CB0005C01A094B094612C80913705681608F5DA
:103CC000062D10E0E0913305F0913405E00FF11F6F
:103CD00080810E94D7050C5F1F4F000F111FF80154
:103CE000EF52FB4F892B41F48081918188299929DA
:103CF000918380836394E0CF808191818A219B218D
:103D0000F7CFE0913505F0913605EC0DFD1D61E032
:103D100080810E9400068091350590913605C80E7D
:103D2000D91E60E0F60180810E942E06739498CF20
:103D300011EDC12E14E0D12EF601878D90A1892BB3
:103D400039F4148EAA24AA94BA2CB68EA58E11A288
:103D5000369645E0ED30F40781F7B12C80913705B8
:103D6000B81608F051C0A12C0B2D10E0000F111F48
:103D700007521B4F20913805A21608F043C0D80106
:103D80006D917C910A2C02C0769567950A94E2F7B2
:103D9000B29E900111242A0D311DE1EDF4E080E086
:103DA000458D568D2417350709F4EEC68F5F36967C
:103DB0008A30B1F760FF24C0E1EDF4E090E080E0EC
:103DC000448D411118C0E0913105F0913205E20FA8
:103DD000F31F4081B6E0B89FF001B99FF00D1124A8
:103DE000EF52FB4F448F368F258F10A2178E61E064
:103DF0000E94CD0605C0019636968A30910501F7DE
:103E0000A394B8CFB394AACF10E0F60181A1811199
:103E1000182FF6E0CF0ED11C4DE0C41645E0D406B5
:103E2000A1F70E94C10660932D0570932E05809323
:103E30002F0590933005112309F454C08091F204AA
:103E4000882309F44FC08091F0049091F104019708
:103E500009F048C06091ED0460936103611147C0AF
:103E60000E94C1060091790310917A0320917B038F
:103E700030917C035B016C01A01AB10AC20AD30A1B
:103E800096018501083E13402105310508F4E9C378
:103E90006093790370937A0380937B0390937C0300
:103EA0000E94511581E08093A5048093A604F092AE
:103EB000A404E092A304F092A204E092A104E09191
:103EC0007703F0917803E730F10508F0C8C3E559AE
:103ED000F04E0C948B28C5225023A923E5234324BC
:103EE0007D245C2510923D0510926103B9CF8CEDC5
:103EF00093E00E943C076EE971E08CED93E00E9434
:103F0000731560916103062F062E000C110B809132
:103F10006003882309F4DDC09801205331092A3059
:103F2000310508F0D6C0C0901401D090150156E0BC
:103F3000C516D10409F017C18091750390917603DD
:103F40008430910574F4AC014F5F5F4F509376035A
:103F500040937503880F991FFC01E359FC4F31838F
:103F600020838091750390917603049709F0B1C086
:103F700010927603109275031092600360916F03A4
:103F800070917003072E000C880B990B0E94642718
:103F90002DEC3CEC4CEC5DE30E9419284B015C01DC
:103FA00060916D0370916E03072E000C880B990BC6
:103FB0000E9464279B01AC01C501B4010E944926FF
:103FC0004B015C016091710370917203072E000C2C
:103FD000880B990B0E9464272AE037ED43E25CE3EB
:103FE0000E9419289B01AC01C501B4010E94492619
:103FF0004B015C016091730370917403072E000CF8
:10400000880B990B0E9464272FE632E143E85AE3BC
:104010000E9419289B01AC01C501B4010E944926E8
:104020004B015C0120E030E040E450E40E94B52602
:1040300018160CF48BC020E030E0A901C501B401D2
:104040000E94142818160CF081C010927803109268
:1040500077038092160190921701A0921801B092F6
:104060001901F0921501E092140120E030E04AE7D6
:1040700054E4C501B4010E9419280E942C279B0119
:10408000770F440B550B2150310941095109A2E02A
:10409000BFEF0E94122627EB3BE040E050E00E9479
:1040A000E52521503F4F4F4F5F4F2F3F310519F00E
:1040B00014F02FEF30E01216130614F021E030E078
:1040C000822F0E9444136FEB71E08CED93E00E940D
:1040D000BE160134110509F01AC280917703909140
:1040E0007803892B09F0DBC180916003811152C5EF
:1040F00081E08093600330927803209277033092BE
:1041000015012092140180916103833209F0A8CE39
:104110008091770390917803892B09F4A1CE61E017
:1041200082E00E9400068091140190911501823076
:10413000910539F08330910521F08130910509F026
:104140008FCE90936403809363038ACE84E090E0E3
:104150009093780380937703309215012092140195
:104160006BEC71E0B2CF80915E0390915F03AC0184
:104170004F5F5F4FFC01A3E0CA16D10409F4F1C000
:10418000843091050CF0E2C0E15FFE4F6083880F40
:10419000991FFC01E25BFC4F3183208350935F0346
:1041A00040935E034830510509F093CF10926003AD
:1041B00080914E0390914F032AE0289FB001299FE0
:1041C000700D11248091500390915103680F791F55
:1041D000072E000C880B990B0E9464274B015C0191
:1041E0006091520370915303072E000C880B990BBA
:1041F0000E9464272DEC3CEC4CEC5DE30E941928F6
:104200009B01AC01C501B4010E9449264B015C0130
:104210006091540370915503072E000C880B990B85
:104220000E9464272AE037ED43E25CE30E941928EC
:104230009B01AC01C501B4010E9449262B013C0140
:104240006091580370915903072E000C880B990B4D
:104250000E9464272DEC3CEC4CEC5DE30E94192895
:104260004B015C016091560370915703072E000CBF
:10427000880B990B0E9464279B01AC01C501B40116
:104280000E9449264B015C0160915A0370915B03C7
:10429000072E000C880B990B0E9464272AE037ED4B
:1042A00043E25CE30E9419289B01AC01C501B40103
:1042B0000E9449264B015C0160915C0370915D0393
:1042C000072E000C880B990B0E9464272FE632E121
:1042D00043E85AE30E9419289B01AC01C501B401CF
:1042E0000E9449264B015C0120E030E040EF51E4A0
:1042F000C301B2010E94B52618165CF120E030E03F
:1043000040E450E4C501B4010E94B52618160CF132
:10431000409265035092660360926703709268034F
:104320008092040190920501A0920601B0920701CB
:10433000B1E0CB16D10429F0E2E0CE16D10409F0A9
:10434000C8CED0927803C0927703C3CEEA5FFE4F07
:104350001DCF74E0A72EB12CB0927803A092770302
:10436000B8CE843091050CF092C0E15FFE4F6083BF
:10437000880F991FFC01EE5BFC4F31832083509323
:104380005F0340935E034630510509F0A2CE1092C0
:10439000600380914203909143033AE0D32ED89E6C
:1043A000B001D99E700D1124809144039091450372
:1043B000680F791F072E000C880B990B0E94642749
:1043C0004B015C016091460370914703072E000C7E
:1043D000880B990B0E9464272DEC3CEC4CEC5DE3C0
:1043E0000E9419289B01AC01C501B4010E94492615
:1043F0004B015C016091480370914903072E000C4A
:10440000880B990B0E9464272AE037ED43E25CE3B6
:104410000E9419289B01AC01C501B4010E944926E4
:104420004B015C0120E030E040EF51E40E94B526F2
:1044300018160CF48ECF20914A0330914B03D29E74
:10444000C001D39E900D112420914C0330914D0357
:10445000820F931F97FD7DCF809265039092660334
:10446000A0926703B09268038092690390926A03F6
:10447000A0926B03B0926C039093090180930801A2
:1044800083E090E0909378038093770322CE349773
:10449000329708F074CFFC01EA5FFE4F68CF81E0ED
:1044A0008093600325E0C22ED12CD0927803C09275
:1044B000770380911401909115018230910501F1EB
:1044C0008330910511F0019721F410925F0310924F
:1044D0005E0345E050E060E270E08FE091E00E9412
:1044E000BB2945E050E060E270E08AE091E00E9484
:1044F000BB2980E1AEE4B3E01D928A95E9F703CED3
:1045000044E050E050935F0340935E03E2CF0234F7
:104510001105C9F48091770390917803892B09F0F4
:10452000F2CD80911401909115010196843091058E
:104530002CF49093150180931401E5CDF0921501B0
:10454000E0921401E0CD0334110509F01FC38091FE
:104550001401909115019093780380937703D3CD44
:104560008091770390917803892B31F41092640342
:10457000109263030E94B81610927803109277038A
:10458000C2CD81E080936203BECD10929E04109252
:104590009D041092A00410929F04809114019091A8
:1045A0001501019731F46AED71E081E994E00E9410
:1045B000BE166DED71E081E994E00E94A4161092A0
:1045C0009E0410929D048AE090E09093A004809352
:1045D0009F048091140190911501029731F46AEDC6
:1045E00071E081E994E00E94BE1668EE71E081E915
:1045F00094E00E94A41610929E0410929D0484E1FF
:1046000090E09093A00480939F0480911401909176
:104610001501039731F46AED71E081E994E00E949D
:10462000BE1665EF71E081E994E00E94BE168091AC
:104630006303909164038130910561F1FCF460E0C3
:1046400072E0892B11F1809162036EE072E08111BA
:1046500002C064E172E081E994E00E94BE160E940B
:10466000B51380E090E0892B09F4D2C90E94AD0710
:10467000882309F4CAC90E940000C7C98230910585
:1046800061F06BE072E00397F1F681E994E00E943B
:10469000BE16D9CF65E072E0F8CF68E072E0F5CFE2
:1046A00010929E0410929D041092A00410929F04F8
:1046B00069E172E081E994E00E94BE1643E060E0A7
:1046C00070E0CB010E94C81563E572E081E994E0D7
:1046D0000E94BE1660916503709166038091670326
:1046E0009091680342E00E94C81510929E041092B7
:1046F0009D048AE090E09093A00480939F046FE172
:1047000072E081E994E00E94BE1643E060E070E050
:10471000CB010E94C81563E572E081E994E00E9434
:10472000BE1660910401709105018091060190917F
:10473000070142E00E94C81510929E0410929D0449
:1047400084E190E09093A00480939F0465E272E07E
:1047500082CF10929E0410929D041092A004109299
:104760009F0462E372E081E994E00E94BE1643E098
:1047700060E070E0CB010E94C81510929E04109278
:104780009D048AE090E09093A00480939F0468E3E6
:1047900072E081E994E00E94BE166091040170917C
:1047A0000501809106019091070142E00E94C81521
:1047B00010929E0410929D0484E190E09093A004D6
:1047C00080939F0462E472E046CF10929E041092A0
:1047D0009D041092A00410929F0469E172E081E9A7
:1047E00094E00E94BE1643E060E070E0CB010E94BE
:1047F000C81561E572E081E994E00E94BE166091FF
:10480000690370916A0380916B0390916C0342E09D
:104810000E94C81510929E0410929D048AE090E0B8
:104820009093A00480939F0467E572E081E994E08F
:104830000E94BE168090080190900901092C000C7E
:10484000AA08BB084AE0C501B401B7FE0DC06DE27D
:1048500081E994E00E943C0766277727CB0168191D
:1048600079098A099B094AE00E94821510929E04E8
:1048700010929D0484E190E09093A00480939F04A3
:1048800062E672E0E8CE10929E0410929D041092AF
:10489000A00410929F046DE672E081E994E00E940A
:1048A000A41610929E0410929D048AE090E09093CA
:1048B000A00480939F046EE772E081E994E00E9477
:1048C000A41680911401909115018230910539F060
:1048D0008630910549F08130910509F0C0CE909362
:1048E000780380937703BBCE1092780310927703FE
:1048F000F0921501E0921401B2CE0E94511581E0B0
:104900008093A5048093A604F092A404E092A304EB
:10491000F092A204E092A10410929E0410929D04D1
:104920001092A00410929F0480911401909115019F
:104930008230910509F466C08330910509F479C08D
:10494000019709F08CCE68E872E081E994E00E945A
:10495000BE1660910F0181E994E00E943C076091CE
:10496000100181E994E00E943C0762E972E081E96C
:1049700094E00E94BE166091110181E994E00E94CA
:104980003C076091120181E994E00E943C0710927B
:104990009E0410929D048AE090E09093A00480937E
:1049A0009F0464E972E081E994E00E94BE16609180
:1049B0000A0181E994E00E943C0762E972E081E922
:1049C00094E00E94BE1660910B0181E994E00E9480
:1049D0003C0760910C0181E994E00E943C076091E2
:1049E0000D0181E994E00E943C0710929E04109210
:1049F0009D0484E190E09093A00480939F0460EA7A
:104A000072E029CE61EB72E081E994E00E94BE166B
:104A10009AE0C92E91E0D92E0EE011E0D6016D91F9
:104A20006D0181E994E00E943C070C151D05B1F76A
:104A300016CE68E872E081E994E00E94BE166091AB
:104A40000F0181E994E00E943C076091100181E927
:104A500094E00E943C0762E972E081E994E00E94E0
:104A6000BE166091110181E994E00E943C076091BB
:104A7000120181E994E00E943C0710929E0410927A
:104A80009D048AE090E09093A00480939F0461ECE1
:104A900072E081E994E00E94BE1660910A0181E90A
:104AA00094E00E943C0760910B0181E994E00E9430
:104AB0003C076AEC72E0CFCD0E94511581E08093F3
:104AC000A5048093A60410929E0410929D04109257
:104AD000A00410929F0461EB72E081E994E00E94CF
:104AE000BE168DE6C82E83E0D82E10E000E080913F
:104AF0007503909176030817190744F5F601819024
:104B000091906F01092C000CAA08BB084AE0C5016E
:104B1000B401B7FE0DC06DE281E994E00E943C074C
:104B200066277727CB01681979098A099B094AE02A
:104B30000E9482150115110531F462E972E081E9E4
:104B400094E00E94BE160F5F1F4FD1CF10929E04BB
:104B500010929D048AE090E09093A00480939F04BB
:104B60006DEC72E081E994E00E94BE16609116013E
:104B700070911701809118019091190142E00E94F3
:104B8000C8150E94B5136BCD617032C9043411058C
:104B900009F4E6CC0A32110509F0B5CA8091620326
:104BA000882309F4EECC10926203ADCA80E691E04E
:104BB00090939204809391048091B0049091B104F9
:104BC000009711F00C942D290895052E97FB1EF4E3
:104BD00000940E94FC2557FD07D00E94172607FC71
:104BE00003D04EF40C94FC255095409530952195BA
:104BF0003F4F4F4F5F4F0895909580957095619509
:104C00007F4F8F4F9F4F08950E943926A59F900D8B
:104C1000B49F900DA49F800D911D11240895B7FF9E
:104C20000C9404260E940426821B930B0895A1E293
:104C30001A2EAA1BBB1BFD010DC0AA1FBB1FEE1F16
:104C4000FF1FA217B307E407F50720F0A21BB30B61
:104C5000E40BF50B661F771F881F991F1A9469F7DD
:104C600060957095809590959B01AC01BD01CF0139
:104C70000895A29FB001B39FC001A39F700D811D35
:104C80001124911DB29F700D811D1124911D089555
:104C90005058BB27AA270E9460260C94DA270E944E
:104CA000CC2738F00E94D32720F039F49F3F19F425
:104CB00026F40C94C9270EF4E095E7FB0C94C32767
:104CC000E92F0E94EB2758F3BA176207730784078E
:104CD000950720F079F4A6F50C940D280EF4E095D4
:104CE0000B2EBA2FA02D0B01B90190010C01CA01A6
:104CF000A0011124FF27591B99F0593F50F4503E51
:104D000068F11A16F040A22F232F342F4427585F42
:104D1000F3CF469537952795A795F0405395C9F75A
:104D20007EF41F16BA0B620B730B840BBAF0915012
:104D3000A1F0FF0FBB1F661F771F881FC2F70EC0B1
:104D4000BA0F621F731F841F48F487957795679584
:104D5000B795F7959E3F08F0B0CF9395880F08F070
:104D60009927EE0F9795879508950E949F2708F43D
:104D700081E008950E94CE260C94DA270E94D32762
:104D800058F00E94CC2740F029F45F3F29F00C94A2
:104D9000C32751110C940E280C94C9270E94EB27AD
:104DA00068F39923B1F3552391F3951B550BBB275A
:104DB000AA2762177307840738F09F5F5F4F220F9F
:104DC000331F441FAA1FA9F335D00E2E3AF0E0E896
:104DD00032D091505040E695001CCAF72BD0FE2FE0
:104DE00029D0660F771F881FBB1F26173707480774
:104DF000AB07B0E809F0BB0B802DBF01FF2793582C
:104E00005F4F3AF09E3F510578F00C94C3270C9405
:104E10000E285F3FE4F3983ED4F386957795679527
:104E2000B795F7959F5FC9F7880F911D9695879560
:104E300097F90895E1E0660F771F881FBB1F62177F
:104E400073078407BA0720F0621B730B840BBA0B3D
:104E5000EE1F88F7E09508950E9433276894B111FA
:104E60000C940E2808950E94F32788F09F5798F01D
:104E7000B92F9927B751B0F0E1F0660F771F881F5F
:104E8000991F1AF0BA95C9F714C0B13091F00E9479
:104E90000D28B1E008950C940D28672F782F8827EE
:104EA000B85F39F0B93FCCF3869577956795B395A0
:104EB000D9F73EF490958095709561957F4F8F4F0F
:104EC0009F4F0895E89409C097FB3EF49095809514
:104ED000709561957F4F8F4F9F4F9923A9F0F92FC0
:104EE00096E9BB279395F695879577956795B7953E
:104EF000F111F8CFFAF4BB0F11F460FF1BC06F5F24
:104F00007F4F8F4F9F4F16C0882311F096E911C035
:104F1000772321F09EE8872F762F05C0662371F056
:104F200096E8862F70E060E02AF09A95660F771F6A
:104F3000881FDAF7880F9695879597F90895990F46
:104F40000008550FAA0BE0E8FEEF16161706E80753
:104F5000F907C0F012161306E407F50798F0621B74
:104F6000730B840B950B39F40A2661F0232B242B49
:104F7000252B21F408950A2609F4A140A6958FEF68
:104F8000811D811D089597F99F6780E870E060E0BA
:104F900008959FEF80EC089500240A9416161706D2
:104FA00018060906089500240A941216130614061A
:104FB00005060895092E0394000C11F4882352F07D
:104FC000BB0F40F4BF2B11F460FF04C06F5F7F4F35
:104FD0008F4F9F4F089557FD9058440F551F59F01C
:104FE0005F3F71F04795880F97FB991F61F09F3FD6
:104FF00079F087950895121613061406551FF2CFFF
:105000004695F1DF08C0161617061806991FF1CF4E
:1050100086957105610508940895E894BB27662775
:105020007727CB0197F908950E949F2708F48FEF07
:1050300008950E942C280C94DA270E94CC2738F07F
:105040000E94D32720F0952311F00C94C3270C94D1
:10505000C92711240C940E280E94EB2770F3959F0A
:10506000C1F3950F50E0551F629FF001729FBB275F
:10507000F00DB11D639FAA27F00DB11DAA1F649FFB
:105080006627B00DA11D661F829F2227B00DA11DAE
:10509000621F739FB00DA11D621F839FA00D611D34
:1050A000221F749F3327A00D611D231F849F600D55
:1050B000211D822F762F6A2F11249F5750409AF07E
:1050C000F1F088234AF0EE0FFF1FBB1F661F771F0A
:1050D000881F91505040A9F79E3F510580F00C94D5
:1050E000C3270C940E285F3FE4F3983ED4F38695D3
:1050F00077956795B795F795E7959F5FC1F7FE2B75
:10510000880F911D9695879597F908950E949F277E
:10511000880B990B0895EE0FFF1F0590F491E02D79
:1051200009940F931F93CF93DF938230910510F46E
:1051300082E090E0E0914205F091430530E020E00C
:10514000B0E0A0E0309799F42115310509F44AC088
:10515000281B390B24303105D8F58A819B816115D4
:10516000710589F1FB0193838283FE0111C04081A7
:1051700051810281138148175907E0F048175907F8
:1051800099F4109761F012960C93129713961C9352
:105190003296CF01DF91CF911F910F910895009327
:1051A000420510934305F4CF2115310551F0421704
:1051B000530738F0A901DB019A01BD01DF01F801B5
:1051C000C1CFEF01F9CF9093430580934205CDCF36
:1051D000FE01E20FF31F819391932250310939832D
:1051E0002883D7CF2091400530914105232B41F4EE
:1051F00020913401309135013093410520934005D1
:1052000020913201309133012115310541F42DB740
:105210003EB74091360150913701241B350BE09188
:105220004005F0914105E217F307A0F42E1B3F0B58
:105230002817390778F0AC014E5F5F4F2417350708
:1052400048F04E0F5F1F50934105409340058193F6
:1052500091939FCFF0E0E0E09CCFCF93DF93009756
:10526000E9F0FC01329713821282A0914205B091BD
:105270004305ED0130E020E01097A1F42081318159
:10528000820F931F2091400530914105281739075F
:1052900009F061C0F0934105E0934005DF91CF91A3
:1052A0000895EA01CE17DF07E8F54A815B819E0188
:1052B00041155105B1F7E901FB83EA834991599101
:1052C000C40FD51FEC17FD0761F480819181029610
:1052D000840F951FE90199838883828193819B8341
:1052E0008A83F0E0E0E012968D919C9113970097ED
:1052F000B9F52D913C911197CD010296820F931F24
:1053000020914005309141052817390739F630972B
:1053100051F51092430510924205B0934105A093B8
:105320004005BCCFD383C28340815181840F951F38
:10533000C817D90761F44E5F5F4F88819981480F84
:10534000591F518340838A819B81938382832115D6
:10535000310509F0B0CFF0934305E09342059ECFAD
:10536000FD01DC01C0CF13821282D7CF81E090E033
:10537000F8940C94C229DC0101C06D934150504057
:10538000E0F7089515E0C3E5D5E004C0FE010E94F2
:0E5390008B282196C435D107C9F7F894FFCFBA
:10539E003B073B07CDCCCC3D050020202020002034
:1053AE0020202000010000004040070605040B0AE3
:1053BE0009083132334134353642373839432A30D1
:1053CE00234400004405800000000000E30743076B
:1053DE0070073008A1077F079307000000006A12CC
:1053EE003D124E158A0536122312141200000000CB
:1053FE00E80C43074E15A210F7098A058D0F650FAD
:10540E00810F750FF50F8A05AE0AD9146709B00919
:10541E00AE0E910E190EBA0D0000000029072D07D1
:10542E0031076E616E00696E66006F7666000D0A5A
:10543E0000526573657400486F6C612045726E652D
:10544E0073746F004269656E76656E69646F0041B4
:10545E00637475616C697A61646F0046756572611B
:10546E002064652072616E676F002A2000312E2045
:10547E0054656E73696F6E00322E20436F727269BF
:10548E00656E746500332E2052616D7061202000B0
:10549E004F46462000542000432000522000456E07
:1054AE00636F20005465632000542E20523A00434F
:1054BE002E20523A004D4F444F2054454E53494FE3
:1054CE004E005265616C3A00446573656164613AE1
:1054DE0020004D4F444F20434F525249454E5445A4
:1054EE00002020443A20005469656D706F2E2044D0
:1054FE003A004D4F444F2052414D50410056616C81
:10550E006F726573204361726761646F7300496ED9
:10551E0076616C69646F730054454E53494F4E3A31
:10552E0020002E00434F525249454E54453A20001A
:10553E004544495441522056414C4F5245533A200E
:10554E0000436F727269656E7465204D41583A2042
:10555E00005449454D504F3A200020730056616C5F
:0C556E006F722041637475616C3A20007C
:00000001FF
